:020000022000DC
:1060000000000120396202009162020093620200E6
:10601000956202009762020099620200000000008F
:106020000000000000000000000000009B62020071
:106030009D620200000000009F620200A162020057
:1060400061880200A7620200A18C0200AB6202001C
:10605000AD620200AF6202001D8B0200B36202005B
:10606000B5620200B7620200B9620200BB620200C0
:10607000BD620200BF620200C1620200C362020090
:10608000C562020019710200C9620200CB620200FF
:10609000B5710200CF62020009B90200D3620200AA
:1060A000D5620200D7620200D9620200DB62020000
:1060B000DD620200DF620200A3620200A36202004E
:1060C000E1620200E3620200E5620200E7620200B0
:0C60D000E9620200EB620200ED620200D7
:1060DC00354936480A1A02D0072291438D46344975
:1060EC0034480A1A06D00722914381F30988022208
:1060FC0082F3148830483149314A00F044F8314871
:10610C003149324A00F03FF831483249324A00F006
:10611C003AF832483249334A00F035F832483349BC
:10612C00334A00F030F833483349344A00F02BF846
:10613C0033483449344A00F026F8344834490022B4
:10614C0000F02CF833483449002200F027F833488B
:10615C003349091A082902DB002202604160314AE6
:10616C0090471F481F49884205D00268043003B489
:10617C00904703BCF7E700208646EC460020002140
:10618C00294A9047FEE7884207D0521A05D0037877
:10619C0001300B700131013AF9D17047884202D0BD
:1061AC0002700130FAE770470000012000E0002087
:1061BC000000012000000120D4D90200D82A0020C0
:1061CC00502B0020F0620200F062020028C702008F
:1061DC00D4D90200D82A0020D82A002080C8020076
:1061EC0080C8020080C8020080C8020080C802007B
:1061FC0080C8020080C8020080C80200D4D9020006
:10620C004CDA0200502B0020502B0020502B002089
:10621C00F03A0020F03A0020F03A0020F03A00204A
:10622C00F05A00205D620200BD9E02000F484FF044
:10623C000701884385460E4880470E48016841F4A3
:10624C0070010160BFF34F8FBFF36F8FFFF740BF3B
:10625C0009480A490A4A884207D0521A05D00378DD
:10626C0001300B700131013AF9D170470000012067
:10627C006582020088ED00E040C80200982A0020E8
:10628C00D82A0020FEE7FEE7FEE7FEE7FEE7FEE782
:10629C00FEE7FEE7FEE7FEE7FEE7FEE7FEE7FEE7CA
:1062AC00FEE7FEE7FEE7FEE7FEE7FEE7FEE7FEE7BA
:1062BC00FEE7FEE7FEE7FEE7FEE7FEE7FEE7FEE7AA
:1062CC00FEE7FEE7FEE7FEE7FEE7FEE7FEE7FEE79A
:1062DC00FEE7FEE7FEE7FEE7FEE7FEE7FEE7FEE78A
:0462EC00FEE700BF0A
:1062F00005F04DBE7047000007B5044B0093044AFB
:10630000402300F032F803B05DF804FB156302008F
:10631000512B00202DE9F84389461446B2B10F4BAA
:106320000F4E0325002743F00108224609EB070121
:10633000002003F065FF0744241A48B933782BB1D5
:106340004FF47A40C047013D02D13570BDE8F88373
:1063500001233370002CE8D1F8E700BF80C80200A9
:10636000502B0020704703F07FBFF0B595B01C465E
:10637000164608460D4601F05AFE1A9B0D93CDE9CC
:10638000086400242346082205A928460A948DF8AB
:106390002C400C9401F087FE079B0293069B03930D
:1063A0009DF814308DF8114003F00302012A1DD12D
:1063B000BDF81440059EC3F3C203C4F383148DF8E3
:1063C0001030A20008230EA9284601F06CFEC6F387
:1063D000952608AB0093224602AB0EA9304600F08A
:1063E000CFFB284601F027FE15B0F0BD022AF8D1F8
:1063F000BDF81640C3F3C203A4098DF81030082776
:10640000082C264628BF08263B4632460EA92846B9
:1064100001F049FEA41B08AB02AA31460EA837447E
:1064200000F012FC002CEBD1DBE7000010B5054CAE
:10643000FFF799FF0421204600F012FB012363724D
:1064400010BD00BFD82A0020037813F0030F03F01B
:10645000040202D012B910467047B2B103F0030330
:10646000012B03D0022B09D0012070470A68008855
:106470000232C0F3831002440A60F5E70B684288D9
:10648000023303EB92130B60EEE70B684288013393
:1064900003EB92130288F4E72DE9F04F87B0002355
:1064A0000446851C0DF107000F4690468DF8073015
:1064B00001F07EF9454806683E60D0E90132134498
:1064C00001339B1B824600F21C4600F5836900F2F3
:1064D0001447AB421BD30022B8F1000F70D0052344
:1064E00063F3070264F38912DAF80010DAF808306F
:1064F0009DF807000B4003330D444AF82320CAF8E7
:10650000005001F079F9012007B0BDE8F08F0121BA
:10651000304601F009FA484601F01CFA384601F00D
:1065200019FADAF80400DAF808B0029000EA0B0071
:1065300003300AEB800002A9FFF786FF029B50BBE5
:106540000BEA03020AEB820203F1020CD268039207
:10655000013303EA0B0B0AEB8B0B02F00302012A57
:10656000CDF808C0DBF80C1022D0022A16D08346E2
:10657000384601F0F2F910B1029BCAF804305946CE
:10658000304601F0D1F9DAE901231344DAF80020AA
:1065900001339B1A9DE70BEA0300C9E7BDF80E30F3
:1065A0009B0903334FEA114B0CEB93030293DFE794
:1065B000BDF80C30C3F383134FEA114B6344F5E786
:1065C000062363F3070264F39F528DE7642C0020D7
:1065D00008B50E4B0E48FF229A600022C3F818241B
:1065E000C3E90022C3F8142483F8202401F0D8FC66
:1065F00038B9084A084B09499B1ADB0802469A42F7
:1066000000D108BD21F822200132F8E7642C0020D7
:1066100000C8020080C7020000C80200982A0020BB
:1066200030B50A4C71B10A4A0A49121BD20800233C
:106630009A4201D1002030BD31F82350854202D06A
:106640000133F5E7034654F83300F4E780C702004E
:1066500000C802009A2A0020094B013903EBC00050
:10666000032909D8DFE801F00A0204060420704774
:1066700000797047407970470020704702207047CA
:1066800080C70200034BD3E90030C31A5842584177
:10669000704700BF642C00202DE9F04786B0FFF75B
:1066A000F1FF0646002840F0F3807A4DC5F8180443
:1066B000BFF34F8F6868AC6802902040033005EB51
:1066C000800002A9FFF7C0FE029B074600285FD1A9
:1066D00004EA0302991C013305EB8202234005EB17
:1066E0008303D268DB68049302F00303022B039256
:1066F000029162D1BDF80E3067484FEA9319B9F1A3
:10670000500FCA4628BF4FF0500A6AF38F130AF1A0
:106710000801ADF80E3001F05BFC8046002800F067
:10672000A58001F084FC03A93B460822404601F005
:1067300091FC029924EA01060136B600B24535D92A
:106740005FFA8AFA7EB3F6B2AAEB060A2140033159
:106750005FFA8AF4B246514E05EB81010823524696
:10676000404601F077FC36B10AF108032246314673
:10677000404601F06FFC029B09F1030903EB99030A
:106780000293D5F81834002B4AD1D5F8104458E0BC
:106790002A689A4204D86A60304606B0BDE8F0879D
:1067A00004EA03008AE73D493446D7E72140033134
:1067B0000823524605EB8101DAE7012B56D1BDF8DB
:1067C0000C303548C3F38311062928BF062161F335
:1067D000891302318900ADF80C3001F0F9FB8046D5
:1067E000002843D001F023FC3B46082203A9404681
:1067F00001F030FCBDF80C20C2F38312BB009742BD
:1068000003F10803BDD202994A1C214003310292D0
:1068100005EB81010422404601F01CFC0137E9E749
:10682000404601F008FCFFF72DFF80F00100C6B2E2
:10683000B2E7637A23B1236841461B682046984734
:106840006468002CF5D1404601F0F5FB0DF107001E
:106850008DF8074000F0ACFFD5F818340BB9029B57
:106860006B609DF8070000F0C7FFDCE7D5F8104427
:1068700044B90B4B0B491888000440F0020000F0AB
:106880006BF8D0E7236820469B6898476468EFE779
:10689000002681E7642C002000C80200702C002034
:1068A000AC2A002094C802002DE9F74F284C8046FE
:1068B0000F46924601A9012218469B46D4F808903B
:1068C000FFF7EAFD80B3019D0026A91C5E4506EB9B
:1068D000010233D100211F4800F0FBFF80F31000BC
:1068E0006A1C02EA090204EB8202000405EA0903B9
:1068F000033340EA1840D06014F8232068F3C5023F
:1069000004F8232034F8232066F3891224F8232086
:1069100054F8232067F39F2244F8232002F0F80262
:1069200042F0010204F8232094F820341BB1FFF751
:10693000B3FE0028FBD103B0BDE8F08F09EA0202E4
:1069400004EB82025AF82630D3600136BEE700BF5E
:10695000642C00208030002000231A46FFF7A4BFDB
:1069600007B50123019201AAFFF79EFF03B05DF86E
:1069700004FB07B5CDE9002302236A46FFF794FF25
:1069800003B05DF804FB1FB5CDE90123069B03931B
:1069900001AA0323FFF788FF05B05DF804FB0000A0
:1069A0002DE9F34780462C4CD01C8A46174601A996
:1069B00000228008A568FFF76FFDC8B3DDF80490DA
:1069C000A66809F10200019001362840361AB60087
:1069D0000330B74204EB800034D83A46514605F004
:1069E00026FA00211D4800F074FF80F3100009F121
:1069F00001032B4004EB83034FEA184242EA0042B2
:106A0000DA6005EA0903033304EB830214F8231068
:106A100068F3C50104F82310518867F38F11518082
:106A200034F8232002F0380242F0020224F8232036
:106A300094F820341BB1FFF72FFE0028FBD102B0E1
:106A4000BDE8F0873246514605F0F1F9BA1B0AEB72
:106A5000060104F10C00C2E7642C00208030002005
:106A60000F4A30B5D2F810440023214641B90372D1
:106A7000D2F810444CB9C2F810044160184630BD39
:106A80000D7A9D4205D04968F0E762684260606017
:106A9000F4E701330A2BE8D14FF0FF33EEE700BFF4
:106AA000642C0020084A38B50123D2F8104482F83B
:106AB00020341D4604B938BD2368657220465B68E2
:106AC00098476468F6E700BF642C0020037A052B22
:106AD00010B50C460FD0437A23B1084A0849204626
:106AE00000F09EFF0749204600F09AFF2046BDE8CF
:106AF000104000F08ABF002AF8D0F3E7EFC8020088
:106B0000F4C802003CD00200C38873B504460D46A9
:106B100033B1144A00921449144A284600F080FF09
:106B2000217A05291CD0637A4BB1A088FFF794FD28
:106B30000F4B104953F82020284600F071FF227AAD
:106B40000D4BA08853F822600021FFF769FD0B4927
:106B500003463246284602B0BDE8704000F060BFF0
:106B600002B070BDEFC80200FFC80200F7C8020003
:106B7000BCC80200F4C8020024C9020017C9020000
:106B80002DE9F04385B01F460C9D002306460C46B8
:106B9000904695F80C902B7329463846FFF7B4FFC2
:106BA000B8F1060F09D8DFE808F00412181F2833DF
:106BB00040003146284600F033FF0022294638467F
:106BC000FFF784FF85F80C9005B0BDE8F0832268DC
:106BD0003146284600F024FFEFE7D4E90023314690
:106BE000284600F01DFFE8E7A36800933146D4E98A
:106BF0000023284600F014FFDFE7E3680193A36851
:106C000000933146D4E90023284600F009FFD4E779
:106C100023690293E3680193A36800933146D4E9A2
:106C20000023284600F0FCFEC7E76369039323694D
:106C30000293E3680193A36800933146D4E90023EB
:106C4000284600F0EDFEB8E708292DE9F84F804608
:106C50000E4617461C4636D8002593F80C901D7337
:106C600019461046FFF750FFDFF87CA0DFF87CB034
:106C7000AE422AD918F805205946204600F0D0FE29
:106C80000135082DF4D11649DFF864B0204600F034
:106C9000C7FE0025AE421DD918F805A0504605F0E4
:106CA0008FF8002814BF52462E225946204600F085
:106CB000B7FE0135082DEDD1012221463846FFF7F8
:106CC00005FF84F80C90BDE8F88F5146204600F08F
:106CD000A7FED5E70349204600F0A2FEE9E700BF82
:106CE000EAC80200E8C80200E6C80200E0C80200E4
:106CF000ECC802002DE9F04F394E87B04FF0000983
:106D0000384B1B785FFA89F5AB4202D807B0BDE873
:106D1000F08F354BD3F800A01AF835000124D6E9DE
:106D2000001EA0F12002C0F1200304FA02F224FAAE
:106D300003F3134304FA00FC009301EA0C030293EB
:106D4000009B0EEA03030393DDE9022313430AEBDE
:106D5000C50B41D0009B21EA0C012EEA0303C6E9D2
:106D6000001301F0D1FE1AF835502049A5F1200298
:106D7000C5F1200304FA02F224FA03F31343D1E924
:106D800000C2AC40134004EA0C0105930024C3B2D6
:106D9000CDE90034009A0491C5F12003A5F120014A
:106DA00022FA03F302FA01F848EA03081346AB405B
:106DB0001F46DDE90434444508BFBB420CD1DBF873
:106DC00004304BB19BF801104A1E51425141081A40
:106DD000414241412846984709F1010990E700BF27
:106DE000B830002088300020C0300020B0300020B3
:106DF0002DE9F0418046204800F0BEFBD0BB0125C4
:106E0000A8F12004C8F1200325FA03F305FA04F4DD
:106E10001C431A4BD3E9001205FA08F501EA0506EE
:106E200002EA040756EA07001E461DD1404601F05B
:106E30006BFE134BD3E9001288B129432243C3E907
:106E40000012D6E900231C430E4B0B48196815436A
:106E5000C6E900540022BDE8F04100F047BB21EA3A
:106E6000050122EA0402EAE721EA050522EA040410
:106E7000C3E90054BDE8F08190300020B830002014
:106E8000B03000208C300020042A2DE9F341054663
:106E90000C4616463AD901F073FDD8B11C4B1D497A
:106EA0001D601D4BDFF884801C701C4B00221E608F
:106EB0000023C1E900231A49C1E90023013CE4B2DF
:106EC00000260327FF2C0CD1164A1748002100F09A
:106ED000FBFA03E001F01AFD0028DFD002B0BDE8A4
:106EE000F08123B205EBC30201A992788DF8052049
:106EF00015F833008DF8066042468DF8047001F0F5
:106F000049FD013CE4B20028DCD0E7E70720E5E7D3
:106F1000C0300020B0300020883000208C300020AD
:106F2000B8300020F56C020084C90200F16D020047
:106F300070B5084D084E00242B789C4201D30020E8
:106F400070BD3368012113F8340001F097FD01345E
:106F5000F2E700BF88300020C03000201FB50021BC
:106F6000039001AA44F20100CDE9011100F004F8F8
:106F700005B05DF804FB000010B572B6FFF792FD96
:106F8000FFF78AFB0028FBD1104C11492088000430
:106F900040F00100FFF7E0FC0E4B1B68DB0700D55B
:106FA00000BE20880C49000440F00200FFF7D4FC2A
:106FB000BFF34F8F09490A4BCA6802F4E0621343DA
:106FC000CB60BFF34F8F00BFFDE700BFAC2A0020AE
:106FD00088C90200F0ED00E094C9020000ED00E075
:106FE0000400FA0549B152B1531E1A4007D182601C
:106FF00001608380C260104670470E2070470920F0
:10700000704710B58468C2688388121B934208D306
:10701000C26813400268D154C3680133C3600020C2
:1070200010BD0420FCE78268C3689A420AD08268D7
:10703000838813400268D35C0B70836801338360DC
:107040000020704705207047094A53789178013332
:10705000DBB2994208BF0023117899421FBF037029
:107060005078182303FB002014BF04300020704721
:10707000C430002073B5054600240DF107000E460C
:107080008DF8074000F094FB0DF10600FFF7DCFFE0
:1070900090B10670094B9DF8062045605A709DF826
:1070A000070000F0A9FB24B9054B4FF48012C3F888
:1070B0000021204602B070BD0424F0E7C430002057
:1070C00000E100E0024B4FF43C6043F0010318473D
:1070D000B0C9020038B50C4B0C4C4FF40032C3F869
:1070E000802001254FF48033C4F84833C4F80833B6
:1070F0006560FFF7E7FF064BA56000241C60FFF703
:10710000E1FF044B1C7038BD00E100E000100140BD
:10711000E0310020D1310020F8B51F4B1F491B681A
:107120000025C1F84051C1F84451C1F84851C1F897
:107130004C51C1F80051C1F804514BB3D1F804458A
:1071400017490968641A24F07F442F461A68A2423E
:1071500009D8A41A15441A7CDE691AB11F74D3E940
:1071600005209047AEB90F4A0F4B11781B788B4220
:1071700005D10133DBB2022B08BF00231370127854
:107180000A4B43F822500A4B4FF48012C3F80021F7
:10719000F8BD3346DAE700BFE431002000100140BB
:1071A000E0310020DD310020DC310020D43100202E
:1071B00000E100E02DE9F04FA04AA14913780978D9
:1071C000A04D994285B03CD00133DBB2022B08BF01
:1071D000002313709C4912789C4B0F6853F82200CF
:1071E0003B1823F07F4300220B602B6816461446A1
:1071F000944613B942B12B6006E0196881420ED95A
:1072000002B12B60091A19604FF001082B68DFF8F2
:1072100044A201930027BEB9DFF840B266E0401AED
:107220000C44D968C3F800C0D3F81CE031B13A1956
:1072300022F07F42C3E90121DE611E46012273462E
:10724000D7E70026B046E1E73446F6697E4A636830
:107250001268DFF80CC2A068991A21F07F416145DD
:1072600000F2A58001442160012222742A680023D3
:10727000C4E90133E361002A40F0A2802C60CAE730
:107280005A1C9BF80210D2B291428BF8002004BF26
:1072900000228BF80020182202FB03B31A799C68A5
:1072A000022A1CD0032A12D0012A1FD1207CE8B95F
:1072B000D3E90312A2605A69E2609A69644BA26141
:1072C0001B78002B0CBF0B4603466360BEE7002211
:1072D0002B681146002B66D142B12B6006E029686D
:1072E0000A468946002A59D1002323749BF80030AE
:1072F0009BF801209A42C3D12B682FB9019A9A4278
:1073000002D1B8F1000F43D0002B73D0D3F800A006
:10731000504D4D4BD5F804751C68DFF848813E1B75
:1073200098F8003026F07F4603369BB94FF480333F
:10733000C5F84433C5F80433474B4FF400324FF0DF
:107340000109C3F880211A60C5F80090FFF7BAFE62
:1073500088F80090B2452CBF5444A41924F07F440F
:10736000C5F84045D5F80435DB1B23F07F43E41B0B
:10737000033324F07F44A3420AD9D5F80435C5F875
:107380004035FFF79FFE344B4FF40032C3F8002125
:107390002F4B00221A7005B0BDE8F08F94422CD01C
:1073A0009146D2699EE719740122DB6992E7D31AEC
:1073B00023F07F43834234BFC31A0023236053E783
:1073C00021681368994213D8591A1160E26155E790
:1073D000091AD8691A4638B1034618688842F7D3A3
:1073E000401A1860184613462160E061DC6112E71C
:1073F0001346F2E7FFF76EFECAE74C4511D1CB69A1
:107400002B6073B9DFF840E00120CDE90212CAF821
:107410000800CEF800300E4B1870FFF753FEDDE980
:1074200002121368D269C9F81C2012B11068034413
:1074300013602B68994218BF012755E7DC31002003
:10744000DD310020E4310020E0310020D431002083
:10745000D03100200010014000E100E0C4300020E5
:10746000FEFF7F00D131002008B5FFF733FE104B3F
:1074700000200B2218809A700E4B18600E4B18706B
:107480000E4B18700E4B4FF48012E021C3F8802190
:1074900083F814131A6002F18042A2F56F22C2F839
:1074A000080583F81113074BD2F804251A6008BDAC
:1074B000C4300020E4310020DC310020DD31002028
:1074C00000E100E0E0310020074B9B784BB132B186
:1074D00028B10368187C20B959745A617047072095
:1074E00070470820704700BFC43000202DE9F743E3
:1074F0001E4FBB7805460E469046A3B398B30429A9
:107500002FD943697BB3437C0024012B0DF1070085
:107510000CBF8946A1468DF8074000F049F90DF1EE
:107520000600FFF791FDD0B101230370104B4560B9
:10753000D3F80435C0E90498C0E902369DF8063056
:107540007B709DF8070000F057F924B9094B4FF400
:107550008012C3F80021204603B0BDE8F083042464
:10756000EFE70724F7E70824F5E700BFC430002061
:107570000010014000E100E0064A92783AB130B1D3
:10758000426922B1002202740221FFF773BD082074
:10759000704700BFC43000200648074A03780749F7
:1075A000D35C012213B1043001F0C2BF0C3001F0F2
:1075B000A1BD00BFE42A0020683200201032002064
:1075C0000648074A03780749D35C012213B1043007
:1075D00001F05EBF0C3001F037BD00BFE42A00208F
:1075E000683200201132002037B50578012D05D012
:1075F000002D30D0022D23D003B030BD43681C4C89
:1076000019782046FFF7FDFC78B18DF80050019005
:10761000184B68461B689847A168E368A2885B1A04
:107620009A4209D3FFF7B8FFE6E7A268E3689A42F7
:10763000F2D08DF80000EBE70F4B01221A70DBE768
:10764000C3688DF800500193FFF7A6FF094B684609
:107650001B689847D0E709490948FFF7E4FC10B9CF
:10766000FFF7AEFFC8E703238DF80030EEE700BF59
:10767000EC310020E8310020FC31002011320020E4
:1076800000320020F0B51F46234B89B006461A6031
:107690000C4600293DD08A8820480968FFF7A2FCE3
:1076A000002834D1A289A1681D48FFF79BFC00285F
:1076B0002DD11C4D0FCD6C460FC495E80F0084E80A
:1076C0000F0073690693337C174A18488DF81C70B5
:1076D000003318BF01238DF81430737C002B14BFC6
:1076E0000E2300238DF81530F3680293B3680393DB
:1076F0003368019369467368009301F03DF830B92F
:107700000B4B18703368013301D0FFF745FF09B008
:10771000F0BD0720FBE700BFE8310020EC3100207E
:1077200000320020B8C90200E9750200E42A0020F6
:10773000FC31002070B5084C014608482678FFF758
:1077400072FC054636B100232370FFF725FF08B110
:10775000FFF704FC284670BDFC310020EC3100200E
:1077600010B501460E48FFF74CFC0446A8B90D4879
:107770000D4A0378D35C63B1043001F0CDFE60B9EB
:107780000A490748FFF74FFC38B9BDE81040FFF73A
:1077900017BF0C3001F0A2FCF1E7204610BD00BF7E
:1077A00000320020E42A002068320020113200203C
:1077B00070B5EFF3108672B60C4A946801239CB939
:1077C00093600B4B0B4DD3F8801029401160C3F828
:1077D0008050D3F8841051604FF0FF32C3F88420FA
:1077E000047006B962B670BD0370FAE71432002067
:1077F00000E100E0FC06FFBD084B9A6810B55AB1E5
:1078000050B9EFF3108172B6054A1C6814605C68C9
:107810005460986001B962B610BD00BF14320020F8
:1078200000E100E037B550E8023F1FFAA3F5C48835
:10783000A54202BFBFF32F8F00220DE0C48925446B
:107840008489A54228BF2D1BC3EA054540E80254A0
:10785000002CE8D14FF001028DF803200193019B29
:107860009DF803200B6002F0FF0322B14B880068F3
:10787000184403B030BD1846FBE70A884B889A428B
:1078800009D150E8022FC2EA224240E80223002B2D
:10789000F7D1012070470020704701F01F024B090B
:1078A0000121914000EB830000F01DB801F01F039F
:1078B00001229A404B0900EB8300D14300F029B824
:1078C0004B0901F01F0150F82300C84000F00100EF
:1078D000704750E8002F0B4640E8003C9CF0000F3A
:1078E000F7D11046704750E8003F43EA010240E8F4
:1078F000002C9CF0000FF6D11046704750E8002F86
:1079000002EA010340E8003C9CF0000FF6D110466B
:10791000704750E8003F03EA010240E8002C9CF069
:10792000000FF6D11046704750E8003F03EB01020C
:1079300040E8002C9CF0000FF6D11046704750E84C
:10794000003FA3EB010240E8002C9CF0000FF6D1B1
:10795000104670470121FFF7C6BF0021FFF7CEBFD9
:1079600010B590B1D0E9012301689B1ADBB20A601F
:10797000013BDBB2FF2B026802D10020107110BD69
:1079800011684C1C14600B70F2E70E20F7E737B556
:10799000054600240DF107008DF80740FFF708FFAA
:1079A0002A686B68116899420ED9481E106011F858
:1079B000014CEB68A98A01FB0434AB6811791B1AEE
:1079C000DBB2994238BF13719DF80700FFF714FF2F
:1079D000204603B030BD37B5054600230DF1070042
:1079E0000C468DF80730FFF7E3FE2A681368591C30
:1079F0001160E968641AA98AB4FBF1F41C709DF85F
:107A00000700FFF7F9FE03B030BD826810B50446E9
:107A10002AB143690168006998470023A36010BD3B
:107A20000EB403B5039921B104AB01AA019300F090
:107A30006DF802B05DF804EB03B07047826830B4B3
:107A40000468551C8560A154D0E901329A4202D3E2
:107A500030BCFFF7DABF30BC704700002DE9F84FAB
:107A60009946DDE90A431746824688460A460126BA
:107A7000BA420FD24E4538BF4E4613F0010B01D12A
:107A800064B900240125B9F1010F1AD909F1FF39B0
:107A90007D43F8E7B2FBF7F20136E9E79B070ED525
:107AA000B9F1000F0CBF30252025A642EAD2013CD7
:107AB00029465046FFF7C2FF002CF6D1E1E720250A
:107AC000F3E7B8FBF5F39F42E2D9DFF83C90B8FB4F
:107AD000F5F3504619F8031005FB1388FFF7AEFFC6
:107AE000B5FBF7F3BD4207D2BBF1000F02D00CB1DA
:107AF000A64203D3BDE8F88F1D46E8E72021504693
:107B0000013CFFF79BFFF2E7D8C902002DE9F74FD0
:107B1000054617468846002900F0318118F8011BF8
:107B200049B92B7B002B00F02A81284603B0BDE821
:107B3000F04FFFF76ABF252940F0C080002698F873
:107B400000302D2B424608F1010823D0302B24D0E1
:107B50002B2B25D000242A2B02F1010123D13B68D5
:107B60001A1D1B683A601C440A4613782E2B26D136
:107B700001324FF0000A104610F8011BA1F1300C41
:107B8000BCF1090F1DD80A2303FB0A13A3F1300A25
:107B90000246F0E746F00106D1E746F00206CEE7DE
:107BA00046F00406CBE711F8013CA3F130000928A8
:107BB000DBD80A2202FB0434303C0A46CBE74FF004
:107BC000000A12F8011B01F0FB0068289046F8D06B
:107BD00069290ED04AD8582964D006D825296DD0F5
:107BE00098F80030002B99D19BE7632962D0642973
:107BF000F6D13A68D2F80090111D89EAE97239602D
:107C0000A2EBE9724FF0010B092A5BDCD34538BFC8
:107C1000D3462CB1B9F1000F01DB710700D5013C4F
:107C2000B20702D5BAF1000F04D0F30702D4002C3A
:107C30004ED10024B9F1000F52DAC9F100092D210B
:107C40002846FFF7FBFE06F00302022A05D1BAF12F
:107C5000000F02D1002C47D10024CDE90046534645
:107C60000A2249462846FFF7F9FEB9E773294CD0A6
:107C700014D87029B4D13B681A1D3A6030212846C7
:107C80001C68FFF7DBFE78212846FFF7D7FE0022AD
:107C90000823CDE9003221461022E3E775292BD0D5
:107CA00078299DD139680A1D3A60CDE900465346CE
:107CB000102228E03B681A1D19783A602846FFF721
:107CC000BDFE8DE70A230BF1010BB2FBF3F29BE73C
:107CD000A345AFD220212846013CFFF7AFFEA6E71F
:107CE0007007B0D52B21ABE7A345B6D2302128468B
:107CF000013CFFF7A3FEADE73968CDE900460A1D58
:107D00003A6053460A220968ACE73B681A1D3A609C
:107D1000F107D3F8009020D4B9F1000F25D04846E0
:107D200004F003F90646B44200D9C4B909F1FF3999
:107D300020E028460136FFF781FE19F806100029D9
:107D4000F7D1A642BFF44CAF002C3FF449AF20213D
:107D50002846013CFFF772FEF3E70026EDE72021FD
:107D60002846013CFFF76AFEDDE74E46DBE7284682
:107D7000FFF764FE19F8011F0029F8D130E703B0BE
:107D8000BDE8F08F70B508B10368ABB90C4D0D4C70
:107D90000026641B1423B4FBF3F4B44201D1002089
:107DA00009E02B6813B901361435F6E7DB6928467C
:107DB00098470028F7D070BDDB69BDE870401847D0
:107DC000D82A0020D82A002029DF704728DF7047F2
:107DD00070B503689D6886B004460E466DB11422E6
:107DE0000021684604F04CF8A368059323790196B6
:107DF0002BB1012B0DD06846A84706B070BD0123FA
:107E00008DF8003023690293E36803936369049358
:107E1000F1E702238DF80030E3681B030293F5E7D6
:107E2000034B187A0122B0FA80F05A744009704767
:107E30002032002070B5244D244E2B7A2C463BB9BD
:107E400023492448FFF7EEFC306008B9686070BD34
:107E50000223237233681A7972B1012A24D018469A
:107E60000321FFF7B5FF0023237263601849194807
:107E7000BDE87040FFF701BDD3E90520121AB2F545
:107E8000805F28BF4FF48052D3E903159208012A7E
:107E9000014438BF01222844FFF796FF50B1112852
:107EA000DDD101232372D2E7D3E903021044FFF7A7
:107EB0008DFFF3E7237C002BC9D10146BDE870405C
:107EC000022000F009B800BF203200203832002024
:107ED00034320020F82A002038B5831E012B45D803
:107EE000234C237A002B41D0022B09D1032830D018
:107EF000204B1B680022E2601A793AB1012A22D095
:107F0000637C7BBBBDE83840FFF794BFD3E9051223
:107F10008D1AB5F5805F94BF521902F580529A61AF
:107F20009142EDD102284FF0000308BF1946237299
:107F3000104B18BF0D211868FFF74AFF0E490F4874
:107F4000FFF79BFCDCE71A6901321A615B699A4210
:107F5000E7E7E3680133082B01D8E360D0E70023AB
:107F6000E360DFE7BDE8384003F0A4BC38BD00BFE4
:107F7000203200203832002034320020F82A00203D
:107F800000F0FD03012B08D1044B00225A74421E5D
:107F9000504250411874FFF74DBF70472032002007
:107FA000FFF7DEBCF8B546790146721E0546002390
:107FB00093422D6803D30024A64202D8F8BD0133B2
:107FC000F6E70F682846FFF706FD01343946F3E768
:107FD0002DE9F843868ACD1C0746FFF7D8FC043EFE
:107FE00035440446B5FBF6F5F0B14FF48073EDB2BD
:107FF0008380C680013D076081464FF00008A84598
:1080000012D23846FFF7C3FC064648B16379013304
:10801000637108F10108C9F8000007608146EEE7C6
:108020002046FFF7BFFF34462046BDE8F883012114
:108030000430FFF779BC10B5012104460430FFF786
:108040007EFC10F0FF0F04D12046BDE81040FFF782
:10805000A9BF10BD2DE9F843C7880546181D8846FD
:10806000B0FBF7F4164607FB14003CB9A7EB000978
:10807000B14528BFB14626B9BDE8F8832D68013C5B
:10808000F3E70430A6EB09064A4608EB040128444E
:1080900003F0CDFEB7424C442D68B9464FF00000C6
:1080A00028BFB146E7E72DE9F843C7888846191D80
:1080B0000546B1FBF7F4164607FB14113CB9A7EBD4
:1080C0000109B14528BFB14626B9BDE8F8832D683E
:1080D000013CF3E704312944A6EB09064A4608EBC4
:1080E000040003F0A4FEB7424C442D68B9464FF09B
:1080F000000128BFB146E7E741DF7047064B10B5E6
:1081000000241C70054B1C60BFF35F8F04490548B9
:1081100000F030F8204610BD4432002048320020E4
:1081200004CA02003C32002007B500230DF107000D
:108130008DF80730FFF73CFBF1EE103A23F09F0378
:10814000E1EE103ABFF35F8F094B4022C3F8842160
:108150009DF80700FFF750FB03F0BCFB20B1FFF7D1
:10816000CBFF03B05DF804FB20BF40BF20BFF8E7A2
:1081700000E100E00B684A684360934208BF0023B7
:10818000016008BF43607047436843B1026891686B
:1081900052680B449342436004BF0023436070471E
:1081A00010B50D49A1F59472914201D800200FE05D
:1081B0008B1ADB1003EBD3735B1002EBC30452F892
:1081C0003330834205D802D204F10802ECE760683C
:1081D00010BD2146E8E700BF54CB020008B5FFF709
:1081E000DFFF024B002808BF184608BD19CA02006D
:1081F0000C4B1B78062B10D10B4B1B681A070CD1AC
:108200000A4B186800F0F003302B08D000F0E000B3
:10821000A0F14003584258417047002070470120A8
:10822000704700BFE00F00F0E40F00F0E80F00F02F
:10823000094B1B78062B0CD1084B1B681A0708D179
:10824000074B186800F0F000A0F130035842584185
:1082500070470020704700BFE00F00F0E40F00F00F
:10826000E80F00F008B5FFF7C3FF28B17D4B7E4A49
:108270001B68C3F304231360FFF7DAFF10B17B4BD5
:108280007B4A1A60FFF7B4FF28B17A4B7A4A1B6821
:10829000C3F342331360FFF7CBFF20B1774AD368B3
:1082A00023F08073D360FFF7A3FF40B14FF080430A
:1082B0000022C3F80C21C3F81021C3F83825FFF7BA
:1082C000B7FF10B16E4B03221A60FFF7B1FF40B148
:1082D0006C4B05221A6001229A6700229A603F22A5
:1082E0005A60694B1B78062B50D1684B1B681907E5
:1082F0004CD1674B1B6803F0F003502B46D14FF075
:108300008052644BD2F80414C3F82015D2F8081434
:10831000C3F82415D2F80C14C3F82815D2F8101499
:10832000C3F82C15D2F81414C3F83015D2F8181469
:10833000C3F83415D2F81C14C3F84015D2F8201431
:10834000C3F84415D2F82414C3F84815D2F82814F9
:10835000C3F84C15D2F82C14C3F85015D2F83014C9
:10836000C3F85415D2F83414C3F86015D2F8381491
:10837000C3F86415D2F83C14C3F86815D2F8401459
:10838000C3F86C15D2F84424C3F87025FFF730FF0A
:1083900028B1414B414A1B6803F04F031360FFF7BC
:1083A00027FF48B14FF08043D3F80024D20744BFE1
:1083B0006FF00102C3F80024394B1B68062B08D16B
:1083C000384B1B68062B01BF374A136843F48063A0
:1083D0001360364AD2F8883043F47003C2F888300C
:1083E000BFF34F8FBFF36F8F4FF01023D3F80022EE
:1083F000002A03DBD3F80432002B2FDA2C4B0122A6
:10840000C3F80425D3F80024002AFBD04FF0102233
:108410001521C2F80012D3F80024002AFBD04FF037
:1084200010231522C3F80422214B1A46D3F8001456
:108430000029FBD00021C3F80415D2F80034002B2A
:10844000FBD0BFF34F8F19491A4BCA6802F4E062A0
:108450001343CB60BFF34F8F00BFFDE7164B174AA6
:108460001A6008BD240300104035014074C0074065
:108470000DF0ADBA440200103C050040F0ED00E004
:10848000A005004010560040E00F00F0E40F00F09F
:10849000E80F00F000C0004058020010E40E004059
:1084A00030010010340100103C17004000ED00E0E6
:1084B00000E001400400FA050C2B00200090D003DE
:1084C000054A4FF0A043105CD3F8043523FA00F0BE
:1084D000C04300F00100704712CF0200044B1A5C49
:1084E000012393404FF0A042C2F80C35704700BF03
:1084F00012CF0200044B1A5C012393404FF0A042BC
:10850000C2F80835704700BF12CF020008B500203E
:10851000FFF7F0FF0120FFF7EDFF0220FFF7EAFF72
:108520000320BDE80840FFF7E5BF08B50020FFF7CE
:10853000D5FF0120FFF7D2FF0220FFF7CFFF032076
:10854000BDE80840FFF7CABF074A4FF0A041105CE2
:10855000D1F804350122824022EA03001340C1F819
:108560000805C1F80C35704712CF0200054A4FF0DC
:10857000A043105CD3F8103523FA00F0C04300F09C
:10858000010070470ECF02000D2809D00E2809D037
:108590000F2809D010280CBF03204FF0FF30704780
:1085A000002070470120704702207047014B185C83
:1085B000704700BF0ECF0200C20708B501460CD5B8
:1085C0004FF0A0430322C3F84427C3F84827C3F859
:1085D0004C27C3F85027FFF799FF8B070AD54FF0B8
:1085E000A0430C22C3F83427C3F83827C3F83C272C
:1085F000C3F8402708BD000038B5074C051E04F13C
:10860000080318BF1C4623682BB11A6822605B68F8
:1086100028469847F7E738BD5432002020B9054B6B
:1086200001225A70FFF7E8BF012802D1014A907079
:10863000F8E770474C32002020B9034B01225A70F2
:10864000FFF7DABF704700BF4C32002038B50B4C43
:10865000237883B90A486360A3602361E36000F074
:10866000D3F8054603F036F908B900F0D9F801232C
:108670002370284638BD8525FBE700BF4C3200201B
:108680001D86020037B50B4C00230DF107008DF855
:108690000730FFF78DF8E368013BE360E56815B943
:1086A00000F0D2F8A5709DF80700FFF7A5F803B019
:1086B00030BD00BF4C320020012813B509D018B1DD
:1086C00003281CD002B010BD0F4B0122C3F880203C
:1086D000F8E70E4C00230DF107008DF80730FFF787
:1086E00067F823780BB9FFF7B1FFE3689DF807003F
:1086F0000133E3600123A370FFF77EF8E2E700F0A7
:108700008FF8FFF7BFFFDDE700E100E04C3200200B
:108710001FB503788DF8003043680193037A8DF814
:108720000830C3680393054A054B684653F8213067
:1087300052F82110984705B05DF804FB6032002024
:10874000643200201FB503788DF800304368019330
:1087500083688DF80830C3680393054A054B684663
:1087600053F8213052F82110984705B05DF804FB0A
:108770006032002064320020F0B5194B067891F881
:108780001DE043F82620174B94460A6943F826203B
:10879000154B03F806E00C4607460FCC89B06D4632
:1087A0000FC594E80F0085E80F000496BEF1000F96
:1087B0000AD0BCF1000F0D4A694608BF0022381DDF
:1087C00000F09EFD09B0F0BDBCF1000F084A6946FB
:1087D00008BF002207F10C0000F076FBF2E700BFB3
:1087E00064320020603200206832002011870200CD
:1087F0004587020000F18040002382B003600368D7
:108800000193019B02B07047044A137923B90121F7
:108810001060918018467047852070476C320020A8
:10882000084B1A68D20706D4E02283F800230122FD
:10883000C3F880211A604FF080430122C3F8182545
:10884000704700BF00E100E0044B01221A604FF0C6
:108850008042D2F81834DB03FBD470470C00004090
:10886000124B1B6810B573B14FF48070FFF7C2FF55
:108870004FF080430122C3F808230D4B587910B9FB
:108880005A711B6898470B4B1B6873B14FF4827089
:10889000FFF7B0FF4FF080430222C3F80823044BD8
:1088A00001201B68BDE81040184710BD00010040C2
:1088B0006C3200200401004000F1804000F5C0400F
:1088C000002382B0036003680193019B02B07047EC
:1088D000800000F1A040D0F8003723F44033C0F806
:1088E0000037D0F8003743EA0141C0F8001770475D
:1088F000054B4FF0FF32072843F8202084BF1B1898
:1089000083F84820704700BF7432002010B5184C1F
:1089100094F8583053BB04F130032021FF22013971
:1089200011F0FF0103F8012BF9D1C8B2FFF7E0FF06
:1089300001310C29F9D1042200210E4803F0A0FADC
:108940000D4BE02283F806234022C3F880214FF428
:10895000BE701A60FFF7B0FF084B4FF00042C3F83B
:108960000423012384F85830002010BD0820FCE7C0
:1089700074320020C832002000E100E000600040B6
:10898000034B93F85800003018BF0120704700BF18
:1089900074320020F0B5374B1C1894F93040002C8D
:1089A0001C4664DA8D78C5F34005002D0BBF082303
:1089B00000230C260826B34201D10420F0BD54F850
:1089C000237001373FD1261844F8232086F8303031
:1089D00015B9E21882F848008A78550713D4D607EB
:1089E00033D5820002F1A042D2F8005725F00205EB
:1089F000C2F80057204EC50800F007070122BA4010
:108A0000775D3A4372558A780D7812F0020225D0CC
:108A10009B0003F1804303F5C0430202D3F8101515
:108A200021F4473121F44071C3F810152D04D3F817
:108A3000101502F4F85205F440352A430A43C3F8EE
:108A400010250020BAE70133B5E74D7800F5E07254
:108A50004FF0A046AD0046F82250CBE7083B234438
:108A600093F8501041EA851583F85050E9E7082043
:108A7000A4E700BF74320020C832002038B5204C73
:108A8000251895F93020072A18DD224492F848303D
:108A90009B09032B0DD14FF0A043D3F81035C340F1
:108AA00013F0010F0CBF02210321BDE83840FFF78E
:108AB0000FBF012B14BF03210221F6E7D3B2072B0E
:108AC0001CD8930003F1804303F5C043D3F810058D
:108AD00040F00100C3F8100502F14000800080B2B0
:108AE000FFF7EAFE51B195F9303054F823302BB13D
:108AF000012303FA02F2034BC3F8042338BD00BF7D
:108B000074320020006000404FF0A043D3F81035CD
:108B100023FA00F000F00100704700002DE9F04F4B
:108B200085B000245A4D01944FF48072012102F166
:108B3000804303F5C04390B21B68012B06D1D5F8E2
:108B400004330B4202D0FFF7B7FE0C430432B2F5F8
:108B5000907F4FEA4101EAD14E4B1B68012B0AD1AD
:108B60004FF4BE70FFF7A8FE4FF0A04344F000445E
:108B7000D3F81035019314F0FF0F1AD0464F00259B
:108B80000126344210D0AB0003F1804303F5C0430B
:108B9000D3F81005D3F8101557F8253023B1C1F3D9
:108BA0000141C0F3042098470135082D4FEA4606DD
:108BB000E7D1002C64DA00224FF0FF33CDE9022325
:108BC000354D01274FF0000A344E54464FF0A0486F
:108BD00016F9012B531C46D0D2B222F0C0094FEA3D
:108BE000D90104A8084402F0070310F804CC07FADE
:108BF00003F31CEA030F36D005EB090C92099CF92C
:108C000030C055F82CB0BBF1000F0AD1032A2AD18D
:108C10000DF1080E1EF801C04CEA030C0EF801C05D
:108C200001E0032AF4D009F5E07110F80C0C58F8B3
:108C300021101842C1F3014105D0022913D1032AA2
:108C40000BD1114604E003290DD1032A05D10221DD
:108C50004846FFF73DFE0134E4B2BBF1000F02D0FD
:108C600011464846D8470AF1010ABAF1040FAFD1BC
:108C700034B14FF0A043019AD3F81035934202D19A
:108C800005B0BDE8F08F0193029B03939AE700BF04
:108C9000006000407C61004074320020C43200203B
:108CA000014B1B68184700BFD03200200E4B984282
:108CB00037B50D4602D0002003B030BD00230DF1C2
:108CC00007008DF80730FEF773FD084B1C7914B9C7
:108CD00001221D601A719DF80700FEF78DFD002C22
:108CE000E9D01120E8E700BF00200040D03200208A
:108CF0000023435082B043580193019B02B0704758
:108D00000A4610B54FF48E71FFF7F2FF136A9168AF
:108D1000C95C136A01331362C0F81C1510BD02460A
:108D200008B54FF492710068FFF7E2FF4FF48471C9
:108D30001068FFF7DDFF136801221A6008BD8B6918
:108D40000A4610B54FF4847123B9FFF7D1FFD0F86C
:108D5000183510BDFFF7CCFF536AD168D0F818055D
:108D6000C854536A01335362F3E700001FB501236F
:108D70008DF80030044BCDE90110D3E900126846AC
:108D8000904705B05DF804FBD832002030B54C4A5E
:108D9000D2F8043313F4007F85B015464FD0D2F8D3
:108DA0002431002B4BD04FF492711046FFF7A0FFF7
:108DB0004FF40173C2F80833424B93F8291009B9F4
:108DC000012151603E4902228DF80020D1F8802413
:108DD000C1F8802403929A690292DA680192002213
:108DE000C3E906226846D3E9001290473448D0F818
:108DF0001C315BB133490A6A4B699A420A464BD22D
:108E000091F82830002B47D1FFF77AFF2C4AD2F88F
:108E1000443193B14FF4A2711046FFF769FF294B1B
:108E200093F8291009B1012111609A692AB1002231
:108E30009A61586AD968FFF799FF05B030BDD5F837
:108E400004335B07D2D5D5F80831002BCED01D4CAA
:108E50001B482146FFF773FF636AA2699A422346C3
:108E6000C4D1E269E1684AB12369E3600023606A22
:108E7000A261E3616362FFF779FFB7E794F8292005
:108E80000AB901226A600E4A4FF40170C2F8080361
:108E900000229A61586AEEE74FF48E710848FFF796
:108EA00027FF51690029B1D00023029191688DF804
:108EB0000030019153616846D2E900139847A5E755
:108EC00000200040D83200202DE9F8435A4B0479A5
:108ED00091462C2202FB0432064692F82A200D46C7
:108EE0009846002A40F0A38054490068FFF7DEFE50
:108EF0000746002840F09D8029683368481C0BD045
:108F00004FF0A04001228A40C0F8082501F5E07228
:108F10004FF0030C40F822C06868421C1FBF00F5E8
:108F2000E0724FF0A04C4FF0000E4CF822E0AA691E
:108F300095F814C0C3F824256A7DBCF1010F4CEAF2
:108F40000202C3F86C25C3F81405C3F80C151DD133
:108F5000AA68511C1FBF02F5E0714FF0A0404FF00E
:108F6000000C40F821C0E968481C0BD04FF0A04C21
:108F700001208840CCF8080501F5E0704FF0030EA1
:108F80004CF820E0C3F80815C3F810252C236343E0
:108F900008EB0302C2F804902A6948F80320B9F1EB
:108FA000000F31D04FF48E7130682D7FFFF7A0FE97
:108FB00030684FF4A271FFF79BFE3268204BC2F875
:108FC0000433120B53B2002BA8BF03F160404FEAE9
:108FD00053134FEA4511BABF1A4802F00F0500F5C6
:108FE00061404FEA8303C9B203F16043B4BF415506
:108FF00080F8001303F5614302F01F02012101FA1A
:1090000002F2C3F880211A6033680422C3F80025F5
:109010002C2303FB04830022C3E9062283F82920C2
:109020005A61012283F82A203846BDE8F8830827D0
:10903000FAE71127F8E700BFD83200208D8D020033
:109040008000020014ED00E02DE9F843224F06797C
:109050004FF02C0909FB067480466569002D37D155
:109060006261A16025624FF48E71006884F8285017
:10907000FFF73EFED8F80000012383602146FFF78A
:109080003FFE6368A1462BBBD8F80050226A636993
:109090009A4212D3D8F80030D3F81C21002AFBD012
:1090A0000122DA6000202C2303FB06760023736183
:1090B000BDE8F88394F8283043B9D5F81C31002B6B
:1090C000F8D049462846FFF71BFEDFE70F20EAE706
:1090D0001120EDE72846EBE7D83200200379044A57
:1090E0002C2101FB03235869003018BF0120704771
:1090F000D83200202DE9F843384E05792C2303FBA4
:10910000056307465C6824B103684FF40170C3F837
:1091100008032C2303FB0563986950B1D869002824
:109120003ED024B13B684FF40172C3F804231120F0
:1091300034E09A61D9605862D8612C2303FB05633F
:1091400093F829301BB910B93846FFF7E8FD4FF006
:109150002C0909FB05683868D8F80430002B34D195
:109160004FF4A271FFF7C4FDC1463868D0F824312E
:10917000D0F80821D0F84441B2B90CB9002BF4D092
:109180002C2202FB05650022AA611BBB24BB95F8BB
:1091900029103B680122B1B11A600020BDE8F883B4
:1091A0001961DA610120C8E7002BE9D1002CE7D171
:1091B0004946FFF7C4FDD8F82430D8F818209A4261
:1091C000D3D82346DCE75A60E7E74FF40173C0F8D1
:1091D0000433E2E70320E1E70F20DFE7D832002085
:1091E0000023435082B043580193019B02B0704763
:1091F0001FB501238DF80030054B8DF80800019153
:109200006846D3E90012904705B05DF804FB00BF43
:10921000043300207FB5384AD2F82461002E49D0AB
:1092200010464FF49271FFF7DBFF02238DF80030F8
:10923000D2F88034C2F880340393D2F83C358DF8EC
:1092400008302E4BDA6801920022C3E906226846F4
:10925000D3E900129047284AD2F8443173B14FF451
:10926000A2711046FFF7BCFF244B996931B1002170
:109270009961D2F83C05D968FFF7BAFF1E4AD2F8C7
:109280002031ABB14FF490711046FFF7A9FF1B4B93
:10929000596969B1D2F84C158DF808100022996807
:1092A0008DF8002001915A616846D3E90012904779
:1092B00004B070BDD2F81031002BCCD04FF48871BF
:1092C0001046FFF78DFF0D4BD2F83C059969884297
:1092D000C1D1DC69D96864B1D2F8005225F020050B
:1092E000C2F800521A699C61DA60DE61FFF780FF04
:1092F000B1E79C61FAE700BF002000400433002082
:109300002DE9F8435E4B06799146242202FB063292
:10931000044692F820200D469846002A40F0AB8083
:1093200058490068FFF7C2FC0746002840F0A580B6
:1093300029682368481C0BD04FF0A04001228A40C6
:10934000C0F8082501F5E0724FF0030C40F822C088
:109350006868421C1FBF00F5E0724FF0A04C4FF050
:10936000000E4CF822E0AA6995F814C0C3F8242531
:109370006A7DBCF1010F4CEA0202C3F86C25C3F808
:109380000C15C3F814051DD1AA68511C1FBF02F5A6
:10939000E0714FF0A0404FF0000C40F821C0E968A8
:1093A000481C0BD04FF0A04C01208840CCF8080599
:1093B00001F5E0704FF0030E4CF820E0C3F80815FB
:1093C000C3F810252423734308EB0302C2F804906A
:1093D0002A6948F80320B9F1000F3BD04FF4887197
:1093E00020682D7FFFF7FCFE4FF490712068FFF797
:1093F000F7FE4FF492712068FFF7F2FE20684FF4F9
:10940000A271FFF7EDFE22681F4BC2F80433120B66
:1094100053B2002BA8BF03F160404FEA53134FEA49
:109420004511BABF194802F00F0500F561404FEA37
:109430008303C9B203F16043B4BF415580F8001300
:1094400003F5614302F01F02012101FA02F2C3F8A1
:1094500080211A6023680822C3F80025242303FB17
:1094600006830022C3E906225A61012283F82020E4
:109470003846BDE8F8830827FAE71127F8E700BF68
:1094800004330020159202001003020014ED00E0E6
:1094900001F06043B3F1005F2DE9F041074632D19E
:1094A0001C4B0679242505FB063598466C6964BB80
:1094B0006A61A96000684FF49071FFF791FE4FF464
:1094C000AC713868FFF78CFE3B686A69A968C3F81D
:1094D0004415C3F8482501229A606A68BAB9D3F8DE
:1094E0002011D3F8582149B9002AF8D00F2024239D
:1094F00003FB068600237361BDE8F081002A14BFD8
:109500000F200020F3E71020F6E71120F4E72046B3
:10951000F2E700BF043300200379044A242101FB51
:1095200003235869003018BF01207047043300201E
:10953000F8B501F06043B3F1005F04460F465FD118
:109540000379304D242101FB0351486820B1216883
:109550004FF40476C1F80863242101FB03539E698C
:1095600056B1D96900293AD020B123684FF404726A
:10957000C3F80423112031E09A61DF60DE614FF40B
:1095800088712068FFF72CFE4FF4A2712068FFF766
:1095900027FE2368C3F83475C3F838251EBB0122A3
:1095A0001A602179242202FB0152526812BBD3F8BF
:1095B0001001D3F84421D3F82441104302D1002CE8
:1095C000F5D00246242303FB015500239C4214BF1F
:1095D000032018469A42AB6118BF0F20F8BD1F61E7
:1095E000DA610126CBE7D3F8002242F02002C3F86B
:1095F0000022D6E74FF40472C3F804230020EDE7FD
:109600001020EBE7043300200220FEF79DBF00008E
:109610002DE9F04781460D46FEF7B6FF03280446C4
:1096200004D8012D04D025B3022D2FD0BDE8F0873A
:10963000194D47003A18A918AE5C4A7852B1DFF8C4
:109640006880164842464FF40041FDF74FFF08B9C5
:1096500088F800903B192B449A78114B1A55002E2C
:10966000E4D0104B1B68002BE0D03046BDE8F0473B
:1096700018470A48FDF780FF074B04EB44021344E8
:109680009E78074B1B5DB342D0D1E8E7024B00EB5D
:1096900040041C446678E2E78C3300204C33002001
:1096A000A5330020A03300202833002002210078B9
:1096B000FFF7AEBF08B5094B1B7853B10020FEF78A
:1096C00019FF0120FEF716FF0320BDE80840FEF752
:1096D00011BFBDE80840FEF719BF00BF29330020C5
:1096E000F8B5794C237805461BB100232370FFF7AA
:1096F000E1FF172D00F28480DFE805F00C13133F23
:109700005061727C84898489919696969696C0C59C
:10971000CDD5E0E0FFF7CEFF6C4B00241C70204657
:10972000F8BD0020FEF7CCFEF8B10020FEF7E2FE07
:10973000022D0CBF4FF4E1614FF47A61634B1D7051
:109740004FF400404FF4FA740025E0FB01454FF45C
:109750007A7200232046294602F03CFA0022014694
:109760005B48BDE8F840FDF7C1BEFEF7B7FE022D2D
:109770000CBFC8214FF4C871E0E70020FEF7A0FE3F
:1097800040B10020FEF7B6FE4FF448714F4B032264
:109790001A70D5E7FEF7A2FEC821F7E70020FEF712
:1097A0008FFE38B10020FEF7A5FE4FF47A61474BDB
:1097B0000422EDE7FEF792FE4FF4C871F7E70020B0
:1097C000FEF77EFE48B10020FEF794FE3F4B0522D7
:1097D0001A7041F69A110022C2E7FEF77FFEF5E704
:1097E0000020FEF7B1FE394B06221A70002240F627
:1097F000CD41B5E70020FEF771FE344B07221A7009
:1098000000248CE701202070FEF79EFEEEE7012089
:109810002070FEF799FE00224FF48041A0E7FEF78A
:1098200084FE2A4B0C22EAE72A482B4EFDF7A4FEC1
:10983000D5F1110504461CD0D8B9012D13D0C82389
:109840005D434FF400474FF4FA7000214FF47A72F1
:109850000023C7FB050102F0BDF9224601461D4861
:10986000FDF744FE04460220FEF738FE0123337064
:1098700055E70220FEF73EFE0023F8E7FFF71AFF48
:10988000124B1222BBE7FFF715FF0020FEF726FE62
:109890000E4B1322B3E7FFF70DFF0120FEF71EFE6C
:1098A0000A4B1422ABE7FFF705FF0020FEF716FE78
:1098B0000120FEF713FE054B1522A0E7FEF735FE4B
:1098C000024B1D709CE700BF9C330020A433002096
:1098D0006C3300202C33002029330020044B1B68FC
:1098E000DB0703D5034B1878FFF7FABE704700BFBC
:1098F00098330020A4330020032801D8FEF736BE99
:1099000000207047044B1B6813F0010301D0FFF7E0
:10991000E7BE1846704700BF9833002038B51C4B8F
:1099200018601C4B10F00204054619601AD01A4B3F
:109930001A480E221A700F22DA7010229A71112220
:109940005A72042140F26662FDF79EFA044648B955
:10995000FDF7EEFA044628B90146114A1148FDF711
:10996000B3FD0446EB0711D50120FEF725FE6CB9C7
:1099700021460D4A0D48FDF7A7FD044630B90C4AB3
:109980000C480121BDE83840FDF79EBD204638BD9A
:1099900098330020A03300208C33002034CF020005
:1099A000AD96020058CF0200DD9802005CCF0200A5
:1099B0000996020054CF0200032813D8012A0BD1C4
:1099C000012908D100F10E02D2B200EB40000C4B8D
:1099D0001A540020704700220129F6D04BB24BB137
:1099E000022901D007207047054B00EB40001844C6
:1099F0004270EEE7024900EB400008448270E8E75D
:109A00008C330020032808B512D8FEF7CFFD800064
:109A100000F1A040D0F8003723F44033C0F80037FD
:109A2000D0F8003743F44033C0F80037002008BDB9
:109A30000620FCE708B5012202210020FFF7BCFF49
:109A400008B1072810D1072202210120FFF7B4FF37
:109A500008B1072808D100210A220846FFF7ACFF09
:109A600010B1072808BF002008BD00000388102B94
:109A700010B502D0112B1ED010BD1A4C2168B1B9FF
:109A800001220846FFF798FF08B1072824D10722D2
:109A900002210120FFF790FF08B107281CD1042202
:109AA00002210020FFF788FF08B1072814D123689E
:109AB00001332360E0E70B4A1368013B1360002B7E
:109AC000DAD1FFF7B7FF0028D6D0074B1B68002B71
:109AD000D2D0BDE810401847034B1B68002BE6D0DE
:109AE0009847E4E7B0330020AC33002008B50020ED
:109AF000FFF788FF08B1062806D10120FFF782FF93
:109B000010B1062808BF002008BD00000D4B10B59D
:109B100018600C4629B10120FFF7EEFE40B1022388
:109B20002370094B1B6853B9BDE81040FFF782BF93
:109B3000FFF7E2FE08B10B23F2E72070F1E7002007
:109B400010BD00BFAC330020B033002076DF70477B
:109B50007ADF70477CDF70477FDF70478FDF7047A9
:109B6000B1DF704733DF7047124B4A881B889A4237
:109B700070B50446104D11D10A8840F677239A42F9
:109B80000CD18B8828880D4A0D49033B9BB20004F9
:109B9000138040F003001A46FCF7EBFE2888238868
:109BA00062880849000440F00400BDE87040FCF7FA
:109BB000E0BE00BF162B0020AC2A0020142B002092
:109BC000A3CF0200BFCF0200FDF7C8B908B500203F
:109BD000FFF798FE08B1FDF7C1F9FFF787FF08B15D
:109BE000FDF7BCF9FFF7BEFF18B1BDE80840FDF76F
:109BF000B5B908BD0388212B13B5044637D01DD84D
:109C0000112B26D0132B42D0102B2ED1284B2949B3
:109C10001888000440F00300FCF79EFE0720FFF7C1
:109C200071FE08B1FDF79AF9234BA18823481980EA
:109C300001F076FBC8B1FDF791F916E0522B2ED05A
:109C4000562B01D03B2B10D11321A088FFF77EFFAC
:109C5000F0E7174B1A491888000440F00300FCF79E
:109C60007BFE154B4FF6FF721A8002B010BD104BF1
:109C700014491888000440F00400FCF76DFE00232E
:109C800001A9A088ADF80430FFF768FFD2E70A48C1
:109C900000231A4685210088FFF75EFFCAE70648C1
:109CA00000231A4619460088FFF75AFFC2E700BF93
:109CB000AC2A002078CF0200162B00207C35002033
:109CC00082CF02008FCF020008B503784BB9054B55
:109CD0003B211888FFF73AFF18B1BDE80840FDF7AF
:109CE0003DB908BD162B0020072808B513D00A2857
:109CF0000DD0042819D10D4B13211888FFF726FF2A
:109D000030F0080311D0BDE80840FDF727B9BDE8E1
:109D10000840FFF75BBF054B1A884FF6FF739A4266
:109D200003D1034800F0F3FEEAE708BD162B00203C
:109D3000AC34002008B548B103280BD10220FFF74E
:109D4000E1FD38B1BDE80840FDF708B9BDE80840BD
:109D5000FFF73CBF08BD00000378012BF7B540D0EA
:109D60001BB1022B3DD003B0F0BD204C204D20781C
:109D70002844FDF7DFFC23780133DBB21D44237058
:109D800015F8012C0A2A03D01A4A12889A42EAD8F6
:109D9000194D1A492888164E194F000440F0040046
:109DA000FCF7DAFD288822781149164D000440F0AE
:109DB0000400FCF7F5FD2378ADF806300DF106023E
:109DC0002B883146384601F06DFC082806D0112852
:109DD000F1D0052802D008B1FDF7C0F800232370A8
:109DE000C1E74068FDF7BAF8BDE700BFA83400201E
:109DF000B4330020142B0020AC2A00209CD0020099
:109E0000182B0020162B00202DE9F0410478054680
:109E1000A4BB1B4F1B493888DFF86C80000440F05E
:109E20000400FCF799FD3888AA8A2969000440F0EB
:109E30000400FCF7B5FDAA8A94420AD32B691344A7
:109E400013F8013C0D2B19D10A20FDF789FC1128CC
:109E5000F9E72B69185DFDF783FC064660B1112810
:109E6000F7D03888000440F0010032464146FCF744
:109E700077FD3046FDF772F80134DCE7BDE8F0818C
:109E8000AC2A00203FD0020071D00200FDF766B876
:109E900008B50849084801F0A5F808B1FDF75EF8D3
:109EA000F721054801F0B2F818B1BDE80840FDF708
:109EB00055B808BD699B02006435002000B57B4D94
:109EC0000FCDB1B005AC0FC495E80300784B794ACB
:109ED00001934FF4807384E80300CDE903230293D8
:109EE000754A072301A905A8FDF7CCFB08B1FDF7CA
:109EF00035F84FF400410020FCF76AFB08B1FDF78C
:109F00002DF86E4CFCF792FA20886D49000440F061
:109F10000300FCF721FDFDF7A7FA08B1FDF71EF8D5
:109F200068490320FFF7FAFC08B1FDF717F805A907
:109F30000020FFF7EBFD08B1FDF710F8FEF7DEF8A3
:109F400008B1FDF70BF801F03FFC08B1FDF706F88A
:109F5000002305A90120059301F00CFD08B1FCF7D1
:109F6000FDFF05A801F0CCFD08B1FCF7F7FF1123B8
:109F700055488DF8043001F0D8FF534982B201A84A
:109F8000FFF7E8FD08B1FCF7E9FF0021082205A86A
:109F900001F076FF4D494FF0C87305A8CDE90513D0
:109FA000FFF7D6FD08B1FCF7D9FFFFF771FF484B6B
:109FB0004848059305A901F0A1F908B1FCF7CEFFC7
:109FC000042200210DEB020001F05AFF424B4348EE
:109FD000019301A901F0A2FA08B1FCF7BFFFAC227E
:109FE000002105A801F04CFF02238DF814304FF436
:109FF000A0633B4AADF816300123ADF860301992EA
:10A000008DF89030402244F25063CDE9272305A912
:10A01000344B35482E9300F0A9FB08B1FCF79EFFA6
:10A020000121314800F09FFB1C22002105A801F00E
:10A0300027FF00234FF42032CDE90532ADF822305E
:10A040004FF470228DF82430284B07920A93032294
:10A05000274B8DF8202005A80B9300F075FE08B162
:10A06000FCF77CFF234801F0B1FE2088144900046E
:10A0700040F00300FCF770FC03211B4800F0E8FBF4
:10A0800008B1FCF76BFF1C4D05A8FDF753FB2088BA
:10A090009DF814200004294640F00300FCF760FC02
:10A0A000FCF7FAFAFEF740F8EEE700BF60CF0200D7
:10A0B0008835002088360020599D0200AC2A0020F7
:10A0C000F8CF0200E99C020021D0020010003C0001
:10A0D000C99B02007C350020099E0200182B00203D
:10A0E000102B0020359D0200AC340020C99C0200DA
:10A0F0008D9E02002DD00200ECC802000369C168E9
:10A100008B429DBF8268D21802F1FF3203F1FF3308
:10A1100094BF501A581A70472DE9F041D0E90274E3
:10A1200005463E1B4068964220448846144404D9A4
:10A1300001F07DFEEC60BDE8F0813246E41B01F0E9
:10A1400076FE224608EB06016868F1E72DE9F84340
:10A15000C5680646894617464FF000083469B3685B
:10A160007068A54228BFE418013C621B5C1BBC421E
:10A1700028BF3C46944228BF1446494628442246FC
:10A1800001F055FEB3682544AB4208BF00253F1BD4
:10A19000A044A144F560E1D14046BDE8F883000049
:10A1A00010B5114C114AA2610223C4E90433104BCB
:10A1B000E361A2644FF400730E4A2362E264002359
:10A1C00010220D49A362E01D6362E362A36563652B
:10A1D000E365226501F087FE0849204601F083FE11
:10A1E0002023A37110BD00BF88370020BCD002001F
:10A1F0001038002000380020C5D00200C9D002006D
:10A20000F8B5184C182300FB033503FB0040254428
:10A21000C46A012C0F46164611D024B1022C1BD063
:10A2200000242046F8BD2846FFF768FFB042F8D367
:10A23000324639462846FFF76FFF3446F1E7284695
:10A24000FFF75CFF8642344628BF04462246394663
:10A250002846FFF761FFE4E72846BDE8F840FFF72E
:10A2600075BF00BF88370020FFF79ABF6DDF7047CA
:10A2700079DF70477DDF704764DF70472DE9F74F66
:10A280000C9CBDF834B02788002580468A4691464C
:10A290002E46B8F80020B2420BDC35B12288013AD4
:10A2A000D21B92B2FF2A39D8DA55002003B0BDE89C
:10A2B000F08FD8F8042052F82600019000220DF10A
:10A2C000030101A8FFF7D8FF0028EFD19DF8032074
:10A2D0004A4521D12288002D14BF0020022002EB24
:10A2E00009010144594519DC3DB9013292B222807D
:10A2F00003F802A022880132228022880DF1030196
:10A300001A4401A8FFF7B8FF0028CFD121889DF893
:10A3100003200A44228001250136BAE70C20C5E754
:10A320002DE9F341089CBDF824501746CDE90045BE
:10A3300002220646FFF7A2FF48B9102239463046EE
:10A34000CDE9084502B0BDE8F041FFF797BF02B084
:10A35000BDE8F0812DE9F04F00231688138090F8B6
:10A360002D3085B007460D46144653B3082E01D84C
:10A370000C2007E102A8FFF779FF002840F00281D6
:10A3800013880822CA54238801339BB21B222380DE
:10A39000CA542088013080B2208006220DF10901C4
:10A3A000284401F044FD23889DF8082006339BB221
:10A3B00012F0FE0218BF01222380EA5423880133E1
:10A3C0002380BB78FBB123880433B342D0D802A8E2
:10A3D000FFF74EFF002840F0D58023880322EA547F
:10A3E000238801339BB219222380EA542388BDF8C5
:10A3F000082001339BB2E9182380EA54120A4A70FC
:10A40000238802332380FA789AB12388D91CB14279
:10A41000AED80221E954238801339BB20121238065
:10A42000E95423880B449BB22380EA5423880B44CD
:10A4300023807A68AAB12388D91CB14298D8022116
:10A4400092F90020E954238801339BB20A2123802A
:10A45000E954238801339BB22380EA5423880133D3
:10A4600023803B89002B40F081803B8A53B1CDE9AA
:10A4700000462B460722032107F11000FFF750FF8B
:10A4800000287FD13B8B53B1CDE900462B461522E6
:10A49000142107F11800FFF743FF002872D13A6A30
:10A4A000002A72D1D7F82480B8F1000F30D0B8F864
:10A4B00004302188981C8A1C0244B2423FF658AFEF
:10A4C000FE283FF655AF03336B54238801339BB20C
:10A4D000FF222380EA54238801339BB22380B8F8FB
:10A4E0000020EA54E918120A4A702088023080B22B
:10A4F0002080B8F804205AB1D8F8081000294ED0AE
:10A50000284401F094FC2388B8F8042013442380E5
:10A5100097F82C30002B7DD1387898B33B88012BED
:10A520003DD0228802F1020CB4453FF621AF01284C
:10A5300005D17B78023313449E42FFF419AF023EEB
:10A54000B61AB6B202A905EB0C00ADF80860FFF729
:10A5500091FEB8B93B78022B40F09F80BDF80830DF
:10A56000B34240F2B680ADF808609FE0CDE9004606
:10A570002B460622022107F10800FFF7D1FE002832
:10A580003FF473AF05B0BDE8F08FB4F800C00CF134
:10A590000603B3423FF6ECAE1188052901D8072027
:10A5A000F0E76FF4486E01EB0E039BB24FF27D3E75
:10A5B0007345F4D95388052BF1D96FF44860181806
:10A5C00080B27045EBD94FF6FF70814203D08342D1
:10A5D00001D09942E3D8052305F80C3023880133D4
:10A5E0009BB212212380E954238801339BB223803C
:10A5F0001188E954E818090A4170238802339BB294
:10A6000023805288EA54E918120A4A7023880233D8
:10A61000238047E7BB6A002BC1D04FF000094FF001
:10A620000C0A4FF0160B97F82C305FFA89F2934220
:10A630007FF672AFB96A0AFB02F201EB0208B8F8C2
:10A640000430981CFE283FF693AE208803332B5429
:10A65000238801339BB2238005F803B0238801339C
:10A660009BB223808A5AEA54E918120A4A70208859
:10A67000023080B22080B8F804205AB1D8F808100F
:10A6800000298CD0284401F0D2FB2388B8F804209C
:10A690001344238009F10109C5E7012B7FF463AF5F
:10A6A0007B789E42FFF45FAFADF808300821BDF81B
:10A6B0000830FE2B3FF65CAE22880133AB54228873
:10A6C000013292B22280A9542288134423800020B0
:10A6D00058E70921EBE770B5C0B14AB116880024EC
:10A6E000B44203D305196D789D4208D0A14201D828
:10A6F00000200BE0055D01352C44A4B2F0E7A14237
:10A70000F6D9A31C1380005D013880B270BD13B56B
:10A710000023ADF8063013460DF106020446FFF79C
:10A72000DAFF10B1BDF80600204402B010BD72DFA0
:10A73000704773DF704774DF704738B501220446F5
:10A740000D46B0F89810D0F89400FFF7E0FF00B184
:10A75000057004F13C0204F1940104F15400BDE8D9
:10A760003840FFF7E4BF80F830107047F8B5044672
:10A770000F46002968D0002866D091F87A301BB1C6
:10A7800091F89830002B61D1D7F8A030042B5DD020
:10A79000D7F89C30042B59D007F178060FCE4FF034
:10A7A000000C251D84F802C00FC50FCE0FC596E81A
:10A7B000070085E8070084F830C0D7F8A430636349
:10A7C000D7F8A830A3634FF6FF7504F19403C4F8DB
:10A7D000A430A4F8A8500722614604F1AA0001F0B1
:10A7E0004FFB23780BB984F85450224604F15501ED
:10A7F0001F25C4F89410384622F8985FFFF7AAFD89
:10A8000008BB224604F17401C4F89C1007F13C0017
:10A8100022F8A05FFFF79EFDA8B9A369A4F848300D
:10A820004FF480720123A4F85020626920646264AE
:10A83000014684F83C3004F13C0204F15400FFF777
:10A8400076FF00B92370F8BD0E20FCE70720FAE779
:10A85000F8B5077804460D46002F00F00D81A17071
:10A860000020FDF78FFA014618B101236370002024
:10A87000F8BD04F1AA060722304601F001FBE38887
:10A8800013B1A378012B04D0E3794BB1A378022B49
:10A8900006D1636BA3B1012284F8B1200820984748
:10A8A000334604F1B00113F8012F12B98B42FAD1EB
:10A8B00017466B1E032B52D8DFE803F0050B0F126F
:10A8C00084F8B130ECE7A3791BB194F8243003B9D4
:10A8D0005FB9E3790BB1002F43D1237A002B42D12A
:10A8E000637A002B0CBF00250425636BA570002B39
:10A8F0003BD0033D012D38D86279002A35D094F839
:10A90000B22092BB84F8B420012284F8B32007203F
:10A91000984704F13C0518220021284601F0B0FABE
:10A92000E36A94F82420581E0121022828BF0B4610
:10A9300084F83C1084F8513032B1884296BFA36A43
:10A9400084F8521084F85230A178002384F85030F3
:10A9500004291BD8DFE801F07A0D25385C000025BA
:10A96000C3E70225C1E70325BFE7002384F8B3301E
:10A97000CFE7C4F8A430C4E910630223012284F8AD
:10A980003C30802384F83120A4F84830A378002B91
:10A990005FD1636B002B3FF46AAF94F831009847A6
:10A9A00065E70223002A84F8313014BF072303230C
:10A9B00084F83C302369A4F848300023C4F8A4305C
:10A9C000E36826646364E1E763696364A369A4F8E8
:10A9D000483012B1062384F83C306379B3B194F85F
:10A9E000B2309BB994F8B43083B1022384F850306C
:10A9F00004212046FFF7A1FE0028C7D1052384F8D3
:10AA0000313004F19403C4F8A430BFE70323F6E720
:10AA1000E3696364236AA4F8483012B1062384F81A
:10AA20003C30637983B194F8B2306BB994F8B430A8
:10AA300053B1022384F8503004212046FFF77DFEF5
:10AA40000028A3D10623DAE70423D8E784F83130BD
:10AA50009CE72A46D4F8A41004F15400FFF767FEDF
:10AA600000287FF405AF94F8301094F85400FFF7F5
:10AA700060FE00288DD0FBE60820F9E60388112B44
:10AA800010B50C460AD0262B1FD0102B05D1C37B46
:10AA9000012B02D18388A1F8A83010BD0022838841
:10AAA00081F8B220B1F8A8209A42F6D10B79002B98
:10AAB000F3D101212046FFF7CBFE0028EDD0A36B98
:10AAC000002BEAD0BDE810401847037A013B012B68
:10AAD000E3D8897805230131B1FBF3F303EB83035A
:10AAE000C91AC9B2E6E70238012810B50C460DD8DC
:10AAF0004B785BB100234B7020468978FFF7A8FEA6
:10AB000020B1A36B13B1BDE81040184710BD38B594
:10AB1000044690F85400FFF70EFE012384F8B2308B
:10AB2000002384F8B43084F8503006212046FFF723
:10AB300004FE054638B9A1782046FFF789FE10B11A
:10AB4000A36B03B19847284638BD75DF704776DFA1
:10AB500070477ADF70477BDF70470000034B1A882D
:10AB600082420CBF18460020704700BF2C3A0020DC
:10AB7000024B9B6903B11847704700BF103A002091
:10AB800037B585B22846FFF7E9FF034670B1164C8A
:10AB9000017A227B91420BD200F10A012846FFF78D
:10ABA000D4FFE8B1112801D0FFF7E2FF03B030BDB8
:10ABB000237C0022027243B13B212846FFF7C7FFE6
:10ABC00030F0080301D0FFF7D3FF6369002BEDD00D
:10ABD00000228DF80420ADF8065001A89847E5E75B
:10ABE0001A7A01321A72E1E7103A002013B50B46C7
:10ABF000497A0F4C024669B9D4E901101C7A002C3D
:10AC000018BF01465868FCF771FC08B1FFF7B0FFA8
:10AC100002B010BD002119726369002BF8D0012128
:10AC2000ADF806008DF8041001A89847F0E700BFC2
:10AC3000103A00204B8802889A4213D842889A42E0
:10AC400010D380888A8840F2F313984294BF031A85
:10AC5000C31A934206D800F2F310904234BF00208A
:10AC600001207047002070470388112B70B5014602
:10AC700048D002D8102B1ED070BD122B52D0502BB2
:10AC8000FAD12F4BC288DB899A42F5D1038A022B75
:10AC9000F2D186883046FFF761FF05460028EBD0E9
:10ACA00001F1120000F044F930BB6868FCF764FC65
:10ACB0000028E1D009E0C37B012BDDD14FF6FF7006
:10ACC000FFF74CFF054620B90420BDE87040FFF7B0
:10ACD0004FBF1C4A8E880680002303721368C5F894
:10ACE0000A300A30536843601031FFF7A3FF144B5A
:10ACF0006872DB89002BBFD129463046BDE8704021
:10AD0000FFF774BF8088FFF729FF04460028B3D0FF
:10AD10004068FCF731FC08B1FFF72AFF4FF6FF73DC
:10AD20002380A9E786883046FFF718FF05460028EC
:10AD3000A2D008310A30FFF77DFF6872DCE700BF60
:10AD4000103A0020403A0020F8B5064648B30546C0
:10AD50000FCD154F3C460FC495E8070084E8070067
:10AD60003068124B3B60B0B1FFF7F3FEC0B93168F9
:10AD70000A681A604A685A600D480E4A4FF6FF7317
:10AD800003800D4B40F8043F0021FCF79DFB002899
:10AD900018BF032004E01846FFF7DDFE0028EBD0C3
:10ADA000F8BD0E20FCE700BF103A0020403A00201A
:10ADB0002C3A002081AB0200483A002073B5019183
:10ADC000019C06466CB100252C46294601A8FCF7DB
:10ADD00077FD18B106EB440301349D800135142D35
:10ADE000F3D13046346002B070BD00002DE9F04769
:10ADF00003888488112B8CB006463CD01A2B3FD098
:10AE0000102B17D1274DAB68DB4300936968684668
:10AE1000FCF77FFD009901A8FFF7D0FF0DF10809AD
:10AE20004FF00008019B984507D3132C13D9042039
:10AE3000FCF794F80CB0BDE8F08739F802AB0027B6
:10AE40000137514605EB8700FCF730FD1D2FF7D188
:10AE500008F10108E6E721461348FCF71EFD2146EC
:10AE60001248FCF71AFDF37B012BE3D01048214672
:10AE7000FCF713FDDEE70C482146FCF717FDD9E788
:10AE8000057A0C482D09012D214606D9FCF705FD50
:10AE9000022D21460848F0D0EAE7FCF707FD2146DD
:10AEA0000548EAE7683A0020703A00206C3A002032
:10AEB000743A0020783A00207C3A0020132801469A
:10AEC00002D80248FCF7FCBC002070476C3A002016
:10AED00010B50446FFF7F2FF002814BF20461420E7
:10AEE00010BD70B5054616460AB90E2070BD002388
:10AEF00013600028F9D00368002BF6D0C38813F044
:10AF000003040FD10846FFF7E3FFC0B214280BD0AB
:10AF10002B7983420AD9EB882A6800FB032333602C
:10AF20002046E3E70720E1E70520DFE70420DDE72F
:10AF3000007800F00100704790DF7047A5DF704790
:10AF4000B5DF7047F0B5224C07462088000485B075
:10AF50000D460A463B461F4940F00400FBF709FD39
:10AF600000236A4602A93846ADF80850ADF80A50E9
:10AF700003930093ADF80430FFF7DEFF064618B3E5
:10AF80002588FDF72BF92D0445F0010503463A46C7
:10AF900011492846FBF7EDFCBDF80020BDF8023052
:10AFA00052EA030106D020880C49000440F0010059
:10AFB000FBF7DFFCBDF8042032B12088084900040B
:10AFC00040F00100FBF7CCFC304605B0F0BD00BFFF
:10AFD000C02A0020D0D00200FFD0020049D10200D8
:10AFE00088D1020080B14FF0F7130360FB23037197
:10AFF000F723C3801723038141F6FB32002301614D
:10B0000043818281184670470E20704730B1A1F10C
:10B010001703E02B04D80180002070470E207047F2
:10B02000072070472DE9FF47868805460C46FEB984
:10B030000388232B00F00D811DD8102B62D0112B1B
:10B0400000F09D80A37A9BB1E1880020FFF776FF96
:10B050000346002840F00E814FF4807262818D4AD1
:10B060008D491088E288000440F00400FBF781FC61
:10B0700004B0BDE8F0873A2B00F08A80552B00F031
:10B08000A980242BDED1834DB0F80890B0F80AA037
:10B090008789B0F80E8028885FFA89F20004334669
:10B0A0004A7340F004007D49FBF763FC28887C4923
:10B0B0000004524640F00400FBF752FC288879490E
:10B0C00000044A4640F00400FBF74AFC2888764911
:10B0D0000004424640F00400FBF742FC2888734914
:10B0E00000043A4640F00400FBF73AFC2369002BC9
:10B0F000A8D04DF67A220292627BADF80C608DF8F2
:10B100000C20A2E00B790B73C37B012B1DD0022B0B
:10B110001ED0E288238993420FD25E4D644928886D
:10B12000000440F004000023FBF723FCE18800202A
:10B13000FFF704FF70B90123E372217B637B8B422D
:10B1400080D20020FFF7FEFE7CE70B88E380E0E77B
:10B150004B88FBE72D8811284FEA054508D10123CC
:10B160005449A372002245F00400FBF7F9FBE4E721
:10B17000FDF734F85049024645F00100F5E7F723A2
:10B18000CB8017230B8141F6FB334E818B8159E72E
:10B190004289CB889A4228BF1A463E4B1888172A04
:10B1A00038BF172200040A813346444940F00400A6
:10B1B000FBF7DFFB236953B1E27A42B140F6772215
:10B1C00002922289ADF80C2002A92046984700235C
:10B1D000638137E72F4FC5883888394900042B46EB
:10B1E000324640F00400FBF7C4FBE3883888A672BF
:10B1F000172D2A4638BF17229A4228BF1A46000444
:10B2000022813049009640F00400FBF7BCFBE18846
:10B210003046FFF795FE50B13D88FCF7DFFF2D0467
:10B2200045F00105024628492846FBF799FBE37AD9
:10B23000002B7FF407AF2369002B3FF403AF40F6E8
:10B24000772202922289ADF80C2002A92046984765
:10B25000F8E6104B077A18881C49000440F00400F7
:10B260003B463246FBF785FB217BA888B94228BFC5
:10B27000394667E711283FF4FBAE064B1C88FCF704
:10B28000ADFF240444F0010402460B492046FBF7BD
:10B2900067FBEDE6C02A002031D4020081D3020012
:10B2A000B0D30200C2D30200D4D30200E4D3020020
:10B2B000DED102001BD202006DD202009ED202003B
:10B2C000D9D2020013D3020052D30200F4D30200F9
:10B2D000B0DF704766DF7047034610B50021408835
:10B2E000FFF7F8FF024608B91A7210BD112801D104
:10B2F0000122F9E75B68BDE81040184760B159B119
:10B300000378DE2B0AD00B684360DE2303704FF610
:10B31000FF734380002070470E207047082070475D
:10B3200028B10378DE2B04D14180002070470E2025
:10B33000704708207047F0B5054685B00C46F1B15E
:10B34000E8B10B78DE2B1AD182884B889A4204D15F
:10B350000B7A13B10846FFF7BFFF2B88112B32D0B1
:10B36000512B0ED0012B0AD12B7A012B07D1A988A2
:10B370006288914203D123722046FFF7ADFF05B0EA
:10B38000F0BDAE886388B342F9D1AF79022FF6D110
:10B39000AD7B2B1F022BF2D800211022684600F053
:10B3A0006FFD052D14BF4FF4C0730023694630466E
:10B3B0008DF80070ADF80430FFF78AFF0028DED06A
:10B3C00063689847DBE76388AA889A4204BF4FF610
:10B3D000FF736380D3E7A8DF7047AADF7047ADDF54
:10B3E0007047AEDF704762DF704770B505468AB0C0
:10B3F0000C46002962D0002860D00388502B37D03B
:10B40000572B72D0102B59D181886069002601AA70
:10B410000196FFF766FD082231460DEB020000F0B1
:10B420002FFD022302AA218AA888CDF80CD002930E
:10B43000FFF7D5FF002841D1A369002B3ED0039828
:10B44000FFF776FD002839D0019B0BB101221A705D
:10B450001822002104A800F013FD02238DF81030FB
:10B46000AB88ADF81830019B05940793A36923E0DE
:10B470008188606902AAFFF734FD1822002104A820
:10B4800000F0FEFCAB88ADF818302189EB88029AF9
:10B4900005949942079218D12E8A022E15D16AB1CD
:10B4A00005F11200FFF744FD029B48B101221A701A
:10B4B0008DF81060A3690BB104A898470AB070BD5D
:10B4C000187003238DF81030F4E7A2899A42F5D161
:10B4D000A369002BF2D000228DF8102005F1120292
:10B4E00008922A8AADF82420E6E78188606902AADA
:10B4F000FFF7F7FC01460028E0D1029B1B78002BE8
:10B50000DCD0182204A800F0BBFC01238DF8103019
:10B51000AB88ADF818300594029BA6E72DE9F04FF3
:10B520005F4B95B004AA05460E4603F1100C174672
:10B5300018685968144603C4083363452246F7D196
:10B54000002D00F0AB80002E00F0A8803368AB61C6
:10B5500029463846FFF747FF0446002840F09A8006
:10B560002A464FF0010812F8023B8DF80A3002A972
:10B570004046ADF80880FFF72EFF0446002840F053
:10B58000898001461C220DA800F07AFC9DF8343019
:10B590000E94AA4623F00C0343F00C038DF83430CC
:10B5A00001AE1AF80C3B8DF80E302146022303221F
:10B5B0003046ADF80C30CDE91044CDE9124400F02E
:10B5C0005FFC9DF8062022F01F0242F00302214694
:10B5D0008DF8062041F2111B142208A8ADF804B022
:10B5E00003AF00F04DFC4FF0F409534608AA0DA933
:10B5F0006888CDF82880CDE90876ADF82C90FFF763
:10B60000ECFE0446002845D101460322684600F0BE
:10B6100037FC9DF80230ADF800B068F342032146D4
:10B620001C220DA88DF8023000F02AFC9DF8343061
:10B630000E94AA4643F01003032221468DF83430BD
:10B6400030461AF8043B8DF80E30CDE910441394BF
:10B65000ADF80C20CDF848D000F012FC9DF8062083
:10B66000ADF804B022F01F0242F0030221468DF82B
:10B67000062008A8142200F003FC534608AA0DA9CE
:10B680006888CDF82880CDE90876ADF82C90FFF7D2
:10B69000A4FE0446204615B0BDE8F08F0E24F9E75D
:10B6A00083D40200F0B50F4687B016461C46054607
:10B6B00018B301AA19464069FFF713FCD8B94FF631
:10B6C000FF739C421BD0019BCBB11B78CBB133885D
:10B6D000F42B18D80146102202A800F0D1FBAB8849
:10B6E000ADF8083002A901232046CDE904678DF8A2
:10B6F0000A30FFF776FE07B0F0BD0E20FBE705200D
:10B70000F9E70820F7E70720F5E710DF704711DFBA
:10B710007047000013B5044609496846FCF72AFD46
:10B72000019808B902B010BDD0E900312046984711
:10B7300018B16846FCF728FDF2E71120F2E700BFD8
:10B74000A0D4020013B5044607496846FCF712FD71
:10B75000019B0BB902B010BD2046D3E900219047F0
:10B760006846FCF711FDF3E7B8D402000B4A92F8E3
:10B7700016335B09012B08D9042B06D0084B9968B6
:10B7800039B94FF480031360704742F20200FBF7AF
:10B79000E5BB1A6842F480021A60704700E100E0DD
:10B7A00014320020064B9A6822B11A6822F48002F3
:10B7B0001A607047034B4FF48002C3F88020704733
:10B7C0001432002000E100E0F7B51C4F3C7894BB38
:10B7D0001B4E012520463570FFF79CFF112827D00E
:10B7E0002046FFF7AFFF174B8DF803401868019014
:10B7F0000DF10300FBF7DCFF134901A8FFF785FFFC
:10B800000446B0FA80F0400938709DF80300FBF759
:10B81000F3FF6CB90D4B34701C700D4BE02283F8B4
:10B82000162383F81523FFF7A1FF2846FFF78AFFA9
:10B83000204603B0F0BD0824FAE700BFE13A00203B
:10B84000E03A00209BD40200796F0200E23A002027
:10B8500000E100E0F7B5154F3B781BB3144E012013
:10B860003070FFF757FF11284FF000051CD0022061
:10B87000FFF768FF0DF107008DF80750FBF798FF01
:10B88000FFF745FF04469DF807003D70FBF7B4FF46
:10B890002CB93470FFF786FF0320FFF753FF2046D3
:10B8A00003B0F0BD0824FAE72C46F8E7E13A00209F
:10B8B000E03A0020054B1B7833B1054B1B780BB1E8
:10B8C000FFF7C8BFFFF780BF08207047E03A0020AD
:10B8D000E13A0020014B1878704700BFE13A0020A0
:10B8E00007B508496846FCF745FC019B13B903B04E
:10B8F0005DF804FBD3E9002090476846FCF744FC60
:10B90000F3E700BFACD40200FFF7EABF60DF704787
:10B9100069DF704761DF704730B5114DADF5017DCE
:10B920004FF4FA740DF1020103A8ADF80240FFF7DD
:10B93000F1FF70B9294601A8FCF71CFC029B002B03
:10B94000F0D003A8D3E90021904701A8FCF71CFC24
:10B95000F4E7052801D0FBF701FB0DF5017D30BDB3
:10B960003CD70200024B1B780BB1FFF7D5BF7047E5
:10B97000E33A00207FB506460C46002900F0AD8072
:10B98000574B0B600C22002101A800F079FA01232B
:10B990008DF8063022688DF80460062301A9202066
:10B9A000ADF80830FFF7B4FF58B14E4B1D88FCF7D7
:10B9B00015FC2D0445F0010502464B492846FAF7CF
:10B9C000CFFF0C22002101A800F05AFA01238DF8C4
:10B9D00005302268002301A94020ADF80630FFF7AA
:10B9E00097FF58B13F4B1D88FCF7F8FB2D0445F03D
:10B9F000010502463D492846FAF7B2FF0C22002114
:10BA000001A800F03DFAF72322688DF8046001A92F
:10BA10002320ADF80630FFF77BFF58B1314B1D886E
:10BA2000FCF7DCFB2D0445F00105024630492846B1
:10BA3000FAF796FF0C22002101A800F021FA01205C
:10BA400022688DF8040001A9FFF762FF58B1254B69
:10BA50001D88FCF7C3FB2D0445F00105024625496E
:10BA60002846FAF77DFF0C22002101A800F008FA11
:10BA70004FF4B0632268019301A9A120FFF748FFAA
:10BA800058B1184B1D88FCF7A9FB2D0445F00105A2
:10BA9000024619492846FAF763FF0C22002101A843
:10BAA00000F0EEF99DF8043022686FF3000301A95D
:10BAB000A0208DF80430FFF72BFF60B1094B1C88E4
:10BAC000FCF78CFB240444F0010402460B49204699
