:020000022000DC
:1060000000000120396202009162020093620200E6
:10601000956202009762020099620200000000008F
:106020000000000000000000000000001DA50200AC
:106030009D620200000000003DA50200A162020076
:1060400021C60200A7620200E1C80200AB620200A2
:10605000AD620200AF62020089C60200B3620200B4
:10606000B5620200B7620200B9620200BB620200C0
:10607000BD620200BF620200C1620200C362020090
:10608000C562020085A70200C9620200CB6202005D
:10609000CD620200CF62020091370300D36202009A
:1060A000D5620200D7620200D9620200DB62020000
:1060B000DD620200DF620200A3620200A36202004E
:1060C000E1620200E3620200E5620200E7620200B0
:0C60D000E9620200EB620200ED620200D7
:1060DC00354936480A1A02D0072291438D46344975
:1060EC0034480A1A06D00722914381F30988022208
:1060FC0082F3148830483149314A00F044F8314871
:10610C003149324A00F03FF831483249324A00F006
:10611C003AF832483249334A00F035F832483349BC
:10612C00334A00F030F833483349344A00F02BF846
:10613C0033483449344A00F026F8344834490022B4
:10614C0000F02CF833483449002200F027F833488B
:10615C003349091A082902DB002202604160314AE6
:10616C0090471F481F49884205D00268043003B489
:10617C00904703BCF7E700208646EC460020002140
:10618C00294A9047FEE7884207D0521A05D0037877
:10619C0001300B700131013AF9D17047884202D0BD
:1061AC0002700130FAE770470000012000F800206F
:1061BC000000012000000120486B03001058002053
:1061CC00A8580020F0620200F0620200144603009E
:1061DC00486B030010580020105800208C47030017
:1061EC008C4703008C4703008C4703008C4703004B
:1061FC008C4703008C4703008C470300486B03005B
:10620C00E06B0300A8580020A8580020A8580020D4
:10621C005C8200205C8200205C8200205C8200207A
:10622C005C8600205D62020061E502000F484FF0C1
:10623C000701884385460E4880470E48016841F4A3
:10624C0070010160BFF34F8FBFF36F8FFFF740BF3B
:10625C0009480A490A4A884207D0521A05D00378DD
:10626C0001300B700131013AF9D170470000012067
:10627C00C1A1020088ED00E034470300B8570020AC
:10628C0010580020FEE7FEE7FEE7FEE7FEE7FEE71C
:10629C00FEE7FEE7FEE7FEE7FEE7FEE7FEE7FEE7CA
:1062AC00FEE7FEE7FEE7FEE7FEE7FEE7FEE7FEE7BA
:1062BC00FEE7FEE7FEE7FEE7FEE7FEE7FEE7FEE7AA
:1062CC00FEE7FEE7FEE7FEE7FEE7FEE7FEE7FEE79A
:1062DC00FEE7FEE7FEE7FEE7FEE7FEE7FEE7FEE78A
:0462EC00FEE700BF0A
:1062F0007047704700B583B0044B00934023044AB5
:1063000000F034F803B05DF804FB00BF1563020031
:10631000AC5800200AB3F8B50F46144603260025F2
:1063200003E00E4B01221A70B4B122467919002005
:1063300008F0ECF90544241A0028F2D1074B1B7829
:1063400053B14FF47A40064B43F001039847013EA6
:10635000E7D1024B00221A70F8BD7047A858002000
:106360009047030008B508F02BFA08BDF0B595B0CA
:106370000F4615461C46084603F026FD0E950F9461
:10638000002410948DF8444012941A9B13932346D2
:10639000082208A9384603F032FD0A9B0B93BDF88A
:1063A0002430ADF83030BDF82630ADF832308DF8FD
:1063B00035409DF8203003F00303012B06D0022B5B
:1063C00021D0384603F006FD15B0F0BD089DC5F399
:1063D00095259DF82030C3F3C2038DF83430BDF805
:1063E0002040C4F383140823A2000DEB03013846B8
:1063F00003F005FD0EAB00930BAB224602A9284625
:1064000000F0EEFEDDE7BDF82250AD099DF820302A
:10641000C3F3C2038DF8343008262C46082D28BF5C
:1064200008243346224602A9384603F0E8FC2644F5
:106430002D1B0EAB0BAA214602A800F035FF002D44
:10644000EBD1BEE708B5FFF78DFF0421064800F049
:1064500039FE002803DB044B01225A7208BD0349B0
:10646000412008F043F8F6E710580020A447030045
:10647000002002E0012383B9013009280BDC074B1F
:10648000D3F81034002BF5D01A7A824201D05B6821
:10649000F8E70023EFE74FF0FF307047BC590020CA
:1064A00008B5037813F0030F02D013F0040F2CD0BB
:1064B00013F0040F1ED0037803F00303012B08D060
:1064C000022B0FD012494FF4A47008F00FF80120EE
:1064D0001AE00388C3F383130A68134402330B6082
:1064E000012011E042880B6803EB921302330B602A
:1064F000012009E0428803889B0903EB92130A6894
:10650000134401330B60012008BD0020FCE700BFED
:106510003048030030B585B02C4C04F5836002F0A0
:1065200022FD04F2144002F01EFD60680390A5688D
:106530002840023004EB8000043003A9FFF7B0FFCD
:1065400088B303982840831C204800EB8300043064
:10655000F3E7039B591C03912B4002331B4901EBCA
:1065600083035B684DF822300132012AF1D99DF88E
:10657000003003F00303012B17D0022B1FD1BDF80D
:106580000640BDF802309B090333039A02EB9303E4
:1065900003930F4802F0ECFC10B10C4B039A5A60C5
:1065A000204605B030BD0022DFE7BDF80640BDF84B
:1065B0000030C3F38312039B13440393E9E70549B7
:1065C0004FF4C27007F092FF0024E2E7BC590020AC
:1065D000D05D00203048030010B5104BFF229A60B8
:1065E00000221A605A60C3F81824C3F81424012248
:1065F00083F820240A4803F099FB044658B9094956
:10660000094BC91AC90800238B4204D2074A22F851
:1066100023300133F8E7204610BD00BFBC590020ED
:10662000F4460300F44603006C460300B85700200C
:106630000248034BC01AC008704700BFF44603006D
:106640006C460300A1B110B50446FFF7F1FF00232B
:1066500083420BD2074A02EB83025188226891429F
:1066600001D00133F4E72360002000E0052010BDD5
:1066700000207047B857002000B583B0019001A8F2
:10668000FFF7E0FF30B9019A034B53F8320003B033
:106690005DF804FB0020FAE76C460300094B03EBAE
:1066A000C0000139032909D8DFE801F0020A040615
:1066B000022070470079704740797047002070478A
:1066C000042070476C460300034B58681B689842CF
:1066D00014BF002001207047BC5900202DE9F04173
:1066E00086B0FFF7F1FF002840F0158105468C4881
:1066F0000023C0F81834BFF34F8F436805938468B4
:106700002340023300EB8300043005A9FFF7C8FEE5
:1067100048B3834B1A68059B9A4206D9234002333B
:106720007F4800EB8303181DEFE77D4B5A60F3E0D1
:10673000059B591C059123400233794901EB8303E2
:10674000596802AB43F822100132012AF0D99DF8B2
:10675000083003F00303022B07D0012B6FD0704BDE
:10676000D3F81044C7E00022EFE7BDF80A309F09D4
:106770003E46502F28BF502666F38F13ADF80A30DF
:1067800006F10801674803F0ECFA0546A0B303F0F0
:106790001BFB002308220DEB0201284603F027FB18
:1067A000059A24EA020301339B009E423AD983B33F
:1067B000224002325A4901EB8202111D5BB3DCB266
:1067C0005BB3DFF864815BB3F6B2DBB2F31ADEB21F
:1067D00008232246284603F00AFB04F10803B8F117
:1067E000000F04D032464146284603F000FB033731
:1067F000059B03EB97070597002DB0D0484BD3F8C6
:106800001044D3F81834002B50D0284603F0E2FA95
:106810007BE04549D2E7F4B2D2E74FF00008D2E777
:106820000026D5E702EA040302333D4901EB830168
:10683000082332460431284603F0D9FAD7E7BDF8D9
:106840000820C2F38313062B28BF062363F38912A3
:10685000ADF8082002339900324803F082FA054669
:106860000028C9D003F0B0FA002308220DEB020182
:10687000284603F0BCFA002608270FE0059B5A1CA7
:10688000059223400233264901EB83013B46042253
:106890001144284603F0ABFA04370136BDF808303E
:1068A000C3F38313B342E9D8A6E7646844B1637ABB
:1068B000002BFAD023681B68294620469847F4E746
:1068C000284603F087FA00238DF807300DF1070002
:1068D00001F082F8124BD3F8183413B9104B059A13
:1068E0005A609DF8070001F0ABF80EE023689B6842
:1068F000204698476468002CF8D10C4B1888000497
:106900000B4940F0020000F015F8FFF7DDFE80F0C3
:106910000100C5B200E00025284606B0BDE8F081C0
:10692000BC590020F4460300C8590020CC57002071
:10693000B44803002DE9F04383B005460E46DFF866
:106940000881D8F8084000238DF807300DF10700C2
:1069500001F042F8D8F80070D8F80820D8F80430D0
:10696000DB1B13440133012B17D8DFF8DC8008F25E
:106970001C490121484602F0DBFAFFF7CBFD014636
:10698000484602F0D5FAD8F80820D8F80430D8F8EC
:1069900000105B1A13440133E5E70022012363F37F
:1069A000010242F004026FF38912DFF89C80D8F8EC
:1069B0000010D8F808300B40023308EB83035A600C
:1069C0000231C8F800109DF8070001F039F84FEACD
:1069D0001549002108F21C4002F069FA80F3100802
:1069E000FFF726FE814529D27B1C234049EA084057
:1069F0001549023301EB8303586004EA07030233AD
:106A000001EB83031A7965F3C5021A719A886FF353
:106A100089129A805A6866F39F225A60012060F3B7
:106A200001026FF382021A7191F820341BB1FFF753
:106A300055FE0028FBD103B0BDE8F083034940F2C6
:106A4000A91007F053FDCFE7BC59002030480300E0
:106A50002DE9F04F85B08346019192464E4CA568D2
:106A600002F103094FEA990909F1020700238DF8A1
:106A70000F300DF10F0000F0AFFFD4F80080A268D6
:106A80006368A3EB0803134401339F4213D9424CBC
:106A900004F21C460121304602F04AFAFFF73AFDA3
:106AA0000146304602F044FAA268636821685B1A26
:106AB00013440133E9E70022022363F3010242F0A9
:106AC000040269F39F52344C2168A3680B400233DF
:106AD00004EB83035A600F4427609DF80F0000F019
:106AE000AFFF08F10203A4682B40E41A0134A400AC
:106AF000A2453CD80233284800EB83005246019956
:106B000004300DF033F94FEA1B46234C002104F208
:106B10001C4002F0CCF980F3100008F101032B4077
:106B200046EA0046023304EB83035E6005EA08058B
:106B3000023504EB85052B796BF3C5032B71AB880C
:106B40006FF38F13AB80E9886AF38F11E98002221B
:106B500062F301036FF382032B7194F820341BB1AD
:106B6000FFF7BCFD0028FBD105B0BDE8F08F0A4E51
:106B7000023306EB83002246019F394604300DF0B4
:106B8000F5F8AAEB04023B462344194606F10C0033
:106B90000DF0ECF8B7E700BFBC5900202DE9F04339
:106BA00083B005460E460192DFF82481D8F80840EC
:106BB00000238DF803300DF1030000F00DFFD8F82D
:106BC0000070D8F80820D8F80430DB1B13440133D8
:106BD000022B17D8DFF8F88008F21C49012148463B
:106BE00002F0A6F9FFF796FC0146484602F0A0F92C
:106BF000D8F80820D8F80430D8F800105B1A1344ED
:106C00000133E5E70022012363F3010242F00402AD
:106C100063F389122E4908688B680340023301EB45
:106C200083035A60033008609DF8030000F008FFFA
:106C3000BA1C00237BB904EA020102A800EB83001E
:106C400050F804CC881C224901EB8001C1F804C033
:106C500001330132EEE74FEA154800211D4802F0EA
:106C600026F980F31009FFF7E3FC804529D27B1C4D
:106C7000234048EA09401649023301EB8303586078
:106C800004EA0703023301EB83031A7965F3C502B3
:106C90001A719A88012060F389129A805A6866F303
:106CA0009F225A6060F301026FF382021A7191F819
:106CB00020341BB1FFF712FD0028FBD103B0BDE863
:106CC000F083054940F2A91007F010FCCFE700BFA0
:106CD000BC590020D85D0020304803002DE9F04366
:106CE00085B005460E4602920393DFF82C81D8F852
:106CF000084000238DF807300DF1070000F06CFE0E
:106D0000D8F80070D8F80820D8F80430DB1B1344FA
:106D10000133032B17D8DFF8008108F21C49012149
:106D2000484602F005F9FFF7F5FB0146484602F038
:106D3000FFF8D8F80820D8F80430D8F800105B1A0B
:106D400013440133E5E70022012363F3010242F01B
:106D50000402022363F389122F4908688B680340F9
:106D6000023301EB83035A60043008609DF807008A
:106D700000F066FEBA1C0023012B0FD804EA0201C2
:106D800004A800EB830050F808CC881C224901EBD2
:106D90008001C1F804C001330132EDE74FEA154824
:106DA00000211E4802F083F880F31009FFF740FC31
:106DB00080452AD27B1C234048EA09401649023309
:106DC00001EB8303586004EA0703023301EB8303FA
:106DD0001A7965F3C5021A719A88022060F3891244
:106DE0009A805A6866F39F225A60012060F301027C
:106DF0006FF382021A7191F820341BB1FFF76EFC19
:106E00000028FBD105B0BDE8F083054940F2A91088
:106E100007F06CFBCEE700BFBC590020D85D002016
:106E2000304803002DE9F04385B005460E46019237
:106E300002930C9B0393DFF82C81D8F808400023C1
:106E40008DF803300DF1030000F0C6FDD8F8007096
:106E5000D8F80820D8F80430DB1B13440133042B86
:106E600017D8DFF8008108F21C490121484602F0DA
:106E70005FF8FFF74FFB0146484602F059F8D8F893
:106E80000820D8F80430D8F800105B1A13440133F6
:106E9000E5E70022012363F3010242F00402032329
:106EA00063F389122F4908688B680340023301EBB2
:106EB00083035A60053008609DF8030000F0C0FDB0
:106EC000BA1C0023022B0FD804EA020104A800EB2D
:106ED000830050F80CCC881C224901EB8001C1F8DA
:106EE00004C001330132EDE74FEA154800211E4886
:106EF00001F0DDFF80F31009FFF79AFB80452AD2ED
:106F00007B1C234048EA09401649023301EB830306
:106F1000586004EA0703023301EB83031A7965F32F
:106F2000C5021A719A88032060F389129A805A6800
:106F300066F39F225A60012060F301026FF3820220
:106F40001A7191F820341BB1FFF7C8FB0028FBD160
:106F500005B0BDE8F083054940F2A91007F0C6FA74
:106F6000CEE700BFBC590020D85D002030480300A8
:106F70002DE9F04387B005460E46019202930E9B21
:106F800003930F9B0493109B0593DFF82C81D8F893
:106F9000084000238DF803300DF1030000F01CFDC4
:106FA000D8F80070D8F80820D8F80430DB1B134458
:106FB0000133062B17D8DFF8008108F21C490121A4
:106FC000484601F0B5FFFFF7A5FA0146484601F033
:106FD000AFFFD8F80820D8F80430D8F800105B1AB2
:106FE00013440133E5E70022012363F3010242F079
:106FF0000402052363F389122F4908688B68034054
:10700000023301EB83035A60073008609DF80300E8
:1070100000F016FDBA1C0023042B0FD804EA02016D
:1070200006A800EB830050F814CC881C224901EB21
:107030008001C1F804C001330132EDE74FEA154881
:1070400000211E4801F033FF80F31009FFF7F0FA2A
:1070500080452AD27B1C234048EA09401649023366
:1070600001EB8303586004EA0703023301EB830357
:107070001A7965F3C5021A719A88052060F389129E
:107080009A805A6866F39F225A60012060F30102D9
:107090006FF382021A7191F820341BB1FFF71EFBC7
:1070A0000028FBD107B0BDE8F083054940F2A910E4
:1070B00007F01CFACEE700BFBC590020D85D0020C5
:1070C0003048030010B50446FFF7D2F9B0F1FF3F96
:1070D0000AD02072084BD3F8103433B15B68636078
:1070E000054BD3F810345C6010BD034BC3F810445B
:1070F00000236360F8E700BFBC59002010B5084BBF
:10710000D3F81044012283F820243CB10123637298
:1071100023685B68204698476468F6E710BD00BFA7
:10712000BC59002070B582B004460D46C388A3B98F
:10713000217A05290FD0637ABBB9227A104B53F814
:1071400022600021A088FFF797FA034632460D49D6
:10715000284601F0E9FF02B070BD0B4A00920B4ACD
:107160000B49284601F0E0FFE2E7A088FFF796FA16
:10717000084B53F820200849284601F0D5FFDCE7EA
:1071800050490300444903003849030018490300EB
:1071900020490300E04803004049030010B50C46B5
:1071A000037A052B0FD0437A3BB90A49204601F0F8
:1071B000BBFF204601F0A4FF10BD074A0749204647
:1071C00001F0B2FFF1E7002AF3D00249204601F0B6
:1071D000ABFFEEE7BC6703003849030040490300FA
:1071E0002DE9F04385B081460D4617461E460C9C9E
:1071F00094F80C800023237321463046FFF792FF5A
:10720000062F09D8DFE807F00412181F28334000C2
:107210004946204601F088FF002221463046FFF70C
:10722000BDFF84F80C8005B0BDE8F0832A684946AC
:10723000204601F079FFEFE76B682A68494620464F
:1072400001F072FFE8E7AB6800936B682A68494673
:10725000204601F069FFDFE7EB680193AB6800931C
:107260006B682A684946204601F05EFFD4E72B6927
:107270000293EB680193AB6800936B682A684946F8
:10728000204601F051FFC7E76B6903932B69029316
:10729000EB680193AB6800936B682A684946204607
:1072A00001F042FFB8E70000082900D970472DE936
:1072B000F0471D4690460E46074693F80C90002472
:1072C0001C7319461046FFF72DFF04E01B492846A2
:1072D00001F02AFF0134072C07D8B442F6D23A5DF8
:1072E0001749284601F020FFF4E71649284601F027
:1072F0001BFF002405E052461349284601F014FF05
:107300000134072C10D8B44209D217F804A0504613
:107310000CF0C6FC0028EED14FF02E0AEBE70B492B
:10732000284601F001FFEBE7012229464046FFF71E
:1073300035FF85F80C90BDE8F08700BF0C490300CD
:107340000449030010490300144903004C49030099
:107350000B4651B15AB1511E0A420AD103608180D5
:1073600000238360C360184670470E2070470920D1
:107370007047092070478268C3689B1A82889A42C6
:1073800001D20420704710B40368C46822409954A5
:10739000C3680133C36000205DF8044B7047826806
:1073A000C3689A420DD010B4026883688488234071
:1073B000D35C0B7083680133836000205DF8044B5D
:1073C000704705207047000000B583B00378012B9B
:1073D00007D05AB2002A55D0022B39D003B05DF83D
:1073E00004FB436819783648FFF7C5FF90B10122C6
:1073F0008DF800200190334B1B6868469847304A4F
:107400009168D3685B1A92889A4210D22E4B01225F
:107410001A70E3E72A4B9A68DB689A42EFD00023A0
:107420008DF80030274B1B6868469847E7E7274BE5
:107430001B78274AD35C2BB101222649264806F047
:10744000A3F9CBE701222349244805F0E9FDC5E76C
:1074500002238DF80030C36801931C4B1B781C4A33
:10746000D35C4BB101221B491B4806F08DF9154B2B
:107470001B6868469847B1E701221649174805F08E
:10748000CFFDF4E716491748FFF789FF38B103230A
:107490008DF800300B4B1B68684698479EE70B4BF6
:1074A0001B780B4AD35C2BB101220D490A4806F028
:1074B000F3F893E701220A49084805F049FD8DE7F2
:1074C000E45D0020E05D0020F45D00201C580020F9
:1074D0004C710020085E0020205800202858002011
:1074E0000C5E0020F85D0020F0B589B02E4C2260C3
:1074F000002957D00C461F4605468A8809682B4844
:10750000FFF726FF024610B1104609B0F0BDA28970
:10751000A1682748FFF71CFF02460028F4D16C46FB
:10752000244E0FCE0FC496E80F0084E80F006B695D
:1075300006932B7C003318BF01238DF814308DF88F
:107540001C706B7C2BB30E238DF81530EB68029307
:10755000AB6803932B6801936B680093164A6946E6
:10756000164804F085FF02460028CDD1144B0021B7
:1075700019702B68B3F1FF3FC6D0104B1B78114A2E
:10758000D35C43B101221049104806F0FDF80246D1
:10759000BAE70023D8E701220B490D4805F040FD6A
:1075A0000246B1E70722AFE7E05D0020E45D00207E
:1075B000F85D0020BC490300C97302001C5800207C
:1075C000F45D00204C710020085E0020205800204F
:1075D0002858002038B5044648B1144B1D78214680
:1075E0001348FFF7DCFE044635B9204638BD114983
:1075F000C22006F07BFFF0E70C4B00221A700E4B06
:107600001B780E4AD35C5BB101220D490D4806F090
:10761000BBF80028E9D0074ACE2100F05FF8E4E784
:1076200001220749084805F0FBFCF2E7F45D002061
:10763000E45D0020DC4903001C5800204C71002050
:10764000085E0020205800202858002008B5074B6D
:107650001B78074AD35C23B1064805F0E9FF0020F8
:1076600008BD054805F048FCF9E700BF1C5800209C
:107670004C710020205800202858002082B001239F
:107680008DF807309DF80730134B186059609A60E9
:1076900044F20103984213D044F20203984207D106
:1076A0000D4BDA60DA6812889A61DA685268DA613A
:1076B00072B69DF80730002BFBD162B602B070475E
:1076C000054B1A611A6992685A611A6912689A61BF
:1076D0001A695268DA61EBE7105E002000B583B0EA
:1076E00002900091019244F2010071466A4600F056
:1076F00003F803B000BD00002DE9F04385B0044657
:107700000E46154672B6FFF7F9FCFEF7E7FF0028B4
:10771000FBD141F201039C422BD012D944F2010368
:107720009C422FD044F202039C424BD12A4B188832
:1077300000042B886A68294940F00100FFF7CEFA5F
:1077400009E0012C3ED1244B18880004244940F064
:107750000100FFF7EFF8234B1B6813F0010F00D077
:1077600000BE2A4631462046FFF788FF05B0BDE837
:10777000F083194B188800041B4940F00100FFF703
:10778000D9F8E8E7DFF85080B8F800703F0447F018
:107790000107D5F80890484602F098FB6B682A6804
:1077A00002960192009303464A4610493846FFF775
:1077B000DFFBB8F8000000040D4940F00100FFF7BE
:1077C000B9F8C8E7044B188800043246094940F06C
:1077D0000100FFF7E3F9BEE7CC570020904A030011
:1077E0004C4A0300F0ED00E06C4A0300AC4A030091
:1077F000D44A0300E84A030038B5054604F008FC03
:1078000004464368AB4203D00849692006F06EFE87
:10781000A3682BB1237B13B1A3682068984738BDB8
:1078200002496A2006F062FEF4E700BF004B030045
:107830000020704770B582B00468FAB11546F8B1FF
:10784000227BFAB9626812B1082002B070BD0E4600
:107850001022002120460CF0B2FA6EB90022A56079
:107860000A4B009323464FF47A71094804F02CFA2E
:10787000606048B10020E8E70122F0E70720E4E774
:107880000720E2E70820E0E70E20DEE7F9770200B4
:107890004C490300F0B585B04768002F51D014461D
:1078A0000E460546037B8BB92C60EFF3058363B36B
:1078B00000230393009303AB32460921384604F0BA
:1078C0001DFA012809D0042005B0F0BD384604F0A7
:1078D00089FB0028E8D00020F6E703F0BBFD002379
:1078E000009303AB02460621384604F007FA01284C
:1078F000E9D1039B0BB3154B4FF080525A6040BF48
:10790000BFF34F8FBFF36F8F17E002230093002365
:1079100032460421384604F0F1F9012801D0042050
:10792000D2E703F091FD02230093002302460121D8
:10793000384604F0E3F9012805D101232B73002018
:10794000C2E70820C0E70420BEE700BF00ED00E06A
:1079500030B585B045684DB30446EFF30583BBB140
:1079600000220392009203AB0821284604F0C6F9D6
:1079700001280BD1039BABB10E4B4FF080525A60E4
:1079800040BFBFF34F8FBFF36F8F0BE004200BE0BE
:107990000223009300231A460321284604F0AEF97F
:1079A000012805D10020207305B030BD0820FBE779
:1079B0000420F9E700ED00E0EFF30583C3F30803CB
:1079C0003BB9EFF3148313F0010F0CBF012000202B
:1079D000704701207047000038B50446FFF7ECFF00
:1079E00001281CD1EFF3108272B6114B9B68DBB9F2
:1079F0000F4901238B600F4BD3F880000E4D2840B8
:107A00000860C3F88050D3F8840048604FF0FF311D
:107A1000C3F884100023237002B962B638BD074949
:107A2000432006F063FDDDE701232370F4E700BF88
:107A3000305E002000E100E0FC06FFBD784B030053
:107A400010B50446FFF7B8FF012811D10B4B9B6816
:107A50006BB164B9EFF3108172B6084B1868084A2D
:107A600010605868506000229A6001B962B610BD7B
:107A70000449512006F03AFDE8E700BF305E0020DF
:107A800000E100E0784B030038B50546002400E033
:107A90000134032C07D8044B53F82430002BF7D0C3
:107AA00028469847F4E738BD485E00200378013B3C
:107AB000052B34D8DFE803F0030611202931002319
:107AC0000B70704701230B7003898B818388CB81F6
:107AD000C3688B6000230B74704702230B7003890B
:107AE0008B818388CB81C3688B60837D062B14BF19
:107AF000002301230B74704703230B70C3888B8111
:107B00000389CB81C3688B60704704230B70C388E3
:107B10008B810023CB818B60704705230B707047EE
:107B2000884207D20368B3F1FF3F01D001207047BC
:107B300000207047002070474388033300EB830028
:107B4000704738B504460D46FFF7F6FF854208D367
:107B5000A2884FF6FF739A4205D023882BB10020EC
:107B600038BD0220FCE70120FAE70120F8E7000019
:107B700060B10A4AD26882420AD8084A126982422F
:107B800008D310F0030F07D1012070470020704781
:107B9000002070470020704700207047FC570020ED
:107BA00060B10168094A91420AD14368084A934288
:107BB00008D00132934207D003207047032070475A
:107BC000032070470020704701207047DEC0ADDE03
:107BD000FE011EF10023B3F5806F06D250F823207A
:107BE000B2F1FF3F03D10133F5E7012070470020D8
:107BF0007047000030B40A4C82001518AB001D46D7
:107C000023441B8919442C44608910FA81F188B2FD
:107C1000B0F5806F2CBF0020012030BC704700BF42
:107C20007C5E00200023012B18D810B403E0013340
:107C30009BB2012B0ED803EB83029400084A224426
:107C400052688A42F3D202F580528A42EFD9038009
:107C5000002000E00A205DF8044B70470A207047BE
:107C60007C5E0020F8B50D46174600F5805600F101
:107C7000080402230B800DE00FB101223A70022BA1
:107C80001CD063882A88134403332B802046FFF7D7
:107C900053FF044631462046FFF742FF88B1314684
:107CA0002046FFF74EFF03460028E5D1A368054AAA
:107CB00012689342E5D9034A1360E2E74FF4806308
:107CC0002B80F8BD745E00208B7D022B04D9CB88FD
:107CD0000289134403330381CA8843899B1A033BF7
:107CE00043817047F8B5033085B240F2FD339D42C1
:107CF00020D80E46002401E00134A4B2012C17D88C
:107D000004EB840293000C4AD35C002BF4D1294687
:107D10002046FFF76FFF0028EED034800649A3000D
:107D2000181982000A4453891D445581002000E03F
:107D30000720F8BD0920FCE77C5E002030B4054C2C
:107D40008B005D18AA0022445389181A0338508109
:107D500030BC70477C5E0020F8B50F4600EB800019
:107D60008200134B13445C6804F580550868A8B181
:107D7000FFF7E2FE044629462046FFF7D1FE0646FD
:107D800050B129462046FFF7DCFE01280AD043B255
:107D900033B10228EFD100263046F8BD0834EAE7B7
:107DA0003C60F9E72046FFF7C7FE0446E3E700BF63
:107DB0007C5E002070B582B005460C464068FFF737
:107DC000D7FE20B12A89174B1B899A4218D000236D
:107DD00023802388012B23D80023019301A9208825
:107DE000FFF7BAFF0646B8B1019B99682A6891422D
:107DF000F4D16B600B4B1B892B81304602B070BDF8
:107E00002A6869688B689A42E1D12046FFF70AFF29
:107E1000B0FA80F67609F0E7238801332380D8E7AB
:107E20000026EAE7605E0020F8B51E4E3678002E88
:107E300033D0002A33D01C4616460F46054633B9C8
:107E4000052027E000232360A3880133A380A388B3
:107E5000012B20D803EB83039A00134B9B5C002B70
:107E6000F2D12146A088FFF777FF0028EAD02368E7
:107E70001DB199882A889142F3D11FB119883A8897
:107E80009142EED19B68336023687360074B1B8976
:107E900033810020F8BD0A20FCE70220FAE7052024
:107EA000F8E700BF585E00207C5E0020605E002086
:107EB0002DE9F0470024A1464FF003082646274647
:107EC0002DE0434A156002219180814650E008F17F
:107ED000FF381FFA88F83F49B3009819820010460E
:107EE0000A44556003230B540136B6B215E03949F4
:107EF000B3009819820088184FF0000C01F802C0F6
:107F000045601046103208300A4401442846FFF705
:107F1000A9FE47F002070136B6B20134A4B2022C22
:107F20004ED82D4BDD6805EB04352846FFF738FEAB
:107F3000012820D043B2002BD9D00328EDD1284608
:107F4000FFF748FE0028C2D0214A1268002AB8D0A4
:107F5000204BB2009019810003EB010C0220585411
:107F6000CCF80450ACF808001C4B5E800136B6B269
:107F700047F00107D1E7B9F1000F0FD0154BB20060
:107F80009019810003EB010C022058541049096834
:107F9000CCF80410ACF808000136B6B2DFF830A017
:107FA000514641F8045B00222846FFF75BFEBAF811
:107FB0000430022B02D008231F43AEE70423FBE763
:107FC000B8F1010F02D9F8B2BDE8F0870027FAE74F
:107FD000345F00207C5E0020FC570020605E0020A3
:107FE0000B4A1389013313810023538013730CE070
:107FF00003EB83018A0007498A5CB2FA82F25209D4
:10800000034919448A7201339BB2012BF0D970479E
:10801000605E00207C5E00200023012B27D8164ADA
:108020001A44927A32BB01339BB2F6E701339BB21A
:10803000012B17D8104A1A44927A002AF6D00E4A19
:108040001A440024947203EB830294000B4A2244E6
:10805000D268002AEAD1094A2244127C002AE5D0DB
:10806000038000E0002210465DF8044B70470022B8
:108070001046704710B4E2E7605E00207C5E00208E
:10808000044B5B685B880333034A918811FA83F3DE
:1080900093807047605E0020345F002070B40A490E
:1080A0000E680A4B5C880A48A3001D19AA00024406
:1080B00055680D6056608D8823449A0010440581F0
:1080C00002238B8070BC7047345F0020605E00200C
:1080D0007C5E002008B5124B1B78072B0AD8DFE81E
:1080E00003F00409090A1016161AFFF779FF0C4B62
:1080F00001221A7008BDFFF7C3FF094B02221A7054
:10810000F8E7FFF7CBFF064B06221A70F2E7044BA5
:1081100007221A70EEE7024B01221A70EAE700BF4D
:10812000605E00204FF0102358694FF080531A69A9
:108130005B69B0F1FF3F00D0704703FB02F0FBE743
:1081400008B5FFF7EFFF034B1861A0F54050D8606A
:1081500008BD00BFFC57002008B50146014800F0EB
:1081600031FE08BD3058002008B5064B05221A70B4
:10817000054902238B80002301220968034801F08E
:1081800015FB08BD605E0020345F0020FC57002016
:1081900008B50D4B5B8803EB830291000B4A0A4440
:1081A000D26872B9084A0421117003EB83039A0064
:1081B00006491144002301224968054801F0F6FAF6
:1081C00008BDFFF7D1FFFBE7605E00207C5E00206A
:1081D000FC57002000B583B0002300930823044A15
:1081E00004490968044801F025FA03B05DF804FB6E
:1081F000F84B0300345F0020FC57002008B5044B07
:1082000007221A7000225A60FFF7E4FF08BD00BF82
:10821000605E002000B583B0002300930823044A69
:108220000146044801F006FA03B05DF804FB00BF04
:10823000F04B0300FC570020F8B530B90B79032B45
:108240005BD8DFE803F0071A343F2E4B00225A6058
:10825000012005E001230B71FFF7BCFF00284CD182
:10826000F8BD0A469B001C18A100002454540A447F
:108270005068FFF7CFFF01230FE00023012B0AD83E
:10828000184603EB83018A001F498A5C022AE8D062
:1082900001339BB2F2E700230F20002BDED1194BF4
:1082A00001221A7000225A6041F61D50D8E70023BF
:1082B0000B71164902228A8001220968144801F0D4
:1082C00075FACBE700250D71104C2068FFF7A2FF6F
:1082D000104B5988D4F800C00B4E8A005718BB00C9
:1082E00033445F682760C3F804C0A7881F81022356
:1082F000A38053189A00B554B0E7024B00225A608D
:108300000E20ADE7585E00207C5E0020345F002028
:10831000FC570020605E002008B5064B06221A704C
:108320005B8803EB83039A00034B13445868FFF701
:1083300071FF08BD605E00207C5E002000B583B048
:1083400002238375002300930423C218054801F01B
:1083500071F9034618B9184603B05DF804FB0E2303
:10836000F9E700BFFC57002000B583B0036983B173
:108370000323837500230093042300F10C020831CA
:10838000064801F057F9034628B9184603B05DF8CE
:1083900004FB0123EDE70E23F7E700BFFC570020A5
:1083A00000B583B001238375C388002200929B002F
:1083B00002690C31054801F03DF9034618B9184629
:1083C00003B05DF804FB0E23F9E700BFFC57002063
:1083D00000B583B00378032B10D0062383750023E8
:1083E0000093042300F108021944064801F022F921
:1083F000034628B9184603B05DF804FB0523EDE7F2
:108400000E23F7E7FC57002010B582B00C4600237E
:1084100000930423094A0146094801F00BF950B9B9
:10842000014604EB8404A200064B134401221A7493
:10843000084602B010BD0E21FAE700BFEC4B030066
:10844000FC5700207C5E002070B50C468B8A03EB45
:1084500083018A002A4D154498B929489A00D618F4
:10846000B1000E46014449683044068901EB860696
:10847000A37D062B0BD8DFE803F0152D21270C3345
:108480003D0021462846FFF71FFC012614E00F2679
:108490000EE01C4800234360A36903601A49FFF7FC
:1084A00089FC50B331462046FFF748FF06461EB10F
:1084B00021462846FFF708FC304670BD314620466D
:1084C000FFF752FF0646F2E731462046FFF768FF06
:1084D0000646ECE731462046FFF77AFF0646E6E718
:1084E0000623A375084B1988064B5868FFF78CFFC5
:1084F0000646DCE741F61D56DAE70A26DCE700BF50
:108500007C5E00203C5E0020405F002010B584B0FF
:108510000446002301930293C36800930DF10E01FA
:108520006846FFF747FC10B90A2004B010BD019857
:108530008388E38003882381BDF80E10FFF764FF72
:10854000F3E7000030B583B009484268094B196869
:108550009C88538803339BB203250570002000904C
:108560009B0001EB8401044801F064F803B030BDC6
:10857000605E0020345F0020FC57002008B5064BE9
:10858000191D5888FFF7E8FB10B1FFF7DBFF08BDA6
:10859000FFF7FEFDFBE700BF605E002008B507485F
:1085A000FFF73AFD10B1FFF7E9FF08BD044B0022C9
:1085B0001A705A805A6041F61D50F6E7625E00203C
:1085C000605E002030BB08B5144B1B7B6BB1134BB6
:1085D00000221A73114B1B78013B062B1CD8DFE8D5
:1085E00003F0070A0D101B131600FFF773FDF1E7E8
:1085F000FFF7D4FF08BDFFF7C1FFFBE7FFF7A2FFBE
:10860000F8E7FFF7C5FDF5E7FFF786FEF2E7FFF7AE
:10861000F5FDEFE7012070470F20EBE7605E0020DB
:1086200010B584B00B4B01AA00210630FFF7FCFB0C
:1086300040B9084B99880298FFF7E6FE04462046A9
:1086400004B010BD04460822002102480BF0B7FB1D
:10865000F5E700BF445F0020B0B908B508460B79C4
:10866000012B0AD05AB21AB1022B0FD00F2008BD2D
:1086700002230B71FFF74AFFF9E7FFF7D1FF0A2842
:10868000F5D141F61D50F2E70120704741F61D502B
:10869000EDE7000008B50146014800F09FFB08BD6A
:1086A0003058002008B5084B1B683BB10121064833
:1086B00000F049FC003018BF012008BD034940F21A
:1086C0007A2005F013FFF1E7305F0020004C030033
:1086D00010B586B004462BE02D48FFF73DFD2D4B2D
:1086E000186029E02C4940F2825005F0FFFE27E097
:1086F0002046FFF7A1FD002848D0002301930393F3
:108700000493059341F61D5398423DD00290214CAD
:1087100001A92068FFF7CAF901A8FFF7B5F90023FE
:1087200023601B48FFF7B6FFFFF7BCFF70B30024C0
:10873000184B1B68002BCFD0164B1B68002BD1D0D9
:10874000144B19680B78013B052B1BD801A252F87A
:1087500023F000BFF18602006D8702006D870200E2
:1087600075870200758702007D8702002046FFF7AB
:108770006BFEC0E72046FFF76FFFBCE72046FFF720
:1087800021FFB8E70F20B8E70020BFE706B010BD13
:10879000705E0020785E0020004C030008B5406841
:1087A000FFF796FF08BD000008B50121014800F061
:1087B000BFFB08BD745E002008B5FFF7C1FC0022B6
:1087C0000249034800F006FF08BD00BFC04F030088
:1087D000FC57002008B51C238C220249024800F0F7
:1087E000BCFA08BDA45E00203058002010B5014638
:1087F000044800F0D0FA04461C2200210BF0DFFAF6
:10880000204610BD3058002008B50146014800F050
:10881000CEFA08BD3058002008B50121034800F009
:108820007CFB00B108BDFFF753FFFBE7305F002082
:108830002DE9F04182B0354C2478002C5CD0002921
:108840005CD00D884FF6FF74A54259D04C88002C9F
:1088500058D04C6814F0030F56D11F460C460646FC
:10886000002A32D01388ADF80630B2F8028068468C
:10887000FFF7BCFF0546002832D007700023837540
:10888000BDF80630838263680361FFF78DFFE860FF
:1088900023882B816388AB80A5F80680032F26D020
:1088A00000236B816846FFF7AFFF3EB10023736082
:1088B000EA683260B372164B1B893381FFF7ACFF55
:1088C0000022104602B0BDE8F081B1F808800DF139
:1088D00006014046FFF706FA02460028C7D0F0E737
:1088E000BDF806104046FFF729FA0822E9E70423FD
:1088F000AB753368AB61D3E70222E2E70522E0E71C
:108900000422DEE70422DCE70322DAE7585E0020D7
:10891000605E002008B5084B1B68042B0AD0034694
:1089200005480168054A42F82130012100F000FBAA
:10893000002008BD0C20FCE73C5F0020485E0020C2
:1089400030B587B0002301930293039304930593FA
:10895000274B1B782BB9274800F000FB40B10024BF
:1089600003E001A8FFF790F80024204607B030BDCF
:10897000FFF722FF04460028F7D1FFF72BFFFFF790
:1089800097FA054602282DD0062811D060B3684614
:10899000FFF72CFF50B301220270013D0A2D12D8BF
:1089A000DFE805F00F110F111D111D11171A170027
:1089B0000F4B01221A7000225A6001A8FFF764F8D9
:1089C000D3E7002202716846FFF71EFFFFF724FF7E
:1089D000CBE703220271F6E702220271F3E70122DC
:1089E0000271F0E70B24C0E70B24BEE70824BCE7C4
:1089F000585E00205C5E002008B370B582B004466B
:108A0000F9B10D460DF10601FFF7D4F910B90A20AE
:108A100002B070BD6668BDF8063003EB83039800B2
:108A20000830094B18440121043000F081FA2E600F
:108A300063680C336B600123A3720020E8E7052014
:108A400070470520E4E700BF7C5E0020F8B130B538
:108A500083B004460DF10601FFF7ACF9C8B1BDF8CB
:108A6000063003EB830291000D4A0A44D2689AB1A2
:108A7000A27A9AB10A499A00D518A8000546084476
:108A8000C06801382944C8600020A07202E00520B7
:108A900070470A2003B030BD0620FBE70620F9E747
:108AA0007C5E00200D4B1B7893B1A0B130B583B034
:108AB0000D4604460DF106012846FFF713F903465B
:108AC00018B9BDF8062022806580184603B030BD75
:108AD0000223184670470523FBE700BF585E0020BD
:108AE00038B5104B1B78BBB1C0B10188022917D82B
:108AF0004588AC1C01EB81039A000B4B13445B8946
:108B00009C4201DB042038BD04462846FFF716F9D5
:108B1000002020806080F6E70220F4E70520F2E7DD
:108B20000420F0E7585E00207C5E002008B5022398
:108B30000022FFF77DFE08BD22B108B50223FFF732
:108B400077FE08BD0520704728B108B50323002231
:108B5000FFF76EFE08BD052070470000104B1B7824
:108B6000BBB14FF6FF73984215D010B582B00446E2
:108B700001A8FFF73BFE80B10522027001220271BD
:108B8000C48001A8FFF740FEFFF746FE002002B0B8
:108B900010BD02207047042070470820F7E700BF8F
:108BA000585E00200E4B1B78B3B100B583B001A80E
:108BB000FFF71CFE90B10622027001A8FFF724FE09
:108BC000084B1B7813B1074B01221A73FFF724FEE1
:108BD000002003B05DF804FB022070470820F8E78E
:108BE000585E0020605E002000B583B0ADF806003E
:108BF000ADF8041001A90DF10600FFF715F903B057
:108C00005DF804FB00B583B0ADF8060013460A46D4
:108C10000DF106010020FFF707F903B05DF804FB32
:108C200000B583B0ADF8060013460A4600210DF1E9
:108C30000600FFF7F9F803B05DF804FB20B129B195
:108C400003680B60002070470520704705207047BF
:108C500010B483B050E8013F9CB2B0F80EC0644439
:108C6000B0F80CC0644528BFA4EB0C04B0F808C0F1
:108C7000644502BFBFF32F8F002208E0C4EA03045B
:108C800040E8014CBCF1000FE4D14FF001028DF837
:108C900007200093009B0B609DF8070003B05DF870
:108CA000044B704750E8012FC2EA024240E801231A
:108CB000002BF7D1704710B483B050E8023F1FFA81
:108CC000A3F4B0F806C0644502BFBFF32F8F0022A3
:108CD00011E0B0F80EC06444B0F80CC0644528BF81
:108CE000A4EB0C04C3EA044440E8024CBCF1000FBE
:108CF000E3D14FF001028DF807200093009B0B6039
:108D00009DF8070003B05DF8044B704750E8022F50
:108D1000C2EA224240E80223002BF7D1704782B01A
:108D200050E8022FC188B2EB324F4FF0000317BF5B
:108D300092B241EA014142EA014104E04268B2EBE9
:108D4000324F08BF012340E80212002AE8D18DF813
:108D500007309DF8070002B0704781B110B40C468F
:108D6000B2FBF3F103FB112189B251B904604160F8
:108D700081608281C38108465DF8044B70470E20F4
:108D800070470920F8E708B5FFF7C9FF08B10020D0
:108D900008BD1120FCE738B505460C46FFF758FF23
:108DA00018B128682388184438BD0020FCE708B5AE
:108DB0000A884B889A4201D0002008BDFFF772FF55
:108DC0000120FAE738B505460C46FFF774FF18B1E5
:108DD00028686388184438BD0020FCE708B50A8875
:108DE0004B889A4201D0002008BDFFF78FFF012079
:108DF000FAE708B54B0901F01F01012202FA01F15F
:108E000000EB830000F068F808BD10B54B0901F0D5
:108E10001F040121A14000EB830000F052F8E04064
:108E200000F0010010BD08B54A0901F01F0101233F
:108E300003FA01F1C94300EB820000F063F808BDBA
:108E40004B0950F8230001F01F01C84000F0010059
:108E500070472DE9F04106460F46002516E0D8F888
:108E60000010C94391FAA1F1B1FA81F11F290CD880
:108E700001EB4514A74208D921463046FFF7C5FF4C
:108E80000028ECD12046BDE8F08101357B1E5B094E
:108E90000133AB4209D906EB850856F82510C943C2
:108EA00091FAA1F1B1FA81F1E0E73C46EAE750E836
:108EB000002F0B4640E8003C9CF0000FF7D1104615
:108EC000704750E8002F42EA010340E8003C9CF064
:108ED000000FF6D11046704750E8003F43EA010208
:108EE00040E8002C9CF0000FF6D11046704750E887
:108EF000002F02EA010340E8003C9CF0000FF6D18D
:108F00001046704750E8003F03EA010240E8002C99
:108F10009CF0000FF6D11046704750E8002F02EB8E
:108F2000010340E8003C9CF0000FF6D1104670476A
:108F300050E8003F03EB010240E8002C9CF0000FDA
:108F4000F6D11046704750E8003FA3EB010240E81D
:108F5000002C9CF0000FF6D11046704708B5012197
:108F6000FFF7AFFF08BD08B50121FFF7B5FF08BD4A
:108F700008B50021FFF7BBFF08BD000038B50D465E
:108F8000044620B1E368A08A00FB053038BD0249E1
:108F9000E82005F0ABFAF5E7744C030038B50C4651
:108FA000054630B1E868241AA88AB4FBF0F0C0B2D4
:108FB00038BD0249F52005F099FAF3E7744C030037
:108FC00000283CD010B504460368BBB16368D3B138
:108FD000A368F3B1E36813B3A38A33B3A2686368E9
:108FE000D21AD2B221680B60531EDBB21AB32168C9
:108FF0000A68501C086013701A46F5E71149FF20F3
:1090000005F074FAE2E70F494FF4807005F06EFA4C
:10901000DEE70C4940F2011005F068FADAE7094989
:109020004FF4817005F062FAD6E7064940F203106A
:1090300005F05CFAD2E723680020187110BD0E20FD
:10904000704700BF744C030030B583B00446E8B1EC
:1090500000238DF807300DF10700FEF7BDFC2268F4
:10906000136861688B4217D9591E116013F8011CEF
:109070002046FFF783FF0546A368226811685B1A44
:10908000DBB21179994208D2137106E006494FF418
:10909000927005F02BFADBE700259DF80700FEF73C
:1090A000CFFC284603B030BD744C030070B582B0CD
:1090B0000E460546B0B1DEB100238DF807300DF144
:1090C0000700FEF789FC2B681C68621C1A60314699
:1090D0002846FFF763FF20709DF80700FEF7B0FCFD
:1090E00002B070BD054940F2471005F0FFF9E2E714
:1090F00002494FF4A47005F0F9F9DDE7744C030060
:1091000010B5044640B1A2682AB16369216820699C
:1091100098470023A36010BD0249312005F0E6F90D
:10912000F1E700BFE44C03000EB430B582B0059DFA
:10913000044690B16369ABB12368C3B16368DBB126
:1091400035B106AB019301AA2946204600F022F969
:1091500002B0BDE8304003B070470A49422005F034
:10916000C5F9E7E70749432005F0C0F9E4E70549F9
:10917000442005F0BBF9E1E70249452005F0B6F9C6
:10918000DEE700BFE44C030010B5026883685C1C96
:109190008460D154826843689A4200D210BDFFF7C0
:1091A000AFFFFBE72DE9F84F82460F4615461E46F6
:1091B000DDF828900B9A0B464FF0010803E0B3FB53
:1091C000F5F308F10108AB42F9D2B04500D2B04640
:1091D00012F0010B13D1B9F1000F10D012F0020FF1
:1091E0000FD086B1202405E009F1FF392146504611
:1091F000FFF7CAFFB9F1000F01D0C145F4D801242F
:1092000009E02024F6E73024F4E7B7FBF4F39D42AD
:1092100006D805FB04F4012EF7D9013EF9E71C46F8
:10922000B7FBF4F304FB13770E4AD15C5046FFF70B
:10923000ABFFB4FBF5F3AC42F1D2BBF1000F02D0AF
:10924000B9F1000F07D1BDE8F88F09F1FF392021EE
:109250005046FFF799FFB9F1000FF4D0C145F4D89B
:10926000F1E700BF484D03002DE9F04782B0814689
:10927000884615469A460A9E0B9F81EAE173A3EB46
:10928000E17301249D4203DC93FBF5F30134F9E71C
:10929000544500D2544636B1B8F1000F02DB17F046
:1092A000040F00D0013E17F0020F02D0BAF1000FF8
:1092B00003D017F0010F00D1CEB9B8F1000F1BDBBE
:1092C00017F0040F1FD107F00303022B20D00197E2
:1092D000009653462A4641464846FFF763FF02B0D0
:1092E000BDE8F087013E20214846FFF74DFF002EE4
:1092F000E3D0A642F6D8E0E7C8F100082D214846A1
:10930000FFF742FFDFE72B214846FFF73DFFDAE793
:10931000BAF1000FDBD12EB9D9E7013E3021484622
:10932000FFF732FF002ED2D0A642F6D8CFE7F8B52D
:1093300006460D46144613F0010F0DD1F9B108464B
:109340000AF092FD0746BC421BD9D4B1013C202152
:109350003046FFF719FFF6E70027297851B10135AC
:1093600001373046FFF710FFF7E7013C2021304678
:10937000FFF70AFFBC4201D9002CF6D1F8BD002747
:10938000E1E729780029F9D001353046FFF7FCFEE6
:10939000F7E70000F0B583B00C461646054648B125
:1093A0006B696BB12B688BB16B68ABB1002C40F073
:1093B0009B80EBE078494FF49F7005F097F8EFE75A
:1093C00075494FF4A07005F091F8EBE7724940F24F
:1093D000411005F08BF8E7E76F494FF4A17005F0F5
:1093E00085F8E3E70027012203E047F00107013495
:1093F00082B121782D29F8D0302903D02B2905D02E
:109400000022F5E747F002070134F1E747F00407CF
:109410000134EDE72A290CD02178A1F13000C0B247
:1094200009280CD8013402EB820250000A18303AA5
:10943000F0E73368191D31601B681A440134237842
:109440002E2B02D00023217810E001340023217854
:10945000A1F13000C0B20928F5D8013403EB830034
:1094600043000B44303BF2E714F8011F6C29FBD09A
:109470006829F9D02539532932D8DFE801F0803145
:1094800031313131313131313131313131313131CC
:1094900031313131313131313131313131313131BC
:1094A00031313131313131313131313131313131AC
:1094B0003156313131313131313131312A4031316F
:1094C0003131403131313131316A313161314B31FA
:1094D000315633681A1D326019782846FFF754FE5A
:1094E00001342378002B4FD014F8011B00294BD0F6
:1094F00025293FF477AF2846FFF746FEF1E73168AC
:10950000081D30600968019700920A222846FFF77B
:10951000ABFEE5E73168081D3060096801970092ED
:109520000A222846FFF73EFEDAE73168081D306060
:1095300009680197009210222846FFF733FECFE713
:1095400031680B1D33603B4609682846FFF7EFFE84
:10955000C6E733681A1D32601F6830212846FFF7BE
:1095600013FE78212846FFF70FFE002301930823FE
:109570000093102239462846FFF714FEB0E7252154
:109580002846FFF701FEABE72B7B0BB903B0F0BD1C
:109590002846FFF7B5FDF9E7584D0300C3688B4235
:1095A00006D8114401390369994203D90020704754
:1095B000002070470120704710F0030F0CBF0120FE
:1095C0000020704743681B68013B0B420CBF012021
:1095D0000020704710B582B030B199B101600C68BD
:1095E0001146A04702B010BD0D4B188800040E2490
:1095F00000940C4B0C4A0D4940F00100FDF712FCA1
:109600002046EFE7064B188800040E240094054B13
:10961000074A064940F00100FDF704FC2046E1E757
:10962000E8570020C44D0300784E0300804E03002D
:10963000AC4E03002DE9F04383B000282FD08946BB
:1096400016461C460546002A37D00768002F42D030
:10965000002B4ED043685A68B4FBF2F302FB13436D
:10966000002B54D10846FFF7A7FF00285DD03046F5
:10967000FFF7A2FF002866D0224649462846FFF79A
:109680008DFF00286DD0D7F80C800A9B00932346ED
:10969000324649462846C04703B0BDE8F083384B00
:1096A000188800040E240094364B374A374940F09E
:1096B0000100FDF7B7FB2046EEE7314B18880004A8
:1096C0000E2400942F4B324A304940F00100FDF740
:1096D000A9FB2046E0E72A4B1888000408240094E0
:1096E000284B2C4A294940F00100FDF79BFB2046FE
:1096F000D2E7234B1888000409240094214B264A02
:10970000224940F00100FDF78DFB2046C4E71C4BC9
:1097100018880004092400941A4B204A1B4940F081
:109720000100FDF77FFB2046B6E7154B18880004C3
:1097300010240094134B1A4A144940F00100FDF71D
:1097400071FB2046A8E70E4B1888000410240094F3
:109750000C4B144A0D4940F00100FDF763FB204615
:109760009AE7074B1888000410240094054B0E4A12
:10977000064940F00100FDF755FB20468CE700BF8D
:10978000E8570020D84D0300784E0300804E0300B8
:109790000C4F0300004F0300BC4E0300144F0300A6
:1097A000404F0300584F03007C4F03002DE9F04168
:1097B00082B0F0B10E46154698460446076837B3A6
:1097C000002A32D0FFF7FEFE00283CD063681A68FA
:1097D00005FB02F231462046FFF7E0FE002840D0AC
:1097E0003F6943462A4631462046B84702B0BDE8A5
:1097F000F081234B188800040E240094214B224A48
:10980000224940F00100FDF70DFB2046EEE71C4B1E
:1098100018880004082400941A4B1D4A1B4940F084
:109820000100FDF7FFFA2046E0E7154B1888000419
:1098300009240094134B174A144940F00100FDF726
:10984000F1FA2046D2E70E4B188800041024009449
:109850000C4B114A0D4940F00100FDF7E3FA204698
:10986000C4E7074B1888000410240094054B0B4AEA
:10987000064940F00100FDF7D5FA2046B6E700BFE3
:10988000E8570020EC4D0300784E0300804E0300A3
:10989000004F0300BC4E0300004E0300284E03009F
:1098A00010B5F0B10268F2B1D2699047034618468C
:1098B00010BD01340E4B0F4A9B1A0F4AA2FB032323
:1098C000B4EB131F11D204EB84029300094A9818D9
:1098D0009B58002BEDD0DB69984703460028E8D061
:1098E000E5E70024E6E70024E4E70023DFE700BF24
:1098F00010580020FC570020CDCCCCCC29DF70477D
:1099000028DF704703689B683BB300B587B000232E
:109910000093029303930493019183680593037961
:1099200043B1012B10D003689B686846984707B085
:109930005DF804FB01238DF8003003690293C368CE
:10994000039343690493EEE702238DF80030C36864
:109950001B03029343690493E5E7704710B542691E
:109960008369D21AB2F5805F28BF4FF48052920803
:109970000469C168012A38BF012219441819FFF788
:10998000BDFF10BD08B5C26800691044FFF7B8FFFD
:1099900008BD0000114B0022DA6003791BB1012BD6
:1099A0000FD01046704742698369D11AB1F5805FC4
:1099B00094BF5B1803F5805383619A4209D000205D
:1099C00070470369013303614269934203D0002069
:1099D0007047012070470120704700BFD85F00200A
:1099E000064AD3680133D360082B01D800207047A2
:1099F00013460022DA600120704700BFD85F0020C4
:109A00000846704700207047024B187A003018BF94
:109A100001207047D85F0020034B01225A74187A46
:109A2000B0FA80F040097047D85F002008B50249BD
:109A30000248FFF7D3F908BDEC5F0020445800202E
:109A400008B505490548FFF7BDF9054B186000301A
:109A500018BF012008BD00BFEC5F00204458002063
:109A6000F05F002008B51A4B1B7AA3B1184B0222F5
:109A70001A72184B18680379ABB1012B1CD0032163
:109A8000144B1868FFF73EFF114B00221A725A6000
:109A9000FFF7CCFF08BDFFF7D3FF0028E6D10C4B42
:109AA00000225A60F6E7FFF759FF40B11128E6D1CE
:109AB000074B01221A72EDE7FFF764FFF5E7044B4D
:109AC0001B7C002BE6D10021022000F005F8E1E725
:109AD000D85F0020F05F0020831E012B2DD8174B8C
:109AE0001B7A53B310B50446022B03D1022807D0CA
:109AF000032818D0114B5B7CE3B9FFF7B3FF10BD0F
:109B00000F4B1868FFF746FF0028F3D00B4B0022DD
:109B10001A720B4B1868022C0AD00D21FFF7F2FEC7
:109B2000FFF784FFE6E7064B1868FFF759FFEBE7FE
:109B30001146F3E709F07CFCE1E77047D85F0020AD
:109B4000F05F0020012802D0032800D0704708B53C
:109B5000054B00225A74012814BF002001201874FC
:109B6000FFF780FF08BD00BFD85F002008B505489B
:109B7000FFF7F4F910B9044B5B7C03B108BDFFF7A4
:109B800071FFFBE7DC5F0020D85F00202DE9F0418A
:109B900082B080460D4616461F4601A90E48FFF7C3
:109BA000FAF8B0B104461C2200210AF008F901239A
:109BB0002371C4F80080A7602D0BE560666101A9E0
:109BC0000548FFF7F4F8FFF7D1FF002002B0BDE829
:109BD000F0810420FAE700BF445800202DE9F0434B
:109BE00083B08146884617461E4601A90F48FFF7F5
:109BF000D2F8C0B104461C2200210AF0E0F800258A
:109C00002571C4F800900A9BA360C4F81080E76037
:109C1000666101A90548FFF7CAF8FFF7A7FF2846C4
:109C200003B0BDE8F0830420FAE700BF44580020E9
:109C300008B510461A460AF099F8002008BD000041
:109C400008B51422002104480AF0B9F80348FFF7C8
:109C50009AF8002008BD00BFD85F002044580020BB
:109C600008B5094B43600948FFF778F908B10020AF
:109C700008BD09F0F1FB054B18741C238C22044924
:109C80000448FFF76AF8F2E7B44F0300D85F0020FA
:109C90004C5F0020445800202DE9F04F83B004466B
:109CA0008B4617469DF830200192B0F806A01D1D86
:109CB000B5FBFAF60AFB16553B4453440333B3FB9A
:109CC000FAF3DBB242799A4203D33EB12468013EF3
:109CD000FBE71549BA2004F009FCF6E7AAEB0508F2
:109CE000B84528BFB846B1460FE0601942460BEBB5
:109CF000090104300AF03AF82468A7EB0807C144C8
:109D0000D046BA4528BFB846354657B1019B002B0F
:109D1000EBD06119424604310BEB09000AF026F83A
:109D2000EAE703B0BDE8F08FF04F030008B5FFF796
:109D300047F908BDF8B501464679701E0A4600236A
:109D4000834202D212680133FAE71768002405E063
:109D50000D683846FFF7AAF901342946A642F7D81C
:109D6000F8BD2DE9F0410646B0F81480A8F10407CB
:109D700039440331B1FBF7F7FFF766F910B3054635
:109D80000024047101234371A8F10408A0F806809F
:109D9000FFB2013F06608046BC4210D23046FFF75A
:109DA00053F940B16A7901326A71C8F8000006605F
:109DB00001348046F0E72846FFF7BCFF002528461F
:109DC000BDE8F0810025FAE708B501210430FFF76E
:109DD000AFF808BD10B5044601210430FFF7B3F811
:109DE000C0B200B110BD2046FFF7A4FFFAE710B5DE
:109DF00082B000240094FFF74FFF02B010BD10B5F1
:109E000082B001240094FFF747FF02B010BD0000AC
:109E100038B50C46054638B15CB12C6023686B60E0
:109E2000626893420AD038BD0649502004F05EFBB8
:109E3000F2E70449512004F059FBEEE700236B6080
:109E4000F1E700BF6C50030010B5044658B1236819
:109E500073B1636833B1226891680B4463605268E0
:109E600093420AD010BD0649632004F03FFBEEE7A1
:109E70000349642004F03AFBEBE700236360F1E759
:109E80006C500300104A02F594718A4219D210B442
:109E900004E010D204F108028A420ED28B1ADB10C1
:109EA00003EBD3735B1002EBC30452F833308342ED
:109EB000EFD92146F0E7606800E000205DF8044B30
:109EC00070470020704700BF0851030008B5FFF736
:109ED000D9FF034608B1184608BD014BFBE700BF98
:109EE000F45003000F4B1B78062B01D00020704765
:109EF0000D4B1B6813F00F0F0BD10C4B1B6803F0BD
:109F0000F003302B07D0402B07D0502B07D0002078
:109F100070470020704701207047012070470120E2
:109F2000704700BFE00F00F0E40F00F0E80F00F012
:109F30000B4B1B78062B01D000207047094B1B6888
:109F400013F00F0F07D1084B1B6803F0F003302B01
:109F500003D000207047002070470120704700BFE9
:109F6000E00F00F0E40F00F0E80F00F00F4B1B785B
:109F7000062B01D0002070470D4B1B6813F00F0F0C
:109F80000BD10C4B1B6803F0F003302B07D0402B98
:109F900007D0502B07D000207047002070470120C9
:109FA0007047012070470120704700BFE00F00F0AC
:109FB000E40F00F0E80F00F00B4B1B78062B01D0EC
:109FC00000207047094B1B6813F00F0F07D1084B97
:109FD0001B6803F0F003302B03D0002070470020F3
:109FE00070470120704700BFE00F00F0E40F00F061
:109FF000E80F00F00F4B1B78062B01D000207047B4
:10A000000D4B1B6813F00F0F0BD10C4B1B6803F0AB
:10A01000F003302B07D0402B07D0502B07D0002067
:10A0200070470020704701207047012070470120D1
:10A03000704700BFE00F00F0E40F00F0E80F00F001
:10A040000B4B1B78062B01D000207047094B1B6877
:10A0500013F00F0F07D1084B1B6803F0F003302BF0
:10A0600003D000207047002070470120704700BFD8
:10A07000E00F00F0E40F00F0E80F00F00B4B1B784E
:10A08000062B01D000207047094B1B6813F00F0FFF
:10A0900007D1084B1B6803F0F003302B03D00020DE
:10A0A0007047002070470120704700BFE00F00F0AC
:10A0B000E40F00F0E80F00F00B4B1B78062B01D0EB
:10A0C00000207047094B1B6813F00F0F07D1084B96
:10A0D0001B6803F0F003502B03D0002070470020D2
:10A0E00070470120704700BFE00F00F0E40F00F060
:10A0F000E80F00F00F4B1B78062B01D000207047B3
:10A100000D4B1B6813F00F0F0BD10C4B1B6803F0AA
:10A11000F003302B07D0402B07D0502B07D0002066
:10A1200070470020704701207047012070470120D0
:10A13000704700BFE00F00F0E40F00F0E80F00F000
:10A140000F4B1B78062B01D0002070470D4B1B686E
:10A1500013F00F0F0BD10C4B1B6803F0F003302BE7
:10A1600007D0402B07D0502B07D00020704700208D
:10A17000704701207047012070470120704700BFE1
:10A18000E00F00F0E40F00F0E80F00F0064B1B6852
:10A19000062B01D000207047044B1B68062B01D012
:10A1A000002070470120704730010010340100107A
:10A1B000014B024A1A607047585800200090D003A3
:10A1C00008B5FFF78FFE28B17B4B1B68C3F3042350
:10A1D0007A4A1360FFF7ACFE10B1794B794A1A60E6
:10A1E000FFF7C4FE28B1784B1B68C3F34233774AAC
:10A1F0001360FFF7E1FE20B1754AD36823F0807346
:10A20000D360FFF7F7FE40B14FF080430022C3F860
:10A210000C21C3F81021C3F83825FFF711FF10B146
:10A220006C4B03221A60FFF729FF58B16A4B0522D5
:10A230001A60783301221A60703B00221A60043BD6
:10A240003F221A60FFF738FF002846D04FF08052B7
:10A25000D2F80414614BC3F82015D2F80814C3F8DF
:10A260002415D2F80C14C3F82815D2F81014C3F82A
:10A270002C15D2F81414C3F83015D2F81814C3F8FA
:10A280003415D2F81C14C3F84015D2F82014C3F8C2
:10A290004415D2F82414C3F84815D2F82814C3F88A
:10A2A0004C15D2F82C14C3F85015D2F83014C3F85A
:10A2B0005415D2F83414C3F86015D2F83814C3F822
:10A2C0006415D2F83C14C3F86815D2F84014C3F8EA
:10A2D0006C15D2F84424C3F87025FFF70BFF28B1A2
:10A2E0003F4B1B6803F04F033E4A1360FFF728FF04
:10A2F00060B14FF08043D3F8003413F0010F05D064
:10A300004FF080436FF00102C3F80024FFF73EFFD7
:10A3100020B1354A136843F480631360334AD2F89E
:10A32000883043F47003C2F88830BFF34F8FBFF317
:10A330006F8F4FF01023D3F80032002B08DB4FF063
:10A340001023D3F80432002B02DBFFF731FF08BDE6
:10A35000274B0122C3F80425254BD3F80034002BEA
:10A36000FAD04FF010231522C3F80022204BD3F867
:10A370000034002BFAD04FF010231522C3F804222A
:10A380001B4BD3F80034002BFAD0194B0022C3F832
:10A390000425174BD3F80034002BFAD0BFF34F8FAE
:10A3A0001249CA6802F4E062124B1343CB60BFF358
:10A3B0004F8F00BFFDE700BF240300104035014070
:10A3C00074C007400DF0ADBA440200103C050040D7
:10A3D000F0ED00E0A00500401056004000C0004035
:10A3E00058020010E40E00403C17004000ED00E071
:10A3F00000E001400400FA0538B5044610F0070FEC
:10A4000002D020F00704083401F016F80F4B1B6847
:10A410008BB10F4B1B681C4440F6F772944210D866
:10A42000A34210D2094A15681D44094B1C6001F073
:10A43000B3F8284638BD074B23F00703034A1360DF
:10A44000E7E70025F3E70025F1E700BFF45F002010
:10A45000F86F00200060002028B108B50249832071
:10A4600004F044F808BD70471C56030000F10803CF
:10A4700043604FF0FF328260C360036100230360DA
:10A48000704700230361704743684B609A688A6095
:10A49000516099600861036801330360704730B40C
:10A4A0000D68B5F1FF3F02D000F1080202E0026939
:10A4B00004E01A4653681C68AC42FAD953684B60F2
:10A4C00099608A605160086103680133036030BCA1
:10A4D00070470369416882688A60416851605A68C0
:10A4E000824206D0002202611A68013A1A60186896
:10A4F000704782685A60F5E70748006880F308886B
:10A5000062B661B6BFF34F8FBFF36F8F4FF4F07039
:10A5100080F3118800DF00BF00600200064B19685D
:10A520000868B0E8F04F80F30988BFF36F8F4FF0F1
:10A53000000080F31188704718700020EFF3098045
:10A54000BFF36F8F144B1A681EF0100F08BF20ED79
:10A55000108A20E9F04F10604DF8043D4FF04000A4
:10A5600080F31188BFF34F8FBFF36F8F01F0F2F8C4
:10A570004FF0000080F3118808BC19680868B0E843
:10A58000F04F1EF0100F08BFB0EC108A80F309885E
:10A59000BFF36F8F704700BF18700020034AD2F8D6
:10A5A000883043F47003C2F88830704700ED00E053
:10A5B00008B5074B1B68B3F1FF3F03D1402383F37A
:10A5C0001188FEE703499E2003F090FFF6E700BFE5
:10A5D00004700020945603004FF0807340F8043C50
:10A5E00040F8081C054B40F80C3C40F8202C6FF05C
:10A5F000020340F8243C4438704700BFB1A5020074
:10A6000010B582B0264B1A68264B9A4222D1264BAF
:10A610001A78D2B20192FF221A701B78DBB28DF841
:10A6200003309DF8033003F00203204A1370204BDF
:10A6300007221A609DF8033013F0800F0FD01C4AD8
:10A640001368013B13609DF803305B00DBB28DF8AB
:10A650000330EFE71749B02003F048FFD7E7144A6B
:10A66000136803F007031360019BDBB20E4A1370FB
:10A670000B4CE02384F8223000F0C0F80E4B00228F
:10A680001A60FFF78BFF0D4A536843F04043536055
:10A69000236943F010032361FFF72EFFFFF788FFC4
:10A6A00000ED00E041C20F4100E400E0FC6F00203B
:10A6B00000700020945603000470002030EF00E08A
:10A6C00008B5402383F31188094A136801331360E6
:10A6D000012B00D008BD074B5B68C3F30803002BB8
:10A6E000F8D0054940F2111003F000FFF2E700BF77
:10A6F0000470002000ED00E09456030008B5084BFC
:10A700001B683BB1064A1368013B13600BB983F326
:10A71000118808BD03494FF48C7003F0E7FEF1E7A0
:10A72000047000209456030008B5EFF30583C3F3CB
:10A7300008030F2B09D903F1E023F03393F800331A
:10A74000DBB20C4A12789A4208D80B4BDB68C3F391
:10A7500002230A4A12689A4206D308BD08494FF4F8
:10A76000A97003F0C3FEF0E705494FF4B17003F0A0
:10A77000BDFEF2E7FC6F002000ED00E0007000205D
:10A7800094560300F0B583B0194B00221A601B6881
:10A790000193019BEFF31187402383F31188154B3D
:10A7A000D3F8044503F580731A601B680093009B7F
:10A7B00000F04AFE241A24F07F4434F0010307D14C
:10A7C0000025661E54B100F067FE05433446F8E7E5
:10A7D00001F06CF90228F3D00124F1E725B1064B12
:10A7E0004FF080525A6040BF87F3118803B0F0BD2C
:10A7F000401101400010014000ED00E008B50020CC
:10A8000001F044FD0A4B1F22C3F808250122C3F8BA
:10A81000042308490A601A600222C3F84423064B45
:10A82000E02283F811234FF400321A6008BD00BF04
:10A83000001001400810014000E100E030B585B093
:10A8400004463E4B984200D91C46EFF3108272B684
:10A850003B4B9B688BB93A4901238B60394BD3F84A
:10A860008000394D28400860C3F88050D3F8840038
:10A8700048604FF0FF31C3F8841002B962B6334B21
:10A88000D3F8045501F0F4F8002841D0621922F001
:10A890007F422E4B0121C3F80813C3F840252C4AF0
:10A8A0000021116012680192019A4FF48032C3F8BE
:10A8B0000423BFF34F8F3CB120BF224BD3F80021BC
:10A8C000D3F804311343F7D0204B4FF48032C3F850
:10A8D000082302F1804202F58A52002111601268B9
:10A8E0000392039A1B4A116012680292029A012293
:10A8F000C3F80423D3F804355B1B23F07F43114ACC
:10A900004FF40031C2F880119C4200D31C468CB930
:10A910000B4B9B6863B1EFF3108172B6084B18685C
:10A92000084A10605868506000229A6001B962B607
:10A9300005B030BD204600F095FDE9E7FDFFFF00C2
:10A94000305E002000E100E0FC06FFBD0010014089
:10A95000401101400011014010B50446FFF7B0FE60
:10A96000A26BE36B9A4204D00024FFF7C7FE204697
:10A9700010BD0124F9E710B50446FFF7A1FEA36B53
:10A9800023B90124FFF7BAFE204610BD0024F9E7E1
:10A9900070B504461646856B026C5AB903681BB144
:10A9A00000200135A56370BD406801F08FF80023D9
:10A9B0006360F6E76EB9806809F0D8F9226CA36885
:10A9C0001344A3606268934219D32368A3600020F4
:10A9D000E7E7C06809F0CAF9226C5242E368134401
:10A9E000E36021688B4202D263681A44E260022E5F
:10A9F00001D00020D5E725B1013D0020D1E700209E
:10AA0000CFE70020CDE7026C72B110B5C3681344E4
:10AA1000C3604468A34201D30368C3600C46C168A5
:10AA2000204609F0A3F910BD704738B50546FFF779
:10AA300047FE95F8454064B203E001F013F8013C8D
:10AA400064B2002C08DD6B6A33B105F1240000F01C
:10AA500077FF0028F3D0F0E7FF2385F84530FFF7B4
:10AA60004DFEFFF72DFE95F8444064B203E000F080
:10AA7000F9FF013C64B2002C08DD2B6933B105F10C
:10AA8000100000F05DFF0028F3D0F0E7FF2385F809
:10AA90004430FFF733FE38BD38B50D460446D0B11B
:10AAA000FFF70EFE2168E26B236C03FB021060606F
:10AAB0000020A063A160013A02FB0313E360FF23BF
:10AAC00084F8443084F84530D5B9236943B9FFF799
:10AAD00015FE012038BD0F49FC2003F007FDDFE71C
:10AAE00004F1100000F02CFF0028F0D00A4B4FF0CA
:10AAF00080525A6040BFBFF34F8FBFF36F8FE6E7BE
:10AB000004F11000FFF7B2FC04F12400FFF7AEFCE3
:10AB1000DDE700BF1057030000ED00E010B5029B19
:10AB20000C4639B91B60D8631C6401211846FFF735
:10AB3000B3FF10BD1A60F6E7F0B583B00D461746B7
:10AB4000064618B145B105FB06F006E00B4940F298
:10AB50006D1003F0CBFCF5E700204830FFF74CFC0C
:10AB6000044638B100903B4600F148022946304681
:10AB7000FFF7D4FF204603B0F0BD00BF105703001D
:10AB8000F0B585B00F4601921E46044648B177B134
:10AB9000022E15D000F08AFF08B9019BCBB9002521
:10ABA00059E051494FF4377003F0A0FCEFE7236CF4
:10ABB000002BEDD04C4940F2DD2003F097FCE7E795
:10ABC000E36B012BE6D0484940F2DE2003F08EFC17
:10ABD000E0E7454940F2E12003F088FCDFE7324638
:10ABE00039462046FFF7D4FE636A73B940B13F4B44
:10ABF0004FF080525A6040BFBFF34F8FBFF36F8F4B
:10AC0000FFF77CFD012005B0F0BD04F1240000F049
:10AC100097FE0028F4D0354B4FF080525A6040BF69
:10AC2000BFF34F8FBFF36F8FEAE7FFF767FD002099
:10AC3000E9E702A800F0CCFE012519E0002384F822
:10AC4000443021E0002384F8453023E02046FFF71C
:10AC5000ECFE00F0A1FCFFF733FDA26BE36B9A4220
:10AC6000BDD3022EBBD0019B002BDED0002DE0D047
:10AC7000FFF744FD00F0E0FBFFF722FD94F84430BD
:10AC80005BB2B3F1FF3FD9D094F845305BB2B3F17A
:10AC9000FF3FD7D0FFF732FD01A902A800F0A4FEC4
:10ACA000D0B92046FFF758FE0028CFD0019904F113
:10ACB000100000F00DFE2046FFF7B7FE00F06CFC20
:10ACC0000028C8D1094B4FF080525A6040BFBFF3F3
:10ACD0004F8FBFF36F8FBEE72046FFF7A6FE00F051
:10ACE0005BFC00208FE700BF1057030000ED00E081
:10ACF0002DE9F8430F4691461E460446A0B1CFB158
:10AD0000022E20D0FFF710FDEFF31188402383F3CC
:10AD10001188A26BE36B9A421ED3022E1CD0002036
:10AD200088F31188BDE8F8831E4940F2A23003F091
:10AD3000DDFBE4E7236C002BE2D01A4940F2A3309C
:10AD400003F0D4FBDCE7E36B012BDBD015494FF4B8
:10AD5000697003F0CBFBD5E794F845506DB23246ED
:10AD600039462046FFF714FEB5F1FF3F05D0013507
:10AD70006DB284F845500120D2E7636A0BB9012017
:10AD8000CEE704F1240000F0DBFD30B1B9F1000F93
:10AD900005D00120C9F80000C2E70120C0E701206A
:10ADA000BEE700BF10570300F0B585B00F46019213
:10ADB000044638B167B100F079FE08B9019B83B948
:10ADC000002652E0494940F2DF4003F08FFBF1E7F3
:10ADD000236C002BEFD0454940F2E34003F086FBA3
:10ADE000E9E742494FF49D6003F080FBE8E739460C
:10ADF0002046FFF708FE013DA563236923B9FFF74D
:10AE00007DFC012005B0F0BD04F1100000F098FDBC
:10AE10000028F4D0364B4FF080525A6040BFBFF349
:10AE20004F8FBFF36F8FEAE7FFF768FC0020E9E779
:10AE300002A800F0CDFD012621E0002384F8443073
:10AE400029E0002384F845302BE02046FFF7EDFD94
:10AE500000F0A2FB09E02046FFF7E7FD00F09CFBB5
:10AE60002046FFF788FD00283ED1FFF729FCA56B9F
:10AE7000002DBCD1019B002BD6D0002ED8D0FFF7DF
:10AE80003DFC00F0D9FAFFF71BFC94F844305BB2AC
:10AE9000B3F1FF3FD1D094F845305BB2B3F1FF3F3F
:10AEA000CFD0FFF72BFC01A902A800F09DFD0028E0
:10AEB000D1D12046FFF75FFD0028C6D0019904F1EB
:10AEC000240000F005FD2046FFF7AFFD00F064FB15
:10AED0000028CAD1064B4FF080525A6040BFBFF3E2
:10AEE0004F8FBFF36F8FC0E700208BE71057030031
:10AEF00000ED00E00023012B0CD8074A52F8332064
:10AF00000AB10133F7E7044A42F8331002EBC303F6
:10AF100058607047704700BF0870002070B5044645
:10AF20000D461646FFF7CCFB94F844305BB2B3F104
:10AF3000FF3F0DD094F845305BB2B3F1FF3F0BD02B
:10AF4000FFF7DCFBA36B5BB12046FFF76EFD70BD26
:10AF5000002384F84430EDE7002384F84530EFE720
:10AF60003246294604F1240000F0CCFCECE7000056
:10AF70000D4B1B68012B0AD901220C4B1B68DB6AA5
:10AF800073B90B4B1B68012B03D9002070470022BB
:10AF9000F3E73AB9074B1868074B1B68C01A7047AC
:10AFA0000020704700207047747000201870002047
:10AFB00024700020A4700020EC700020084B1B6857
:10AFC0001B6823B9074B4FF0FF321A607047044BE0
:10AFD0001B68DB68DB685A68024B1A60704700BF69
:10AFE0001C700020A470002010B50446006BFFF711
:10AFF00033FA2046FFF730FA10BD000010B50446C2
:10B0000028B162690A4B9A4207D0002010BD094955
:10B0100040F2CC6003F06AFAF3E7A36A064A93426F
:10B0200002D01BB10020F1E70020EFE70120EDE79F
:10B03000C470002078570300AC7000202DE9F04761
:10B0400081460F4616469A46089DDDF824800A9CE4
:10B050009200A521206B08F0B2FE236B06F180421E
:10B06000013A03EB820626F007060023032B06D8DD
:10B07000FA5CE11881F834200AB10133F6E70023C5
:10B0800084F83730022D00D90225E562A563002738
:10B09000E763201DFFF7F5F904F11800FFF7F1F958
:10B0A0002461C5F10305A5616462276484F84470D6
:10B0B000524649463046FFF78FFA2060B8F1000F3C
:10B0C00001D0C8F80040BDE8F087000038B5002482
:10B0D000022C08D804EB840293000E481844FFF7B2
:10B0E000C5F90134F4E70C4D2846FFF7BFF90B4CC6
:10B0F0002046FFF7BBF90A48FFF7B8F90948FFF700
:10B10000B5F90948FFF7B2F9084B1D60084B1C6000
:10B1100038BD00BF24700020787000208C700020A3
:10B12000AC700020D8700020C47000201C7000207B
:10B130002070002010B50446FFF7C2FA214A1368B8
:10B1400001331360204B1B685BB1204B1B686BB94C
:10B150001D4B1B68DA6AE36A9A4207D81A4B1C60D7
:10B1600004E0194B1C601368012B27D0184A1368A0
:10B1700001331360E36A01229A40164908680243CA
:10B180000A6003EB83039A00211D13481044FFF764
:10B190007BF9FFF7B3FA0D4B1B6873B10A4B1B68C1
:10B1A000DA6AE36A9A4208D20C4B4FF080525A6036
:10B1B00040BFBFF34F8FBFF36F8F10BDFFF786FF08
:10B1C000D4E700BF6070002018700020C07000201D
:10B1D00070700020747000202470002000ED00E0EA
:10B1E0000F4B1B68D3B110B5FFF76AFA0D4BDB6844
:10B1F000DC68201DFFF76DF90B4A1368013B1360F3
:10B20000074A1368013B1360FFF778FA2046FFF7FF
:10B21000EBFE034B1B68002BE6D110BD704700BF4F
:10B2200064700020D87000206070002070B5044663
:10B230000E461D4B1D681D4B18680430FFF749F979
:10B2400050B91A4B1B68DA6A012303FA02F2184953
:10B250000B6823EA02030B60B4F1FF3F0DD02C44CE
:10B26000124B1B685C60A54210D9124B18680F4B3B
:10B2700019680431FFF713F970BD002EEFD00B4BA6
:10B28000196804310C48FFF7FFF8F5E70B4B186815
:10B29000064B19680431FFF702F9094B1B68A342FA
:10B2A000EAD9074B1C60E7E7EC700020187000201B
:10B2B0007470002020700020C47000201C700020DA
:10B2C000A47000202DE9F04385B007468846144657
:10B2D00099469000FFF790F8E8B106464820FFF73E
:10B2E0008BF8054698B10663D5B100230393029508
:10B2F0000D9B01930C9B00934B46224641463846DA
:10B30000FFF79CFE2846FFF715FF012005E03046B9
:10B31000FFF7A2F8E8E74FF0FF3005B0BDE8F08393
:10B320004FF0FF30F9E70000F8B5044640B3FFF7EF
:10B33000FBF9EFF31185402383F311882046FFF7D3
:10B340005DFE60B3184B1B6813BBE26A174B1B68AA
:10B35000DB6A9A421AD20026271D3846FFF7B9F851
:10B36000E36A01229A401249086802430A6003EB2B
:10B3700083039A0039460F481044FFF785F80FE021
:10B380000D4940F22D7003F0B1F8D0E70126E3E754
:10B3900004F118010948FFF777F8002600E00026BD
:10B3A00085F311883046F8BD6C70002018700020BD
:10B3B000747000202470002078570300AC700020C7
:10B3C00000B583B0154B0193002300933C22144930
:10B3D0001448FFF777FF012807D0012808D0B0F103
:10B3E000FF3F15D003B05DF804FB00F045FCF4E727
:10B3F000402383F311880C4B4FF0FF321A600B4B44
:10B4000001221A600A4B00221A60FFF7F9F8E9E7F7
:10B41000084940F2DC7003F069F8E3E7A07000200F
:10B42000E0570300E1B60200A4700020C0700020C5
:10B43000EC70002078570300024A13680133136050
:10B44000704700BF6C700020014B1868704700BF48
:10B45000EC70002008B5FFF767F9014B186808BDCC
:10B46000EC70002010B50446084B1B680344084AE2
:10B470001268934204D8054B18682044186010BD28
:10B48000044940F6C91003F031F8F4E7EC700020ED
:10B49000A470002078570300F8B5334B1B68002BCD
:10B4A00056D1324B1E6801361E607EB9304B1B6888
:10B4B0001B688BB92E4A11682E4B186810601960F2
:10B4C0002D4A136801331360FFF778FD2B4B1B687F
:10B4D000B34233D9002740E0294940F6332003F036
:10B4E00005F8E7E70127224B1B681B6843B3204B95
:10B4F0001B68DB68DC6863689E4226D3251D2846EE
:10B50000FEF7E7FFA36A1BB104F11800FEF7E1FFA5
:10B51000E36A01229A401B49086802430A6003EB70
:10B5200083039A00294618481044FEF7ADFFE26AEB
:10B53000164B1B68DB6A9A42D4D2D4E70027D2E7C5
:10B540000E4B4FF0FF321A6007E00C4A136004E024
:10B550000F4A13680133136000270E4B1B6803B1B9
:10B5600001273846F8BD00BF6C700020EC70002049
:10B570001C70002020700020A8700020A470002003
:10B580007857030074700020247000201870002089
:10B5900068700020F070002038B5344B1B686BB128
:10B5A000FFF78EF8314B1A68013A1A601B68002BBE
:10B5B00054D12F4B1B683BB9002450E02D494FF468
:10B5C000046002F093FFEBE700242B4B1B681BB3D6
:10B5D000294BDB68DC6804F11800FEF77AFF251DB3
:10B5E0002846FEF776FFE36A01229A40234908685D
:10B5F00002430A6003EB83039A0029462048104463
:10B60000FEF742FFE26A1F4B1B68DB6A9A42DCD3FB
:10B610001D4B01221A60D8E70CB1FFF7CFFC1B4B82
:10B620001C687CB9184B1B68EBB1194B4FF080526A
:10B630005A6040BFBFF34F8FBFF36F8F01240EE0FE
:10B64000013C07D0FFF728FF0028F9D00E4B01225C
:10B650001A60F5E70D4B00221A60E3E70024FFF7BC
:10B660004DF8204638BD0024F9E700BF6C7000207B
:10B670006070002078570300AC70002074700020C8
:10B680002470002018700020F070002068700020E6
:10B6900000ED00E010B560B104460E4B1B6893B995
:10B6A000FFF7CAFE00212046FFF7C0FDFFF774FF39
:10B6B00040B9094B4FF080525A6040BFBFF34F8FE3
:10B6C000BFF36F8F10BD054940F20F5002F00EFF1F
:10B6D000E6E700BF6C70002000ED00E07857030043
:10B6E00008B505E002F000FFFFF742FC01280FD883
:10B6F000FFF776FD124B1B68012BF3D9114B4FF06E
:10B7000080525A6040BFBFF34F8FBFF36F8FE9E79E
:10B71000FFF792FE0C4B1A680C4B1B689A4208D339
:10B72000FFF726FC012801D9FFF788F8FFF734FF5F
:10B73000DEE7074940F6EE4002F0D8FEF0E700BF32
:10B740002470002000ED00E0A4700020EC700020C8
:10B75000785703001E4B1B681BB11E4B01221A6059
:10B76000704710B51B4B00221A601B4B1C68B4FAC3
:10B7700084F4C4F11F0404EB84029300174AD358E5
:10B78000BBB11649A300181982000A4450684068EA
:10B79000506023449A000832114488420FD004EBD1
:10B7A0008404A2000D4B13445B68DA680C4B1A60EA
:10B7B00010BD0C494FF4356002F098FEE1E7416896
:10B7C00004EB84039A00054B13445960E7E700BF7C
:10B7D0006C700020F0700020747000202470002035
:10B7E000187000207857030038B50446FEF768FF4C
:10B7F0005CB3251D2846FEF76CFE68B9E36A03EBCF
:10B8000083018A0029498A5832B901229A4028497D
:10B810000B6823EA02030B60A36A1BB104F1180052
:10B82000FEF757FE29462348FEF72EFE94F84430D3
:10B83000DBB2012B0CD0FEF761FF1F4B1B685BB91D
:10B840001E4B1B68A3420ED038BD1C4B1C68D0E7B2
:10B85000002384F84430EEE7FEF732FFFFF7AEFB3B
:10B86000FEF74CFFECE7144B1B6893B1144B1B68BD
:10B870004BB9144B4FF080525A6040BFBFF34F8F0B
:10B88000BFF36F8FE0E7104940F2A26002F02EFE96
:10B89000EFE7084B1A680D4B1B689A4203D1074B20
:10B8A00000221A60D0E7FFF755FFCDE72470002093
:10B8B00074700020C4700020C07000201870002038
:10B8C0006C70002000ED00E07857030060700020ED
:10B8D00038B50C46054650B1084B19681831284652
:10B8E000FEF7DDFD01212046FFF7A0FC38BD04492D
:10B8F0004FF4366002F0FAFDEEE700BF187000204A
:10B900007857030070B50D461446064668B10A4BD9
:10B91000196818313046FEF7B7FD0CB14FF0FF350E
:10B9200021462846FFF782FC70BD044940F68B3063
:10B9300002F0DCFDEBE700BF187000207857030031
:10B9400038B5C368DC683CB304F118052846FEF737
:10B95000C0FD184B1B682BBB251D2846FEF7B9FD03
:10B96000E36A01229A401449086802430A6003EB23
:10B9700083039A00294611481044FEF785FDE26AC8
:10B980000F4B1B68DB6A9A4211D901240D4B1C60D6
:10B99000FFF714FB204638BD0B4940F6BB3002F0E0
:10B9A000A5FDD1E729460948FEF76EFDE7E700242B
:10B9B000EEE700BF6C70002074700020247000203F
:10B9C00018700020F070002078570300AC70002041
:10B9D000034B1B680360034B1B684360704700BF49
:10B9E000A8700020EC700020F8B50C460546B8B1F0
:10B9F000E4B1FEF765FE184B19686B68C81A226837
:10BA0000B2F1FF3F20D02F68144E3668B74201D004
:10BA10008B421ED982420FD800232360012414E0F8
:10BA20000F4940F6264002F061FDE1E70C4940F67F
:10BA3000274002F05BFDDCE75B1A134423602846D5
:10BA4000FFF7C6FF002400E00024FEF757FE204663
:10BA5000F8BD0124F9E700BFEC700020A8700020B9
:10BA600078570300014B01221A607047F0700020E4
:10BA70000A4B1B685BB90A4B1B6853B9094B1A6820
:10BA8000094B1B68013B9A4205D0012070470020FA
:10BA90007047002070470220704700BFAC70002044
:10BAA000F0700020C470002060700020054B1B68FF
:10BAB00033B1054B1B680BB1002070470220704763
:10BAC00001207047C07000206C700020002845D015
