:10000000000001203902000091020000A119000047
:100010009502000097020000990200000000000015
:10002000000000000000000000000000BD320000E1
:100030009D02000000000000E1320000A10200006B
:10004000895D0000A702000075630000AB0200009C
:10005000AD020000AF02000095600000B302000096
:10006000B5020000B7020000B9020000BB020000A8
:10007000BD020000BF020000C1020000C302000078
:10008000C5020000E9370000C9020000CB020000F1
:10009000CD020000CF020000D1020000D302000018
:1000A000D5020000D7020000D9020000DB020000E8
:1000B000DD020000DF020000A3020000A302000036
:1000C000E1020000E3020000E5020000E702000098
:0C00D000E9020000EB020000ED0200005D
:1000DC00354936480A1A02D0072291438D463449D5
:1000EC0034480A1A06D00722914381F30988022268
:1000FC0082F3148830483149314A00F044F83148D1
:10010C003149324A00F03FF831483249324A00F066
:10011C003AF832483249334A00F035F8324833491C
:10012C00334A00F030F833483349344A00F02BF8A6
:10013C0033483449344A00F026F834483449002214
:10014C0000F02CF833483449002200F027F83348EB
:10015C003349091A082902DB002202604160314A46
:10016C0090471F481F49884205D00268043003B4E9
:10017C00904703BCF7E700208646EC4600200021A0
:10018C00294A9047FEE7884207D0521A05D00378D7
:10019C0001300B700131013AF9D17047884202D01D
:1001AC0002700130FAE770470000012000E00020E7
:1001BC000000012000000120888B0000D8000020E6
:1001CC009C010020F0020000F0020000FE6900001B
:1001DC00888B0000D8000020D8000020806B000025
:1001EC00806B0000806B0000806B0000806B000057
:1001FC00806B0000806B0000806B0000888B00001F
:10020C004C8C00009C0100209C0100209C010020D3
:10021C00441B0020441B0020441B0020441B0020D6
:10022C00443B00205D020000196400000F484FF0B1
:10023C000701884385460E4880470E48016841F403
:10024C0070010160BFF34F8FBFF36F8FFFF740BF9B
:10025C0009480A490A4A884207D0521A05D003783D
:10026C0001300B700131013AF9D1704700000120C7
:10027C00F52A000088ED00E0A86A000000000020CC
:10028C00D8000020FEE7FEE7FEE7FEE7FEE7FEE70C
:10029C00FEE7FEE7FEE7FEE7FEE7FEE7FEE7FEE72A
:1002AC00FEE7FEE7FEE7FEE7FEE7FEE7FEE7FEE71A
:1002BC00FEE7FEE7FEE7FEE7FEE7FEE7FEE7FEE70A
:1002CC00FEE7FEE7FEE7FEE7FEE7FEE7FEE7FEE7FA
:1002DC00FEE7FEE7FEE7FEE7FEE7FEE7FEE7FEE7EA
:0402EC00FEE700BF6A
:1002F00000B585B00190019B002B0AD0074B43F05D
:1003000001030393019B9B010293039B029898476F
:1003100000E000BF05B05DF804FB00BF906B00007B
:1003200000B583B00190019B002B0AD04FF47A7086
:10033000FFF7DEFF019B013B0193019B002BF5D1F1
:1003400000E000BF03B05DF804FB08B506F026FA34
:1003500000BF08BD00B589B0039002910192019BD6
:10036000002B33D00023079303230693029A079BA5
:100370001344019A1946002006F0C2F90590079A25
:10038000059B13440793019A059BD31A0193059B80
:10039000002B13D10F4B1B7883F00103DBB2002B32
:1003A00013D10120FFF7BCFF069B013B0693069B80
:1003B000002B03D1074B00221A7007E0054B0122E6
:1003C0001A70019B002BD1D100E000BF00BF09B023
:1003D0005DF804FB9C01002000B585B003900291FC
:1003E000054B00934023054A0299039800F012F848
:1003F00000BF05B05DF804FB55030000A00100201C
:1004000082B0019000BF02B0704782B0019000BF7F
:1004100002B0704700B5A1B0059004910392029319
:10042000049802F036FA039B1593029B169300235F
:10043000179300238DF8603000231993229B1A93A1
:1004400000231F930FA91F9B0822049802F0DCFAD7
:1004500008231F93119B1293BDF84030ADF84C3028
:10046000BDF84230ADF84E3001238DF851309DF883
:100470003C3003F00303DBB2012B26D10F9BC3F307
:1004800095231D939DF83C30C3F3C203DBB28DF876
:100490005030BDF83C30C3F38313DBB21C931C9B7C
:1004A0009A0009A91F9B049802F0AEFA1C9B9B00BE
:1004B0001F9A13441F9312AA09A915AB0093134660
:1004C0001C9A1D9801F00EF82FE09DF83C3003F0C7
:1004D0000303DBB2022B28D1BDF83E30C3F38913EE
:1004E0009BB21E939DF83C30C3F3C203DBB28DF880
:1004F00050301E9B082B28BF08231B9307A91F9B66
:100500001B9A049802F080FA1F9A1B9B13441F93B6
:100510001E9A1B9BD31A1E9315AB12AA07A81B99F0
:1005200001F082F81E9B002BE3D1049802F0C0F981
:1005300000BF21B05DF804FB82B00190019B012255
:100540005A7200BF02B0704700B583B04FF0FF335E
:100550000193FFF7FAFE0421084800F0BDFE019068
:10056000019B002B03DA0649412001F031FB0348CF
:10057000FFF7E2FF00BF03B05DF804FBD8000020E6
:10058000986B000000B583B001900091019B1B683F
:100590001B6800990198984700BF03B05DF804FB01
:1005A00000B583B00190019B1B685B680198984778
:1005B00000BF03B05DF804FB00B583B00190019B60
:1005C0001B689B680198984700BF03B05DF804FB67
:1005D00082B001900B468DF80330019B9DF80320FB
:1005E0001A7200BF02B0704782B00190019B1B7A63
:1005F000184602B0704782B00190019B01225A72E6
:1006000000BF02B0704782B00190019B5B7A184630
:1006100002B0704700B58BB001900091364BFF22BD
:100620009A60354B00221A60334B00225A60324BDD
:100630000022C3F81824304B0022C3F814242E4B98
:10064000012283F820242D4802F088F80690069BAA
:10065000002B01D0069B4AE0294A2A4BD31ADB081B
:100660000593002309933DE000230793002308939B
:100670001DE0099A089B9A4216D0099BDB00214A8B
:1006800013441B680493089BDB001E4A13441B6839
:10069000039314220399049806F0E3F80346002B11
:1006A00002DD079B01330793089B01330893089AE7
:1006B000059B9A42DDD3099A13465B0013449B00C5
:1006C0001A46114B13440293029B00225A60099B65
:1006D0009AB2029B1A80079B9AB2029B5A80099B8E
:1006E00001330993099A059B9A42BDD3002318460A
:1006F0000BB05DF804FB00BFB0020020906A000060
:10070000906A0000006A000000000020024A034BCB
:10071000D31ADB0818467047906A0000006A000090
:1007200000B587B001900B468DF803309DF803307B
:10073000002B23D0FFF7EAFF04900023059317E076
:10074000059A13465B0013449B001A460E4B134454
:100750000393039B5B881A46019B1B689A4204D152
:10076000019B059A1A60002309E0059B013305935C
:10077000059A049B9A42E3D3052300E00023184620
:1007800007B05DF804FB00BF0000002000B585B095
:1007900001900B468DF803309DF8032001AB114604
:1007A0001846FFF7BDFF0346002B07D1019BDB0076
:1007B000054A13440393039B1B6800E0002318467B
:1007C00005B05DF804FB00BF006A000084B0019032
:1007D0000B468DF80330019BDB00174A134402934C
:1007E0009DF80330013B032B1CD801A252F823F0E3
:1007F0000108000009080000110800001B080000A3
:1008000002238DF80F3011E004238DF80F300DE036
:10081000029B1B798DF80F3008E0029B5B798DF805
:100820000F3003E000238DF80F3000BF9DF80F302C
:10083000184604B0704700BF006A000086B00190FF
:10084000002305930023049311E00722049B9A40A0
:10085000019B1A40049B22FA03F30393039A059B1E
:100860009A4201D9039B0593049B03330493049B91
:10087000092BEAD9059B184606B0704700B587B02A
:100880000390029113468DF80730029A13465B00DD
:1008900013449B001A46164B13440593059B996815
:1008A000039A13465B001344072202FA03F3DB4367
:1008B00001EA0302059B9A60059B99689DF8073041
:1008C00003F00700039A13465B00134400FA03F396
:1008D00041EA0302059B9A60059B9B681846FFF757
:1008E000ADFF0246059B5A6000BF07B05DF804FBF0
:1008F0000000002084B00190019BDB00034A1344F8
:100900000393039BDB79184604B07047006A00002C
:1009100000B585B00190009100238DF80F30019B48
:100920001B7803F00303DBB2002B06D0019B1B787E
:1009300003F00403DBB2002B44D0019B1B7803F0CF
:100940000403DBB2002B28D0019B1B78C3F3010307
:10095000DBB2012B02D0022B0CD017E0009B1B68EE
:10096000019A1288C2F38312D2B213449A1C009BDC
:100970001A6024E0009B1B68019A5288C2F3891216
:1009800092B213449A1C009B1A6018E010494FF46D
:10099000A47001F01DF900BF11E0009B1A68019BD3
:1009A0005B88C3F389139BB21946019B1B88C3F371
:1009B00089139BB20B4413445A1C009B1A600123F9
:1009C0008DF80F309DF80F30184605B05DF804FB28
:1009D0003C6C000000B58BB00023ADF826303E48DB
:1009E00001F084F93D4801F081F93D4B5B680493C7
:1009F0003B4B9B680693049A069B134002339B0073
:100A0000374A13440433089304AB19460898FFF798
:100A10007FFF0346002B09D0049A069B1340023344
:100A20009B002F4A134404330893EDE700BF0023D3
:100A3000079311E0049B5A1C0492069A1340079AEC
:100A4000920001A90A44264902339B000B445B68CB
:100A50001360079B01330793079B012BEAD99DF88D
:100A60000430C3F30103DBB2012B10D0022B1CD1E5
:100A7000BDF80A30ADF82630BDF80630C3F389134F
:100A80009BB203339A08049B1344049313E0BDF80C
:100A90000A30ADF82630BDF80430C3F38313DBB25F
:100AA0001A46049B1344049305E00E494FF4C270A8
:100AB00001F08EF800BF094801F024F90590059B6C
:100AC000002B02D0049B064A5360BDF8263018461E
:100AD0000BB05DF804FB00BFC8060020C406002070
:100AE000B00200203C6C000000B585B00021074832
:100AF00001F085F80390039B0293029B83F310039C
:100B00000193019B184605B05DF804FBCC0600205C
:100B100000B589B00390029101920093039B1B0CD6
:100B20000793FFF7E1FF0690FFF7F0FD0246079BF2
:100B3000934204D3214940F2A91001F049F8069BE1
:100B40001904009B5A1C0A9B1340079A0A431C492C
:100B500002339B000B445A60009A0A9B13400233F5
:100B60009B00174A134404330593039B03F00703C8
:100B7000D9B2059A137861F3C5031370019B03F092
:100B80000F03D9B2059A138861F389131380029B6E
:100B9000C3F31501059A136861F39F231360059A47
:100BA0001378012161F301031370059A13786FF331
:100BB0008203137000BF09B05DF804FB3C6C0000B9
:100BC000B002002000B58BB00390029113468DF85F
:100BD0000730039B0233089301238DF81F30002058
:100BE00000F096FE3E4B1A68029B1A603C4B9A68D6
:100BF0003B4B59683A4B1B68CB1A1344013309939A
:100C000014E00121374801F041F8FFF7E3FE0690B8
:100C10000699344801F03AF8314B9A68304B5968DC
:100C20002F4B1B68CB1A134401330993089A099B75
:100C30009A42E6D89DF81F30002B48D00023049339
:100C40009DF80730002B17D09DF81030012262F379
:100C500001038DF810309DF8103043F004038DF837
:100C60001030039B03F00F03DAB2BDF8103062F3CB
:100C70008913ADF8103016E09DF81030022262F3AF
:100C800001038DF810309DF8103043F004038DF807
:100C90001030039BC3F309039AB2BDF8123062F31C
:100CA0008F13ADF812300E4B1A680D4B9B68134032
:100CB00002339B000A4A134404330593049A059BAC
:100CC0001A60074B1A68089B1344054A13600020FA
:100CD00000F032FE9DF81F3018460BB05DF804FBA3
:100CE000B0020020CC06002000B58BB00590049126
:100CF000039202931F4B9B68079306AB0122194690
:100D00000298FFF75FFF0346002B24D0069B0233B7
:100D100009930023089311E0089B9B00039A1A444F
:100D2000099B591C099107990B401268114902331C
:100D30009B000B445A60089B01330893089A029B5E
:100D40009A42E9D3069A079B00931346029A0499A4
:100D50000598FFF7DDFE074B93F82034002B05D0F4
:100D600000BF00F093F80346002BFAD100BF0BB090
:100D70005DF804FBB002002000B583B00190009143
:100D80000023002200990198FFF7AEFF00BF03B0D7
:100D90005DF804FB00B587B0039002910192019BBE
:100DA000059305AA012302990398FFF79DFF00BF51
:100DB00007B05DF804FB00B587B003900291019283
:100DC0000093019B0493009B059304AA02230299BC
:100DD0000398FFF789FF00BF07B05DF804FB00B57B
:100DE00089B00390029101920093019B0593009BAF
:100DF00006930A9B079305AA032302990398FFF71A
:100E000073FF00BF09B05DF804FB00B589B0039023
:100E1000029101920093019B0493009B05930A9B0E
:100E200006930B9B079304AA042302990398FFF7E8
:100E30005BFF00BF09B05DF804FB00B58BB0039009
:100E4000029101920093019B0593009B06930C9BDA
:100E500007930D9B08930E9B099305AA05230299FE
:100E60000398FFF741FF00BF0BB05DF804FB0000E3
:100E7000054B5A68044B1B689A420CBF01230023A0
:100E8000DBB21846704700BFB002002000B59DB02D
:100E9000FFF7EEFF0346002B01D00023DBE1984B68
:100EA0000022C3F81824BFF34F8F954B5B6804935F
:100EB000934B9B681393049A139B134002339B003C
:100EC0008F4A134404331B9300231A93002319936E
:100ED0000023189304AB19461B98FFF719FD03462E
:100EE000002B14D0864B1A68049B9A4205D8844B79
:100EF0001B68834A53600023ADE1049A139B13409F
:100F000002339B007E4A134404331B93E2E700BF85
:100F10000023179311E0049B5A1C0492139A134068
:100F2000179A920001A90A44754902339B000B44A9
:100F30005B681360179B01331793179B012BEAD94A
:100F40009DF8043003F00303DBB2022B40F09C80D9
:100F5000BDF80630C3F389139BB21293BDF8063077
:100F6000C3F389139BB2502B28BF50239BB211931C
:100F7000119BC3F309039AB2BDF8063062F38F13D5
:100F8000ADF80630119B083310939DF80430C3F37D
:100F9000C203DBB2189310995A4801F0EAFB1A9089
:100FA0001A9B002B00F0D0801A9801F072FC01A966
:100FB000199B08221A9801F015FD199B0833199303
:100FC000049BDA43139B134001339B000F93119A48
:100FD0000F9B9A4242D90F9B002B08D0049A139B77
:100FE000134002339B00464A1344043300E0464B4F
:100FF0000E930F9B002B02D00F9BDBB201E0119BE5
:10100000DBB28DF837300F9B002B01D03E4B00E058
:1010100000230C930F9B002B06D0119BDAB20F9B81
:10102000DBB2D31ADBB200E000238DF82F309DF83D
:101030003720199B0E991A9801F0D4FC9DF837308F
:10104000199A134419930C9B002B16D09DF82F204E
:10105000199B0C991A9801F0C5FC0EE0049A139B99
:10106000134002339B00264A134404330A93199B0E
:10107000119A0A991A9801F0B5FC129B03339A0849
:10108000049B134404935FE09DF8043003F00303D2
:10109000DBB2012B58D1BDF80430C3F38313DBB2AC
:1010A000062B28BF0623DAB2BDF8043062F3891399
:1010B000ADF80430BDF80430C3F38313DBB2023360
:1010C00009939DF80430C3F3C203DBB21893099B64
:1010D0009B0019460B4801F04CFB1A901A9B002B01
:1010E00032D01A9801F0D5FB01A9199B08221A9851
:1010F00001F078FC199B08331993002317931AE029
:10110000B0020020906A0000BC020020049B5A1C20
:101110000492139A134002339B00514A1344191D41
:10112000199B04221A9801F05DFC199B0433199352
:10113000179B01331793BDF80430C3F38313DBB25D
:101140001A46179B9342E1D31A9B002B62D0444B63
:10115000D3F810341693424BD3F81834002B44D0F4
:101160001A9801F0A5FB70E000238DF8573016980F
:10117000FFF749FA0346002B2CD01698FFF734FAF4
:1011800003468DF82330BDF808301A4613465B003D
:1011900013449B001A46334B13440793079B9B68E9
:1011A00006939DF8232013465B001344069A22FA07
:1011B00003F303F007030593189B052B01D0189B3D
:1011C00000E003231893059A189B9A4202D3012347
:1011D0008DF857309DF85730002B03D01A99169888
:1011E000FFF7D0F9169B5B681693169B002BBBD1BB
:1011F0001A9801F05DFB002000F08AFB184BD3F831
:101200001834002B02D1049B154A5360002000F0D3
:1012100093FB1AE0124BD3F81034149305E01498A2
:10122000FFF7CAF9149B5B681493149B002BF6D14B
:101230000D4B5B68012B08D90B4B1B881B0443F03B
:1012400002030A491846FFF797FDFFF711FE034610
:1012500083F00103DBB218461DB05DF804FB00BF4C
:10126000B0020020000000203C000020C06C000004
:1012700000B585B00023039322E0164BD3F8103459
:10128000029301238DF807300EE00298FFF7ACF9C6
:1012900003461A46039B934203D100238DF807307F
:1012A00005E0029B5B680293029B002BEDD19DF849
:1012B0000730002B01D0039B07E0039B013303930E
:1012C000039B092BD9DD4FF0FF33184605B05DF8BD
:1012D00004FB00BFB002002000B587B001900B46B0
:1012E0008DF80330FFF7C4FF0490049BB3F1FF3F78
:1012F00001D1049B44E0049BDBB219460198FFF73F
:1013000067F9214BD3F81034002B07D11E4A019BFB
:10131000C2F81034019B00225A600AE01A4BD3F83D
:1013200010345A68019B5A60174BD3F81034019A55
:101330005A60002305931CE00598FFF7DBFA03468B
:101340008DF80F309DF803209DF80F30934228BF91
:1013500013468DF80E300198FFF746F903461846FC
:101360009DF80E301A460599FFF788FA059B013360
:101370000593FFF7CBF90246059B9342DCD3049B10
:10138000184607B05DF804FBB002002000B583B03A
:101390000C4BD3F8103401930A4B012283F820241C
:1013A00008E00198FFF727F90198FFF7F9F8019B8A
:1013B0005B680193019B002BF3D100BF03B05DF884
:1013C00004FB00BFB002002082B00190009100BF7A
:1013D00002B0704710B584B003900291039BDB8884
:1013E000002B0AD0039BDB881A461F4B0093134641
:1013F0001E4A1F49029800F0B3FD039B1B7A052B80
:101400002ED0039B5B7A002B12D0039B9B881A463D
:10141000039B1B7A19461046FFF7D8F903461A4674
:10142000144B53F822301A461349029800F098FDE5
:10143000039B1B6819460298FFF7C6FF039B1B7AA4
:101440001A460E4B53F82240039B9B8800211846F6
:10145000FFF79CF9034622460949029800F080FDF7
:1014600000BF04B010BD00BFF46C0000046D0000AC
:101470003C6D0000F8000020546D0000E4000020E6
:10148000586D000000B585B00390029113468DF8A9
:101490000730039B1B7A052B0FD0039B5B7A002B35
:1014A00006D00D4B1B681A460C49029800F058FDF7
:1014B0000B49029800F054FD07E09DF80730002B1F
:1014C00003D00749029800F04BFD029800F026FD7A
:1014D00000BF05B05DF804FBF8000020546D00006B
:1014E000646D000030B58BB00790069105920493AF
:1014F0000E9B1B7B8DF827300E9B00221A730E99D2
:101500000498FFF767FF059B062B7FD801A252F8CE
:1015100023F000BF311500003B1500004B15000003
:101520005F1500007D150000A5150000D515000011
:1015300007990E9800F014FD69E0069B1B681A4697
:1015400007990E9800F00CFD61E0069B1A68069B57
:1015500004331B6807990E9800F002FD57E0069BC4
:101560001A68069B04331968069B08331B680093AE
:101570000B4607990E9800F0F3FC48E0069B1968AB
:10158000069B04331868069B08331B68069A0C32C6
:1015900012680192009303460A4607990E9800F0DC
:1015A000DFFC34E0069B1868069B04331C68069B2E
:1015B00008331B68069A0C321268069910310968C4
:1015C0000291019200932346024607990E9800F07B
:1015D000C7FC1CE0069B1C68069B04331D68069B29
:1015E00008331B68069A0C32126806991031096894
:1015F00006981430006803900291019200932B46E4
:10160000224607990E9800F0ABFC00E000BF0022D4
:101610000E990498FFF736FF0E9B9DF827201A734A
:1016200000BF0BB030BD00BF00B587B00390029182
:1016300001920093029B082B5CD8009B1B7B8DF8CA
:101640001330009B00221A7300990198FFF7C2FE25
:101650000023059314E0059A029B9A4209D2039A4B
:10166000059B13441B781A462449009800F078FC27
:1016700003E02349009800F073FC059B01330593B8
:10168000059B072BE7D91F49009800F069FC002350
:10169000059322E0059A029B9A4217D2039A059B72
:1016A00013441B788DF812309DF81230184605F05F
:1016B000D3F80346002B02D09DF8123000E02E2311
:1016C0001A461149009800F04BFC03E00F490098BE
:1016D00000F046FC059B01330593059B072BD9D9E8
:1016E000012200990198FFF7CDFE009B9DF8132081
:1016F0001A7300E000BF07B05DF804FB686D0000DE
:10170000706D0000746D0000786D00007C6D00004D
:1017100086B003900291019201238DF817309DF855
:101720001730204A039B13601E4A029B53601D4AD8
:10173000019B9360039B44F20102934213D0039BED
:1017400044F20202934221D1019B164AD360154B09
:10175000DB681B881A46134B9A61124BDB685B6887
:10176000104AD36112E0019B0E4A13610D4B1B69B5
:101770009B680C4A53610B4B1B691B68094A9361B8
:10178000084B1B695B68074AD36100BF72B600BF94
:101790009DF81730DBB2002BFAD162B600BF06B05D
:1017A000704700BFD406002000B583B002900091BE
:1017B000019244F2010071466A4600F003F803B05A
:1017C00000BD00BF30B58BB007900691059272B690
:1017D000FFF7DCFD00BFFFF759FB0346002BFAD1F2
:1017E000079B44F20102934219D0079B44F2020284
:1017F000934246D1059B0993334B5B68002B4FD036
:10180000314B1B881B0443F001031846099B5B689E
:101810001A46099B1B882D49FFF7CDFA40E0059B2E
:101820000893294B5B68002B1DD0274B1B881B049A
:1018300043F001031D46089B9C68089B9B68184663
:1018400001F0F4F803461846089B5B681946089BAC
:101850001B68069A029201930091034622461C4996
:101860002846FFF7EAFA184B5B68002B1AD0164B94
:101870001B881B0443F0010316491846FFF77CFA46
:1018800010E0114B5B68002B0ED00F4B1B881B0424
:1018900043F00103069A10491846FFF77BFA03E06C
:1018A00000BF02E000BF00E000BF0C4B1B6803F06C
:1018B0000103002B00D000BE059A06990798FFF798
:1018C00027FF00BF0BB030BD3C000020806D000042
:1018D0009C6D0000C46D0000D86D0000F0ED00E0CC
:1018E00072B6034B1B680133014A136000BF704797
:1018F000F4060020054B1B68013B044A1360034BB0
:101900001B68002B00D162B600BF7047F4060020B0
:1019100000B583B0019000F025F80346012B03D0F9
:101920000449432000F054F9FFF7DAFF00BF03B089
:101930005DF804FBF06D000000B583B003468DF840
:10194000073000F00FF80346012B03D00449512063
:1019500000F03EF9FFF7CEFF00BF03B05DF804FBD7
:10196000F06D000084B0EFF305830193019BC3F396
:1019700008030393039B002B0DD1EFF31483009313
:10198000009B0293029B03F00103002B0CBF012379
:101990000023DBB200E00123184604B070470000CA
:1019A0001EF0040F1CBFEFF309800AE0EFF308807C
:1019B0000849094A884201D8904202D88D464FF022
:1019C00000006B46854608B5044B9847BDE80840C3
:1019D0009D4670470000012000E000201D1A000015
:1019E00000BF00BFBFF34F8F054BDB6803F4E0621D
:1019F0000349044B1343CB60BFF34F8F00BFFDE798
:101A000000ED00E00400FA0500B583B00190FFF797
:101A1000E9FF00BF03B05DF804FB000010B588B01B
:101A20000390FFF7B3FC00BFFFF730FA0346002B2B
:101A3000FAD1039B06935B4B9B6A05935A4B5B68F9
:101A4000002B0BD0584B1B881B0443F00103184696
:101A5000069B9B691A465549FFF79CF9524B5B68F8
:101A6000002B15D0504B1B881B0443F001031C4670
:101A7000069B1968069B5868069B9B68069AD26865
:101A80000192009303460A4649492046FFF7BDF9F3
:101A9000454B5B68002B10D0434B1B881B0443F065
:101AA00001031846069B1A69069B5969069BDB6968
:101AB00000930B463F49FFF792F93A4BDB6A03F07C
:101AC0000203002B0CD0384B5B68002B08D0364B40
:101AD0001B881B0443F0010337491846FFF74CF9F4
:101AE0000023079323E00122079B02FA03F31A461F
:101AF000059B1340002B17D0304A079B52F8233028
:101B0000002B11D0284B5B68002B0DD0264B1B8877
:101B10001B0443F001031846284A079B52F8233060
:101B20001A462749FFF736F9079B01330793079BAE
:101B3000192BD8D9059B03F08003002B0FD01A4B2B
:101B40005B68002B0BD0184B1B881B0443F0010370
:101B50001846144B5B6B1A461A49FFF71BF9059B95
:101B600003F40043002B0FD00F4B5B68002B0BD00E
:101B70000D4B1B881B0443F001031846094B9B6B5C
:101B80001A461149FFF706F9104B1B6803F00103D1
:101B9000002B00D000BE0398FFF736FF00BF08B04F
:101BA00010BD00BF00ED00E084000020E46E0000E6
:101BB000FC6E0000346F00005C6F00001C01002010
:101BC000A06F0000AC6F0000CC6F0000F0ED00E0F3
:101BD00000B585B003460091ADF80630BDF806307B
:101BE000ADF80830009B039302AB1A46002144F283
:101BF0000200FFF7E7FD00BF05B05DF804FB10B47D
:101C000087B001900091019B009A53E8004F104665
:101C100043E8000191F0000FF7D10594049003917F
:101C2000059B184607B05DF8044B704710B487B0A9
:101C300001900091019B009A53E8004F44EA020092
:101C400043E8000191F0000FF6D105940490039150
:101C5000049B184607B05DF8044B704710B487B07A
:101C600001900091019B009A53E8004F04EA0200A2
:101C700043E8000191F0000FF6D105940490039120
:101C8000059B184607B05DF8044B704710B487B049
:101C900001900091019B009A53E8004F04EB020071
:101CA00043E8000191F0000FF6D1059404900391F0
:101CB000049B184607B05DF8044B704710B487B01A
:101CC00001900091019B009A53E8004FA4EB0200A1
:101CD00043E8000191F0000FF6D1059404900391C0
:101CE000049B184607B05DF8044B704700B583B0FD
:101CF000019001210198FFF799FF0346184603B0B0
:101D00005DF804FB00B583B0019000210198FFF756
:101D1000A5FF0346184603B05DF804FB00B583B089
:101D200001900B468DF80330019B002B03D108492D
:101D3000E820FFF74DFF019BDA689DF80330019919
:101D4000898A01FB03F31344184603B05DF804FBD2
:101D5000BC74000000B583B001900091019B002B82
:101D600003D10849F520FFF733FF009B019AD268A1
:101D70009B1A019A928AB3FBF2F3DBB2184603B0C6
:101D80005DF804FBBC74000000B585B00190019BB8
:101D9000002B01D10E234CE0019B1B68002B03D1CB
:101DA0002649FF20FFF714FF019B5B68002B04D13D
:101DB00022494FF48070FFF70BFF019B9B68002BBB
:101DC00004D11E4940F20110FFF702FF019BDB68BE
:101DD000002B04D119494FF48170FFF7F9FE019BE4
:101DE0009B8A002B04D1154940F20310FFF7F0FE47
:101DF000019B9A68019B5B68D31A8DF80F30019B99
:101E00001B68019A52681A6007E0019B1A68136800
:101E1000591C11609DF80F201A709DF80F305A1E42
:101E20008DF80F20002BF0D1019B1B6800221A7146
:101E30000023184605B05DF804FB00BFBC74000029
:101E400000B585B00190019B002B04D11C494FF4D3
:101E50009270FFF7BDFE002303930020FFF758FDAB
:101E6000019B1B681A68019B5B689A421FD9019B02
:101E70001B681A68013A1A601B681B78194601989A
:101E8000FFF74CFF0390019B9A68019B1B681B683E
:101E9000D31A8DF80B30019B1B681B799DF80B2022
:101EA0009A4204D9019B1B689DF80B201A710020EF
:101EB000FFF742FD039B184605B05DF804FB00BF29
:101EC000BC74000010B584B001900091019B002B00
:101ED00004D1114940F24710FFF77AFE009B002B16
:101EE00004D10D494FF4A470FFF772FE009B0393D9
:101EF0000020FFF70DFD019B1B681C68621C1A6027
:101F000003990198FFF726FF034623700020FFF78F
:101F100013FD00BF04B010BDBC74000000B583B059
:101F20000190019B002B03D10C493120FFF750FE9B
:101F3000019B9B68002B0CD0019B5B69019A106987
:101F4000019A1168019A92689847019B00229A6051
:101F500000E000BF03B05DF804FB00BF2C7500007B
:101F60000EB400B584B00190019B002B03D1184939
:101F70004220FFF72DFE019B5B69002B03D1144922
:101F80004320FFF725FE019B1B68002B03D110495E
:101F90004420FFF71DFE019B5B68002B03D10C4919
:101FA0004520FFF715FE059B002B0AD00023039365
:101FB00006AB039303AB1A460599019800F0B0F9FC
:101FC00000E000BF04B05DF804EB03B0704700BF51
:101FD0002C75000000B583B001900B468DF80330DE
:101FE000019B1A68019B9B68581C019988601344E7
:101FF0009DF803201A70019B9A68019B5B689A42C6
:1020000002D30198FFF78AFF00BF03B05DF804FB1D
:1020100000B587B0039002910192009300230593CD
:10202000009B03F00103002B24D00BE0029B013343
:102030000293059B013305939DF8133019460398CD
:10204000FFF7C8FF029B1B788DF813309DF8133003
:10205000002BEBD106E0019B013B0193202103986B
:10206000FFF7B8FF019A059B9A422ED9019B002BDE
:10207000F1D12AE0029B002B0BD0029804F08FFCD8
:10208000059006E0019B013B019320210398FFF797
:10209000A1FF019A059B9A420FD9019B002BF1D118
:1020A0000BE0029B01330293059B013305939DF8DE
:1020B000133019460398FFF78DFF029B1B788DF8AC
:1020C00013309DF81330002BEBD100BF07B05DF843
:1020D00004FB000000B589B00390029101920093C7
:1020E000029B07930123069307E0079A019BB2FB2B
:1020F000F3F30793069B01330693079A019B9A42D9
:10210000F3D2009A069B9A4201D9009B06930B9B3F
:1021100003F00103002B22D10A9B002B1FD00B9B45
:1021200003F00203002B06D0009B002B03D13023C9
:102130008DF8173002E020238DF8173008E00A9B55
:10214000013B0A939DF8173019460398FFF742FFA9
:102150000A9B002B03D0069A0A9B9A42EFD30123D5
:102160000793009B012B03D9009B013B009309E0DF
:10217000029A079BB2FBF3F30493049A019B9A42E1
:1021800000D205E0079B019A02FB03F30793E8E7FF
:10219000029A079BB2FBF3F30493049B079A02FB9A
:1021A00003F3029AD31A0293154A049B13441B7833
:1021B00019460398FFF70EFF079A019BB2FBF3F352
:1021C0000793079B002BE3D10B9B03F00103002B2C
:1021D00011D00A9B002B0ED006E00A9B013B0A930C
:1021E00020210398FFF7F6FE0A9B002B03D0069AE6
:1021F0000A9B9A42F1D300BF09B05DF804FB00BF0F
:10220000FC75000000B589B005900491039202931B
:10221000049B002BB8BF5B4206930123079307E0A2
:10222000039B069A92FBF3F30693079B01330793F4
:10223000039B069A9A42F3DA029A079B9A4201D9C3
:10224000029B07930A9B002B0AD0049B002B04DB04
:102250000B9B03F00403002B02D00A9B013B0A9363
:102260000B9B03F00203002B02D0029B002B16D025
:102270000B9B03F00103002B11D10A9B002B0ED006
:1022800006E00A9B013B0A9320210598FFF7A2FE76
:102290000A9B002B03D0079A0A9B9A42F1D3049B16
:1022A000002B07DA049B5B4204932D210598FFF76E
:1022B00091FE08E00B9B03F00403002B03D02B21BD
:1022C0000598FFF787FE0B9B03F00203002B19D044
:1022D0000B9B03F00103002B14D1029B002B11D1A7
:1022E0000A9B002B0ED006E00A9B013B0A9330218B
:1022F0000598FFF76FFE0A9B002B03D0079A0A9BF5
:102300009A42F1D304990B9B01930A9B0093029B81
:10231000039A0598FFF7DEFE00BF09B05DF804FBE5
:1023200000B58FB0059004910392059B002B04D15A
:10233000C8494FF49F70FFF74BFC059B5B69002B6E
:1023400004D1C4494FF4A070FFF742FC059B1B6801
:10235000002B04D1BF4940F24110FFF739FC059B27
:102360005B68002B04D1BB494FF4A170FFF730FC30
:10237000049B002B00F0ED81049B1B788DF8373017
:10238000049B013304939DF83730002B00F0D88173
:102390009DF83730252B40F0C78100230A93012395
:1023A0000C93049B1B788DF837309DF837302D2B1C
:1023B00004D0302B0AD02B2B10D017E00A9B43F00F
:1023C00001030A93049B0133049312E00A9B43F038
:1023D00002030A93049B013304930AE00A9B43F02F
:1023E00004030A93049B0133049302E000230C933B
:1023F00000BF0C9B002BD4D1002309939DF83730EC
:102400002A2B0CD1039B1B68191D039A11601B68B2
:10241000099A13440993049B013304931AE0049B23
:102420001B788DF837309DF837302F2B12D99DF857
:102430003730392B0ED8049B01330493099A134685
:102440009B0013445B001A469DF837301344303B21
:102450000993D3E700230B93049B1B788DF8373047
:102460009DF837302E2B1DD1049B01330493049B20
:102470001B788DF837309DF837302F2B12D99DF807
:102480003730392B0ED8049B013304930B9A134633
:102490009B0013445B001A469DF837301344303BD1
:1024A0000B93E4E7049B1B788DF837309DF83730A9
:1024B0006C2B03D09DF83730682B07D1049B013378
:1024C0000493049B1B788DF83730EFE79DF8373085
:1024D000253B532B00F2238101A252F823F000BFC9
:1024E000152700001F2700001F2700001F270000DE
:1024F0001F2700001F2700001F2700001F270000C4
:102500001F2700001F2700001F2700001F270000B3
:102510001F2700001F2700001F2700001F270000A3
:102520001F2700001F2700001F2700001F27000093
:102530001F2700001F2700001F2700001F27000083
:102540001F2700001F2700001F2700001F27000073
:102550001F2700001F2700001F2700001F27000063
:102560001F2700001F2700001F2700001F27000053
:102570001F2700001F2700001F2700001F27000043
:102580001F2700001F2700001F2700001F27000033
:102590001F2700001F2700001F2700001F27000023
:1025A0001F2700001F2700001F270000A126000092
:1025B0001F2700001F2700001F2700001F27000003
:1025C0001F2700001F2700001F2700001F270000F3
:1025D0001F2700001F270000312600005926000099
:1025E0001F2700001F2700001F2700001F270000D3
:1025F000592600001F2700001F2700001F2700008A
:102600001F2700001F2700001F270000E1260000F1
:102610001F2700001F270000C52600001F270000FD
:102620007D2600001F2700001F270000A1260000B4
:10263000039B1B68191D039A11601B680C930C9B6C
:102640008DF823309DF8233019460598FFF7C2FC1A
:1026500066E000BF90750000039B1B68191D039A7C
:1026600011601B680C930A9B0193099B00930B9BC1
:102670000A220C990598FFF7C5FD51E0039B1B68E2
:10268000191D039A11601B680C930C990A9B019306
:10269000099B00930B9B0A220598FFF71BFD3FE067
:1026A000039B1B68191D039A11601B680C930C99FE
:1026B0000A9B0193099B00930B9B10220598FFF73F
:1026C00009FD2DE0039B1B68191D039A11601B680F
:1026D00007930A9B099A07990598FFF799FC1FE051
:1026E000039B1B68191D039A11601B680C93302112
:1026F0000598FFF76FFC78210598FFF76BFC0C99A4
:102700000023019308230093082310220598FFF764
:10271000E1FC05E025210598FFF75CFC00E000BF27
:10272000049B0133049305E09DF837301946059862
:10273000FFF750FC049B1B78002B7FF41DAE00E0DC
:1027400000BF059B1B7B002B04D00598FFF7E6FB21
:1027500000E000BF0FB05DF804FB00BF00B583B020
:1027600001900198FFF710FB0346184603B05DF88F
:1027700004FB00B58BB001900091019B9B8A043B48
:102780000793009A079B1344DA1C079BB2FBF3F3F1
:102790008DF81B300198FFF753FB0590059B002B2C
:1027A00001D1002338E0059B00221A71059B01220C
:1027B0005A71079B9AB2059BDA80059B09939DF895
:1027C0001B30013B0493099B019A1A600023089374
:1027D0001DE00198FFF734FB0390039B002B0ED004
:1027E000059B5B790133DAB2059B5A71099B039A09
:1027F0001A60039B019A1A60039B099304E00598F1
:1028000000F00EF8002307E0089B01330893089AB4
:10281000049B9A42DDD3059B18460BB05DF804FB80
:1028200000B58BB00190019B0793079B5B798DF8F6
:102830001B30019B08939DF81B30013B059300233F
:10284000099305E0089B1B680893099B01330993D2
:10285000099A059B9A42F5D3089B1B680493019B38
:102860000893002309930BE0089B1B6803930899C6
:102870000498FFF727FB039B0893099B01330993F7
:102880009DF81B30099A9A42EED300BF0BB05DF859
:1028900004FB00B585B00190019B0393039B0433B7
:1028A00001211846FFF7F2F900BF05B05DF804FBFF
:1028B00000B587B00190019B0593059B043301216E
:1028C0001846FFF7FBF90346039303AB0493049BFD
:1028D0001B78002B02D10198FFF7A2FF00BF07B0C1
:1028E0005DF804FB00B58DB0039002910192009356
:1028F000039B0693069BDB880593039B0B93009B2E
:102900001A1D059BB2FBF3F30A93009B0433059A4F
:10291000B3FBF2F2059901FB02F29B1A0993009AAC
:10292000019B1A44059B1344DA1C059BB2FBF3F38D
:102930008DF81330069B5B799DF813209A420AD9D3
:102940002749BA20FFF744F905E00B9B1B680B935E
:102950000A9B013B0A930A9B002BF6D100230893A4
:10296000059A099BD31A0793079A019B934228BFA4
:10297000134607932DE09DF83830002B0BD0029AB8
:10298000089BD0180B9A099B13440433079A1946E5
:1029900003F087FF0AE00B9A099B1344181D029A63
:1029A000089B1344079A194603F07BFF0023099301
:1029B0000B9B1B680B93019A079BD31A0193089AF0
:1029C000079B13440893059A019B934228BF134623
:1029D0000793019B002BCED100BF0DB05DF804FB27
:1029E000D077000000B587B0059004910392029360
:1029F00000230093029B039A04990598FFF772FF46
:102A000000BF07B05DF804FB00B587B005900491E6
:102A10000392029301230093029B039A0499059861
:102A2000FFF760FF00BF07B05DF804FB00B585B09D
:102A30000190019800F00EF80390039B002B01D049
:102A4000039B00E0024B184605B05DF804FB00BF95
:102A50004C78000086B00190164B0593164B0493FA
:102A60001FE0049A059BD31ADB10DA0F13445B10A6
:102A7000DB00059A13440393039B1B680293029A9D
:102A8000019B9A4202D9039B04930AE0029A019B9C
:102A90009A4203D2039B0833059302E0039B5B68D1
:102AA00004E0059A049B9A42DBD30023184606B043
:102AB000704700BF4C7C0000747D0000BFF34F8F57
:102AC000054BDB6803F4E0620349044B1343CB601E
:102AD000BFF34F8F00BFFDE700ED00E00400FA05F3
:102AE000024B034A1A6000BF704700BF84010020F8
:102AF0000090D00308B500F067F90346002B06D01C
:102B00009F4B1B681B0A9F4A03F01F03136000F0D2
:102B100087F90346002B02D09B4B9C4A1A6000F0B9
:102B20009BF90346002B06D0994B1B685B0B994A17
:102B300003F00703136000F0BBF90346002B05D038
:102B4000954BDB68944A23F08073D36000F0CCF996
:102B50000346002B0ED04FF080430022C3F80C2117
:102B60004FF080430022C3F810214FF08043002231
:102B7000C3F8382500F0E4F90346002B02D0874B58
:102B800003221A6000F0F8F90346002B0BD0844BA7
:102B900005221A60834B01221A60834B00221A60BF
:102BA000824B3F221A6000F003FA0346002B76D0D6
:102BB0004FF080537E4AD3F80434C2F820354FF0EA
:102BC00080537B4AD3F80834C2F824354FF0805341
:102BD000774AD3F80C34C2F828354FF08053744A42
:102BE000D3F81034C2F82C354FF08053704AD3F824
:102BF0001434C2F830354FF080536D4AD3F818348E
:102C0000C2F834354FF08053694AD3F81C34C2F807
:102C100040354FF08053664AD3F82034C2F844352B
:102C20004FF08053624AD3F82434C2F848354FF04D
:102C300080535F4AD3F82834C2F84C354FF08053A4
:102C40005B4AD3F82C34C2F850354FF08053584AC1
:102C5000D3F83034C2F854354FF08053544AD3F887
:102C60003434C2F860354FF08053514AD3F83834C9
:102C7000C2F864354FF080534D4AD3F83C34C2F863
:102C800068354FF080534A4AD3F84034C2F86C3567
:102C90004FF08053464AD3F84434C2F8703500F000
:102CA000A3F90346002B05D0424B1B68424A03F0B0
:102CB0004F03136000F0C4F90346002B0DD04FF012
:102CC0008043D3F8003403F00103002B05D04FF00C
:102CD00080436FF00102C3F8002400F0DDF90346E1
:102CE000002B05D0354B1B68344A43F480631360D6
:102CF000334BD3F88830324A43F47003C2F888303B
:102D0000BFF34F8FBFF36F8F4FF01023D3F8003214
:102D1000002B05DB4FF01023D3F80432002B2BDA05
:102D2000284B0122C3F8042500BF264BD3F80034FA
:102D3000002BFAD04FF010231522C3F8002200BF59
:102D4000204BD3F80034002BFAD04FF0102315227B
:102D5000C3F8042200BF1B4BD3F80034002BFAD079
:102D6000184B0022C3F8042500BF164BD3F80034DB
:102D7000002BFAD0FFF7A2FEFFF7B2FE00BF08BD9E
:102D8000240300104035014074C007400DF0ADBA77
:102D9000440200103C050040F0ED00E0A0050040BA
:102DA0001056004088560040185600401456004007
:102DB00000C0004058020010E40E00403C170040E4
:102DC00000ED00E000E00140124B1B68DBB2062B77
:102DD0001DD1114B1B6803F00F03002B17D10F4BB4
:102DE0001B6803F0F003302B01D1012310E00B4BE3
:102DF0001B6803F0F003402B01D1012308E0074BCF
:102E00001B6803F0F003502B01D1012300E00023E5
:102E100018467047E00F00F0E40F00F0E80F00F0F4
:102E20000A4B1B68DBB2062B0DD1094B1B6803F064
:102E30000F03002B07D1074B1B6803F0F003302B67
:102E400001D1012300E0002318467047E00F00F095
:102E5000E40F00F0E80F00F0124B1B68DBB2062B0A
:102E60001DD1114B1B6803F00F03002B17D10F4B23
:102E70001B6803F0F003302B01D1012310E00B4B52
:102E80001B6803F0F003402B01D1012308E0074B3E
:102E90001B6803F0F003502B01D1012300E0002355
:102EA00018467047E00F00F0E40F00F0E80F00F064
:102EB0000A4B1B68DBB2062B0DD1094B1B6803F0D4
:102EC0000F03002B07D1074B1B6803F0F003302BD7
:102ED00001D1012300E0002318467047E00F00F005
:102EE000E40F00F0E80F00F0124B1B68DBB2062B7A
:102EF0001DD1114B1B6803F00F03002B17D10F4B93
:102F00001B6803F0F003302B01D1012310E00B4BC1
:102F10001B6803F0F003402B01D1012308E0074BAD
:102F20001B6803F0F003502B01D1012300E00023C4
:102F300018467047E00F00F0E40F00F0E80F00F0D3
:102F40000A4B1B68DBB2062B0DD1094B1B6803F043
:102F50000F03002B07D1074B1B6803F0F003302B46
:102F600001D1012300E0002318467047E00F00F074
:102F7000E40F00F0E80F00F00A4B1B68DBB2062BF1
:102F80000DD1094B1B6803F00F03002B07D1074B32
:102F90001B6803F0F003302B01D1012300E0002374
:102FA00018467047E00F00F0E40F00F0E80F00F063
:102FB0000A4B1B68DBB2062B0DD1094B1B6803F0D3
:102FC0000F03002B07D1074B1B6803F0F003502BB6
:102FD00001D1012300E0002318467047E00F00F004
:102FE000E40F00F0E80F00F0124B1B68DBB2062B79
:102FF0001DD1114B1B6803F00F03002B17D10F4B92
:103000001B6803F0F003302B01D1012310E00B4BC0
:103010001B6803F0F003402B01D1012308E0074BAC
:103020001B6803F0F003502B01D1012300E00023C3
:1030300018467047E00F00F0E40F00F0E80F00F0D2
:10304000124B1B68DBB2062B1DD1114B1B6803F022
:103050000F03002B17D10F4B1B6803F0F003302B2D
:1030600001D1012310E00B4B1B6803F0F003402B50
:1030700001D1012308E0074B1B6803F0F003502B3C
:1030800001D1012300E0002318467047E00F00F053
:10309000E40F00F0E80F00F0064B1B68062B05D18B
:1030A000054B1B68062B01D1012300E000231846C5
:1030B000704700BF300100103401001000B585B02A
:1030C000019000230393019B03F00703002B04D01E
:1030D000019B23F007030833019301F04DFA164BCF
:1030E0001B68002B05D1154B23F007031A46124B22
:1030F0001A60134B1A68019B134440F6F77293420F
:1031000013D80F4B1A68019B1A440D4B1B689A4247
:103110000BD9094B1A680A4B1B6813440393084BDD
:103120001A68019B1344064A136001F065FA039B79
:10313000184605B05DF804FBFC16002000070020CF
:10314000F816002000B583B00190019B002B03D03E
:1031500003498320FEF73CFD00BF03B05DF804FB8C
:10316000747D000082B00190019B03F10802019B75
:103170005A60019B4FF0FF329A60019B03F10802F5
:10318000019BDA60019B03F10802019B1A61019B1C
:1031900000221A6000BF02B0704782B00190019B0C
:1031A00000221A6100BF02B0704784B00190009104
:1031B000019B5B680393009B039A5A60039B9A6888
:1031C000009B9A60039B9B68009A5A60039B009A3D
:1031D0009A60009B019A1A61019B1B685A1C019B13
:1031E0001A6000BF04B0704784B001900091009B4A
:1031F0001B680293029BB3F1FF3F03D1019B1B6944
:1032000003930CE0019B0833039302E0039B5B688C
:103210000393039B5B681B68029A9A42F6D2039B56
:103220005A68009B5A60009B5B68009A9A60009BFA
:10323000039A9A60039B009A5A60009B019A1A6154
:10324000019B1B685A1C019B1A6000BF04B07047A9
:1032500084B00190019B1B690393019B5B68019AF9
:1032600092689A60019B9B68019A52685A60039B1E
:103270005B68019A9A4203D1019B9A68039B5A604A
:10328000019B00221A61039B1B685A1E039B1A6054
:10329000039B1B68184604B070470000064800688E
:1032A00080F3088862B661B6BFF34F8FBFF36F8FAC
:1032B00000DF00BF00BF000000000000074B1968DE
:1032C0000868B0E8F04F80F30988BFF36F8F4FF0C4
:1032D000000080F31188704700BF00001C17002019
:1032E000EFF30980BFF36F8F154B1A681EF0100FB4
:1032F00008BF20ED108A20E9F04F10604DF8043D22
:103300004FF0400080F31188BFF34F8FBFF36F8FF2
:1033100001F0DCFA4FF0000080F3118808BC196856
:103320000868B0E8F04F1EF0100F08BFB0EC108A2C
:1033300080F30988BFF36F8F704700BF00BF0000A4
:103340001C170020034BDB681B0A03F00703184619
:10335000704700BF00ED00E082B0034600918DF899
:1033600007309DF90730002B0CDA009BDAB20C49CC
:103370009DF8073003F00F03043B5201D2B20B4417
:103380001A7609E0009BDAB206499DF9073052012E
:10339000D2B20B4483F8002300BF02B0704700BFD5
:1033A00000ED00E000E100E084B0039002910192A2
:1033B000039B043B0393002343F080731A46039B53
:1033C0001A60039B043B0393029A039B1A60039BBE
:1033D000043B03930B4A039B1A60039B143B039328
:1033E000019A039B1A60039B043B0393039B6FF0BA
:1033F00002021A60039B203B0393039B184604B010
:10340000704700BF0934000000B583B0074B1B684C
:10341000B3F1FF3F03D006499E20FEF7D9FB4023BE
:103420000193019B83F31188FEE700BF0017002082
:10343000EC7D000000B585B0304B1B68304A9342EC
:1034400003D03049B020FEF7C3FB2F4B0393039BFF
:103450001B78DBB20293039BFF221A70039B1B783D
:10346000DBB28DF807309DF80730DBB203F00203C2
:10347000DAB2264B1A70264B07221A600BE0244B57
:103480001B68013B224A13609DF80730DBB25B00EA
:10349000DBB28DF807309DF80730DBB203F0800314
:1034A000802BECD01A4B1B6803F00703184A1360FB
:1034B000029BDAB2039B1A700F216FF00100FFF735
:1034C0004BFF00F0D9F9134B00221A6000F06EF8A0
:1034D000114B5B68104A43F040435360074B1B6934
:1034E000064A43F010031361FFF7D8FEFFF78CFF85
:1034F0000023184605B05DF804FB00BF00ED00E0B6
:1035000041C20F41EC7D000000E400E00417002000
:10351000081700200017002030EF00E000B583B04E
:1035200040230193019B83F311880C4B1B680133EB
:103530000A4A1360094B1B68012B0AD1084B5B68D0
:10354000C3F30803002B04D0064940F21110FEF724
:103550003FFB00BF03B05DF804FB00BF0017002075
:1035600000ED00E0EC7D000000B583B00D4B1B6862
:10357000002B04D10C494FF48C70FEF729FB094B4A
:103580001B68013B074A1360064B1B68002B04D1E4
:1035900000230193019B83F3118800BF03B05DF802
:1035A00004FB00BF00170020EC7D0000044BD3F8A3
:1035B0008830034A43F47003C2F8883000BF704774
:1035C00000ED00E000B585B0EFF305830193019BAA
:1035D0000093BDF80030C3F308039BB20393039B31
:1035E0000F2B12D9114A039B103B134493F800335D
:1035F0008DF80B300E4B1B789DF80B209A4204D2AD
:103600000C494FF4A970FEF7E3FAFFF79BFE024660
:10361000094B1B689A4204D906494FF4B170FEF772
:10362000D7FA00BF05B05DF804FB00BF00E100E081
:1036300004170020EC7D00000817002082B003462C
:103640008DF807309DF8073003F01F0205499DF9FA
:1036500007305B09012000FA02F241F8232000BF85
:1036600002B0704700E100E082B003468DF80730F9
:103670009DF8073003F01F0206499DF907305B09EA
:10368000012000FA02F2603341F8232000BF02B0AB
:10369000704700BF00E100E082B0034600918DF862
:1036A00007309DF90730002B0CDA009BDAB20C4989
:1036B0009DF8073003F00F03043B5201D2B20B44D4
:1036C0001A7609E0009BDAB206499DF907305201EB
:1036D000D2B20B4483F8002300BF02B0704700BF92
:1036E00000ED00E000E100E084B0EFF3118301930E
:1036F000019B039340230293029B83F31188039B56
:10370000184604B0704784B0039002910192039B65
:10371000029A02F5A872019943F8221000BF04B082
:10372000704782B001900091019B009AC3F8042376
:1037300000BF02B0704782B001900091019B009AD7
:10374000C3F8082300BF02B0704784B001900B4655
:10375000ADF80230BDF80230019A134400221A601D
:10376000BDF80230019A13441B680393039B00BF0A
:1037700004B0704782B00190019BD3F8043518461D
:1037800002B0704700B583B001900091009BB3F583
:10379000805F04D3064940F22310FEF719FA019B1B
:1037A000009AC3F8082500BF03B05DF804FB00BF12
:1037B000687E000082B001900B468DF803309DF8C2
:1037C0000320019B13441A460123136000BF02B07B
:1037D000704782B001900091019B009AC3F8442386
:1037E00000BF02B07047000000B587B04FF4A07171
:1037F0001F48FFF7AAFF00230593FFF775FF03900B
:103800001B48FFF7B7FF02904FF480711848FFF78D
:103810009CFF00F089FF0246029B9B1A23F07F4326
:103820000493049B012B0DD901F0BCFA0346022B33
:1038300008D00123049305E000F0A0FF0246059B99
:1038400013430593049B5A1E0492002BF4D1059B4D
:10385000002B04D0074B4FF080525A6040BF039BAF
:103860000193019B83F3118800BF07B05DF804FB4F
:103870000010014000ED00E008B5002002F050F813
:103880001F210E48FFF77EFF01210C48FFF749FF7B
:1038900008210A48FFF78EFF00210848FFF78AFF3A
:1038A00002210648FFF795FF0F211120FFF7F4FED4
:1038B0001120FFF7C3FE00BF08BD00BF001001408C
:1038C00000B589B00190019B344A934201D9334B32
:1038D000019372B63248FFF74DFF069001F09AF956
:1038E0000346002B55D0069A019B134423F07F43D7
:1038F000059301212A48FFF71EFF059A0021284859
:10390000FFF701FF4FF4A0712548FFF71EFF4FF4AA
:1039100080312348FFF705FFBFF34F8F019B0493CE
:10392000049B002B09D020BF1E4BD3F800211D4B58
:10393000D3F804311343002BF5D04FF480311848ED
:10394000FFF7F9FE4FF4A0711548FFF7FEFE4FF4A4
:1039500080711348FFF7F9FE01211148FFF7E1FEDE
:103960000F48FFF707FF0390039A069BD31A23F033
:103970007F4307931120FFF777FE079A019B9A4236
:1039800001D9019B0793079B002B02D0079800F0F9
:10399000D5FE62B600BF09B05DF804FBFDFFFF0075
:1039A0000010014000E100E084B0EFF311830193C7
:1039B000019B039340230293029B83F31188039B93
:1039C000184604B07047000000B585B00190009122
:1039D000019B0393039B002B03D12B49FC20FEF793
:1039E000F7F8FFF79BFD039B1A68039BDB6B0399BA
:1039F000096C01FB03F31A44039B5A60039B0022EA
:103A00009A63039B1A68039B9A60039B1A68039B43
:103A1000DB6B013B0399096C01FB03F31A44039B25
:103A2000DA60039BFF2283F84420039BFF2283F884
:103A30004520009B002B15D1039B1B69002B1BD03D
:103A4000039B1033184600F0D7FF0346002B13D01A
:103A50000E4B4FF080525A6040BFBFF34F8FBFF301
:103A60006F8F09E0039B10331846FFF77BFB039B26
:103A700024331846FFF776FBFFF776FD012318463F
:103A800005B05DF804FB00BF987E000000ED00E08B
:103A900000B58BB00590049113468DF80F30059B4F
:103AA000002B04D1154940F26D10FEF791F8049BEC
:103AB000002B02D10023099304E0059B049A02FB2A
:103AC00003F30993099B48331846FFF7F7FA089068
:103AD000089B002B0CD0089B483307939DF80F20C0
:103AE000089B00931346079A0499059800F008F87C
:103AF000089B18460BB05DF804FB00BF987E0000E1
:103B000000B585B00390029101928DF80330029BBD
:103B1000002B03D1069B069A1A6002E0069B019ACD
:103B20001A60069B039ADA63069B029A1A640121C3
:103B30000698FFF749FF00BF05B05DF804FB0000E1
:103B400000B58BB00390029101920093002309937A
:103B5000039B0893089B002B04D164494FF43770F2
:103B6000FEF736F8029B002B08D1089B1B6C002B3C
:103B700004D05E4940F2DD20FEF72AF8009B022BBC
:103B800008D1089BDB6B012B04D0584940F2DE20A2
:103B9000FEF71EF801F006F90346002B07D1019B42
:103BA000002B04D0514940F2E120FEF711F8FFF755
:103BB000B5FC089B9A6B089BDB6B9A4202D3009B77
:103BC000022B2BD1009A0299089800F0C9F90790AE
:103BD000089B5B6A002B11D0089B2433184600F029
:103BE0000BFF0346002B15D0414B4FF080525A601B
:103BF00040BFBFF34F8FBFF36F8F0BE0079B002BCE
:103C000008D03B4B4FF080525A6040BFBFF34F8FFC
:103C1000BFF36F8FFFF7A8FC012362E0019B002B2D
:103C200003D1FFF7A1FC00235BE0099B002B05D12A
:103C300005AB184600F040FF01230993FFF794FC01
:103C400000F09AFCFFF76AFC089B93F844305BB2E3
:103C5000B3F1FF3F03D1089B002283F84420089B67
:103C600093F845305BB2B3F1FF3F03D1089B0022CC
:103C700083F84520FFF778FC01AA05AB11461846EA
:103C800000F02CFF0346002B25D1089800F062FAC3
:103C90000346002B19D0089B1033019A1146184691
:103CA00000F064FE089800F0E9F900F0A5FC034676
:103CB000002B7FF47CAF0E4B4FF080525A6040BF18
:103CC000BFF34F8FBFF36F8F71E7089800F0D6F9FD
:103CD00000F092FC6BE7089800F0D0F900F08CFC43
:103CE000002318460BB05DF804FB00BF987E00006F
:103CF00000ED00E000B58BB00390029101920093BB
:103D0000039B0893089B002B04D1324940F2A23058
:103D1000FDF75EFF029B002B08D1089B1B6C002B5C
:103D200004D02C4940F2A330FDF752FF009B022B38
:103D300008D1089BDB6B012B04D026494FF4697036
:103D4000FDF746FFFFF73EFCFFF72EFE0790089BAE
:103D50009A6B089BDB6B9A4202D3009B022B2CD1FF
:103D6000089B93F845308DF81B30009A029908980B
:103D700000F0F6F89DF91B30B3F1FF3F12D1089B1C
:103D80005B6A002B16D0089B2433184600F034FEE3
:103D90000346002B0ED0019B002B0BD0019B012270
:103DA0001A6007E09DF81B300133DBB25AB2089B62
:103DB00083F845200123099301E000230993079B21
:103DC0000593059B83F31188099B18460BB05DF89A
:103DD00004FB00BF987E000000B58BB003900291F9
:103DE000019200230993039B0893089B002B04D1A5
:103DF000594940F2DF40FDF7EBFE029B002B08D152
:103E0000089B1B6C002B04D0534940F2E340FDF7A4
:103E1000DFFE00F0C7FF0346002B07D1019B002BFC
:103E200004D04D494FF49D60FDF7D2FEFFF776FBBD
:103E3000089B9B6B0793079B002B20D00299089847
:103E400000F0F7F8079B5A1E089B9A63089B1B69B2
:103E5000002B10D0089B1033184600F0CDFD034610
:103E6000002B08D03D4B4FF080525A6040BFBFF34B
:103E70004F8FBFF36F8FFFF777FB012368E0019B44
:103E8000002B03D1FFF770FB002361E0099B002B9F
:103E900005D105AB184600F00FFE01230993FFF78B
:103EA00063FB00F069FBFFF739FB089B93F8443094
:103EB0005BB2B3F1FF3F03D1089B002283F844209B
:103EC000089B93F845305BB2B3F1FF3F03D1089BE9
:103ED000002283F84520FFF747FB01AA05AB1146F6
:103EE000184600F0FBFD0346002B24D1089800F093
:103EF0001CF90346002B18D0089B2433019A114665
:103F0000184600F033FD089800F0B8F800F074FB94
:103F10000346002B8AD1114B4FF080525A6040BFAC
:103F2000BFF34F8FBFF36F8F80E7089800F0A6F8BC
:103F300000F062FB7AE7089800F0A0F800F05CFB64
:103F4000089800F0F2F80346002B3FF46FAF00230F
:103F500018460BB05DF804FB987E000000ED00E011
:103F600000B587B003900291019200230593039B53
:103F70009B6B0493039B1B6C002B0DD1039B1B6855
:103F8000002B4DD1039B5B68184600F025FF059080
:103F9000039B00225A6043E0019B002B19D1039B35
:103FA0009868039B1B6C1A46029902F07AFC039BEB
:103FB0009A68039B1B6C1A44039B9A60039B9A6844
:103FC000039B5B689A422BD3039B1A68039B9A60FE
:103FD00026E0039BD868039B1B6C1A46029902F0EB
:103FE00060FC039BDA68039B1B6C5B421A44039BD7
:103FF000DA60039BDA68039B1B689A4207D2039B33
:104000005A68039B1B6C5B421A44039BDA60019B5A
:10401000022B05D1049B002B02D0049B013B04938F
:10402000049B5A1C039B9A63059B184607B05DF8D6
:1040300004FB00B583B001900091019B1B6C002B29
:1040400018D0019BDA68019B1B6C1A44019BDA6053
:10405000019BDA68019B5B689A4203D3019B1A6853
:10406000019BDA60019BD968019B1B6C1A46009882
:1040700002F017FC00BF03B05DF804FB00B585B08B
:104080000190FFF74BFA019B93F845308DF80F3004
:1040900013E0019B5B6A002B14D0019B243318466C
:1040A00000F0AAFC0346002B01D000F06FFD9DF844
:1040B0000F30013BDBB28DF80F309DF90F30002B34
:1040C000E7DC00E000BF019BFF2283F84520FFF7FB
:1040D0004BFAFFF723FA019B93F844308DF80E302A
:1040E00013E0019B1B69002B14D0019B1033184671
:1040F00000F082FC0346002B01D000F047FD9DF844
:104100000E30013BDBB28DF80E309DF90E30002BE6
:10411000E7DC00E000BF019BFF2283F84420FFF7AB
:1041200023FA00BF05B05DF804FB00B585B001902F
:10413000FFF7F4F9019B9B6B002B02D10123039342
:1041400001E000230393FFF70FFA039B184605B025
:104150005DF804FB00B585B00190FFF7DFF9019B26
:104160009A6B019BDB6B9A4202D10123039301E01E
:1041700000230393FFF7F8F9039B184605B05DF899
:1041800004FB000084B0019000910023039314E02D
:104190000D4A039B52F83330002B0BD10A49039B85
:1041A000009A41F83320084A039BDB001344019A2C
:1041B0005A6005E0039B01330393039B012BE7D96E
:1041C00000BF04B0704700BF0C17002000B587B0D7
:1041D000039002910192039B0593FFF79FF9059BC2
:1041E00093F844305BB2B3F1FF3F03D1059B00224B
:1041F00083F84420059B93F845305BB2B3F1FF3F51
:1042000003D1059B002283F84520FFF7ADF9059BFC
:104210009B6B002B06D1059B2433019A029918460B
:1042200000F0C4FB0598FFF729FF00BF07B05DF859
:1042300004FB00B58DB00790069104931346ADF8CA
:104240001630BDF816309B001846FEF737FF099070
:10425000099B002B0ED04820FEF730FF0B900B9BE4
:10426000002B03D00B9B099A1A6305E00998FEF70F
:1042700069FF01E000230B930B9B002B14D0BDF8CA
:104280001620002303930B9B02930F9B01930E9B1D
:104290000093049B0699079800F00EF80B9800F025
:1042A0008DF801230A9302E04FF0FF330A930A9B33
:1042B00018460DB05DF804FB00B587B0039002917D
:1042C000019200930A9B186B019B9B001A46A52143
:1042D00002F010FB0A9B1A6B019B03F18043013B28
:1042E0009B0013440493049B23F007030493049B53
:1042F00003F00703002B04D02F4940F26330FDF791
:1043000067FC0023059312E0029A059B1344197879
:104310000A9A059B134434330A461A70029A059B85
:1043200013441B78002B06D0059B01330593059B96
:10433000032BE9D900E000BF0A9B002283F8372055
:10434000089B022B01D9022308930A9B089ADA6280
:104350000A9B089A9A630A9B0022DA630A9B043339
:104360001846FEF71AFF0A9B18331846FEF715FF8A
:104370000A9B0A9A1A61089BC3F103020A9B9A617D
:104380000A9B0A9A5A620A9B00221A640A9B00221C
:1043900083F84420009A03990498FFF705F8024631
:1043A0000A9B1A60099B002B02D0099B0A9A1A608B
:1043B00000BF07B05DF804FB007F000000B583B0CC
:1043C0000190FFF7ABF82B4B1B680133294A1360B0
:1043D000294B1B68002B09D1274A019B1360254BF1
:1043E0001B68012B10D100F043FC0DE0234B1B6830
:1043F000002B09D1204B1B68DA6A019BDB6A9A42C9
:1044000002D81D4A019B13601D4B1B6801331C4AD7
:104410001360019BDB6A01229A401A4B1B6813430D
:10442000184A1360019BDA6A13469B0013449B00F1
:10443000154A1A44019B043319461046FEF7B5FE8F
:10444000FFF792F80D4B1B68002B0FD00A4B1B682F
:10445000DA6A019BDB6A9A4208D20C4B4FF0805219
:104460005A6040BFBFF34F8FBFF36F8F00BF03B0E1
:104470005DF804FBCC1700201C170020D817002083
:10448000E8170020D41700202017002000ED00E0DE
:1044900000B585B0019000230393019B002B11D040
:1044A000104B1B68002B04D00F4940F20F50FDF752
:1044B0008FFB00F061F80021019800F007FD00F08B
:1044C0009BF80390039B002B08D1084B4FF08052C0
:1044D0005A6040BFBFF34F8FBFF36F8F00BF05B06F
:1044E0005DF804FBF4170020007F000000ED00E001
:1044F00000B585B0194B01930023009300233C22A3
:1045000017491848FFF795FE0390039B012B02D132
:1045100000F040FD0390039B012B11D14023029337
:10452000029B83F31188104B4FF0FF321A600F4B40
:1045300001221A600E4B00221A60FEF77BFF08E092
:10454000039BB3F1FF3F04D10A4940F2DC70FDF751
:104550003FFB00BF05B05DF804FB00BFF017002073
:10456000687F00009D4B0000EC170020D81700204A
:10457000D0170020007F0000034B1B680133024A64
:10458000136000BF704700BFF417002084B0002301
:10459000029301230193134B1B68019A9A4201D2A3
:1045A00001230293104B1B68DB6A002B02D000230F
:1045B000039312E00D4B1B68012B02D900230393D8
:1045C0000BE0029B002B02D00023039305E0084B75
:1045D0001A68084B1B68D31A0393039B184604B050
:1045E000704700BFD41700201C17002020170020A0
:1045F000EC170020D017002000B585B000230393EE
:10460000002302933E4B1B68002B04D13D494FF41D
:104610000460FDF7DDFAFEF781FF394B1B68013BB3
:10462000374A1360364B1B68002B62D1364B1B6830
:10463000002B5ED02EE0354BDB68DB680393039BD9
:1046400018331846FEF704FE039B04331846FEF7A2
:10465000FFFD039BDB6A01229A402D4B1B6813432D
:104660002B4A1360039BDA6A13469B0013449B009A
:10467000284A1A44039B043319461046FEF795FD59
:10468000039BDA6A244B1B68DB6A9A4202D3234BF2
:1046900001221A601D4B1B68002BCCD1039B002B01
:1046A00001D000F05FFB1E4B1B680193019B002BA8
:1046B00010D000F063F80346002B02D0174B012204
:1046C0001A60019B013B0193019B002BF1D1144B1C
:1046D00000221A60114B1B68002B0AD001230293A1
:1046E000104B4FF080525A6040BFBFF34F8FBFF363
:1046F0006F8FFEF739FF029B184605B05DF804FB8B
:10470000F4170020007F0000CC1700208C17002039
:10471000D4170020201700201C170020E0170020CD
:10472000DC17002000ED00E082B0034B1B68019312
:10473000019B184602B07047D017002000B583B027
:1047400001900B4B1A68019B1A440A4B1B689A4252
:1047500004D9094940F6C910FDF73AFA044B1A6822
:10476000019B1344024A136000BF03B05DF804FBD1
:10477000D0170020EC170020007F000000B587B0A4
:1047800000230593454B1B68002B77D1444B1B68D6
:1047900001330493424A049B1360049B002B1AD1FB
:1047A000404B1B681B68002B04D03F4940F6332068
:1047B000FDF70EFA3B4B1B6803933C4B1B68394AD1
:1047C00013603A4A039B1360394B1B680133384A24
:1047D000136000F0C7FA374B1B68049A9A4252D311
:1047E000304B1B681B68002B01D1012300E0002324
:1047F000002B04D02F4B4FF0FF321A6043E0294BBF
:104800001B68DB68DB680293029B5B680193049A78
:10481000019B9A4203D2274A019B136033E0029B1B
:1048200004331846FEF714FD029B9B6A002B04D04C
:10483000029B18331846FEF70BFD029BDB6A012230
:104840009A401D4B1B6813431B4A1360029BDA6A94
:1048500013469B0013449B00184A1A44029B0433DE
:1048600019461046FEF7A1FC029BDA6A144B1B683E
:10487000DB6A9A42B4D301230593B1E7114B1B685D
:104880000133104A1360104B1B68002B01D0012329
:104890000593059B184607B05DF804FBF41700204C
:1048A000D017002084170020007F00008817002008
:1048B000E4170020EC170020D41700202017002058
:1048C0001C170020DC170020E017002000B583B083
:1048D000204B1B68002B03D01F4B01221A6035E0D0
:1048E0001D4B00221A601D4B1B68B3FA83F3C3F102
:1048F0001F0301931A49019A13469B0013449B001E
:104900000B441B68002B04D116494FF43560FDF7AA
:104910005FF9019A13469B0013449B00104A13440D
:104920000093009B5B685A68009B5A60009B5A6822
:10493000009B08339A4204D1009B5B685A68009B35
:104940005A60009B5B68DB68074A136000BF03B0D6
:104950005DF804FBF4170020E0170020D4170020B6
:1049600020170020007F00001C17002000B583B036
:1049700001900091019B002B04D10A494FF436604D
:10498000FDF726F9084B1B68183319460198FEF706
:104990002BFC0121009800F099FA00BF03B05DF8EC
:1049A00004FB00BF007F00001C17002000B585B08D
:1049B000039002910192039B002B04D10C4940F615
:1049C0008B30FDF705F90B4B1B681833194603981C
:1049D000FEF7EBFB019B002B02D04FF0FF3302935D
:1049E0000199029800F072FA00BF05B05DF804FB6F
:1049F000007F00001C17002000B585B00190019BCE
:104A0000DB68DB680293029B002B04D1234940F64C
:104A1000BB30FDF7DDF8029B18331846FEF718FC93
:104A20001F4B1B68002B1CD1029B04331846FEF75A
:104A30000FFC029BDB6A01229A401A4B1B6813434E
:104A4000184A1360029BDA6A13469B0013449B00CA
:104A5000154A1A44029B043319461046FEF7A5FB7B
:104A600005E0029B183319461048FEF79EFB029B97
:104A7000DA6A0F4B1B68DB6A9A4205D9012303935C
:104A80000C4B01221A6001E00023039300F06AF945
:104A9000039B184605B05DF804FB00BF007F0000D3
:104AA000F4170020D4170020201700208C170020B6
:104AB0001C170020E017002082B00190054B1A68F7
:104AC000019B1A60044B1A68019B5A6000BF02B038
:104AD000704700BFE4170020D017002000B587B052
:104AE00001900091019B002B04D1254940F62640FE
:104AF000FDF76EF8009B002B04D1214940F62740BA
:104B0000FDF766F8FEF70AFD1E4B1B680493019B38
:104B10005B68049AD31A0393009B1B68B3F1FF3FB1
:104B200002D10023059323E0019B1A68164B1B68F2
:104B30009A4207D0019B5B68049A9A4202D30123F0
:104B4000059315E0009B1B68039A9A420BD2009BC9
:104B50001A68039BD21A009B1A600198FFF7ACFFFA
:104B60000023059304E0009B00221A6001230593B3
:104B7000FEF7FAFC059B184607B05DF804FB00BF82
:104B8000007F0000D0170020E4170020024B012214
:104B90001A6000BF704700BFE017002000B585B065
:104BA000019000F0A3F8164B1B68012B08D9154B98
:104BB0004FF080525A6040BFBFF34F8FBFF36F8FEB
:104BC000FFF7E4FC0390039B012BEAD9FFF7D4FC29
:104BD0000D4B1A680D4B1B689A4204D20C4940F6E3
:104BE000EE40FCF7F5FFFFF7D1FC0390039B012B90
:104BF00002D90398FEF764FEFFF7FEFCD1E700BF81
:104C00002017002000ED00E0EC170020D017002056
:104C1000007F000082B00123009301238DF807304C
:104C20000F4B1B68002B03D000238DF8073012E0D8
:104C30000C4B1B68002B03D000238DF807300AE0D3
:104C4000094B1A68094B1968009BCB1A9A4202D18A
:104C500002238DF807309DF80730184602B07047E0
:104C60008C170020E0170020B8170020CC17002078
:104C700000B583B0002301930CE0019A13469B001A
:104C800013449B00114A13441846FEF76BFA019B2C
:104C900001330193019B022BEFD90D48FEF762FA15
:104CA0000C48FEF75FFA0C48FEF75CFA0B48FEF77B
:104CB00059FA0B48FEF756FA0A4B054A1A600A4B96
:104CC000044A1A6000BF03B05DF804FB20170020FF
:104CD0005C170020701700208C170020A017002000
:104CE000B8170020841700208817002000B583B073
:104CF00019E0FEF713FC104BDB68DB680193019BA6
:104D000004331846FEF7A4FA0C4B1B68013B0B4A10
:104D100013600B4B1B68013B094A1360FEF724FC30
:104D2000019800F00FF8064B1B68002BE1D100BF83
:104D300003B05DF804FB00BFA0170020CC170020D3
:104D4000B417002000B583B00190019B1B6B18467F
:104D5000FEF7F8F90198FEF7F5F900BF03B05DF82A
:104D600004FB000082B00D4B1B681B68002B01D1B7
:104D7000012300E00023002B04D0094B4FF0FF3249
:104D80001A6008E0054B1B68DB68DB680193019B38
:104D90005B68034A136000BF02B0704784170020AD
:104DA000EC17002082B00A4B1B68002B02D10123B4
:104DB000019308E0074B1B68002B02D102230193EB
:104DC00001E000230193019B184602B0704700BF29
:104DD000D8170020F417002000B585B00190019B82
:104DE000029300230393019B002B62D0334B1B687B
:104DF000029A9A4204D0324940F63B70FCF7E8FE32
:104E0000029BDB6B002B04D12D4940F63C70FCF774
:104E1000DFFE029BDB6B5A1E029BDA63029BDA6A9F
:104E2000029B9B6B9A4244D0029BDB6B002B40D1D0
:104E3000029B04331846FEF70BFA0346002B15D1EC
:104E4000029BDA6A1F4913469B0013449B000B44E4
:104E50001B68002B0AD1029BDB6A012202FA03F3D2
:104E6000DA43194B1B681340174A1360029B9A6B75
:104E7000029BDA62029BDB6AC3F10302029B9A6126
:104E8000029BDB6A01229A400F4B1B6813430E4AB8
:104E90001360029BDA6A13469B0013449B00094A85
:104EA0001A44029B043319461046FEF77EF901238B
:104EB0000393039B184605B05DF804FB1C17002004
:104EC000007F000020170020D417002000B585B017
:104ED00001900091284B1B680393284B1B680433F7
:104EE0001846FEF7B5F90346002B0BD1234B1B6880
:104EF000DB6A012202FA03F3DA43214B1B681340F9
:104F00001F4A1360019BB3F1FF3F0AD1009B002BA6
:104F100007D01A4B1B68043319461A48FEF745F9A7
:104F200026E0039A019B13440293144B1B68029AD8
:104F30005A60029A039B9A4209D2134B1A680F4B8C
:104F40001B68043319461046FEF74EF910E00F4B6C
:104F50001A680A4B1B68043319461046FEF744F9D9
:104F60000B4B1B68029A9A4202D2094A029B1360B9
:104F700000BF05B05DF804FBD01700201C1700200F
:104F8000D4170020B81700208817002084170020AD
:104F9000EC17002000B585B00023039300F0C8FA99
:104FA0000D4B1B68002B0AD00C4B0193022300937E
:104FB000002350220A490B48FFF73BF90390039B5B
:104FC000002B04D108494FF48870FCF701FE039BC5
:104FD000184605B05DF804FB281800202C180020A6
:104FE000707F000085510000787F000000B589B017
:104FF00005900491039202932820FEF75FF8079032
:10500000079B002B09D0079B01930A9B0093029BEF
:10501000039A0499059800F005F8079B184609B013
:105020005DF804FB00B585B00390029101920093F6
:10503000029B002B04D1114940F26910FCF7C8FD16
:10504000079B002B15D000F073FA079B039A1A6098
:10505000079B029A9A61079B019ADA61079B009A63
:105060001A62079B069A5A62079B04331846FEF79A
:1050700094F800BF05B05DF804FB00BF787F000026
:1050800000B58BB003900291019200930023099325
:10509000039B002B04D11B4940F28310FCF798FDC1
:1050A000194B1B68002B27D0029B0593019B06938D
:1050B000039B0793029B052B16DCFFF773FE034649
:1050C000022B08D1104B186805A900230C9AFEF793
:1050D00037FD099010E00C4B186805A90023002249
:1050E000FEF72EFD099007E0074B186805A900237D
:1050F000009AFEF7FFFD0990099B18460BB05DF87A
:1051000004FB00BF787F00002818002000B587B09E
:1051100003900291194B1B68DB68DB680593059BC4
:1051200004331846FEF794F8059BDB69012B1CD16C
:10513000059B9A69039BD118039B029A059800F07E
:10514000BBF80346002B10D0002300930023039AE2
:1051500000210598FFF794FF0490049B002B04D1D5
:10516000074940F2E510FCF733FD059B5B6A0598A3
:10517000984700BF07B05DF804FB00BF201800206F
:10518000787F000000B585B0019002AB184600F0B2
:1051900055F80390029B1946039800F003F800F0BD
:1051A000CDF8F2E700B585B001900091FFF7E4F982
:1051B00002AB184600F062F80390029B002B31D13D
:1051C000009B002B0AD1019A039B9A4206D8FFF755
:1051D00013FA03990198FFF799FF25E0009B002B34
:1051E00008D0134B1B681B68002B0CBF0123002346
:1051F000DBB200930F4B1868019A039BD31A009AF5
:105200001946FEF7E3FFFFF7F7F90346002B0BD132
:10521000094B4FF080525A6040BFBFF34F8FBFF32E
:105220006F8F01E0FFF7E8F900BF05B05DF804FB00
:10523000241800202818002000ED00E084B0019020
:105240000D4B1B681B68002B0CBF01230023DBB236
:105250001A46019B1A60019B1B68002B05D1064B67
:105260001B68DB681B68039301E000230393039B27
:10527000184604B0704700BF2018002000B585B064
:105280000190FFF751FA03900A4B1B68039A9A4268
:1052900005D200F0F1F8019B01221A6002E0019BA7
:1052A00000221A60034A039B1360039B184605B053
:1052B0005DF804FB3018002000B587B00390029120
:1052C0000192009300230593039B029A5A60039B6B
:1052D000039A1A61029A019B9A4212D8019A009B82
:1052E000D21A039B9B699A4202D3012305931BE0C8
:1052F000104B1A68039B043319461046FDF774FFE0
:1053000012E0019A009B9A4206D2029A009B9A42AE
:1053100002D30123059307E0074B1A68039B04336C
:1053200019461046FDF760FF059B184607B05DF86B
:1053300004FB00BF241800202018002000B58DB009
:1053400086E0049B002B12DA04AB04330B930B9B17
:10535000002B04D146494FF43170FCF739FC0B9B0C
:105360001B680B9A50680B9A926811469847049BE9
:10537000002B6CDB069B0A930A9B5B69002B04D015
:105380000A9B04331846FDF763FF03AB1846FFF78B
:1053900075FF0990049B092B5AD801A252F823F0FB
:1053A000C9530000C9530000C95300005154000004
:1053B0001B54000047540000C9530000C9530000AB
:1053C000515400001B540000059A0A9B9B69D11898
:1053D000059B099A0A98FFF76FFF0346002B37D009
:1053E0000A9B5B6A0A9898470A9BDB69012B2FD1BD
:1053F000059A0A9B9B691A4400230093002300210D
:105400000A98FFF73DFE0890089B002B20D1184911
:1054100040F2FE20FCF7DCFB1AE0059A0A9B9A6139
:105420000A9B9B69002B04D1114940F21530FCF70F
:10543000CFFB0A9B9A69099BD118099B099A0A9884
:10544000FFF73AFF04E00A98FDF77CFE00E000BF9A
:10545000084B1B6804A900221846FEF7BDFC034652
:10546000002B7FF46EAF00BF0DB05DF804FB00BFF2
:10547000787F00002818002000B589B03FE0294B54
:105480001B68DB681B680793264B1B68DB68DB68BF
:105490000693069B04331846FDF7DAFE069B5B6A0B
:1054A00006989847069BDB69012B28D1069B9B69D0
:1054B000079A13440593059A079B9A420ED9069BB7
:1054C000059A5A60069B069A1A61164B1A68069B43
:1054D000043319461046FDF787FE10E000230093C1
:1054E0000023079A00210698FFF7CAFD0490049B49
:1054F000002B04D10C4940F26F30FCF769FB094BDB
:105500001B681B68002BBAD1064B1B680393074B23
:105510001B68044A1360054A039B136000BF09B06F
:105520005DF804FB20180020787F0000241800207C
:1055300008B5FDF7F3FF134B1B68002B1DD1124874
:10554000FDF710FE1148FDF70DFE114B0E4A1A60D3
:10555000104B0E4A1A60002210212020FEF798FA04
:105560000246084B1A60074B1B68002B05D0054B01
:105570001B6809491846FEF705FEFDF7F5FF00BF59
:1055800008BD00BF28180020F81700200C180020C4
:105590002018002024180020E07F000000B583B010
:1055A0000190019B1B681F2B04D9054940F2C710CD
:1055B000FCF70EFB4FF0A043184603B05DF804FB68
:1055C000E87F000000B585B00190084611461A46F4
:1055D00003468DF803300B468DF8023013468DF8E4
:1055E000013001AB1846FFF7D9FF03909DF8032067
:1055F0009DF802305B001A439DF801309B001A436E
:105600009DF818301B0242EA03019DF81C301B0470
:10561000019A1943039B02F5E07243F8221000BF80
:1056200005B05DF804FB00B585B00390002301933D
:10563000002300930023012201210398FFF7C2FFFA
:1056400000BF05B05DF804FB00B585B003900B46C4
:105650008DF80B309DF80B2000230193002300935D
:105660001346002200210398FFF7ACFF00BF05B0EE
:105670005DF804FB00B585B0019001AB1846FFF75B
:105680008DFF0390019B012202FA03F31946039850
:1056900000F04CF800BF05B05DF804FB00B585B024
:1056A000019001AB1846FFF779FF0390019B01229F
:1056B00002FA03F31946039800F042F800BF05B060
:1056C0005DF804FB00B585B0019001AB1846FFF70B
:1056D00065FF0390039BD3F804350293029BDA43E2
:1056E000019B012101FA03F31A40039BC3F808252B
:1056F000019B01229A40029B1A40039BC3F80C2590
:1057000000BF05B05DF804FB00B583B001900091C7
:10571000009B002B03D10198FFF7C0FF02E0019826
:10572000FFF7A8FF00BF03B05DF804FB82B0019053
:105730000091019B009AC3F8082500BF02B0704792
:1057400082B001900091019B009AC3F80C2500BF24
:1057500002B0704700B583B00190019B032B03D9C1
:1057600007494720FCF734FA064A019B13441B788B
:1057700001211846FFF7C8FF00BF03B05DF804FB26
:10578000188000007880000000B583B000230193EA
:1057900005E00198FFF7DEFF019B01330193019BB8
:1057A000032BF6D900BF03B05DF804FB00B583B04E
:1057B0000190019B032B03D907495F20FCF708FAEE
:1057C000064A019B13441B781846FFF77BFF00BF76
:1057D00003B05DF804FB00BF188000007880000073
:1057E00000B583B00023019309E0094A019B1344EB
:1057F0001B781846FFF717FF019B01330193019BAC
:10580000032BF2D9FFF7C0FF00BF03B05DF804FB24
:105810007880000000B583B0002301930AE0094AB4
:10582000019B13441B7803211846FFF70DFF019BD2
:1058300001330193019B032BF1D900BF03B05DF845
:1058400004FB00BF7C80000000B583B00190019B89
:1058500003F00103002B01D0FFF7C2FF019B03F00F
:105860000203002B01D0FFF7D5FF00BF03B05DF8A6
:1058700004FB000000B583B000230193104B1B789C
:10588000002B02D08523019314E00D4B00229A6077
:105890000B4B00225A600A4B00221A61084B00226F
:1058A000DA60084800F01AFA019000F03DFA044B63
:1058B00001221A70019B184603B05DF804FB00BF7B
:1058C00034180020095A000084B001900091019B17
:1058D0001B68039306E0039A009B9A420DD0039B3A
:1058E0001B680393039B002BF5D1019B1A68009B57
:1058F0001A60019B009A1A6000E000BF04B0704774
:1059000084B00190019B1B680393039B002B03D081
:10591000039B1A68019B1A60039B184604B07047EA
:1059200000B583B00190224B1B78002B03D1214995
:10593000E720FCF74DF91E4B9B78DBB2002B12D011
:10594000019B002B03D0019B5B680120984700203E
:10595000FBF7DEFF164BDB680133154AD3600020EE
:10596000FBF7EAFF17E00020FBF7D2FF019B002BBB
:1059700003D001991048FFF7A7FF0D4BDB68002B00
:1059800001D100F0E5F90A4BDB680133084AD36026
:105990000020FBF7D1FF064BDB68002B04D1054943
:1059A00040F20310FCF714F900BF03B05DF804FBEC
:1059B00034180020888000004418002000B585B00D
:1059C00003468DF807309DF80730002B02D10C4BB1
:1059D000039301E00B4B03930398FFF791FF0290B1
:1059E000029B002B06D0029B5B689DF807201046A7
:1059F0009847F1E700BF00BF05B05DF804FB00BFAA
:105A00003C1800204418002000B583B003468DF8F0
:105A100007309DF80730002B05D10A4B01225A7040
:105A20000020FFF7CBFF9DF80730012B05D1054B78
:105A300001229A700120FFF7C1FF00BF03B05DF89B
:105A400004FB00BF3418002082B003468DF80730F5
:105A50009DF8073003F01F0205499DF907305B09E7
:105A6000012000FA02F241F8232000BF02B0704783
:105A700000E100E082B003468DF807309DF8073062
:105A800003F01F0206499DF907305B09012000FA67
:105A900002F2603341F8232000BF02B0704700BF1C
:105AA00000E100E082B0034600918DF807309DF9D7
:105AB0000730002B0CDA009BDAB20C499DF8073056
:105AC00003F00F03043B5201D2B20B441A7609E0F3
:105AD000009BDAB206499DF907305201D2B20B445D
