:020000022000DC
:1060000000000120E162020009630200358A0200FB
:106010000D6302000F630200116302000000000024
:10602000000000000000000000000000E1A40200E9
:10603000156302000000000001A5020019630200C0
:106040001DC702001B630200D1CF02001B630200C8
:106050001B6302001B630200A9CA02001B6302004B
:106060001B6302001B6302001B6302001B63020030
:106070001B6302001B6302001B6302001B63020020
:106080001B63020009A602001B6302001B630200DF
:106090001B6302001B630200DD4103001B6302005F
:1060A0001B6302001B6302001B6302001B630200F0
:1060B0001B6302001B6302000000000000000000E0
:1060C0001B6302001B6302001B6302001B630200D0
:1060D0001B6302001B6302001B6302000000000040
:1060E00000000000000000000000000000000000B0
:1060F00000000000000000000000000000000000A0
:10610000000000000000000000000000000000008F
:10611000000000000000000000000000000000007F
:10612000000000000000000000000000000000006F
:10613000000000000000000000000000000000005F
:10614000000000000000000000000000000000004F
:10615000000000000000000000000000000000003F
:10616000000000000000000000000000000000002F
:10617000000000000000000000000000000000001F
:10618000000000000000000000000000000000000F
:1061900000000000000000000000000000000000FF
:1061A00000000000000000000000000000000000EF
:1061B00000000000000000000000000000000000DF
:1061C00000000000000000000000000000000000CF
:1061D00000000000000000000000000000000000BF
:1061E00000000000000000000000000000000000AF
:1061F000000000000000000000000000000000009F
:1062000010B5054C237833B9044B13B10448AFF3F0
:1062100000800123237010BD585A002000000000A8
:10622000B85103000C4B43B10C480D4910B5AFF306
:1062300000800C48036823B910BD0A48036833B9CD
:106240007047094B002BF7D0BDE810401847064BAC
:10625000002BF5D0184700BF00000000B851030024
:106260005C5A0020F859002000000000154B002B5C
:1062700008BF134B9D46A3F5803A00218B460F467D
:106280001348144A121A0EF0A1F80F4B002B00D03D
:1062900098470E4B002B00D09847002000210400A7
:1062A0000D000D48002802D00C48AFF300800EF01E
:1062B00015F82000290008F0EBF90DF0FBFF00BFF6
:1062C00000000800000001200000000000000000A5
:1062D000585A0020A47900200000000000000000AF
:1062E0000649074A074B9B1A03DD043BC858D050A8
:1062F000FBDC03F085FEFFF7B9FF0000FC52030052
:10630000B8570020585A0020FEE7FEE7FEE7FEE7F8
:10631000FEE7FEE7FEE7FEE7FEE7FEE7F0B595B035
:10632000002415460F4608461E4603F067FD384612
:1063300023460822089505A91A9D09960D950A94E9
:106340008DF82C400C9403F0ADFD9DF814300798A7
:1063500006998DF8114003F00302012A029003917F
:1063600028D0022A04D0384603F04CFD15B0F0BD09
:10637000BDF81650C3F3C2038DF81030C5F389156C
:106380000826082D2C4628BF0824334622460EA98D
:10639000384603F087FD2D1B214608AB02AA0EA844
:1063A000264400F0AFFD002DEBD1384603F02AFD66
:1063B00015B0F0BDBDF81460059DC6F38316C3F398
:1063C000C204B2000EA9384608238DF81040C5F368
:1063D000952503F067FD08AB0093324628460EA9C9
:1063E00002AB00F0E9FCBEE7014B01221A707047D6
:1063F000B85A0020704700BF00B583B0044B00932B
:10640000044A4023FFF78AFF03B05DF804FB00BF96
:1064100019640200785A002038B50E480E4D0378F2
:106420000E4CEB5C00252570D2B253B90C3007F04E
:106430001BF858B90A4B1B7813B12378002BFCD0FA
:1064400038BD043007F062FA0028F3D000F052FFA4
:10645000F0E700BFB8570020A0790020B85A00200C
:10646000745A002070B51348134A0378D35C88B07F
:10647000DBB90C3006F092FF104D0FCD6C460FC407
:1064800095E80F0008AD062645F8206D84E80F005A
:1064900029460022074806F0A3F808B100F02AFFB9
:1064A000074B00221A7008B070BD043007F0C6F91F
:1064B000E2E700BFB8570020A07900202444030081
:1064C000745A002070B50D4D0FCD88B06C460FC4C6
:1064D00095E80F0008AD062645F8206D84E80F000A
:1064E0002946074A074806F07BF808B100F002FF8A
:1064F000054B01221A7008B070BD00BF2444030090
:10650000E9630200B8570020745A002010B5054C0A
:10651000FFF7D8FF2046042100F00EFC0123637230
:1065200010BD00BFCC570020F0B5334D85B005F548
:10653000836002F043FC05F2144002F03FFC6A68FD
:10654000AF6802EA0701CB1C05EB8303541C1878E3
:1065500010F0030F00F003060ED010F0040016D068
:10656000012E37D0022E02F10200ECD15A8800EB46
:10657000921202EA0701E6E74007F1D459881A8827
:1065800004EB911404EB921202EA0701DBE705EB3E
:106590008101531CC96801913B4005EB830301F065
:1065A0000301DB680293012902F102041CD00229D5
:1065B00018D1BDF80630BDF80A60C3F38913033360
:1065C00004EB93040D4802F007FC00B16C60304608
:1065D00005B0F0BD1B880232C3F383131A4402EAEC
:1065E0000701B0E70646EDE7BDF80430BDF80A60E4
:1065F000C3F383131C44E5E78C5B0020A05F0020FD
:1066000008B50E4B0E480022FF21C3F818249960EC
:106610001A605A60C3F8142483F8202403F0A4FB02
:1066200058B9084A084BD21AD20806D0074903467F
:1066300021F8233001339A42FAD108BD8C5B002047
:10664000B4520300B452030024520300FC5900204A
:1066500021B9124A02EBC0000068704730B41049FB
:106660000E4D491BC9080ED00E4B5A88824218BFE6
:10667000002205D10FE0DC88844203F1040305D039
:1066800001329142F7D1002030BC704705EBC200C7
:10669000006830BC70472846FAE700BF2452030068
:1066A000B4520300FC590020094B013903EBC00030
:1066B00003290BD8DFE801F0020806040220704726
:1066C0004079704700797047042070470020704778
:1066D000245203002DE9F047904C94E80C009A42B4
:1066E00084B061D00023C4F81834BFF34F8F6368BF
:1066F000A56827680EE011F0040623D001F003011D
:1067000001294BD0022903D15288023303EB9213A3
:106710009F4212D903EA0500C21C04EB82021178E1
:106720008E07E8D14807E9D451881288013303EB7A
:10673000911303EB92139F42ECD80020676004B0E2
:10674000BDE8F08704EB80005A1CC16801912A4023
:1067500004EB820201F00301D2680292022903F1E4
:10676000020825D0012977D0D4F8105435B12B6810
:1067700028469B6898476D68002DF8D1684B694999
:106780001888000440F0020000F0D2F86068236826
:10679000C01A18BF012004B0BDE8F0871288023388
:1067A000C2F383121344B3E7002004B0BDE8F087BE
:1067B000BDF806305C48C3F38919B9F1500FCA46D9
:1067C000A8BF4FF0500A6AF38F130AF10801ADF821
:1067D000063003F0CBFA07460028C5D003F00EFBC5
:1067E000334625EA08060136082201A93846B600D4
:1067F00003F02AFBB24540F28480002E6CD1524651
:1068000008234A49384603F01FFB09F1030608EB49
:106810009606D4F81834002B5AD1D4F810544DB140
:106820006B7A3946284613B12B681B6898476D6808
:10683000002DF5D1384603F0E5FA04A8002300F84E
:106840000D3D00F06FFED4F8183403B966609DF872
:10685000030000F08DFE99E7BDF804303248C3F321
:106860008312062A28BF0622911C62F3891389002D
:10687000ADF8043003F07AFA074600283FF474AF0D
:1068800003F0BCFA3346082201A9384603F0DCFACB
:10689000BDF8043013F4707F3ED0B2464FF00809C3
:1068A00005EA080103314B4604EB81010422384616
:1068B00003F0CAFABDF804300AF1010AC3F38313E6
:1068C00008F10106534509F10409B046E8D8A0E7EC
:1068D000384603F097FA59E705EA08010331AAEBB5
:1068E000060504EB810132463846EDB2082303F079
:1068F000ABFA2A4606F108030C49384603F0A4FA1D
:1069000083E705EA0801033104EB810152460823BD
:10691000384603F099FA78E746467AE78C5B002020
:10692000105A002050440300B4520300985B00202A
:106930002DE9F04383B002AB002203F8012DDFF80C
:10694000E090074618468846D9F8085000F0EAFD5E
:10695000D9F80820D9F80430D9F80060134401337D
:106960009B1B012B57D809F21C440121204602F041
:10697000FBF9FFF7D9FD0146204602F0F5F999E849
:106980000A00D9F80820134401335B1A012BECD913
:1069900001240A40033244F004036FF389130231E7
:1069A0009DF8070049F82230C9F8001000F0E0FD1A
:1069B00000211A4802F094F980F3100033192B409B
:1069C00009EB830300043540033540EA1740D860E3
:1069D00019F8253067F3C50309F8253039F8253053
:1069E0006FF3891329F8253059F8252068F39F2281
:1069F000134664F301036FF3820349F8252009F875
:106A0000253099F820341BB1FFF764FE0028FBD134
:106A100003B0BDE8F0833146BAE700BFA85F0020AD
:106A20008C5B00202DE9F04782B002AB002403F814
:106A3000014D374C8046184692468946A56800F0BD
:106A400071FDA2686368276813440133DB1B022BC6
:106A50005BD804F21C460121304602F085F9FFF7AD
:106A600063FD0146304602F07FF994E80A00A2680F
:106A7000134401335B1A022BEDD901260A4003327D
:106A800046F0040366F3891344F8223003319DF87D
:106A90000700216000F06CFDBB1C2B4004EB83035E
:106AA00000211C48C3F80CA002F01AF980F3100072
:106AB000BB192B4004EB830300043D40033540EA3F
:106AC0001840D86014F8253068F3C50304F8253061
:106AD00034F8253066F3891324F8253054F825203E
:106AE00069F39F22134666F301036FF3820344F8B0
:106AF000252004F8253094F820341BB1FFF7EAFD77
:106B00000028FBD102B0BDE8F0873946B5E700BFE9
:106B10008C5B0020A85F00202DE9F04F85B004AD0C
:106B2000002405F8014D3C4C0193804628469346CD
:106B30008946A66800F0F6FCA268636827681344DB
:106B40000133DB1B032B65D804F21C4501212846C9
:106B500002F00AF9FFF7E8FC0146284602F004F9C2
:106B600094E80A00A268134401335B1A032BEDD9A1
:106B700001250A4003324FF0020A45F004036AF38C
:106B8000891344F8223004319DF80F00216000F091
:106B9000EFFC07EB0A0EFA1C0EEA060E324004EB7D
:106BA000820204EB8E0E019B1C48CEF80CB0002133
:106BB000D36002F095F880F310007A19324004EBAC
:106BC000820200043E40033640EA1840D06014F8C8
:106BD000262068F3C50204F8262034F826206AF33C
:106BE000891224F8262054F8262069F39F221346A0
:106BF00065F301036FF3820344F8262004F826307E
:106C000094F820341BB1FFF765FD0028FBD105B0D7
:106C1000BDE8F08F3946ABE78C5B0020A85F002011
:106C20002DE9F04F85B004AD002405F8014D404C2E
:106C30000193804628468946A668934600F072FC78
:106C4000A168636827680B440133DB1B042B6CD8F5
:106C500004F21C450121284602F086F8FFF764FC87
:106C60000146284602F080F894E80C00A1680B4425
:106C700001339B1A042BEDD9012511404FF0030A73
:106C8000033145F004036AF3891344F821300532D7
:106C90009DF80F00226000F06BFCB81C07EB0A0E99
:106CA00030400EEA060E3A1D324004EB800004EB41
:106CB0008E0E04EB8202019BC0F80CB00021CEF8CE
:106CC0000C301C480E9BD36002F00AF880F31000D1
:106CD0007A19324004EB820200043E40564440EAF6
:106CE0001840D06014F8262068F3C50204F8262066
:106CF00034F826206AF3891224F8262054F8262036
:106D000069F39F22134665F301036FF3820344F88E
:106D1000262004F8263094F820341BB1FFF7DAFC63
:106D20000028FBD105B0BDE8F08F3A46A4E700BFCC
:106D30008C5B0020A85F002030B4144DD5F81044BF
:106D4000002154B1237A8B4213D0234602E01A7AF1
:106D50008A420ED05B68002BF9D10172D5F810344D
:106D60007BB15B684360D5F810345860084630BC8E
:106D7000704701310A29E4D14FF0FF31084630BC99
:106D80007047C5F810044360F0E700BF8C5B00203B
:106D900038B5084BD3F81044012583F820543CB192
:106DA0002368657220465B6898476468002CF7D1B9
:106DB00038BD00BF8C5B00202DE9F04784B01D4634
:106DC0000C9C002394F80C802373EB8881460E46BC
:106DD0001746002B3BD1297A05290FD06B7A002B5F
:106DE0003DD1404BA88853F821A00021FFF730FC8B
:106DF000524603463C49204602F068F8062F0FD859
:106E0000DFE807F0484D535A04633900F168B06871
:106E100096E80C00019100904946204602F056F891
:106E20002B7A052B05D06B7A5BB93049204602F0EE
:106E30004DF8204602F03EF884F80C8004B0BDE81E
:106E4000F0872B4A2B49204602F040F8EDE7284A0C
:106E500000922949294A204602F038F8BBE7A88861
:106E6000FFF722FC264B234953F82020204602F04E
:106E70002DF8297AB5E77069316996E80C0003901E
:106E8000B068F76802918DE881004946204602F01B
:106E90001DF8C5E74946204602F018F8C0E73268F9
:106EA0004946204602F012F8BAE7494696E80C0037
:106EB000204602F00BF8B3E7B16896E80C002046D4
:106EC0000091494602F002F8AAE7B068F768316914
:106ED00096E80C0002918DE881004946204601F0B9
:106EE000F5FF9DE7F0440300E0440300EC44030099
:106EF000D4440300DC440300BC440300B444030056
:106F00007C440300082900D970472DE9F04F1D4645
:106F1000904600232A7B2B7385B0B8F80630039285
:106F200007460E46002B6BD198F80810052911D0A2
:106F300098F80930002B6BD13C4BB8F8040053F89B
:106F400021400021FFF784FB2246034638492846AA
:106F500001F0BCFFDFF8F8B0DFF8F8900024A6429B
:106F6000494628463ED93A5D013401F0AFFF082C6E
:106F7000F5D13049DFF8E090DFF8E0B0284601F0C5
:106F8000A5FF002411E017F804A00DF0CBF9504440
:106F90005946437813F0970F14BF52462E222846C5
:106FA000013401F093FF082C08D0A6424946284638
:106FB000E9D8013401F08AFF082CF6D198F808309E
:106FC000052B02D098F80930A3B91B49284601F0D7
:106FD0007DFF284601F06EFF9DF80C302B7305B045
:106FE000BDE8F08F01345946284601F06FFF082CA8
:106FF000B5D1BEE7114A1249284601F067FFE4E720
:107000000E4A00920F49104A284601F05FFF8BE7B5
:10701000B8F80400FFF748FB0C4B094953F820204F
:10702000284601F053FF98F8081085E7F044030064
:10703000E0440300AC440300EC440300D4440300E8
:10704000DC440300BC440300B44403007C4403005C
:10705000A8440300A0440300E8440300B044030034
:10706000434B1978002900F081802DE9F04F8C46C0
:1070700087B00024012503E00134E4B2644560D206
:107080003C4B27B21E6816F837E0AEF1200305FA34
:1070900003F9394BCEF12001D3E9002325FA01F1A0
:1070A00049EA010905FA0EF808EA020009EA0301B3
:1070B000014306EBC70BDFD02F4922EA080223EA7F
:1070C00009037046C1E9002305F0E4FC16F837E037
:1070D000AEF1200205FA02F201920199CEF12003ED
:1070E000C6B225FA03F3AEF12002194306FA02F301
:1070F0000393224B0191D3E90023CDE9042305FA40
:107100000EF30093CEF12001039B26FA01F10B430D
:10711000039306FA0EF30293DDE90467DDE9002329
:1071200016401F4032463B46DDE90267BB4208BFBE
:10713000B24209D00E4B013493F800C0E4B264456A
:107140009ED307B0BDE8F08FDBF80430002BF1D000
:107150009BF80110A1F10101B1FA81F14909091A65
:10716000B1FA81F1490970469847E3E7704700BFDB
:10717000B05F0020E85F0020E05F0020D85F0020C3
:107180002DE9F8430646204800F09AF9D0B91F4F80
:107190000123A6F1200103FA01F5C6F12002D7E987
:1071A000000123FA02F2154303FA06F404EA00028E
:1071B00005EA0103134307D020EA040421EA050588
:1071C000C7E90045BDE8F883304605F063FC104E82
:1071D000D6E9008998B148EA040849EA0509D7E9DF
:1071E000002314431D43C6E90089C7E90045094B44
:1071F000054819680022BDE8F84300F0FBB828EA0A
:10720000040829EA0509EAE7B85F0020E05F0020EA
:10721000D85F0020B45F0020042A01D807207047FF
:107220002DE9F04182B00F460546164605F0F4FA06
:10723000002834D01C4C1D4A1D4B1E481E49256099
:1072400017707C1E00221E600023C0E90023C1E9E4
:107250000023E4B2EFB1DFF86C800027032601E0E1
:10726000FF2C16D023B205EBC30215F83300937838
:107270008DF80670424601A98DF804608DF805303E
:1072800005F0D4FA013CE4B20028E9D002B0BDE830
:10729000F0810A4A0A48002100F080F8F6E705F07C
:1072A0006DFA0028C6D0F1E7E85F0020B05F00204B
:1072B000B45F0020D85F0020E05F00206170020012
:1072C0005C4503008171020070B5084D2B785BB1FD
:1072D000074E00243368012113F8340005F078FBD1
:1072E0002B780134A342F5D8002070BDB05F002098
:1072F000E85F002000B585B000230390194601AA7D
:1073000044F201000193029300F004F805B05DF827
:1073100004FB00BF10B572B6FFF73AFDFFF7DAF9CC
:107320000028FBD1104C11492088000440F00100D6
:10733000FFF7FEFA0E4B1B68DB0700D500BE208866
:107340000C49000440F00200FFF7F2FABFF34F8F40
:1073500009490A4BCA6802F4E0621343CB60BFF3E9
:107360004F8F00BFFDE700BF105A002060450300AB
:10737000F0ED00E06C45030000ED00E00400FA05CC
:1073800010B504F061FF037B03B910BD836800688A
:10739000BDE81040184700BF002070473AB170B5F3
:1073A00005682B7B82B023B1082002B070BD072096
:1073B00070476B68002BF7D114460E461022194611
:1073C00028460DF003F8321C084BAC6018BF0122B0
:1073D00000934FF47A712B46054804F051FD0028C4
:1073E000686014BF00200E20DFE700BF8173020039
:1073F000E84403002DE9F041476884B0002F44D0F1
:10740000037B15460C460646002B42D13560EFF350
:10741000058585B94FF002082246CDF800802B463D
:107420000421384604F07AFD0128044638D00420AF
:1074300004B0BDE8F08104AD4FF0000845F8048DBC
:107440002246CDF800802B460921384604F066FD1F
:107450000128ECD104F05AF9CDF8008002462B4601
:107460003846062104F05AFD0128E0D1039B43B1C0
:10747000124B4FF080525A6040BFBFF34F8FBFF3A3
:107480006F8F012333730020D2E7082004B0BDE8DA
:10749000F081384604F0CCFE0028B7D00020C7E7C2
:1074A00004F02EF9CDF8008002462B4621463846DE
:1074B00004F034FD0128BAD1E3E700BF00ED00E09D
:1074C000416859B310B5044684B0EFF305835BB946
:1074D00002220846009203211A4604F01FFD0128EB
:1074E00018D0042004B010BD04AB002243F8042DD2
:1074F00008460092082104F011FD0128F1D1039BF8
:1075000043B1074B4FF080525A6040BFBFF34F8FDB
:10751000BFF36F8F0020207304B010BD08207047A8
:1075200000ED00E070B4EFF3108472B60D4B9A6872
:10753000AAB90D490D4E01259D60D1F88050354006
:107540001D60C1F88060D1F884505D604FF0FF335A
:10755000C1F88430027004B962B670BC7047012370
:107560000370F8E78479002000E100E0FC06FFBD2D
:10757000094B9A6872B168B910B4EFF3108272B611
:1075800006491C680C605C684C60986002B962B681
:107590005DF8044B704700BF8479002000E100E0F3
:1075A000F0B5344C344D67886268BE00F31905EBC2
:1075B000830383B0596801F58050002A56D0538860
:1075C000033302EB8302904234D91368013331D084
:1075D0005388033302EB830398422BD34FF6FF7C8F
:1075E000B2F804E0E64517D0B2F800E0BEF1000FB3
:1075F00012D062605388214D2148AE882968033338
:1076000000259BB200959B0001EB860103252570A8
:1076100001F0A8FF03B0F0BD98420BD91A680132FF
:107620001A4607D0B3F802E00EF1030E03EB8E0307
:107630009842D5D2F31905EB8303DB686BB10F4D8C
:107640000F4829680227052600230122AF802670F3
:1076500003B0BDE8F04002F01DB80948042501223E
:10766000257003B0BDE8F04002F014B801F1080243
:10767000A9E700BF106000202C600020E46000201B
:10768000445A00202DE9F041436888464BB13B4AFB
:10769000D468A34205D31269934202D813F00305BC
:1076A0004DD00023DFF8DCC0A8F800304FF0010E09
:1076B0004FF6FF76DCF80470002207F58054083797
:1076C000002A3AD05388033302EB83039C420DD83F
:1076D0000EF10103A8F800E01FFA83FEBEF1030FCC
:1076E0000CF1140CE6D10020BDE8F0811A680132DB
:1076F000EED05A88033203EB82029442E8D39D888D
:10770000B5420DD01D885DB19D6801688D421A4655
:10771000D6D11B4A4360138903810120BDE8F08163
:10772000A242D5D2136801331346D1D05588033510
:1077300002EB8502A242CBD8E1E73B46C6E7104AFE
:10774000048912899442ACD104689A689442A8D101
:107750000C484268934203D902F58052934207D302
:1077600082699342BFD902F580529342BBD2012570
:10777000A8F800500120BDE8F08100BF445A002065
:10778000106000202C6000202DE9F04FA04F89B040
:1077900004464FF6FF783E68002E00F007813278ED
:1077A000531E052B00F2B283DFE803F0313E3E1E8C
:1077B0001E03002C40F0B880DFF87CE29EF80C300D
:1077C000002B00F0A1819EF800308EF80C40013BA8
:1077D000062B00F29B83DFE813F0970281015F0123
:1077E0004701990370028401002C40F09D80337999
:1077F000012B00F0B78103ADC0F09E81022B0394F2
:10780000AC60EC602C6140F08783002032E0002CFB
:1078100040F0AB803379032B00F2BE80DFE813F039
:10782000EC001001AF00CD00B6F81490002C00F071
:107830008380B37D022B40F263814FEA8904754D4A
:10784000F38804EB090205EB8202033311890B4430
:1078500013814C4405EB8404F3886289C3F57F43AC
:1078600003ADFD33134400226381AA600392EA60F2
:107870002A61012004903378023B042B0AD8DFE808
:1078800003F0432F23034F0004238DF80C30F388BB
:10789000ADF81830604C04F1100654F8043B28464B
:1078A00003B19847A642F8D15C495D4800243C608A
:1078B00001F0A6F901215B4801F064FA00287FF489
:1078C0006AAF09B0BDE8F08F03238DF80C30F38860
:1078D000ADF818303389ADF81A30F3680593D9E75D
:1078E00002238DF80C303389ADF81830B388ADF829
:1078F0001A30F3680593B37DA3F10603B3FA83F35B
:107900005B098DF81C30C5E701238DF80C303389F5
:10791000ADF81830B388ADF81A30F3680593B9E7BD
:1079200005238DF80C30B5E703AD0023AB6003935E
:10793000EB602B6101209DE74FEA8904354DB17D55
:1079400004EB090305EB8303B3F808A05B6803EBC2
:107950008A0A062900F21283DFE811F01701890173
:107960009B01640177014B01480103AD2E4A0023BE
:1079700053600393AB60EB602B6101207AE72B4CE3
:107980002B4821680023337102250122A58001F0D4
:1079900081FE002895D03E68234A03AD0023536042
:1079A0000393AB60EB602B610E2063E71B491C481F
:1079B00001F0F6F806463860F1E61C4C1D4A2168D5
:1079C0001B48144D4FF0000986F804900823CDF8A9
:1079D000009001F0C7FD184B26685B88A18803EB77
:1079E000830305EB830205F8239053682360022389
:1079F00056601181A380CCE70C4B104A19680C48E3
:107A00000123002433710823009401F0ABFDC0E78B
:107A1000286000202C600020F85F002020600020FB
:107A2000D8570020E060002008600020E4600020BB
:107A3000445A002080450300106000208845030060
:107A4000A74D2B78022B00F079822B7D022B00F0C2
:107A5000888203ADA34B002001221A700390586066
:107A6000A860E860286105E7BEF802309C4D03EB92
:107A7000830305EB8305EB68002B00F06E819A4BC6
:107A80009A481968022205249A80002301228EF860
:107A9000004001F0FFFD12E09348DEF804208488E6
:107AA000016853889148033301EB8401002400945A
:107AB0009BB203249B008EF8004001F053FD002888
:107AC00040F08780FDE6884ADEF8041093884988F4
:107AD00003330B44022193808EF80010FFF760FD02
:107AE000EDE7814B824A1968804800230724009300
:107AF000CEF804308EF80040082301F033FDDEE7B5
:107B0000774D4FEA8904A4E69EF80030072B00F277
:107B1000618101A252F823F0937D0200D57D02001D
:107B2000D57D0200C77A02006D7D0200E37A020073
:107B3000E37A0200C97D02000223337103946C6072
:107B4000AC60F368039328460DF10A01FFF79AFD34
:107B5000002840F0C58103946C60AC60EC602C613F
:107B60000A2087E65F4B1B78002B40F049812146B5
:107B7000082260480CF02AFC022003AD0023AB6011
:107B80000393EB602B613E6874E602230022B37519
:107B9000042300925146F218544801F0E3FC0028F7
:107BA0003FF48FAEB17D0E20022908D904EB090203
:107BB00005EB8202F388118903330B4413814C4493
:107BC00005EB8405F3886A89C3F57F43FD331344CD
:107BD0006B8103AD41F61D5200239042AB600393CD
:107BE000EB602B6100F0C8813E6843E641F61D5012
:107BF000DCE7414B414AB3F800A051683B48404A9A
:107C000000234FF0060E86F816E00093042301F0DF
:107C1000A9FC0028C6D10AEB8A0A05EB8A050123D4
:107C20002B744EE6F388326930484FF0010E86F827
:107C300016E04FF0000E0AF10C019B00CDF800E0B9
:107C400001F090FC0028ADD13BE62C4BB2691A60E4
:107C50001846002228495A60FFF714FD002894D1E5
:107C600003AD0390A860E86028610A2002E6032AB9
:107C700014BF062305230022B3750AF10401009204
:107C8000042306F10802194801F06CFC002889D190
:107C900017E633691548002B0CBF0123032300228C
:107CA000B3750AF108010092042306F10C0201F0F9
:107CB00059FC00287FF476AF03E6BEF80220084D99
:107CC0009300134405EB83050624002369680D4ADD
:107CD000009306488EF80040082301F043FCEEE6CE
:107CE0002C60002008600020E4600020445A00203E
:107CF00088450300F4600020F0600020EC5F002065
:107D00007C450300804503009EF80A304BB19C4D32
:107D1000EB6800228EF80A201BB92A7C002A40F06A
:107D200008819EF80B3053B1954D2B6A00228EF8D6
:107D30000B2023B995F82430002B40F0F98003ADD7
:107D40000020A8608EF80000AEF80200CEF8040013
:107D50000390E86028613E688CE5042469688948DE
:107D60008EF80040012201F095FCA8E6BEF8022042
:107D7000834D854C9300991805EB810120684E686E
:107D8000B4F804C0486002202660A1F808C0A080B2
:107D900097E77B4DBEF808102B782A7DB3FA83F362
:107DA000B2FA82F200205B095209013101248EF8F7
:107DB0000A308EF80B20AEF80810AEF802008EF8EC
:107DC0000C008EF80040A1E701238EF800309EF8E9
:107DD0000A309BE7013B062B00F2988001A252F883
:107DE00023F000BF097D0200DD7A0200997A0200CB
:107DF000697A02000D7F0200BB7C0200E37A020078
:107E00006248B0F80490B9F1010F00F2AC805C4D0B
:107E100009EB890E05EB8E0E9EF80030BBB109F11F
:107E200001091FFA89F9B9F1020FA0F804900EF1C7
:107E3000140EF1D103AD0822002154480CF0C6FA0B
:107E40000020A8600390E86028613E6812E5DEF833
:107E50000410036801F5805201F1080C002B65D075
:107E60005988033103EB8101914201D30460D6E7C5
:107E70000B680133FAD04B88033301EB8303934241
:107E8000F4D8B1F804A0C24514D0B1F800B0BBF1E9
:107E9000000F0FD0B6F806B00160D3450B46DDD118
:107EA000002300933A4A3748042301F05BFB80B17A
:107EB0000E2062E69A42D9D9196801311946D5D007
:107EC000B3F802A00AF1030A03EB8A039342CDD868
:107ED000D7E709EB890905EB890501232B74F0E449
:107EE00004992B4A8B88F3800B88338125480094B2
:107EF0000423BDF80A6001F035FB78B12C606C609A
:107F0000AC60EC602C613E680E20B3E403AD00234E
:107F1000AB600393EB602B610F20ABE4184B06EBD7
:107F2000860603EB860601233374CAE461469BE7A9
:107F30000123AEF80230FFF733FBC0E500239800C1
:107F4000184405EB800300245968124A0094082362
:107F500005F820400B4801F005FB00287FF41BAD1D
:107F6000AFE40123EBE703AD082221460CF02EFA23
:107F70000394AC60EC602C613E6846E40F2013E68D
:107F80002C600020445A0020E4600020F4600020AF
:107F90007C450300804503004068FFF7F5BB00BF48
:107FA0002DE9F04782B0002A60D0B2F800805788EF
:107FB0000E46054601A94548994600F0B3FD1C222E
:107FC000044600210CF002FA002C2FD04FF0000ADA
:107FD00084F80090A4F8148084F816A073682361D4
:107FE00001213B4800F0C0FEE060338823817388A4
:107FF000A380B9F1030FE7802DD0A4F80AA001A94E
:10800000324800F0BDFD3DB100236B60E168314AAC
:1080100029601289AB722A8101212F4800F096FE57
:10802000044690B1002002B0BDE8F0872B4A08EB6F
:10803000880802EB8802C7F57F435189FD330B4462
:108040000820538102B0BDE8F087FFF79DFB204672
:1080500002B0BDE8F0870423A3752B68A36101A9D2
:10806000A4F80AA0194800F08BFDCDE70F89FA1C8F
:1080700092B240F2FD34A24201D90920D3E7174C55
:1080800094F80080B8F1000F07D16689258935443E
:108090001544ADB2B5F5806F0BD3257D3DB9E68BA8
:1080A000A58B35441544ADB2B5F5806F0AD30720D2
:1080B000B9E7C6464FEA8E05754404EB85043244A1
:1080C000628175E74FF00108C646F3E7D8570020F4
:1080D0002460002010600020E06000202C60002060
:1080E00038B5084B1A68042A01D10C2038BD1D6828
:1080F000054C02460121184644F8252000F034FEC4
:10810000002038BDEC600020F85F00202DE9F04F22
:10811000B14C8BB022780023069305930793089304
:10812000099372B1AD4C04F1100554F8043B05A855
:1081300003B19847A542F8D1002528460BB0BDE809
:10814000F08F201D02F0FF0600F02AFE07460028EF
:10815000F2D14FF010234FF080525B6911695269E0
:10816000DFF89882581C08BF02FB01F3C8F81030F2
:108170009B49A3F5405340460022C8F80C3001F05B
:10818000C7F905460028D8D11C238C22954996486A
:10819000DFF86CB200F08CFCD8F80C30DFF86482A9
:1081A000039603F5405200920322BC46A3F1040A51
:1081B00001922F46029523B1DAF804208B498A42B6
:1081C00064D003F6FC70524602E0904200F01C813D
:1081D00052F8041F0131F8D0854A07EB870102EB02
:1081E0008100019A4360013A92B20192804A0325CC
:1081F000013702F82150BFB203F58050009A824245
:108200000AF5805A0346D6D1019B029D012B40F20C
:1082100012815FFA8CF7022F00F00D81062F00F01B
:108220000C81002F00F0078104A96F4800F07AFC50
:108230001C22044600210CF0C9F8002C00F00E812D
:108240000123013F23700A2F09D8DFE807F01C083B
:108250001C0819081908160616000223237104A920
:10826000614800F08DFC0121624800F06FFD00289C
:108270007FF462AFFFF788FA5FE703232371EEE72D
:1082800001232371EBE700232371E8E75A685A4979
:108290008A4251D001318A4293D1039A72B1544A31
:1082A000534E07EB870502EB850102200137D8F812
:1082B000002006F82500BFB24A6008810221C8F8F4
:1082C0000030A8F804109A68013203F5805000F0DD
:1082D000C38003F108025388033302EB8305A842ED
:1082E00007D24FF48063A8F8043008234CEA030C4B
:1082F00084E795884FF6FF76B5420AD0158845B1D8
:108300009568DBF80060B54203D9CBF8005053887C
:1083100003330B4499B2A8F804105588033502EBD7
:108320008502904204D8022900F096800823DDE7F8
:1083300013680133CFD1F6E72D48BD00EA1900EBF1
:108340008206002100F822100222736032819968AF
:10835000013103F5805010D00833598801F1030E24
:1083600003EB8E0E70450DD2214B3D4403EB85058A
:1083700001224FF480632A742B810137BFB24CF085
:10838000020C3BE7B3F804E04FF6FF79CE451CD072
:10839000B3F800E0BEF1000F17D0D3F808E0DBF827
:1083A0000090CE4503D9CBF800E0598832890A44C1
:1083B000033292B232815988033103EB8103984230
:1083C000DBD919680131C8D1D7E74FF00102327407
:1083D00059883289EBE700BF08600020F85F002071
:1083E000B847030054600020D8570020DEC0ADDE3F
:1083F0002C600020E0600020FE011EF1445A0020A5
:1084000024600020E4600020D8F8002042B318491E
:10841000184E07EB870201EB8200022143600181C5
:10842000134877807D1C00F82210AFB24CF0010C8D
:1084300003F58050E2E60B257FE60F4D0122002375
:10844000227005F11006636055F8043B05A803B1DE
:108450009847AE42F8D16FE6042347E708256CE65B
:108460000222A8F804200122C8F800300392DDE7B8
:108470002C60002010600020F85F002060B159B12E
:1084800070B582B00C460DF106010546FFF7FAF80B
:1084900020B90A2002B070BD05207047BDF8060063
:1084A000084B6E6800EB800003EB80000C3001216C
:1084B00000F05AFC26606B6801220C3363600020D8
:1084C000AA72E7E72C60002050B110B582B00DF120
:1084D00006010446FFF7D6F820B90A2002B010BD05
:1084E00005207047BDF80630094A03EB830302EB11
:1084F0008303DA6812B9062002B010BDA27A002AFE
:10850000F9D0DA680021013ADA600846A172E5E79D
:108510002C6000201E4B1B7813B9022318467047AD
:1085200040B1CB1C9BB240F2FD32934205D90923E6
:1085300018467047052318467047F0B4154A157859
:10854000A5B95689148934441C44A4B2B4F5806F8B
:108550000CD22F46BC003C4402EB840233445381CE
:108560000580418000231846F0BC7047147D54B943
:10857000D68B948B34441C44A4B2B4F5806F02D2E1
:1085800001252F46E6E707231846F0BC704700BFD9
:10859000086000202C600020134B1B7813B90223C5
:1085A00018467047A8B10388022B02D90423184645
:1085B000704710B40D4A418803EB830302EB830339
:1085C0008C1C5A89944206DB042318465DF8044B40
:1085D00070470523E4E7C1F57F41FD3111440022D6
:1085E000598113460260F0E7086000202C600020EB
:1085F0000F4B1B780BB90220704759B110B40C888F
:108600004FF6FF739C4201D04B882BB904205DF8D4
:10861000044B7047052070474A6812F0030201D0EE
:108620000320F4E702235DF8044BFFF7B9BC00BF59
:108630000860002032B130B40E4C247824B90220F6
:1086400030BC70470520704771B10D884FF6FF743C
:10865000A54201D04C8814B9042030BC70474B6847
:108660009B0703D00320EBE70520E9E7022330BC9A
:10867000FFF796BC0860002020B1104A12781AB9A2
:1086800002207047052070470029FBD010B40C88E9
:108690004FF6FF72944201D04A881AB904205DF85F
:1086A000044B70474A6812F0030201D00320F6E73A
:1086B00003235DF8044BFFF773BC00BF0860002084
:1086C000174B1B780BB9022070474FF6FF73984287
:1086D00001D10420704770B582B001A90446114849
:1086E00000F020FA1C22054600210BF06FFE85B138
:1086F00005230126EC8001A92B702E71094800F09A
:108700003FFA3146084800F021FB044620B1002022
:1087100000E0082002B070BDFFF736F82046F9E708
:1087200008600020D8570020E0600020154B1B781F
:108730000BB90220704710B582B001A9124800F0B1
:10874000F1F91C22044600210BF040FE8CB10623F7
:10875000237001A90C4800F013FA0C4B1A7852B997
:1087600001210B4800F0F2FA044638B1002002B0B3
:1087700010BD0820FBE701221A73F1E7FFF704F8A8
:108780002046F4E708600020D85700201060002041
:10879000E06000202DE9F043354C247814B9022024
:1087A000BDE8F08362B35BB3B3F804C0BCF1010F62
:1087B00023D8304F0CEB8C0407EB84074FF6FF7E79
:1087C0004FF000083C786CB91C687D6805F5805650
:1087D000002C4AD06588033504EB8504A64212D8E4
:1087E000C3F800800CF1010C1FFA8CFCBCF1020FE5
:1087F000A3F804C007F11407E4D10A20BDE8F08310
:108800000520BDE8F08325680135E9D0658803358A
:1088100004EB8505AE42E3D3B4F80490F14515D0DE
:10882000B4F80090B9F1000F10D01C60A588854203
:10883000CBD125888D42C8D1A168116019680E4B33
:1088400051601B8913810020BDE8F083B542C7D277
:108850002C6801342C46C3D0B5F8029009F1030905
:1088600005EB8905AE42BBD3D6E705F10804B5E7B1
:10887000086000202C60002010600020314B1B7825
:108880000BB90220704741B33AB32DE9F041978804
:10889000012F1FD82C4E07EB870306EB83064FF6FC
:1088A000FF7E4FF0000C33786BB91468736803F5E2
:1088B0008055002C43D06388033304EB83039D422F
:1088C0000DD8C2F800C00137BFB2022F978006F161
:1088D0001406E8D10A20BDE8F081052070471C6825
:1088E0000134EED05C88033403EB8404AC42E8D856
:1088F000B3F80480F04513D0B3F80080B8F1000F4E
:108900000ED013601D8885421C46CFD19B680B603A
:1089100012680E4B4A601B890B810020BDE8F08174
:10892000AC42CED2236801332346CAD0B4F80280C9
:1089300008F1030804EB8804A542C2D3D8E7083342
:10894000BDE700BF086000202C6000201060002000
:10895000314B1B780BB902207047D1B1CAB12DE958
:10896000F0419688012E11D82C4F06EB860307EBB9
:1089700083074FF6FF7E4FF0000C3B785BB101366A
:10898000B6B2022E968007F11407F6D10A20BDE890
:10899000F0810520704714687B6803F58055002C32
:1089A00038D06388033304EB83039D4202D8C2F8B6
:1089B00000C0E4E71C680134F9D05C88033403EBA1
:1089C0008404AC42F3D8B3F80480F04513D0B3F874
:1089D0000080B8F1000F0ED013609D8885421C46C0
:1089E000DAD19B680B6012680D4B4A601B890B81C2
:1089F0000020BDE8F081AC42D9D223680133234680
:108A0000D5D0B4F8028008F1030804EB8804A5422D
:108A1000CDD3D8E70833C8E7086000202C600020D9
:108A20001060002020B119B103680B60002070476E
:108A3000052070471EF0040F1CBFEFF309800AE009
:108A4000EFF308800849094A884201D8904202D8C9
:108A50008D464FF000006B46854608B5044B98479D
:108A6000BDE808409D4670470000012000F8002046
:108A7000998A0200BFF34F8F0549064BCA6802F47A
:108A8000E0621343CB60BFF34F8F00BFFDE700BF31
:108A900000ED00E00400FA0510B50446FEF778F991
:108AA000FDF718FE0028FBD12046FFF7E3FF10BDBD
:108AB00099B110B4B2FBF3F403FB1424A4B21CB1BB
:108AC00009205DF8044B704780E8120084608281C1
:108AD000C38120465DF8044B70470E20704700BFED
:108AE00082B050E8022FC188B2EB324F4FF0000342
:108AF00017BF92B241EA014142EA014104E04268F3
:108B0000B2EB324F08BF012340E80212002AE8D13D
:108B10008DF807309DF80730002B0CBF1120002086
:108B200002B0704730B482B050E8013F9DB2C489B2
:108B300025448489A54228BF2D1B0489A54202BF74
:108B4000BFF32F8F002207E0C5EA030540E8015478
:108B5000002CE9D14FF001028DF803200193019B15
:108B60009DF803200B602AB10B880068184402B0FE
:108B700030BC704702F0FF03184602B030BC7047AB
:108B80000A884B889A4201D00020704750E8012F94
:108B9000C2EA024240E80123002BF7D101207047CE
:108BA00030B482B050E8023F1FFAA3F5C488A54252
:108BB00002BFBFF32F8F00220DE0C48925448489B2
:108BC000A54228BF2D1BC3EA054540E80254002CEE
:108BD000E8D14FF001028DF803200193019B9DF82D
:108BE00003200B602AB14B880068184402B030BCE7
:108BF000704702F0FF03184602B030BC704700BF58
:108C00000A884B889A4201D00020704750E8022F12
:108C1000C2EA224240E80223002BF7D1012070472C
:108C200001F01F024B09012100EB8300914000F08D
:108C300071B800BF01F01F0201234909934000EB06
:108C40008100D94300F074B84B0901F01F0150F8BE
:108C50002300C84000F00100704700BF2DE9F84F25
:108C600001F1FF394FEA591909F101090F4606468A
:108C700000EB8909044600254FF0010823686FEADC
:108C8000030B9BFAABFBBBFA8BFBBBF1200F20D095
:108C9000AB445F450CD81CE02368DB4393FAA3F395
:108CA000B3FA83F3202B05EB030B12D05F4510D9E9
:108CB0000BF01F0A4FEA5B1008FA0AF106EB80007E
:108CC00000F01AF820FA0AF0C307E5D45846BDE8C8
:108CD000F88F04344C4505F12005CFD1BB46F5E7AC
:108CE00000B550E8002F0B4640E8003E9EF0000F14
:108CF000F7D110465DF804FB00B550E8002F42EABA
:108D0000010340E8003E9EF0000FF6D110465DF8EA
:108D100004FB00BF00B550E8003F43EA010240E811
:108D2000002E9EF0000FF6D110465DF804FB00BF48
:108D300000B550E8003F03EA010240E8002E9EF033
:108D4000000FF6D110465DF804FB00BF00B550E8F7
:108D5000002F02EB010340E8003E9EF0000FF6D129
:108D600010465DF804FB00BF00B550E8003F03EB80
:108D7000010240E8002E9EF0000FF6D110465DF88B
:108D800004FB00BF00B550E8003FA3EB010240E840
:108D9000002E9EF0000FF6D110465DF804FB00BFD8
:108DA00000B5012350E800EF4EEA030240E800213D
:108DB00091F0000FF6D170465DF804FB00B5012379
:108DC00050E8002F42EA030E40E800E191F0000F66
:108DD000F6D170465DF804FB00B5002350E800EFC3
:108DE0000EEA030240E8002191F0000FF6D1704630
:108DF0005DF804FBB8B130B4416882680468521A67
:108E0000D2B2531E2160DBB242B101680A685C1E17
:108E1000551C0D601370E3B2FF2BF6D103680020E0
:108E2000187130BC70470E20704700BFF0B583B09A
:108E300002AB002503F8015D04461846FEF772FBFD
:108E4000236861681A688A4210D9511E1960216826
:108E5000A3680E6812F8015C0A79A78AE0689B1B78
:108E6000DBB29A4207FB050538BF0B719DF807007E
:108E7000FEF77EFB284603B0F0BD00BF30B583B0DF
:108E800002AB002203F8012D054618460C46FEF7FA
:108E900049FB2A681368591C1160E968AA8A641A98
:108EA000B4FBF2F41C709DF80700FEF761FB03B001
:108EB00030BD00BF826802B9704710B504464369EF
:108EC0000168006998470023A36010BD0EB400B587
:108ED00082B0039929B102AA04AB42F8043D00F024
:108EE00095F802B05DF804EB03B070472DE9F84F38
:108EF0001746B942884606461D46DDF828B00B9A4B
:108F00007DD30B464FF00109B3FBF7F39F4209F104
:108F10000109F9D9A94538BFA94612F0010A02D1C1
:108F2000BBF1000F49D1B268012402E0013D07FB0B
:108F300004F4012DFAD8B8FBF4F18F42F7D9324D81
:108F400005E0B4FBF7F4A4B1B8FBF4F1B268685CD7
:108F5000531CB36033689854B26873689A4204FB38
:108F60001188EED33046FFF7A5FFB4FBF7F4002CD1
:108F7000EAD1BAF1000F16D0BBF1000F33D0CB45C8
:108F800088BF20243ED9B3683268591CB160D454DC
:108F9000B26873689A420BF1FF3B06D2BBF1000F37
:108FA00009D0D945EFD1BDE8F88F3046FFF782FFF1
:108FB000BBF1000FF5D1BDE8F88F93071AD4202438
:108FC000CB45B0D9B2683368511CB1609C54B268CB
:108FD00073689A420BF1FF3B07D2BBF1000FA3D09D
:108FE000CB45F0D1A0E7BDE8F88F3046FFF762FF30
:108FF000B268F2E7002D0CBF30242024E0E74FF0E8
:10900000010987E7BDE8F88FAC450300002900F0AF
:109010006F822DE9F04F064685B093460C460B78DB
:109020000DE0B2683168501CB0608B54B268736850
:109030009A4280F0D3802378002B00F0BA8001346C
:10904000002B00F0B680252BEBD14FF00008234613
:1090500014F8012B2D2A00F0BB80302A00F0BB80D1
:109060002B2A00F0AD802A2A00F0BC80A2F1300546
:10907000E9B2092998BF013302D9A9E1A1F130056C
:109080001C4613F8012BA2F1300005EB85010928DD
:1090900002EB4101F2D92E2A00F0B080002701E056
:1090A00014F8012F02F0FB03682BF9D0253A532A5C
:1090B0007AD8DFE812F07A01790079007900790036
:1090C00079007900790079007900790079007900D8
:1090D00079007900790079007900790079007900C8
:1090E00079007900790079007900790079007900B8
:1090F00079007900790079007900790079007900A8
:109100007900790079007900790079007900790097
:109110007900790079007900790079006A01790095
:109120007900790079007900790079007900790077
:1091300079005501FC007900790079007900FC0084
:10914000790079007900790079007900540079007C
:109150007900CA007900BA00790079006A01DBF869
:109160000020131DCBF80030B368156831685A1C15
:10917000B2604FF03002CA54B3687268934280F014
:10918000A0813268581C7821B060D154B2687368ED
:109190009A4280F09281002208230192294600938E
:1091A00010223046FFF7A2FE01342378002B7FF413
:1091B00046AF337B002B40F0058105B0BDE8F08F52
:1091C000234614F8012B2D2A48F004087FF445AFFC
:1091D00048F001083BE748F0020838E73046FFF75F
:1091E00069FE28E7DBF80020111DCBF80010156898
:1091F0005A782E2A03F101047FF450AF6278A2F16D
:109200003003092B04F101044FF000073FF64AAF89
:1092100007EB870702EB470714F8012FA2F1300391
:10922000092BA7F13007F3D93CE7DBF800301A1D12
:10923000CBF800201968CDF804803B4600950A223F
:109240003046FFF753FE0134AFE7DBF800301A1D5C
:10925000CBF8002018F0010FD3F8009040F0BB804D
:10926000B9F1000F00F0478148460BF0B7F8074608
:10927000BD4240F2F180002D00F0EE804FF020085A
:1092800005E0BD4200F0E880002D00F0E580B36805
:109290003268591CB16002F80380B26873689A4260
:1092A00005F1FF35EDD33046FFF704FEE9E7DBF8C3
:1092B00000301A1DCBF80020D3F8009089EAE9733A
:1092C000A3EBE973092B4FF0010A09DD8F4A82FBFA
:1092D0000312DB17C3EBA203092B0AF1010AF5DC29
:1092E000BA4538BFBA462DB3B9F1000F02DB18F00A
:1092F000040F00D0013D18F0020F40F0F58018F087
:10930000010F17D1002D00F0FE80AA4538BF2021A3
:1093100010D2B2683368501CB0609954B268736858
:109320009A4205F1FF3580F0E880002D00F0EB80D7
:10933000AA45EED1B9F1000FC0F2C88018F0040FB1
:109340007BD108F00303022B00F09A808DE8200106
:109350003B4649460A223046FFF7C8FD013424E760
:10936000DBF80020131DCBF80030B36831681278A9
:10937000581CB060CA54B26873689A42FFF414AFC4
:109380003046FFF797FD01340FE7DBF800301A1D78
:10939000CBF800201968CDF804803B4600951022D8
:1093A0003046FFF7A3FD0134FFE6B3683268591C6D
:1093B000B1604FF02501D154B26873689A42DFD290
:1093C0000134F2E6304605B0BDE8F04FFFF772BD5C
:1093D0001C4600255FE64F46A7EB090817F8013B3E
:1093E0008BB1B2683168501CB0608B54B26873683E
:1093F0009A42F1D33046FFF75DFDA7EB090817F855
:10940000013B002BEDD145457FF6CEAE202705E090
:1094100045453FF4C9AE002D3FF4C6AEB36832688F
:10942000591CB160D754B26873689A4205F1FF3590
:10943000EED33046FFF73EFDEAE7B2683368501CD2
:109440002B21B0609954B26873689A42FFF479AFE7
:109450003046FFF72FFD74E709F1FF3919F8013F96
:10946000002B3FF4A1AEB2683168501CB0608B5441
:10947000B26873689A42F1D33046FFF71BFDEDE7FF
:10948000002F7FF463AF002D33D0AA45BFF45EAF49
:10949000B2683368511CB1604FF030019954B26822
:1094A00073689A4205F1FF3503D215B3AA45EFD18F
:1094B0004CE73046FFF7FEFCF7E73046FFF7FAFCD3
:1094C00069E63046FFF7F6FCB3685AE6B2683368DF
:1094D000501C2D21B0609954B26873689A42C9F14A
:1094E0000009FFF42EAFB3E7002F3FF423AF06E7E8
:1094F000704700252AE74F46BAE630460391FFF74A
:10950000D9FC039911E7002514E700BF676666667A
:1095100010B582B0B0B131B101600B68114602B034
:10952000BDE8104018470A4A0A4B10880A4A0B49FE
:109530000E24000440F001000094FDF771FB0E20A2
:1095400002B010BD024A034B1088054AEFE700BF86
:10955000305A0020BC450300A446030078460300AF
:10956000704603002DE9F04383B0DDF82880002821
:109570003DD01646002A4AD0D0F800E0BEF1000FD8
:109580004AD01C46F3B14768D7F80490B3FBF9F70B
:1095900009FB173737BB11F0030F4BD1B6075ED16C
:1095A000C668B14256D301F1FF3C05696444AC4240
:1095B00050D8CDF82880DEF80C40A44603B0BDE8B2
:1095C000F0436047284A294B1088294A2949092431
:1095D000000440F001000094FDF722FB204603B098
:1095E000BDE8F083204A214B1088234AEEE71E4A4B
:1095F0001E4B1088214A1F490E24000440F0010030
:109600000094FDF70DFB204603B0BDE8F083164A39
:10961000164B10881A4AEEE7134A144B1088154966
:10962000184A0824000440F001000094FDF7F8FAFD
:109630002046D4E70C4A0D4B1088134A0D491024DC
:10964000000440F001000094FDF7EAFA204603B060
:10965000BDE8F083044A054B10880C4AEEE7024A45
:10966000024B10880A4AE9E7305A0020D04503002F
:10967000B4460300784603000C470300704603001D
:1096800004470300F846030038470300744703000B
:1096900050470300F0B583B000283FD0D0F800E079
:1096A000BEF1000F49D0B2B14768D7F800C00CF145
:1096B000FF370F422DD1C768B9421BD34E1E046934
:1096C0000CFB0265A54215D8DEF81040A44603B095
:1096D000BDE8F0406047204A204B10882049214ACD
:1096E0000924000440F001000094FDF799FA204697
:1096F00003B0F0BD184A194B10881B4A18491024B2
:10970000000440F001000094FDF78AFA204603B0FF
:10971000F0BD114A114B1088144AEFE70E4A0F4B67
:1097200010880F49124A0E24000440F001000094F2
:10973000FDF776FA204603B0F0BD074A074B1088C4
:1097400007490C4A0824000440F001000094FDF78A
:1097500067FA204603B0F0BD305A0020E44503000C
:1097600078460300B446030020460300F845030092
:1097700070460300F846030018B103680BB1DB69BB
:10978000184770B50B4C0C4D0C4B2D1BA3FB05352E
:109790002D090CD005EB850504EB850523682046D3
:1097A000143413B1DB69984718B9AC42F6D10020E4
:1097B00070BD70BD445A0020585A0020CDCCCCCC8E
:1097C00029DF704728DF7047084670470020704740
:1097D000024B187A003018BF0120704788610020C2
:1097E000034B187A0122B0FA80F05A74400970478E
:1097F0008861002008B510461A460AF0C2FD002014
:1098000008BD00BF08B51422002104480AF0DEFD9F
:109810000348FFF765F9002008BD00BF88610020FC
:10982000EC57002010B5094C094B43602046FFF768
:10983000B7FA40B90AF012FC1C2320748C220549A7
:109840000548FFF735F9002010BD00BF88610020F2
:10985000AC470300FC600020EC57002030B55D4CA5
:10986000237A87B0002B66D05B4B1B6802222272E2
:109870001A79002A33D0012A25D019688A68CAB11A
:109880000022032505920292009203920492019510
:109890009A6805921A796846002A57D0012A07D19A
:1098A00002228DF80020DA68120302925B690493A9
:1098B0008B68984700234949494823726360FFF742
:1098C0009FF907B030BDD8681A691044FFF77AFFD6
:1098D000C8B11128D1D10123237207B030BD9D69D1
:1098E0005A69D9681869521BB2F5805F28BF4FF4D6
:1098F00080529208012A38BF012229442844FFF7E8
:109900005FFF0028E5D1227C002AE6D1227A002AD6
:10991000E3D0022A0AD1E0601A7922B3012A05D1E4
:109920001A69596901328A421A6128D0637CBBB135
:109930000AF084FBD1E729492948FFF731F9264B82
:1099400018600346002891D16060C6E701228DF8B7
:1099500000201A690292DA6803925B690493A7E710
:10996000FFF77CFFB9E79A695969881AB0F5805FFB
:1099700094BF121802F5805291429A61D6D100220A
:10998000227219688868B0B1059200920192029221
:10999000039204929A6805921A79684682B1012A64
:1099A00007D102228DF80020DA68120302925B6967
:1099B00004938B68984709490948FFF721F9B5E7EF
:1099C00001228DF800201A690292DA6803925B691D
:1099D0000493EEE788610020A06100209C610020D4
:1099E000EC5700202DE9F04782B08146884619489F
:1099F00001A917461E46FFF795F830B3044600212B
:109A00001C220D46DFF850A00AF0E0FC0A9BC4F8C7
:109A10000090A360C4F81080E760666101A9257119
:109A20000C48FFF7ADF80AF10400FFF7B9F940B9A7
:109A30009AF8114034B9FFF711FF204602B0BDE893
:109A4000F087284602B0BDE8F087042002B0BDE8E8
:109A5000F08700BFEC570020886100202DE9F0431B
:109A600083B080460D46184801A916461F46FFF7E9
:109A700059F820B304461C2200210AF0A7FCDFF8A5
:109A80004C90C4F8008001232D0BE560A76066614F
:109A900001A923710C48FFF773F809F10400FFF7DF
:109AA0007FF940B999F8114034B9FFF7D7FE204645
:109AB00003B0BDE8F083002003B0BDE8F0830420CC
:109AC00003B0BDE8F08300BFEC57002088610020A0
:109AD000831E012B00D9704730B5354C237A87B0EF
:109AE000002B47D0022B41D103280AD1E368013370
:109AF000082B44D92F4B00221B68E26022720D20F4
:109B000015E02C4B00221B68E2601A79002A38D03D
:109B1000012A2BD11A69596901328A421A6125D169
:109B200002284FF0000214BF0D201046227219685F
:109B30008A68BAB1002205920292009203920492BE
:109B40009A68019005921A7942B3012A07D1DA681E
:109B50005B6904931303022202938DF800208B6843
:109B60006846984714491548FFF74AF8637C1BB1CB
:109B70000AF064FA07B030BDFFF770FEFAE7E36061
:109B8000F4E79A6959698D1AB5F5805F94BF521947
:109B900002F5805291429A61E8D1C1E71869DA680A
:109BA0005B69029001258DF8005003920493D6E77B
:109BB00088610020A06100209C610020EC570020FB
:109BC00000F0FD03012B00D0704730B5624CA0F1CE
:109BD0000100B0FA80F0237A4009002287B0207497
:109BE0006274002B5FD05D4B1B68022222721A79CF
:109BF000002A45D0012A1DD019688A688AB100223E
:109C000003250592029200920392049201959A68AC
:109C100005921A796846002A59D0012A4ED08B68DD
:109C2000984700234E494F4823726360FEF7E8FFD0
:109C300007B030BDD8681A691044FFF7C3FD28B1DA
:109C40001128D9D10123237207B030BD227C002A0C
:109C5000FAD1227A002AF7D0022A0BD1E0601A79D1
:109C6000002A41D0012A05D11A69596901328A4274
:109C70001A6145D0637C002B33D00AF0DFF9E3E7AB
:109C80009D695A69D9681869521BB2F5805F28BF6F
:109C90004FF480529208012A38BF012229442844F7
:109CA000FFF78EFDCBE72E492E48FEF779FF2B4BB1
:109CB00018600346002898D16060C5E702228DF83D
:109CC0000020DA68120302925B690493A7E701227D
:109CD0008DF800201A690292DA6803925B69049396
:109CE0009DE7FFF7BBFDAFE79A695969881AB0F5A0
:109CF000805F94BF121802F5805291429A61B9D1E7
:109D00000022227219688868B0B10592009201920F
:109D10000292039204929A6805921A79684682B177
:109D2000012A07D102228DF80020DA68120302927C
:109D30005B6904938B68984709490A48FEF760FFFE
:109D400098E701228DF800201A690292DA680392DE
:109D50005B690493EEE700BF88610020A0610020EA
:109D60009C610020EC570020FFF744B82DE9F0413A
:109D7000B0F81480CF1CA8F1040847440646B7FB8E
:109D8000F8F7FFF753F880B3FFB200250123013F36
:109D90000446A0F8068006600571437128D080460D
:109DA00009E06379AF4203F101036371C8F8000071
:109DB000066080461CD03046FFF738F80135002891
:109DC000EFD16679721E16D02346013082421B689D
:109DD000FBD81F684EB1214600250C680135384676
:109DE000FFF74CF8AE422146F7D10020BDE8F081E4
:109DF0002046BDE8F0812768EDE700BF043001216F
:109E0000FEF7B2BFF8B5012104460430FEF7BAFFF1
:109E1000C0B200B1F8BD6679721E12D0234601307F
:109E200082421B68FBD81F68002EF3D02146002415
:109E30000D6801343846FFF721F8A6422946F7D1CC
:109E4000F8BD2768F2E700BF2DE9F843C688043360
:109E50000F46B3FBF6F5904606FB1533044615B1E5
:109E6000013D2468FCD1F51A454528BF4546B8F1A7
:109E7000000F15D04FF000090433E018A8EB0508D7
:109E80002A4607EB09010AF07CFA4645A9442468F2
:109E900035464FF0000328BF4546B8F1000FEBD11F
:109EA000BDE8F8832DE9F843C68804330F46B3FBB9
:109EB000F6F5904606FB1531044615B1013D2468C0
:109EC000FCD1751A454528BF4546B8F1000F15D09D
:109ED0004FF0000904312144A8EB05082A4607EB9E
:109EE00009000AF04EFA4645A944246835464FF069
:109EF000000128BF4546B8F1000FEBD1BDE8F8835B
:109F000001600B6843604A68934204BF00234360CA
:109F1000704700BF436843B1026891680B444360D7
:109F20005268934204BF00234360704730B4184D19
:109F3000A5F59472AB1ADB1003EBD3735B1002EB45
:109F4000C30152F83330984228BF0C4605D311E0C4
:109F500052F8333098420CD221468B1ADB1003EBB7
:109F6000D3735B10914202EBC304F1D8094830BCB3
:109F700070470D46984204D904F10802AA42D9D389
:109F8000F4E76068034B002808BF1846EFE700BFFE
:109F900024490300E84703000A7B4B6810B40C68AF
:109FA000002A0ABF234600220122027103605DF8E5
:109FB000044B704710B40279034652B148681C68DC
:109FC0008A68011B914210D9A01818605DF8044BF3
:109FD0007047046808688A68211A91420BD80122E8
:109FE00018601A715DF8044B7047002218601A71EE
:109FF0005DF8044B7047A01A18605DF8044B704779
:10A00000F0B4B44B1A78062A20D0B34B1B68062B49
:10A0100000F08A80B14AD2F8883043F47003C2F865
:10A020008830BFF34F8FBFF36F8F4FF01023D3F8FB
:10A030000022002AC0F28A81D3F80432002BC0F239
:10A040008581A74BA74A1A60F0BC704704331B6890
:10A050001807DAD1A44B1B6803F0F002302A00F095
:10A06000658103F0E003402B00F060819E4B1B688C
:10A0700003F0F003302B00F01E819B4B1B6803F0B4
:10A08000F002302A00F0078103F0E003402B00F0DB
:10A090000281954B1B6803F0F003302B00F0EB803E
:10A0A000914B1B6803F0F002302A00F0D08003F0DF
:10A0B000E003402B00F0CB808B4B1B6803F0F003D8
:10A0C000302B00F0B680884B1B6803F0F003302B78
:10A0D00000F09880844B1B6803F0F003502B3FD0B6
:10A0E000814B1B6803F0F002302A28D003F0E00314
:10A0F000402B24D07C4B1B6803F0F002302A03D0A5
:10A1000003F0E003402B80D14FF08043D3F80024CC
:10A11000D2077FF57AAF6FF00102C3F800246E4BCF
:10A120001B68062B7FF476AF704B1B68062B7FF401
:10A1300071AF6F4A136843F4806313606AE76D4B35
:10A140006D4A1B6803F04F031360624B1B78062BAC
:10A150007FF45BAF694B1B6818077FF456AFC9E704
:10A160004FF08052664BD2F80414C3F82015D2F891
:10A170000814C3F82415D2F80C14C3F82815D2F823
:10A180001014C3F82C15D2F81414C3F83015D2F8F3
:10A190001814C3F83415D2F81C14C3F84015D2F8BB
:10A1A0002014C3F84415D2F82414C3F84815D2F883
:10A1B0002814C3F84C15D2F82C14C3F85015D2F853
:10A1C0003014C3F85415D2F83414C3F86015D2F81B
:10A1D0003814C3F86415D2F83C14C3F86815D2F8E3
:10A1E00040143C48C3F86C15D2F844140278C3F804
:10A1F0007015062A7FF409AF404B1B681C077FF4DB
:10A2000004AF6DE73F4E404C4049414B05270125C7
:10A2100000203F223760256008601A602D4B1B78B4
:10A22000062B7FF4F2AE354B1B681D077FF4EDAEB5
:10A2300050E7284B374A1B780321062B11607FF427
:10A24000E4AE2E4B1B681E077FF4DFAE3BE74FF0FA
:10A2500080430022C3F80C21C3F81021C3F838252D
:10A260001C4B1B78062B7FF470AF244B1B681F0719
:10A270007FF4CBAE20E72849164ACB68127823F04A
:10A280008073062ACB607FF4C0AE1C4B1B681B0793
:10A290007FF4BBAE04E7214B0E4A1B6812782049BD
:10A2A000C3F34233062A0B60B8D1144B1B681A075C
:10A2B0007FF4ABAEEDE6074B1A4A1B781A491160E2
:10A2C000062B7FF4A2AE0D4B1B6819077FF49DAEE1
:10A2D000D3E600BFE00F00F03001001000ED00E019
:10A2E000005800200090D003E80F00F03401001067
:10A2F0003C17004058020010E40E0040E40F00F04C
:10A3000000C00040105600408856004018560040DB
:10A3100014560040A0050040F0ED00E0440200109B
:10A320003C05004074C007400DF0ADBA204B214AF7
:10A330001B6812782049C3F30423062A0B608FD1CF
:10A340001E4B1B6819073FF491AE5EE61C4B0122C1
:10A35000C3F80425D3F80024002AFBD04FF01023C3
:10A3600015221749C3F80022D1F80034002BFBD086
:10A370004FF010221521124BC2F80412D3F800241A
:10A38000002AFBD000220E49C3F80425D1F800347E
:10A39000002BFBD0BFF34F8F0A490B4BCA6802F466
:10A3A000E0621343CB60BFF34F8F00BFFDE700BFF8
:10A3B00024030010E00F00F040350140E40F00F0EE
:10A3C00000E0014000ED00E00400FA0538B5430765
:10A3D00004461CBF20F00704083401F089F90E4A36
:10A3E00013689BB10D4A156840F6F7712C448C42F6
:10A3F00007D8A54205D21D44146001F029FA284669
:10A4000038BD002501F024FA284638BD044B23F05E
:10A4100007031360E6E700BFA4610020A8710020D5
:10A42000B0610020704700BF00F108034FF0FF311A
:10A430000022816002604360C3600361704700BF17
:10A4400000230361704700BF43684B609A688A60CD
:10A450009A6851609960086103680133036070472E
:10A4600030B40D686B1C11D000F1080200E01A46F0
:10A4700053681C68A542FAD24B6099608A605160AB
:10A48000086103680133036030BC70470269536898
:10A49000F2E700BF426881680369916082684168A1
:10A4A00051605A68904204BF82685A60002202617B
:10A4B0001A68013A1A601868704700BF07480068B8
:10A4C00080F3088862B661B6BFF34F8FBFF36F8F1A
:10A4D0004FF4F07080F3118800DF00BF00600200CD
:10A4E000064B19680868B0E8F04F80F30988BFF39D
:10A4F0006F8F4FF0000080F311887047B07100201B
:10A50000EFF30980BFF36F8F144B1A681EF0100F22
:10A5100008BF20ED108A20E9F04F10604DF8043D8F
:10A520004FF0400080F31188BFF34F8FBFF36F8F60
:10A5300001F096FA4FF0000080F3118808BC19680A
:10A540000868B0E8F04F1EF0100F08BFB0EC108A9A
:10A5500080F30988BFF36F8F704700BFB071002090
:10A56000402383F31188FEE730B46FF002034FF00D
:10A570008075074C40F8081C40F8202C40F8045C1B
:10A5800040F80C4C40F8243C30BC4438704700BFC5
:10A5900061A502000F4C08B5E02384F8223000F0DA
:10A5A00077F80D4B0D4A00211960D4F8883043F438
:10A5B0007003C4F88830536843F040435360236904
:10A5C00043F010032361FFF779FF402383F31188E1
:10A5D000FEE700BF00ED00E0AC71002030EF00E0CE
:10A5E000402383F31188024A1368013313607047D4
:10A5F000AC710020034A1368013B13600BB983F36D
:10A6000011887047AC71002070B51D4B00221A6094
:10A6100082B01B680193019BEFF31186402383F303
:10A6200011881849184BD1F804551A601B6800931B
:10A63000009B01F065F82D1A25F07F45012D10D9FA
:10A6400001F08AFB022819D001F06EF8054625B109
:10A650000E4B4FF080525A6040BF86F3118802B013
:10A6600070BD6C1E002DF8D0002500E01C4601F0E6
:10A670005BF8631E0543002CF8D1E8E76C1EF3E796
:10A6800040110140001001400011014000ED00E0C8
:10A69000F8B5002001F03AFF0A4E0B4B0B4901229E
:10A6A0001F270225E0244FF40030C3F80875C3F8D3
:10A6B000042332601A60C3F8445381F811430860E0
:10A6C000F8BD00BF081001400010014000E100E0AB
:10A6D000F0B5064685B0EFF3108272B6384CA36829
:10A6E00083B9384B38480121A160D3F8801001406C
:10A6F0002160C3F88000D3F8841061604FF0FF310F
:10A70000C3F8841002B962B6304DD5F8047501F073
:10A7100009FB002841D02E482E4A864228BF064613
:10A72000BB1923F07F4301200021C5F80803C5F8B9
:10A7300040351160136801934FF48033019AC5F8D6
:10A740000433BFF34F8F3EB11E4B20BFD3F800112F
:10A75000D3F804210A43F8D01C4B1E481E4A194D59
:10A760004FF48031C3F808130021016000680390A2
:10A77000039811601268029201220299C3F804231F
:10A78000D3F80435DB1B23F07F40B0424FF4003395
:10A7900028BF3046C5F8803178B9A3685BB1EFF3C4
:10A7A000108372B6074A2168116061685160002207
:10A7B000A26003B962B605B0F0BD00F0ADFFECE7F2
:10A7C0008479002000E100E0FC06FFBD001001409C
:10A7D000FDFFFF00401101400011014070B5064629
:10A7E00000FB01F048300D46FFF7F0FD044618B3BA
:10A7F00025B300F148032360E6632564FFF7F0FE0C
:10A80000236CE16B2268A26001FB03F1CB1A1344B5
:10A8100000200A44FF21A063E36084F844106260D2
:10A8200004F1100084F84510FFF7FEFD04F1240048
:10A83000FFF7FAFDFFF7DEFE204670BD0346DAE7BC
:10A840002DE9F04F044685B01D4601928846FFF77A
:10A85000C7FEA26BE36BB34F4FF000099A424E461E
:10A86000C0F08B80022D00F013810198002800F0C9
:10A870007881B9F1000F00F00781FFF7BBFE00F00F
:10A8800037FFFFF7ADFE94F84430FF2B08BF84F884
:10A89000446094F84530FF2B08BF84F84560FFF70B
:10A8A000A9FE01A902A801F0FFF9002840F00B81E0
:10A8B000FFF796FEA26BE36B9A427FD0FFF79AFEFA
:10A8C000FFF78EFE94F845304FFA83FABAF1000F85
:10A8D0001ADD636AC3B104F1240907E00AF1FF330A
:10A8E000DBB24FFA83FA7BB1636A6BB1484601F081
:10A8F0007FF90028F2D001F00FFA0AF1FF33DBB242
:10A900004FFA83FA002BEFD1FF2384F84530FFF78D
:10A9100071FEFFF765FE94F844304FFA83FABAF1FE
:10A92000000F1ADD2369C3B104F1100907E00AF131
:10A93000FF33DBB24FFA83FA7BB123696BB1484630
:10A9400001F056F90028F2D001F0E6F90AF1FF33E0
:10A95000DBB24FFA83FA002BEFD1FF2384F84430A7
:10A96000FFF748FE00F074FFFFF73AFEA26BE36BBF
:10A970009A424FF00109BFF475AF226CA66B002A12
:10A9800040F0F6802568002D00F003810136A663B3
:10A99000636A6BB104F1240001F02AF940B1614B04
:10A9A0004FF080525A6040BFBFF34F8FBFF36F8F9D
:10A9B000FFF720FE012005B0BDE8F08F04F110097B
:10A9C000FFF718FE4846019901F076F8FFF708FEF8
:10A9D00094F845A04FFA8AFABAF1000F1CDD636AB9
:10A9E000D3B104F1240B08E00AF1FF3A5FFA8AF3CD
:10A9F0004FFA83FA83B1636A73B1584601F0F8F8ED
:10AA00000028F1D00AF1FF3A01F086F95FFA8AF3E3
:10AA10004FFA83FA002BEED1FF2384F84530FFF77D
:10AA2000E9FDFFF7DDFD94F844304FFA83FABAF1FF
:10AA3000000F06DC15E00AF1FF33DBB24FFA83FAB0
:10AA40007BB123696BB1484601F0D2F80028F2D0FF
:10AA500001F062F90AF1FF33DBB24FFA83FA002BFF
:10AA6000EFD1FF2384F84430FFF7C4FD00F0F0FE7F
:10AA700000287FF479AF4FF080537B6040BFBFF375
:10AA80004F8FBFF36F8F6FE702A801F001F9F4E673
:10AA9000226CA66B002A3FF475AF4146E06809F0CE
:10AAA00070FC236CE26821685B421A448A42E260CF
:10AAB00005D262681344E360022D7FF467AF002E75
:10AAC00008BF012663E7FFF78BFD94F845506DB290
:10AAD000002D16DD636AA3B104F1240605E0013DF3
:10AAE000EBB25DB26BB1636A5BB1304601F080F8E6
:10AAF0000028F4D0013D01F00FF9EBB25DB2002B5C
:10AB0000F1D1FF2384F84530FFF774FDFFF768FDAE
:10AB100094F844506DB2002D18DD2369B3B104F1EF
:10AB2000100607E000ED00E0013DEBB25DB26BB155
:10AB300023695BB1304601F05BF80028F4D0013D99
:10AB400001F0EAF8EBB25DB2002BF1D1FF2384F8FB
:10AB50004430FFF74FFD00F07BFE002005B0BDE85C
:10AB6000F08F0090FFF746FD009805B0BDE8F08F2C
:10AB70004146E5B9A06809F004FCA368216C62684D
:10AB80000B449342A360FFF401AF2368A360013636
:10AB9000FDE66068013601F0EFF8A663636A656060
:10ABA000002B7FF4F7AE00287FF4F9AE00E7E068F1
:10ABB00009F0E7FB236CE26821685B421A448A4291
:10ABC000E260BFF479AF74E72DE9F041044682B04A
:10ABD00017468E46EFF31186402282F31188806B70
:10ABE000E26B904221D3022B05D0002086F311881E
:10ABF00002B0BDE8F08194F84550226CD4F838805A
:10AC00006DB252BB2368002B4ED008F101086B1CBB
:10AC1000C4F838803AD001356DB284F8455001202F
:10AC200086F3118802B0BDE8F08194F84550226C9B
:10AC3000D4F838806DB2002AE4D073B9A06809F066
:10AC4000A0FBA368216C62680B449342A360DCD331
:10AC50002368A36008F10108D9E77146E068019311
:10AC600009F08FFB206CE2682168019B404202449E
:10AC70008A42E26002D262681044E060022BC4D1D2
:10AC8000B8F1000F08BF4FF00108C0E7636A002B5E
:10AC9000C5D004F1240000F0ABFF0028BFD0002F86
:10ACA000BDD001203860A1E76068019301F064F82D
:10ACB000019B636008F10108A9E700BF2DE9F04797
:10ACC000044684B08A460192FFF78AFCA36BA44E27
:10ACD00000273D46002B40F0EC80019B002B00F04C
:10ACE0005F81002F00F0FF80FFF784FC00F000FD83
:10ACF000FFF776FC94F84430FF2B08BF84F84450EB
:10AD000094F84530FF2B08BF84F84550FFF772FCDC
:10AD100001A902A800F0C8FF002868D1FFF760FC75
:10AD2000A36B002B40F0E38004F12409FFF762FCE1
:10AD30004846019900F0C0FEFFF752FC94F84530F8
:10AD40004FFA83F8B8F1000F06DC15E008F1FF3385
:10AD5000DBB24FFA83F87BB1636A6BB1484600F00F
:10AD600047FF0028F2D000F0D7FF08F1FF33DBB235
:10AD70004FFA83F8002BEFD1FF2384F84530FFF71B
:10AD800039FCFFF72DFC94F844304FFA83F8B8F102
:10AD9000000F1ADD2369C3B104F1100907E008F1BF
:10ADA000FF33DBB24FFA83F87BB123696BB14846BE
:10ADB00000F01EFF0028F2D000F0AEFF08F1FF33D4
:10ADC000DBB24FFA83F8002BEFD1FF2384F8443035
:10ADD000FFF710FC00F03CFD002863D14FF08053DA
:10ADE000736040BFBFF34F8FBFF36F8F5AE0FFF721
:10ADF000F7FB94F845304FFA83F8B8F1000F1ADDED
:10AE0000636AC3B104F1240907E008F1FF33DBB240
:10AE10004FFA83F87BB1636A6BB1484600F0E8FEF5
:10AE20000028F2D000F078FF08F1FF33DBB24FFAD0
:10AE300083F8002BEFD1FF2384F84530FFF7DAFBCE
:10AE4000FFF7CEFB94F844304FFA83F8B8F1000FC7
:10AE50001ADD2369C3B104F1100907E008F1FF33DB
:10AE6000DBB24FFA83F87BB123696BB1484600F03F
:10AE7000BFFE0028F2D000F04FFF08F1FF33DBB235
:10AE80004FFA83F8002BEFD1FF2384F84430FFF70B
:10AE9000B1FB00F0DDFCFFF7A3FBA36B002B7FD021
:10AEA000FFF7A8FBFFF79CFBA36B0127002B3FF4E8
:10AEB00014AF226C62B1E168606800931144814272
:10AEC000E16024BF2168E160504609F05AFA009B16
:10AED000013BA3632369002B68D1FFF78BFB0120A3
:10AEE00004B0BDE8F08702A800F0D2FEFCE6FFF750
:10AEF00081FBFFF775FB94F845304FFA83F8B8F102
:10AF0000000F1ADD636AC3B104F1240907E008F1F8
:10AF1000FF33DBB24FFA83F87BB1636A6BB148460B
:10AF200000F066FE0028F2D000F0F6FE08F1FF33D4
:10AF3000DBB24FFA83F8002BEFD1FF2384F84530C2
:10AF4000FFF758FBFFF74CFB94F844304FFA83F8B7
:10AF5000B8F1000F1CDD2369D3B104F1100909E039
:10AF600000ED00E008F1FF33DBB24FFA83F87BB16C
:10AF700023696BB1484600F03BFE0028F2D000F098
:10AF8000CBFE08F1FF33DBB24FFA83F8002BEFD191
:10AF9000FF2384F84430FFF72DFB00F059FC81E7D4
:10AFA000FFF728FB002004B0BDE8F08704F1100093
:10AFB00000F01EFE002890D0044B4FF080525A60E3
:10AFC00040BFBFF34F8FBFF36F8F86E700ED00E008
:10AFD000074B1A681AB19A6802B17047012210B47F
:10AFE00003EBC20443F8321060605DF8044BF4E7F1
:10AFF0009079002070B505460C461646FFF7F0FA2A
:10B0000095F84430FF2B04BF002385F8443095F8B1
:10B010004530FF2B04BF002385F84530FFF7EAFADF
:10B02000AB6B2BB93246214605F1240000F08CFDB4
:10B03000FFF7D6FA95F8454064B2002C16DD6B6A2E
:10B04000A3B105F1240605E0013CE3B25CB26BB1AB
:10B050006B6A5BB1304600F0CBFD0028F4D0013CB8
:10B0600000F05AFEE3B25CB2002BF1D1FF2385F869
:10B070004530FFF7BFFAFFF7B3FA95F8444064B2E2
:10B08000002C16DD2B69A3B105F1100605E0013C8B
:10B09000E3B25CB26BB12B695BB1304600F0A8FD46
:10B0A0000028F4D0013C00F037FEE3B25CB2002B84
:10B0B000F1D1FF2385F84430BDE87040FFF79ABA1C
:10B0C0002DE9F84F950007462846894698460B9E7D
:10B0D000FFF77CF9002800F0938082464820FFF7B4
:10B0E00075F90446002800F09780C0F830A02A4681
:10B0F0005046A52109F06AF999F80020236B84F8DD
:10B100003420043D99F800201D4425F0070A52B16F
:10B1100099F8013084F8353099F801301BB199F86D
:10B12000023084F836300A9D022D28BF02254FF0E8
:10B13000000B04F10409E562A563484684F837B0C2
:10B14000C4F83CB0FFF77CF9C5F1030504F1180021
:10B15000FFF776F9C4F840B0A561246184F844B0E3
:10B160006462424639465046FFF7FEF9206006B158
:10B170003460FFF735FA3D4A3D4F136801331360E1
:10B180003B68002B40D0DFF81C81D8F800306BB34F
:10B19000E36A384ADFF810E11668DEF800C0364886
:10B1A00001252E44166005FA03F203EB830342EAFD
:10B1B0000C0200EB83004946CEF80020FFF744F96B
:10B1C000FFF718FAD8F80030BBB13A68E36AD26AE0
:10B1D0009A4212D2294B4FF080525A6040BFBFF3BF
:10B1E0004F8FBFF36F8F2846BDE8F88F3A68E36A48
:10B1F000D26A9A4298BF3C60CBE72846BDE8F88FF8
:10B200004FF0FF30BDE8F88F3C601368012B0AD087
:10B21000E36ADFF89080BCE75046FFF703F94FF090
:10B22000FF30BDE8F88F1448154E164DDFF87480D6
:10B23000FFF7FAF81448FFF7F7F81448FFF7F4F8A7
:10B240003046FFF7F1F82846FFF7EEF81048FFF711
:10B25000EBF81048FFF7E8F80F48FFF7E5F80F4B59
:10B260000F4A1E60E36A156093E700BFF871002083
:10B27000B071002008720020BC71002000ED00E0D9
:10B280001072002024720020D0710020E471002090
:10B2900044720020707200205C720020B4710020A3
:10B2A000B8710020587200200C72002070B504465E
:10B2B0003E4EFFF795F9002C5DD0251D2846FFF77F
:10B2C000E9F830B9E26A3A4902EB82039B00CB58B5
:10B2D000CBB1A36A1BB104F11800FFF7DBF82946D4
:10B2E0003448354DFFF7B0F894F84430012B04BFD3
:10B2F000002384F84430FFF77DF92B6863B9336885
:10B300009C4218D070BD2D480121036801FA02F259
:10B3100023EA02020260DCE7FFF762F9284B1A68B1
:10B320001268BAB9274B4FF0FF321A60FFF762F983
:10B3300033689C42E6D12B689BB91E49224A0968B2
:10B340001268914230D0214B1B68B3B1204B0122CF
:10B350001A6070BD1A681B4BD268D26852681A60B6
:10B36000E4E71C4B4FF080525A6040BFBFF34F8F51
:10B37000BFF36F8F70BD34689FE715490F4A0B60AC
:10B3800013680B4AB3FA83F3C3F11F0303EB830380
:10B390009B00D018083341684968416013449942C2
:10B3A00004BF49684160CB68336070BDB071002054
:10B3B000BC7100205C720020587200200C720020CA
:10B3C000B47100203C720020F8710020047200204B
:10B3D0008872002000ED00E000283DD0F8B51F4D38
:10B3E0002B68984237D00446FFF7FAF81C4B626985
:10B3F0009A4203D0BDE8F840FFF7FCB8A36A194AA7
:10B400009342F7D0002BF5D1271D174E3846FFF792
:10B4100041F8E26AD6F800E014480123934002EBB9
:10B42000820243EA0E0300EB820039463360FFF7E5
:10B430000BF82B68E26ADB6A9A42DBD30C4B4FF0C5
:10B4400080525A6040BFBFF34F8FBFF36F8FBDE88C
:10B45000F840FFF7CFB8F8BD704700BFB0710020CB
:10B460005C720020447200200C720020BC7100202D
:10B4700000ED00E02DE9F041EFF31186402383F366
:10B4800011881F4B42699A4205D0002586F3118826
:10B490002846BDE8F081856A1A4A9542F5D0002D0C
:10B4A000F3D1194B1B68044603BB184BC56A1B68D4
:10B4B000174FDB6A00F104089D42404634BF002567
:10B4C0000125FEF7E7FFE26A12483C68012393403A
:10B4D00002EB82022343414600EB82003B60FEF711
:10B4E000B3FF86F311882846BDE8F08100F118010A
:10B4F0001046FEF7A9FF86F311882846BDE8F081C3
:10B500005C7200204472002004720020B0710020A0
:10B510000C720020BC7100202DE9F843F020FEF7EA
:10B5200055FF002800F0848005464820FEF74EFFB6
:10B530000446002800F08C800563F0222846A521EF
:10B5400008F044FF206B564E0025492144224C232D
:10B5500004F1040884F8341084F8352084F8363077
:10B5600000F1EC0784F837504046E562A563E563D7
:10B57000FEF766FF04F11800FEF762FF27F00707E9
:10B5800003232A462564A361464984F8445038467B
:10B5900024616462FEF7E8FF434B20601C60FFF704
:10B5A0001FF8424A1368013313603368002B48D0F8
:10B5B0003F4F3B68002B3DD0E36A3E4ADFF828E16D
:10B5C0001568DEF800C03C480135156001229A403C
:10B5D00003EB830342EA0C0200EB83004146CEF802
:10B5E0000020FEF731FFFFF705F83B686BB13268CA
:10B5F000E36AD26A9A4208D2304B4FF080525A60C6
:10B6000040BFBFF34F8FBFF36F8F00F0F7FB0128F0
:10B610000ED1402383F31188294B2A494FF0FF3480
:10B6200000220C6038601A60BDE8F843FEF7B2BF34
:10B63000BDE8F8833268E36AD26A9A4298BF346000
:10B64000BBE734601368012B07D0E36A184FB4E7F7
:10B650002846BDE8F843FEF7E5BE1748DFF88C90B2
:10B66000194D134FFEF7E0FE1848FEF7DDFE1848AF
:10B67000FEF7DAFE4846FEF7D7FE2846FEF7D4FE70
:10B680001448FEF7D1FE1448FEF7CEFE1348FEF72D
:10B69000CBFE134B134AC3F80090E36A15608CE7A6
:10B6A000B07100206DB9020038720020F8710020DE
:10B6B0005872002008720020BC71002000ED00E0EC
:10B6C000847200203C72002024720020D07100207F
:10B6D000E471002044720020707200205C7200202F
:10B6E000B4710020B87100200C720020107200208C
:10B6F000024A136801331360704700BF04720020D0
:10B70000014B1868704700BF84720020014B186815
:10B71000704700BF84720020024A1368184410600A
:10B72000704700BF847200202DE9F04F3D4B1B682D
:10B7300083B0002B43D13C4B1F6801371F60002FA3
:10B740004BD03A4B01931B689F425DD3384EDFF8D4
:10B75000F480DFF8F4A0DFF8F490002526E03368E9
:10B76000DB68DC68636804F1040B9F42584656D3DB
:10B77000FEF790FEA36A04F118000BB1FEF78AFEF3
:10B78000E06AD8F800200123834000EB80001343D7
:10B7900059460AEB8000C8F80030FEF755FED9F88C
:10B7A0000030E26ADB6A9A4228BF012533681B68D1
:10B7B000002BD4D1019A4FF0FF33136004E01D4AEF
:10B7C00013680133136000251B4B1B68002B18BF47
:10B7D0000125284603B0BDE8F08F154E174B3168A0
:10B7E000174A1868306019601368013313603368B2
:10B7F0001B685BB90D4B01931A464FF0FF33136082
:10B8000013461B689F42A1D20025DDE73368074A33
:10B81000DB680192DB685B681360134693E7019A6B
:10B820001360D1E704720020847200203C72002073
:10B83000B47100200072002088720020B8710020CE
:10B84000407200200C720020BC710020B0710020FA
:10B850002DE9F84FFEF7C4FE394B1A68013A1A6019
:10B860001B68002B5ED1374A1268002A5AD09A46CC
:10B87000DFF8EC90DFF8ECB0334EDFF8EC80334FBC
:10B8800022E0DBF80C30D3F80CA00AF104040AF132
:10B890001800FEF7FFFD2046FEF7FCFDDAF82C004D
:10B8A000326805FA00F300EB80001343214608EBF1
:10B8B00080003360FEF7C8FD3B68DAF82C20DB6AB5
:10B8C0009A4228BFC9F80050DBF800300125002B50
:10B8D000D7D1BAF1000F07D01D4B1A6812683ABBD6
:10B8E0001C4B4FF0FF321A601B4E346844B10125E7
:10B8F000FFF71AFF08B1C9F80050013CF8D13460D5
:10B90000D9F8003073B1154B4FF080525A6040BFE8
:10B91000BFF34F8FBFF36F8F0124FEF76BFE2046FE
:10B92000BDE8F88F0024FEF765FE2046BDE8F88FDD
:10B930001A68084BD268D26852681A60D4E700BF10
:10B9400004720020F87100200C720020B0710020F9
:10B95000B47100203C7200200072002000ED00E075
:10B960008872002044720020BC7100202DE9F84F3D
:10B97000314C324E324DDFF8DC90DFF8DC80DFF8FE
:10B98000DCB04FF0805A14E0FEF72AFEF368DF685F
:10B99000381DFEF77FFD2B68013B2B602368013BC0
:10B9A0002360FEF727FE386BFEF73CFD3846FEF7B6
:10B9B00039FD2368002BE7D1224B1B68012B06D9E8
:10B9C000CBF804A040BFBFF34F8FBFF36F8F02F0DF
:10B9D00059FED9F80020D8F80030DB6A002BE8D1F6
:10B9E000184B1B68012BE4D8012AE2D8164B174AE2
:10B9F0001B6812689B1A012BDBD9154B144A1B6874
:10BA000001331360D9F80020D8F80030DB6A1BB985
:10BA10000C4B1B68012B02D9FFF71AFFC9E7012A5B
:10BA2000FAD8094B1868094B1B68C01A0128F3D9CA
:10BA3000FEF74EFEF0E700BFFC71002070720020A0
:10BA4000F8710020BC7100203C720020847200203C
:10BA5000047200200C720020B071002000ED00E0A4
:10BA6000104B1B68CBB91049104A0B601368104A81
:10BA7000B3FA83F3C3F11F0303EB83039B00D018D6
:10BA800008334168496841601344994204BF4968DA
:10BA90004160084BCA681A607047034B01221A6064
:10BAA000704700BF04720020887200200C720020D2
:10BAB000BC710020B071002070B51C4D2B680C4685
:10BAC00003F11801FEF7CCFC194B1E6828680430FE
:10BAD000FEF7E0FC40B92B681649D86A0B680122D2
