:020000022000DC
:106000000000012089660200B1660200B36602004A
:10601000B5660200B7660200B96602000000000023
:10602000000000000000000000000000519E02007F
:10603000BD66020000000000719E0200C166020001
:10604000D98D0200C3660200E5990200398E020074
:1060500081990200C366020059940200C3660200DF
:10606000C3660200C3660200C3660200C366020084
:10607000C3660200C3660200C3660200C366020074
:10608000C3660200B1BC0200C3660200C366020020
:10609000C3660200C366020035170300C366020030
:1060A000C3660200C3660200C3660200C366020044
:1060B000C3660200C366020000000000000000008A
:1060C000C3660200C3660200C3660200C366020024
:1060D000C3660200C3660200C3660200000000003F
:1060E00000000000000000000000000000000000B0
:1060F00000000000000000000000000000000000A0
:10610000000000000000000000000000000000008F
:10611000000000000000000000000000000000007F
:10612000000000000000000000000000000000006F
:10613000000000000000000000000000000000005F
:10614000000000000000000000000000000000004F
:10615000000000000000000000000000000000003F
:10616000000000000000000000000000000000002F
:10617000000000000000000000000000000000001F
:10618000000000000000000000000000000000000F
:1061900000000000000000000000000000000000FF
:1061A00000000000000000000000000000000000EF
:1061B00000000000000000000000000000000000DF
:1061C00000000000000000000000000000000000CF
:1061D00000000000000000000000000000000000BF
:1061E00000000000000000000000000000000000AF
:1061F000000000000000000000000000000000009F
:1062000010B5054C237833B9044B13B10448AFF3F0
:1062100000800123237010BDC83200200000000060
:1062200078B803000C4B43B10C480D4910B5AFF3DF
:1062300000800C48036823B910BD0A48036833B9CD
:106240007047094B002BF7D0BDE810401847064BAC
:10625000002BF5D0184700BF0000000078B80300FD
:10626000CC3200206032002000000000154B002BD3
:1062700008BF134B9D46A3F5803A00218B460F467D
:106280001348144A121A10F0EBFE0F4B002B00D0EB
:1062900098470E4B002B00D09847002000210400A7
:1062A0000D000D48002802D00C48AFF3008010F01C
:1062B00069FE2000290001F091FD10F04FFE00BFA3
:1062C00000000800000001200000000000000000A5
:1062D000C8320020C8AA0020000000000000000012
:1062E000F0B4B94B1A78062A1BD0B84B1B68062BA2
:1062F00000F08580B64AD2F8883043F47003C2F8C3
:106300008830BFF34F8FBFF36F8F4FF01023D3F858
:106310000C32D80700F18881AE4BAF4A1A60F0BC4E
:10632000704704331B681C07DFD1AC4B1B6803F0BC
:10633000F002302A00F0388103F0E003402B00F037
:106340003381A64B1B6803F0F003302B00F01E8155
:10635000A24B1B6803F0F002302A00F0078103F023
:10636000E003402B00F002819C4B1B6803F0F0031C
:10637000302B00F0EB80994B1B6803F0F002302AC1
:1063800000F0D08003F0E003402B00F0CB80934B73
:106390001B6803F0F003302B00F0B6808F4B1B68B6
:1063A00003F0F003302B00F098808C4B1B6803F057
:1063B000F003502B3FD0894B1B6803F0F002302ACA
:1063C00028D003F0E003402B24D0844B1B6803F05B
:1063D000F002302A03D003F0E003402B85D14FF0C8
:1063E0008043D3F80024D2077FF57FAF6FF001021E
:1063F000C3F80024754B1B68062B7FF47BAF784BEA
:106400001B68062B7FF476AF764A136843F48063EB
:1064100013606FE7744B754A1B6803F04F031360FA
:10642000694B1B78062B7FF460AF714B1B681C0710
:106430007FF45BAFC9E74FF080526E4BD2F8041483
:10644000C3F82015D2F80814C3F82415D2F80C1498
:10645000C3F82815D2F81014C3F82C15D2F8141468
:10646000C3F83015D2F81814C3F83415D2F81C1438
:10647000C3F84015D2F82014C3F84415D2F82414F8
:10648000C3F84815D2F82814C3F84C15D2F82C14C8
:10649000C3F85015D2F83014C3F85415D2F8341498
:1064A000C3F86015D2F83814C3F86415D2F83C1458
:1064B000C3F86815D2F840144348C3F86C15D2F8F5
:1064C00044140278C3F87015062A7FF40EAF484BC7
:1064D0001B681D077FF409AF6DE7474E474C4849DD
:1064E000484B0527012500203F22376025600860C2
:1064F0001A60354B1B78062B7FF4F7AE3C4B1B68BC
:106500001E077FF4F2AE50E72F4B3F4A1B78032162
:10651000062B11607FF4E9AE354B1B681F077FF433
:10652000E4AE3BE74FF080430022C3F80C21C3F8F0
:106530001021C3F83825244B1B78062B7FF470AF4D
:106540002B4B1B681B077FF4D0AE20E72F491E4A58
:10655000CB68127823F08073062ACB607FF4C5AE37
:10656000234B1B681A077FF4C0AE04E7284B164A7A
:106570001B6812782749C3F34233062A0B60B8D14F
:106580001B4B1B6819077FF4B0AEEDE60E4B224A99
:106590001B7822491160062B7FF4A7AE144B1B68B1
:1065A00018077FF4A2AED3E61D4B074A1B6812788A
:1065B0001C49C3F30423062A0B60BCD10C4B1B6897
:1065C00019073FF4BEAE90E6E00F00F03001001076
:1065D00000ED00E0003000200090D003E80F00F054
:1065E000340100103C17004058020010E40E004037
:1065F000E40F00F000C000401056004088560040F4
:106600001856004014560040A0050040F0ED00E090
:10661000440200103C05004074C007400DF0ADBAC4
:106620002403001040350140144B0122C3F8042517
:10663000D3F80024002AFBD04FF010210F4AD1F8E4
:106640000C3223F00103C1F80C32D2F80034002BD5
:10665000FBD000230949C2F80435D1F80034002BDF
:10666000FBD0BFF34F8F0649064BCA6802F4E062C5
:106670001343CB60BFF34F8F00BFFDE700E0014045
:1066800000ED00E00400FA050649074A074B9B1A93
:1066900003DD043BC858D050FBDCFFF721FEFFF7B9
:1066A000E5FD0000B4B9030000300020C83200202E
:1066B000FEE7FEE7FEE7FEE7FEE7FEE7FEE7FEE7B2
:1066C000FEE7FEE7F0B5334D85B005F583600AF0CF
:1066D000D9F905F214400AF0D5F96A68AF6802EA00
:1066E0000701CB1C05EB8303541C187810F0030F33
:1066F00000F003060ED010F0040016D0012E37D0A3
:10670000022E02F10200ECD15A8800EB921202EA4A
:106710000701E6E74007F1D459881A8804EB911481
:1067200004EB921202EA0701DBE705EB8101531C3F
:10673000C96801913B4005EB830301F00301DB686D
:106740000293012902F102041CD0022918D1BDF8DC
:106750000630BDF80A60C3F38913033304EB9304D6
:106760000D480AF09DF900B16C60304605B0F0BDEF
:106770001B880232C3F383131A4402EA0701B0E70D
:106780000646EDE7BDF80430BDF80A60C3F3831395
:106790001C44E5E7B4330020C83700200F4B1048F5
:1067A00010B50022FF240121C3F818249C6083F84F
:1067B00020141A605A60C3F8142400F019FF58B965
:1067C000084A094BD21AD20806D00849034621F8D4
:1067D000233001339A42FAD110BD00BFB4330020F8
:1067E0006CB903006CB90300D4B803006432002014
:1067F00021B9124A02EBC0000068704730B410495A
:106800000E4D491BC9080ED00E4B5A88824218BF44
:10681000002205D10FE0DC88844203F1040305D097
:1068200001329142F7D1002030BC704705EBC20025
:10683000006830BC70472846FAE700BFD4B80300B0
:106840006CB9030064320020094B013903EBC0002E
:1068500003290BD8DFE801F0020806040220704784
:1068600040797047007970470420704700207047D6
:10687000D4B803002DE9F047904C94E80C009A42FC
:1068800084B061D00023C4F81834BFF34F8F63681D
:10689000A56827680EE011F0040623D001F003017B
:1068A00001294BD0022903D15288023303EB921302
:1068B0009F4212D903EA0500C21C04EB8202117840
:1068C0008E07E8D14807E9D451881288013303EBD9
:1068D000911303EB92139F42ECD80020676004B041
:1068E000BDE8F08704EB80005A1CC16801912A4082
:1068F00004EB820201F00301D2680292022903F143
:10690000020825D0012977D0D4F8105435B12B686E
:1069100028469B6898476D68002DF8D1684B6949F7
:106920001888000440F0020000F0D2F86068236884
:10693000C01A18BF012004B0BDE8F08712880233E6
:10694000C2F383121344B3E7002004B0BDE8F0871C
:10695000BDF806305C48C3F38919B9F1500FCA4637
:10696000A8BF4FF0500A6AF38F130AF10801ADF87F
:10697000063000F03FFE07460028C5D000F082FE3A
:10698000334625EA08060136082201A93846B60032
:1069900000F09EFEB24540F28480002E6CD152463B
:1069A00008234A49384600F093FE09F1030608EB34
:1069B0009606D4F81834002B5AD1D4F810544DB19F
:1069C0006B7A3946284613B12B681B6898476D6867
:1069D000002DF5D1384600F059FE04A8002300F838
:1069E0000D3D09F04BFED4F8183403B966609DF8EC
:1069F000030009F069FE99E7BDF804303248C3F39B
:106A00008312062A28BF0622911C62F3891389008B
:106A1000ADF8043000F0EEFD074600283FF474AFF7
:106A200000F030FE3346082201A9384600F050FE3F
:106A3000BDF8043013F4707F3ED0B2464FF0080921
:106A400005EA080103314B4604EB81010422384674
:106A500000F03EFEBDF804300AF1010AC3F38313CF
:106A600008F10106534509F10409B046E8D8A0E74A
:106A7000384600F00BFE59E705EA08010331AAEB9E
:106A8000060504EB810132463846EDB2082300F0DA
:106A90001FFE2A4606F108030C49384600F018FE8E
:106AA00083E705EA0801033104EB8101524608231C
:106AB000384600F00DFE78E746467AE7B43300200A
:106AC00080320020AC9E03006CB90300C03300206C
:106AD0002DE9F04383B002AB002203F8012DDFF86B
:106AE000E090074618468846D9F8085009F0C6FDD8
:106AF000D9F80820D9F80430D9F8006013440133DC
:106B00009B1B012B57D809F21C440121204609F098
:106B10008FFFFFF7D7FD0146204609F089FF99E86E
:106B20000A00D9F80820134401335B1A012BECD971
:106B300001240A40033244F004036FF38913023145
:106B40009DF8070049F82230C9F8001009F0BCFD93
:106B500000211A4809F028FF80F3100033192B4058
:106B600009EB830300043540033540EA1740D86041
:106B700019F8253067F3C50309F8253039F82530B1
:106B80006FF3891329F8253059F8252068F39F22DF
:106B9000134664F301036FF3820349F8252009F8D3
:106BA000253099F820341BB1FFF764FE0028FBD193
:106BB00003B0BDE8F0833146BAE700BFD03700200C
:106BC000B43300202DE9F04F85B004AC002304F865
:106BD000013DDFF82CB101918246204602F1030805
:106BE0009146DBF8085009F049FDDBF80810DBF8A6
:106BF0000420DBF800700A444FEA98080132D21BE7
:106C000008F10206964275D90BF21C440121204678
:106C100009F00EFFFFF756FD0146204609F008FF78
:106C20009BE80500DBF808100A440132121A96426C
:106C3000ECD8014003310622064468F39F529DF8C8
:106C40000F004BF82120CBF8006009F03DFDDBF888
:106C50000840B81C28400134241AA4000330A14580
:106C60000BEB800038D801994A4610F0EEF900216C
:106C7000214809F099FE80F310007A1C2A400BEBA2
:106C8000820200043D40033540EA1A40D0601BF800
:106C900025206AF3C5020BF825203BF825206FF369
:106CA0008F122BF825200BEB85020220518869F307
:106CB0008F1151801BF8252060F301026FF38202CF
:106CC0000BF825209BF820341BB1FFF7D3FD0028DB
:106CD000FBD105B0BDE8F08F019E2246314610F091
:106CE000B4F9334623441946A9EB0402034810F0D3
:106CF000ACF9BCE738469CE7D0370020C033002011
:106D0000B43300202DE9F04782B002AB002403F831
:106D1000014D374C8046184692468946A56809F0D1
:106D2000ADFCA2686368276813440133DB1B022BA8
:106D30005BD804F21C460121304609F079FEFFF7CA
:106D4000C1FC0146304609F073FE94E80A00A268CF
:106D5000134401335B1A022BEDD901260A4003329A
:106D600046F0040366F3891344F8223003319DF89A
:106D70000700216009F0A8FCBB1C2B4004EB830337
:106D800000211C48C3F80CA009F00EFE80F310008F
:106D9000BB192B4004EB830300043D40033540EA5C
:106DA0001840D86014F8253068F3C50304F825307E
:106DB00034F8253066F3891324F8253054F825205B
:106DC00069F39F22134666F301036FF3820344F8CD
:106DD000252004F8253094F820341BB1FFF74AFD34
:106DE0000028FBD102B0BDE8F0873946B5E700BF07
:106DF000B4330020D03700202DE9F04F85B004AD2A
:106E0000002405F8014D3C4C0193804628469346EA
:106E10008946A66809F032FCA268636827681344B3
:106E20000133DB1B032B65D804F21C4501212846E6
:106E300009F0FEFDFFF746FC0146284609F0F8FD83
:106E400094E80A00A268134401335B1A032BEDD9BE
:106E500001250A4003324FF0020A45F004036AF3A9
:106E6000891344F8223004319DF80F00216009F0A5
:106E70002BFC07EB0A0EFA1C0EEA060E324004EB5E
:106E8000820204EB8E0E019B1C48CEF80CB0002150
:106E9000D36009F089FD80F310007A19324004EBC9
:106EA000820200043E40033640EA1840D06014F8E5
:106EB000262068F3C50204F8262034F826206AF359
:106EC000891224F8262054F8262069F39F221346BD
:106ED00065F301036FF3820344F8262004F826309B
:106EE00094F820341BB1FFF7C5FC0028FBD105B096
:106EF000BDE8F08F3946ABE7B4330020D03700202F
:106F00002DE9F04F85B004AD002405F8014D404C4B
:106F10000193804628468946A668934609F0AEFB51
:106F2000A168636827680B440133DB1B042B6CD812
:106F300004F21C450121284609F07AFDFFF7C2FB47
:106F40000146284609F074FD94E80C00A1680B4442
:106F500001339B1A042BEDD9012511404FF0030A90
:106F6000033145F004036AF3891344F821300532F4
:106F70009DF80F00226009F0A7FBB81C07EB0A0E72
:106F800030400EEA060E3A1D324004EB800004EB5E
:106F90008E0E04EB8202019BC0F80CB00021CEF8EB
:106FA0000C301C480E9BD36009F0FEFC80F31000EF
:106FB0007A19324004EB820200043E40564440EA13
:106FC0001840D06014F8262068F3C50204F8262083
:106FD00034F826206AF3891224F8262054F8262053
:106FE00069F39F22134665F301036FF3820344F8AC
:106FF000262004F8263094F820341BB1FFF73AFC21
:107000000028FBD105B0BDE8F08F3A46A4E700BFE9
:10701000B4330020D03700202DE9F04F89B008ADFF
:10702000002405F8154D04934B4C129F0597994683
:10703000139B06938046149B03922846924607931F
:10704000A6688B4609F01AFBA26863682768134498
:107050000133DB1B062B7CD804F21C45012128469A
:1070600009F0E6FCFFF72EFB0146284609F0E0FC9C
:1070700094E80A00A268134401335B1A062BEDD989
:107080000A400125D31C45F0040E052262F3891E37
:1070900044F823E007319DF80B000192216009F0CC
:1070A00013FBB91CF81C07F1040C314030400CEA0A
:1070B000060C07F1050E0EEA060E04EB810104EB47
:1070C000800004EB8C0CBB1D129AC1F80CA033405D
:1070D00004EB8E0EC0F80C9004EB8303CCF80C206C
:1070E000139ACEF80C200021149A1C48DA6009F09B
:1070F0005BFC80F310007B19334004EB8303000436
:107100003E40033640EA1840D86014F82630019A11
:1071100068F3C50304F8263034F8263062F3891387
:1071200024F8263054F826206BF39F22134665F38B
:1071300001036FF3820344F8262004F8263094F804
:1071400020341BB1FFF796FB0028FBD109B0BDE846
:10715000F08F394694E700BFB4330020D0370020C9
:1071600030B4144DD5F81044002154B1237A8B4229
:1071700013D0234602E01A7A8A420ED05B68002BB5
:10718000F9D10172D5F810347BB15B684360D5F852
:1071900010345860084630BC704701310A29E4D1E8
:1071A0004FF0FF31084630BC7047C5F8100443600B
:1071B000F0E700BFB433002038B5084BD3F81044D3
:1071C000012583F820543CB12368657220465B6832
:1071D00098476468002CF7D138BD00BFB433002055
:1071E000704700BF00B583B0044B0093044A4023AE
:1071F00000F036F803B05DF804FB00BF0572020032
:10720000DC37002002B32DE9F843114B114E8846BC
:10721000144643F0010903270025224608EB050127
:1072200000200CF01DFF03461D444FF47A40E41A81
:1072300023B9337833B1C847013F06D001233370F7
:10724000002CEAD1BDE8F88370473770BDE8F883B9
:10725000E09E0300D8370020704700BF0CF0C4BF89
:10726000F0B595B0002415460F4608461E4600F0BE
:1072700009FA384623460822089505A91A9D099659
:107280000D950A948DF82C400C9400F04FFA9DF85F
:107290001430079806998DF8114003F00302012A73
:1072A0000290039128D0022A04D0384600F0EEF96B
:1072B00015B0F0BDBDF81650C3F3C2038DF8103001
:1072C000C5F389150826082D2C4628BF0824334607
:1072D00022460EA9384600F029FA2D1B214608AB9C
:1072E00002AA0EA8264400F0C7F8002DEBD13846BC
:1072F00000F0CCF915B0F0BDBDF81460059DC6F3E3
:107300008316C3F3C204B2000EA9384608238DF8D1
:107310001040C5F3952500F009FA08AB00933246FA
:1073200028460EA902AB00F001F8BEE72DE9F047B0
:1073300084B01D460C9C002394F80C802373EB88CA
:1073400081460E461746002B3BD1297A05290FD0DE
:107350006B7A002B3DD1404BA88853F821A0002127
:10736000FFF746FA524603463C49204604F05EFDCC
:10737000062F0FD8DFE807F0484D535A0463390051
:10738000F168B06896E80C000191009049462046EB
:1073900004F04CFD2B7A052B05D06B7A5BB9304994
:1073A000204604F043FD204604F034FD84F80C80B0
:1073B00004B0BDE8F0872B4A2B49204604F036FD87
:1073C000EDE7284A00922949294A204604F02EFD7B
:1073D000BBE7A888FFF738FA264B234953F820204B
:1073E000204604F023FD297AB5E77069316996E8F3
:1073F0000C000390B068F76802918DE8810049465F
:10740000204604F013FDC5E74946204604F00EFD72
:10741000C0E732684946204604F008FDBAE749460D
:1074200096E80C00204604F001FDB3E7B16896E849
:107430000C0020460091494604F0F8FCAAE7B06829
:10744000F768316996E80C0002918DE881004946A1
:10745000204604F0EBFC9DE7649F0300589F030067
:10746000A4A003004C9F0300549F0300349F03001B
:107470002C9F0300F49E0300082900D970472DE9D2
:10748000F04F1D46904600232A7B2B7385B0B8F839
:107490000630039207460E46002B6BD198F8081071
:1074A000052911D098F80930002B6BD13C4BB8F866
:1074B000040053F821400021FFF79AF922460346C1
:1074C0003849284604F0B2FCDFF8F8B0DFF8F8904D
:1074D0000024A642494628463ED93A5D013404F0CC
:1074E000A5FC082CF5D13049DFF8E090DFF8E0B0DA
:1074F000284604F09BFC002411E017F804A00FF0CC
:1075000065FD50445946437813F0970F14BF524617
:107510002E222846013404F089FC082C08D0A6420B
:1075200049462846E9D8013404F080FC082CF6D1FD
:1075300098F80830052B02D098F80930A3B91B49F8
:10754000284604F073FC284604F064FC9DF80C30D7
:107550002B7305B0BDE8F08F01345946284604F07E
:1075600065FC082CB5D1BEE7114A1249284604F043
:107570005DFCE4E70E4A00920F49104A284604F0E9
:1075800055FC8BE7B8F80400FFF75EF90C4B09498E
:1075900053F82020284604F049FC98F8081085E7A5
:1075A000649F0300589F0300249F0300A4A00300CE
:1075B0004C9F0300549F0300349F03002C9F030043
:1075C000F49E0300209F0300189F0300609F0300A8
:1075D000289F030010B5054CFFF740FE204604210C
:1075E000FFF7BEFD0123637210BD00BF0430002011
:1075F00008F0E4BF2DE9F041B0F81480CF1CA8F1E9
:10760000040847440646B7FBF8F708F0F3FF80B3D9
:10761000FFB200250123013F0446A0F80680066062
:107620000571437128D0804609E06379AF4203F1C8
:1076300001036371C8F80000066080461CD0304624
:1076400008F0D8FF01350028EFD16679721E16D0F8
:107650002346013082421B68FBD81F684EB1214689
:1076600000250C680135384608F0ECFFAE42214693
:10767000F7D10020BDE8F0812046BDE8F081276801
:10768000EDE700BF0430012109F0D2B9F8B50121BE
:107690000446043009F0DAF9C0B200B1F8BD6679E9
:1076A000721E12D02346013082421B68FBD81F682D
:1076B000002EF3D0214600240D680134384608F02E
:1076C000C1FFA6422946F7D1F8BD2768F2E700BFFF
:1076D0002DE9F843C68804330F46B3FBF6F5904610
:1076E00006FB1533044615B1013D2468FCD1F51A9B
:1076F000454528BF4546B8F1000F15D04FF00009A9
:107700000433E018A8EB05082A4607EB09010FF03F
:107710009CFC4645A944246835464FF0000328BF29
:107720004546B8F1000FEBD1BDE8F8832DE9F843E9
:10773000C68804330F46B3FBF6F5904606FB1531B9
:10774000044615B1013D2468FCD1751A454528BF92
:107750004546B8F1000F15D04FF00009043121441F
:10776000A8EB05082A4607EB09000FF06EFC46451A
:10777000A944246835464FF0000128BF4546B8F1BA
:10778000000FEBD1BDE8F88320B1CA1DD210002153
:107790000FF066BC704700BF2DE9F04182B058B1D0
:1077A000CF0801F007044FF0010808FA04F4C35DA4
:1077B000E4B214EA030504D00025284602B0BDE86F
:1077C000F081064602A800F8015D08F057FFF35D5E
:1077D0001C4202D11C43F45545469DF8070008F0B1
:1077E00073FF284602B0BDE8F08100BF70B501F01C
:1077F0000703012582B09D40C1F3C70490B1025D2B
:10780000EBB213420ED0064602A8002300F8013D59
:1078100008F034FF335D9DF8070023EA0505355570
:1078200008F052FF02B070BD2DE9F047884682B0E3
:1078300080B379B3074600254FF0010903E0013515
:10784000ADB2A84526D0EE0805F0070409FA04F405
:10785000BB5DE4B2234007EB060AF0D10DF107004F
:107860008DF8073008F00AFFBB5D1C420AD11C43AB
:107870009DF807008AF8004008F026FF284602B06D
:10788000BDE8F08701359DF80700ADB208F01CFF98
:10789000A845D8D14546284602B0BDE8F08700BFCC
:1078A00058B1CB0801F00701C25C012303FA01F1D2
:1078B0000A4214BF1846002070470120704700BFDD
:1078C00033DF70476DDF704776DF70477ADF7047D0
:1078D0007CDF70477FDF70478FDF704790DF704736
:1078E000B0DF7047B1DF704766DF7047024A40F291
:1078F000A3110DF0B5BA00BF00A0030070B5124B84
:107900004A881B889A4204460BD0104D2888238849
:1079100062880F49000440F00400BDE87040FFF7A2
:107920006BBA0A88094D40F677239A42EED18B88CC
:1079300028880849033B9BB200041A4640F0030024
:10794000FFF75AFAE2E700BF14300020803200202F
:1079500034A0030018A0030008B5032105480CF06B
:10796000A1F900B908BD044AEB21BDE808400DF0BB
:1079700077BA00BF9C38002000A0030010B5038830
:10798000013B84B00446552B45D8DFE803F0524450
:10799000444444444444444444444444445E73445E
:1079A00089444444444444444444444444449844FE
:1079B000B14444444444444444444444444444441A
:1079C0004444444444444444C344444444444444F8
:1079D00044444444444444444444444444442BD0F4
:1079E000444444468379B3B1827B043A022A12D8D4
:1079F000022B18BF01238DF8003080884FF4C1732B
:107A00006946ADF80430FFF76BFF20B1504A4FF4E0
:107A100015710DF025FA04B010BD80881321FFF711
:107A200053FF0028F7D04A4A4FF40D710DF018FAB1
:107A3000F1E780880021FFF757FF0028EBD0444A88
:107A400040F239210DF00CFAE5E7424B4249188823
:107A5000000440F00300FFF73BF8072009F046F967
:107A600020B13B4A4FF4FC710DF0FAF93B4BA28870
:107A70001A80D0E7374B3A491888000440F00300D9
:107A8000FFF726F8002009F031F920B1304A40F222
:107A9000FF110DF0E5F9314B4FF6FF721A80BAE78E
:107AA0002E4A0023108885211A46FFF713FF00286D
:107AB000B1D0274A40F215210DF0D2F9ABE7254BA2
:107AC00028491888000440F00400FFF701F800235B
:107AD000A0888DF8003069468DF80130FFF7FCFE74
:107AE000002898D01A4A40F20D210DF0B9F992E71A
:107AF0000822002168460FF0B3FA6946A0880022E8
:107B0000FFF7ECFE002886D0114A40F21F210DF04D
:107B1000A7F980E780881321FFF7D6FE00283FF4FD
:107B20007AAF0B4A40F22D210DF09AF973E70B4A18
:107B30000023108819461A46FFF7D4FE00283FF4A8
:107B40006AAF034A40F226210DF08AF963E700BFCD
:107B500000A0030080320020D09F030014300020DA
:107B6000DC9F0300EC9F030030B5037885B004462A
:107B70000D2B0FD8DFE803F0180E220E340E3D0750
:107B80000E480E51105A806820B12D4A40F23F3104
:107B90000DF066F905B030BD04A8002300F8043DDF
:107BA000FFF7DAFE05B030BD264B274918880004E0
:107BB00040F00300FEF78CFF05B030BD214B40883C
:107BC0001D880CF095F92D04227A63881F490092D4
:107BD00045F0030502462846FFF792F905B030BD8F
:107BE00004A9002301F8043D408807F023FE05B0F6
:107BF00030BD0BF0DDFC30F00803CBD0104A40F272
:107C00001B310DF02DF9C5E700690028C2D00C4AE0
:107C100040F22A310DF024F9BCE780680028B9D081
:107C2000074A40F231310DF01BF9B3E780680028B4
:107C3000B0D0034A4FF44E710DF012F9AAE700BF1D
:107C400000A0030080320020D8A0030004A103009C
:107C500008B5037803B108BD064B3B211888FFF730
:107C600033FE0028F7D0044A4FF4CC71BDE8084039
:107C70000DF0F6B81430002000A00300F8B5057828
:107C800005B1F8BD1C4E1D491D4F04463088000447
:107C900040F00400FEF71CFF3088A28A216900042E
:107CA00040F00400FEF78EFF8022294615480FF0B1
:107CB000D7F9A28A216913480FF0C7F93088114A11
:107CC0001149000440F00400FFF71CF80F4B3D6021
:107CD00018682A462B46294602F0A0FF3B68012B74
:107CE000CFD10B4B4FF080525A6040BFBFF34F8F44
:107CF000BFF36F8FF8BD00BF80320020B0A003003B
:107D0000703900201C380020CCA003006C39002002
:107D100000ED00E008B530B1032803D1022008F0DF
:107D2000E5FF88B908BD08F0E1FFD0B90AF068FBAB
:107D300088B9FFF7C5FD0028F4D00D4A40F2CD11F7
:107D4000BDE808400DF08CB8094A40F2DF11BDE8EB
:107D500008400DF085B8064A40F2C9110DF080F8D0
:107D6000E7E7034A40F2C5110DF07AF8DEE700BFFD
:107D700000A00300FEE700BF08B50C490C4809F05D
:107D800051FA60B9F7210A4809F064FA00B908BD50
:107D9000084A40F29521BDE808400DF061B8054A57
:107DA00040F292210DF05CF8ECE700BFFD78020094
:107DB0005439002000A0030008B54FF40041002012
:107DC000FEF7ECFC20B1044A40F2E1210DF048F846
:107DD000BDE80840FFF7FEBB00A00300F0B5B3B05C
:107DE000FFF7EAFF01F0B8FEB14A13694FF0804196
:107DF00043F0040301201361C1F8780509F0F0FC99
:107E0000002840F0FE8032AC002344F8AC3D012055
:107E1000214609F075FE002840F04381204609F014
:107E200043FF002840F0378109F0A2FB002840F012
:107E30002D819DF80830012262F3030362F30713DA
:107E400003A88DF80830FFF73DFD002840F01881A9
:107E50009DF80D109DF80E209DF80F3001910092B5
:107E60009449954A20460FF02BFE20460FF054FE11
:107E7000214682B202A8FFF72BFD002840F0FA80CD
:107E800005A8082200210FF0EBF88C4B059305A8FC
:107E90004FF0C8730693FFF719FD002840F0E48007
:107EA000FFF76AFF0021042220460FF0D9F8844B27
:107EB0008448079321460AF057F9002840F0CE8005
:107EC000AC22002120460FF0CBF802210022012332
:107ED0004FF0060E7C4F7D4D8DF81C104FF4487608
:107EE0007B488DF81E2021462A928DF81FE0ADF8C0
:107EF00068308DF898301B97299630950BF05AFE14
:107F0000002840F0A580012171480BF04FFE1C2293
:107F1000002120460FF0A4F84FF4203700234FF43F
:107F2000702603256B496C4A07932046ADF82A302A
:107F30008DF82C30089709968DF828500C910D92E9
:107F40000AF02AF800287DD107F01CFC002873D124
:107F50000522002120460FF083F89DF81C309DF883
:107F60001F109DF8202043F00103032003F0F103CC
:107F700060F306136FF3C713204641F0030142F08C
:107F80000302072510248DF81C308DF81F108DF882
:107F900020208DF81D508DF81E4007F041FC002870
:107FA00044D14E4807F020FC002839D107F04AFCA4
:107FB0000CF0A8FC00214A484A4C09F0D1FB0322EE
:107FC0000021012002F0F8FD206000B300231A46D2
:107FD000194602F023FE2368CBB1022200238DE86C
:107FE0000C0041494148424C4FF4806201F0ACFF23
:107FF00002F086F9224640F2BA310F200CF030FF31
:10800000F8E73B4A4FF41B710CF02AFFFBE6394BB3
:1080100039491888000440F00300FEF759FDDCE7F9
:10802000334A40F26E310CF01BFFBFE7304A40F29A
:108030006B310CF015FFB4E72D4A4FF456710CF07C
:108040000FFF85E72A4A4FF4DD710CF009FF7BE74B
:10805000274A40F2D6210CF003FF54E7244A4FF49C
:10806000C1710CF0FDFE2BE7214A4FF4A2710CF018
:10807000F7FE15E71E4A4FF49D710CF0F1FEFFE686
:108080001B4A4FF498710CF0EBFEE1E6184AE3212D
:108090000CF0E6FECDE6164A40F277210CF0E0FE49
:1080A000C2E6134A40F272210CF0DAFEB6E600BFD7
:1080B00000ED00E074A0030070A0030010003C007D
:1080C0007D7C02001830002010300020157D020059
:1080D0009C380020517C0200ED780200697B020090
:1080E000597902006C390020A8A00300AD430300B9
:1080F00000A003008032002088A0030030B56E4A43
:10810000D2F8043399058BB05BD5D2F82431002B1B
:1081100057D00023C2F82431D2F8243103934FF40E
:108120000171664B0398C2F8081393F8291009B936
:1081300001215160604902228DF81820D1F8802475
:10814000C1F880249869D9680992002208900791A3
:108150009A6193E81200DA6106A8A047564AD2F85D
:108160001C31C3B1554B186A5969884265D293F8DE
:10817000280000F0FF0400285FD1C2F81C41D2F8AB
:108180001C11029102999C68186A196A205C0131DD
:108190001962C2F81C05484AD2F844317BB100216B
:1081A000464BC2F84411D2F8440193F829100090CC
:1081B000009809B1012111609A69002A52D10BB0CF
:1081C00030BD3D4AD2F804335B07C7D5D2F8083139
:1081D000002BC3D0394B9969002952D00021C2F835
:1081E0000811D2F8081104910499D868596AD2F894
:1081F000182542545A6A996901325A625A6A8A4267
:10820000ACD1DA69002A45D193F8292012B92A4A5B
:1082100001215160284A4FF40171C2F80813596ACC
:10822000DA6808910024012007928DF8180093E87D
:1082300006009C6106A8904790E71F4A0020C2F8FC
:108240001C01D2F81C210192019A0029A3D09A683E
:108250008DF8180008915861079206A893E8060067
:10826000904798E70022586AD9689A6101220890DD
:1082700007918DF8182006A893E8060090470BB0E8
:1082800030BDC2F80811D2F8080105900598D2F85F
:108290001825B3E7DD685C6A18699A61012100223C
:1082A000D860DA615A628DF818100795089493E83F
:1082B000060006A8904751E70020004074390020CE
:1082C0002DE9F041604E05792C2303FB056382B054
:1082D00093F82A301BB1082002B0BDE8F0810F46A8
:1082E00004465A490068904601F082FB18B11120FB
:1082F00002B0BDE8F0813A68511C0BD04FF0A041AC
:1083000001239340C1F808353B6803F5E07303226D
:1083100041F823207B685A1C06D003F5E0734FF028
:10832000A042002142F823102368BA69C3F824252B
:10833000397D7B7D22680B43C2F86C3597E80600D7
:108340002368C3F81425C3F80C153B7D012B51D0CD
:108350002C2303FB05F3F218C2F804803A69F250AB
:10836000B8F1000F35D023683A7F394F0021C3F8A8
:108370001C11D3F81C3100932368DDF800E0C3F82A
:108380004411D3F84411236801910199C3F804738F
:108390002168090B4BB2002B4EDB03F1604303F560
:1083A00061435201D2B283F800232268120B42F3D8
:1083B000C40323F0604323F0030303F1604303F598
:1083C000614302F01F02012101FA02F2C3F8802189
:1083D0001A602C23246803FB056300220425012175
:1083E000C4F8005583F82A109A61DA6183F82920CD
:1083F0005A6171E7BB68591C06D003F5E0734FF072
:10840000A042002142F82310FB685A1C0DD0012223
:108410004FF0A04102FA03F3C1F80835FB6803F5F9
:10842000E073032241F82320FB682268B968C2F890
:108430000835C2F810158BE7064B01F00F01520109
:108440000B44D2B21A76B0E774390020FD800200E6
:1084500080000200FCEC00E0F8B52F4D04790268C2
:108460002C2303FB045300215B68C2F8001583B181
:1084700003682A4AC3F808230368294E1B0B5AB223
:108480005209203203F01F03012101FA03F346F8D9
:10849000223003684FF0FF32D3F80CE5D3F814759F
:1084A000D3F80815D3F81065C3F81425C3F80C25C4
:1084B00003689645C3F80825C3F8102506D00EF5C5
:1084C000E07E4FF0A043022243F82E207B1C06D012
:1084D00007F5E0774FF0A043022243F82720721CF3
:1084E00006D006F5E0764FF0A043022243F826209E
:1084F0004B1C06D001F5E0714FF0A043022243F877
:108500002120006801F09AFA2C2303FB0454002375
:1085100084F82A306360F8BD7439002084020200B8
:1085200000E100E0F0B5304E05792C2303FB056334
:1085300085B05C6914B1112005B0F0BD1C62996072
:1085400083F828405A610268C2F81C41D2F81C1115
:10855000026802910121029F91600268D3F808E04D
:10856000C2F81C41D2F81C1101910199D3F820C026
:10857000196A5F681EF80CC001311962C2F81CC587
:1085800017B1204605B0F0BD1A6A5C6901689442D3
:1085900003D819E093F82820F2B9D1F81C21002A59
:1085A000F8D0C1F81C71D1F81C210392039AD3F8BA
:1085B00020C01A6A1EF80CC001321A62C1F81CC52C
:1085C0001A6AA242E9D30168D1F81C31002BFBD012
:1085D0000123CB60002000E00F202C2303FB056368
:1085E00000225A61A8E700BF743900200379044AC9
:1085F0002C2101FB03235869003018BF012070476C
:1086000074390020F0B4544D04792C2303FB045337
:1086100086B05F6827B103684FF40176C3F808633A
:108620002C2303FB04539E696EB1DE690EB3002F49
:1086300000F08F8003684FF401721120C3F8042307
:1086400006B0F0BC704793F829709A61D9605E62F9
:10865000DE61002F2FD02C2303FB04535A6882B114
:1086600003684FF40172C3F80423002006B0F0BC85
:108670007047DA6119612C2303FB04535A68002AFE
:10868000EED10168C1F84421D1F844210392039A44
:108690000268D2F82461D2F80871D2F84411E7B91F
:1086A000002948D1002EF4D02C2303FB04540023CE
:1086B000A3610320DAE70368C3F82471D3F8242107
:1086C00003680192019AC3F80871D3F8082103687E
:1086D0000292012202991A60BDE7002EE4D161BB2B
:1086E0009E6996B1C2F80811D2F808110491049954
:1086F000DE68596AD2F8182572545A6A99690132AB
:108700005A625A6A9142C3D808E0C2F80861D2F8A6
:10871000081105910599D2F818255B6A2C2303FBF3
:108720000454002294F82930A2616BB1036801213E
:10873000104619609AE7002EB6D12C2303FB04548F
:108740000023A3610F2091E70268012118465160C0
:108750008CE711208AE700BF7439002070B54A4BBE
:10876000D3F8242188B0002A55D1D3F81011F1B9DB
:10877000454BD3F8442152B10020444AC3F8440188
:10878000D3F8444191690194019C002960D13E4B8A
:10879000D3F820214AB100213C4AC3F82011D3F874
:1087A000204150690094009C30BB08B070BDC3F8F4
:1087B0001021D3F810113548039103998169D3F83A
:1087C0003C458C42D4D1C569002D50D0D3F800125D
:1087D000C668856121F02001C3F800120369C261F7
:1087E00001220168C3608DF81840436805968DF832
:1087F000102004A89847BBE7D3F84C0593688DF880
:1088000018008DF810105161059304A892E80A0031
:10881000984708B070BD0021C3F82411D3F8242173
:10882000029202228DF81020029AD3F88004174A8F
:10883000C3F880040790D3F83C05D3688DF818007E
:108840009161D16105931168536804A898478FE737
:10885000D3F83C458DF81840D36890610124059306
:10886000116853688DF8104004A898478FE7C368D3
:1088700001688561012205938DF8184043688DF8E1
:10888000102004A8984773E700200040A03900207A
:108890002DE9F0430479704EE7003B1906EB8303A2
:1088A00085B093F820301BB1082005B0BDE8F083F7
:1088B0008946054669490068904601F099F818B163
:1088C000112005B0BDE8F083D9F80020511C0CD070
:1088D0004FF0A04101239340C1F80835D9F800308A
:1088E00003F5E073032241F82320D9F804305A1C21
:1088F00006D003F5E0734FF0A042002142F82310A8
:108900002B68D9F81820C3F8242599F8141099F881
:1089100015202B680A43C3F86C252A68D9F8003063
:10892000D9F80410C2F80C35C2F8141599F81430AF
:10893000012B61D03A199200B318C3F80480D9F81A
:108940001030B350B8F1000F47D0296899F81C20B7
:10895000DFF810E10023C1F81031D1F810110091B7
:108960002968DDF800C0C1F82031D1F8201101914B
:108970002968DDF804C0C1F82431D1F8241102912E
:108980002968DDF808C0C1F84431D1F844112B68DA
:1089900003910399C3F804E32968090B4BB2002B38
:1089A00051DB03F1604303F561435201D2B283F816
:1089B00000232A68120B42F3C40323F0604323F020
:1089C000030303F1604303F5614302F01F02012139
:1089D00001FA02F2C3F880211A603C442A6806EBCF
:1089E000840400230125082184F82050C2F80015D2
:1089F000A361E361636158E7D9F80830591C06D0D8
:108A000003F5E0734FF0A042002142F82310D9F89B
:108A10000C305A1C0FD001224FF0A04102FA03F390
:108A2000C1F80835D9F80C3003F5E073032241F89A
:108A30002320D9F80C302A68D9F80810C2F8083574
:108A4000C2F8101576E7064B01F00F0152010B44F6
:108A5000D2B21A76ADE700BFA03900205D870200D0
:108A6000FCEC00E010030200F8B506792F4C026818
:108A7000F500AB1904EB830300215B68C2F8001515
:108A800083B103682A4AC3F808230368294F1B0BE4
:108A90005AB25209203203F01F03012101FA03F3F5
:108AA00047F8223003684FF0FF32D3F80CC5D3F8F3
:108AB00014E5D3F80815D3F81075C3F80C25C3F8DE
:108AC000142503689445C3F80825C3F8102506D07B
:108AD0000CF5E07C4FF0A043022243F82C20BEF1BD
:108AE000FF3F06D00EF5E07E4FF0A043022243F890
:108AF0002E207A1C06D007F5E0774FF0A043022223
:108B000043F827204B1C06D001F5E0714FF0A0433D
:108B1000022243F82120354404EB8504006800F06C
:108B20008DFF002384F820306360F8BDA039002059
:108B30001003020000E100E001F06043B3F1005FC8
:108B400001D010207047F0B50579214EEF007C1957
:108B500006EB840483B0636913B1112003B0F0BD48
:108B6000A1606261D0F800E0CEF82031DEF820C1CB
:108B7000D0F800E0CDF804C0DDF804C0CEF85831DC
:108B8000DEF858C1D0F800E0CDF800C0DDF800C034
:108B9000CEF84415CEF8482502680121916062683C
:108BA0000AB11846DAE7036800E079B9D3F8202162
:108BB000D3F85811002AF8D0002914BF0F20002044
:108BC0007B1906EB830300225A61C7E70F20F7E702
:108BD000A03900200379054A03EBC30302EB8303AA
:108BE0005869003018BF0120704700BFA03900202D
:108BF00001F06043B3F1005F01D010207047F0B581
:108C00000479454EE3001D1906EB850583B06D68B8
:108C100025B107684FF4047EC7F808E3234406EB48
:108C200083039C696CB3DC69002C44D11961DA615F
:108C30000368C3F81041D3F8105103680195019DF2
:108C4000C3F84441D3F8444103680094009CC3F83E
:108C50003415C3F838250268D2F8003243F02003F7
:108C6000C2F800320479E5002B1906EB83035B6838
:108C70004BB303684FF40472C3F80423002003B01D
:108C8000F0BD9A61DC61D9600368C3F81041D3F884
:108C9000105103680195019DC3F84441D3F8444144
:108CA00003680094009CC3F83415C3F838250368A2
:108CB00001221A60D6E705B303684FF40472C3F8C3
:108CC00004231120DBE7036801E0C1B9E8B9D3F858
:108CD0001021D3F84411D3F82401002AF5D02C44F4
:108CE00000284FF0000306EB840614BF032018464B
:108CF0009942B36118BF0F20C1E71120BFE72C4490
:108D000006EB84060F20B261B9E72C4406EB84061B
:108D10000320B161B3E700BFA0390020054A1379F1
:108D20000BB18520704701211060537118461171F5
:108D3000704700BFC4390020084B1A68D20706D418
:108D40000122E02183F80013C3F880211A604FF05C
:108D500080430122C3F81825704700BF00E100E0FE
:108D600010B41349134B144A0020086083B00968FB
:108D700001914FF080410220019CC1F80403D868A2
:108D800040F08071D960146844F0010313605168A9
:108D900053685B1AB3F50A5FFAD30649074B1460B0
:108DA0000122C8601A6003B05DF8044B704700BF31
:108DB00004010040F0ED00E0001000E00800004079
:108DC000044B01221A604FF08042D2F81834DB03C2
:108DD000FBD470470C00004010B5144B1A6882B0E9
:108DE00062B10021124A19601B68507900934FF05C
:108DF00080410123009CC1F8083390B10D4B1A68E3
:108E00006AB100221A601B6801934FF08042022170
:108E1000074B0198C2F808131B680120984702B05D
:108E200010BD116853718847E8E700BF000100409A
:108E3000C439002004010040F0B55B4BD3F8242175
:108E40008DB0BAB10022C3F82421D3F824210592B1
:108E5000059AD3F804216AB9544A02219068C3F8EC
:108E6000080391609268C3F8042301221A625A61D0
:108E70000DB0F0BD4C4C4D4DD4F80431002B2FD02B
:108E80000023C4F8043105F10C070FCF07AED4F866
:108E900004E13F68CDF810E00FC695F82E30049A33
:108EA0003760002B36D02B7B012B79D0D4F84C25A2
:108EB0000892022B71D03C4BD3F84C253A4B0992C7
:108EC0000022C3F86021D3F8601102910299C3F81F
:108ED0005C21D3F85C310393039B95F8302028E0A4
:108EE000C4F84831D4F848212B7B0192019A002B19
:108EF0003AD105F10C070FCF07AE0FC695F8302019
:108F00003B683360EAB92A4BC4F80022AA60C4F86F
:108F1000083316E0C4F86031D4F860210292029A56
:108F2000C4F85C31D4F85C3195F830200393039B8E
:108F30003AB91D4B1E480021C3F80012A960C3F8BE
:108F400008031949D1F8C434C1F8C43499071DD5B0
:108F500001238DF818300AB985F82F202B6869682D
:108F600006A898470DB0F0BD4FF4007140F2022200
:108F70000F4BC4F80012AA60C4F80833AB68C4F8F9
:108F800004330123A36023620DB0F0BD13F004038A
:108F900018BF02238DF81830DDE7D4F83C258DE7A3
:108FA000D4F83C35089386E700300040CC390020E7
:108FB00002029C012DE9F84F0779DFF8FC80342488
:108FC00004FB07F408EB040595F82D6016B10820A2
:108FD000BDE8F88F8A4683463549006899461646AB
:108FE00000F006FD10B11120BDE8F88F48F80460CC
:108FF000A860C5F8049085F82F0085F830009AF82D
:109000000D3085F83230DAF800304FF0A04203F529
:10901000E07340F20C6142F82310DAF8043003F5F3
:10902000E07342F82310DBF80030DAF80020DAF8B9
:109030000410C3F80825C3F80C15DAF80820C3F8A3
:10904000242526B3DBF800109AF80C30090B4AB23D
:10905000002A24DB02F1604202F561425B01DBB2CF
:1090600082F80033DBF80020120B42F3C40323F034
:10907000604323F0030303F1604303F5614302F00F
:109080001F02012101FA02F2C3F880211A60342381
:1090900003FB0783012283F82D20BDE8F88F054AE2
:1090A00001F00F015B010A44DBB21376DAE700BF7F
:1090B000398E0200FCEC00E0CC390020F8B50579CF
:1090C000264E342303FB05F30446F358002B42D00D
:1090D000036823481B0B5AB25209203203F01F03C6
:1090E000012101FA03F340F82230227923681D4957
:1090F000342707FB026200209060C3F80813D3F8FE
:1091000000124FF0010E21F4BC51C3F8001282F896
:109110002DE0C3F8000507FB0567206800F08EFC12
:1091200097F8323083B92368D3F808354FF0A0425E
:1091300003F5E073022142F823102368D3F80C35BD
:1091400003F5E07342F82310342303FB0565002385
:1091500085F82D30F8BD2A46C8E700BFCC3900207D
:1091600000E100E002029C01037906490268342014
:1091700000FB03130220062183F82D00C2F800151E
:10918000704700BFCC3900202DE9F04F8DB0154657
:109190009DF85840002C02F060444FF000020CBFD4
:1091A00094464FF0200CB4F1005F089207920992A8
:1091B0000A920B9203D010200DB0BDE8F08F90F80A
:1091C00004B0DFF844A106684FF034081F4608FBDE
:1091D0000BA84B4BC6F8083398F82F3003F0FF0963
:1091E0003BB1D8F80830C6F8043311200DB0BDE803
:1091F000F08F8DF81D1008970A9507AC8E460FCC9E
:1092000001944FF0010488F82F40C6F888E5C6F8AD
:109210000491D6F804E1CDF810E008F10C0EAEE8A8
:109220000F00049BC6F82491D6F824310593019BC6
:10923000059A1B68C6F8509588F83090C6F8409596
:10924000CEF80030C6F84455C6F84875BCF1000F9A
:1092500018D14FF4007240F20223C6F800224FF4F6
:109260008271C8F808303423012203FB0BF3326209
:10927000B2605AF803005344A0B19B68C6F80433A7
:10928000002099E71F4B4FF48072C6F80022C8F8FF
:109290000830C6F84891D6F848310393039B4FF441
:1092A000A471E0E71046314402E0D6F82421D2B997
:1092B0000B68002BF9D0342303FB0BAAD6F8C43477
:1092C000C6F8C43400228AF82F20BBB113F0020F75
:1092D00048F2012048F2022208BF032013F0040FD5
:1092E00018BF104668E7C6F82431D6F82431069333
:1092F000069B30624FF482717061D4E718465BE7D9
:1093000002029C0100020400CC3900202DE9F04F3C
:1093100002F060448BB01646B4F1005F4FF00002DB
:109320000692059207920892099203D010200BB082
:10933000BDE8F08F90F804B0DFF818A107684FF08F
:10934000340808FB0BF89E460AEB0809404BC7F8A7
:10935000083399F82F3003F0FF053BB1D9F80830F6
:10936000C7F8043311200BB0BDE8F08F4FF00103B4
:109370008DF81510CDF818E008968DF8143005AC6E
:109380008C460FCC01944FF0010489F82F40C7F8A8
:1093900088C5C7F80451D7F804C1CDF808C009F151
:1093A0000C0CACE80F00029BC7F82451D7F824310D
:1093B0000393019B03981968C7F8505540F20223A4
:1093C0004FF48052C7F8405589F83050C7F83465DB
:1093D000CCF80010C7F838E5C7F80022C9F8083003
:1093E00001233B623B605AF808302BB1D9F80830B2
:1093F000C7F8043328469AE7012302E0D7F824117E
:10940000D9B9D7F80421002AF8D0342303FB0BAADA
:10941000D7F8C434C7F8C43400228AF82F20ABB17F
:1094200013F0020F48F2012048F2022208BF032085
:1094300013F0040F18BF104679E7C7F82421D7F8B6
:1094400024210492049A3B627B61DAE718466EE7B6
:1094500002029C01CC3900202DE9F04F87B0002397
:10946000CC4A01931168012900F00A821E46CA4BBA
:109470001A68012A00F0F681C84B1A68012A00F028
:10948000E381C74B1A68012A00F0D081C54B1A68E6
:10949000012A00F0BD81C44B1A68012A00F0AA819C
:1094A000C24B1A68012A00F09781C14B1A68012A41
:1094B00000F08481BF4B1A68012A00F05E8116F02B
:1094C000FF0F1AD0BC4F01250024A30003F18043F5
:1094D0002E4203F5C0434FEA45050BD0D3F81005E3
:1094E00057F82420D3F81015C0F30420C1F301412C
:1094F00002B190470134082CE7D1002E02DB07B0FF
:10950000BDE8F08F00224FF0FF33AB4C0292039383
:10951000012502AE94F950104F1C2DD0C9B221F094
:10952000C00006AB4FEAD00E03EB0E0701F00703B5
:1095300017F80C2C05FA03F31A421DD022188909DA
:1095400092F9302054F82220002A00F0F0800329FC
:1095500000F0F0804FEA800E0EF1A04E17F814CC08
:10956000DEF800771CEA0303C7F3014940F0B88036
:10957000B9F1030F00F0D7814FF0030A4FF0020951
:109580004FF00108002794F95110481C2DD0C9B2A2
:1095900021F0C00006AB4FEAD00C03EB0C0E01F03B
:1095A00007031EF80C2C05FA03F31A421DD02218EB
:1095B000890992F9302054F82220002A00F0CA804C
:1095C000032900F0CA804FEA800C0CF1A04C1EF871
:1095D00014BCDCF800E71BEA030FCEF3014E40F0A9
:1095E0009080BEF1030F00F08A8194F952104A1C5A
:1095F0002CD0C9B221F0C00006AB4FEAD00C03EB6F
:109600000C0E01F007031EF80C2C05FA03F31A42A6
:109610001CD02218890992F9302054F82220002AFF
:1096200000F08F80032900F08E804FEA800C0CF14F
:10963000A04C1EF814ACDCF800E71AEA030FCEF3D6
:10964000014E6AD1BEF1030F00F0468194F9531028
:109650004B1C2CD0C9B221F0C00006AB4FEAD00E93
:1096600003EB0E0201F0070312F80CCC05FA03F32A
:109670001CEA030F1BD004EB000C89099CF930C0D5
:1096800054F82C90B9F1000F6ED003296ED04FEA38
:10969000800E0EF1A04E12F814CCDEF800271CEA62
:1096A000030FC2F3014211D1032A00F0F580002F0D
:1096B0003FF425AF4FF0A043019AD3F810359A42FA
:1096C0003FF41DAF029A0193039223E7022AEED1E1
:1096D000032900F04681B9F1000FE8D0C847E6E75A
:1096E000B9F1020F7FF448AF032900F043814FF036
:1096F000030A4FF001080027002A3FF444AF9047C7
:1097000041E7BEF1020F7FF470AF032900F02C8116
:10971000002A3FF46AAF904767E7BEF1020F95D188
:10972000032900F02481002A90D090478EE7032976
:109730007FF422AF16F80EC04CEA030C06F80EC0F8
:1097400008E7032982D116F80CA04AEA030A06F8B2
:109750000CA06AE703297FF448AF16F80CB04BEA77
:10976000030B06F80CB02EE70329A0D116F80EC0A3
:109770004CEA030C06F80EC089E700221A601B6849
:1097800005934FF0A043059AD3F81035019346F0A6
:10979000004694E60061004004610040086100401A
:1097A0000C610040106100401461004018610040ED
:1097B0001C6100407C610040003A00206F4AD2F8F2
:1097C000042312067FF576AE00221A601B6804930C
:1097D000049B46F080066DE6684AD2F804235106E1
:1097E0007FF563AE00221A601B680493049B46F069
:1097F00040065AE6614AD2F8042390067FF550AE3F
:1098000000221A601B680493049B46F0200647E67A
:109810005A4AD2F80423D4067FF53DAE00221A60DE
:109820001B680493049B46F0100634E6534AD2F8B2
:10983000042315077FF52AAE00221A601B680493E3
:10984000049B46F0080621E64C4AD2F80423570749
:109850007FF517AE00221A601B680493049B46F044
:1098600004060EE6454AD2F8042392077FF504AEBB
:1098700000221A601B680493049B46F00206FBE575
:109880003E49D1F8046316F001063FF4F0AD1360D1
:1098900013680493049BEAE503297FF41CAF4FF49B
:1098A0000032DEF8003723F44033CEF80037DEF81C
:1098B00000371343CEF80037B9F1000F01D0474607
:1098C0000CE74FF0A043019AD3F8103593427FF490
:1098D000F9AE07B0BDE8F08F03297FF424AF4FF451
:1098E0000037DCF8003723F44033CCF80037DCF8DD
:1098F00000373B43CCF800374746C84613E70329F7
:109900007FF406AF4FF40037DCF8003723F4403320
:10991000CCF80037DCF800373B43CCF8003747463B
:10992000C846D146F4E6032906D0CA461F464FF082
:1099300002094FF00108DFE64FF40037DEF8003788
:1099400023F44033CEF80037DEF800373B43CEF83F
:1099500000374FF0040A4FF003094FF002080127C7
:10996000CAE64FF440329CE74FF44037CCE74FF45F
:109970004037B6E74FF44037E0E700BF00600040F3
:109980004FF04022D2F81831FBB100B50021134B43
:10999000C2F81811D2F81811DA7F83B0FF2A0191AA
:1099A000019908D0997F89B101214FF0A04001FAB7
:1099B00002F2C0F80C2500225A771A7259681A6808
:1099C0000748904703B05DF804FB704701214FF052
:1099D000A04001FA02F2C0F80825ECE75C3A00204A
:1099E000643A0020014B1B68184700BF803A0020F2
:1099F000104B984201D00020704730B583B002A8C8
:109A0000002300F8013D0D4606F038FE0A4B1C7994
:109A100034B19DF8070006F057FE112003B030BDA9
:109A200001229DF807001D601A7106F04DFE2046C8
:109A300003B030BD00200040803A0020034B984224
:109A400003D1034B00221A601A71704700200040B6
:109A5000803A002010B568B101280AD10C4C236966
:109A6000A07033B10CCB0120226198472369002BF1
:109A7000F8D110BD064CA36801226270002BF8D00B
:109A80000CCB0020A2609847A368002BF8D110BD32
:109A9000883A002068B910B5064CA36801226270AC
:109AA00033B10CCB0020A2609847A368002BF8D1FB
:109AB00010BD7047883A002030B5012883B01CD013
:109AC00015D3032811D1FFF737F902A800231F4C43
:109AD00000F8013D06F0D2FDE368013BE360E56874
:109AE00065B39DF8070006F0EFFD03B030BD184BDD
:109AF0000122C3F8802003B030BD02A80023134C1C
:109B000000F8013D06F0BAFD237853B1E3689DF8F3
:109B1000070001330122E360A27006F0D5FD03B017
:109B200030BD0C486360A3602361E360FFF7F6F883
:109B300007F062FF30B101232370E7E7FFF740F938
:109B4000A570CEE7FFF7F8F8F5E700BF883A0020E8
:109B500000E100E0559A020038B50C4C237813B1AF
:109B60008525284638BD0A486360A3602361E36009
:109B7000FFF7D4F8054607F03FFF18B10123237023
:109B8000284638BDFFF7D8F8F8E700BF883A00202C
:109B9000559A020030B5194DAB7883B0044693B1A5
:109BA00010B143680120984702A8002300F8013D46
:109BB00006F064FDEB689DF807000133EB6006F0EA
:109BC00083FD03B030BD02A803F0FF0200F8012DB1
:109BD00006F054FD64B12A6942B1944208D013469C
:109BE00001E09C4204D01B68002BFAD122602C615A
:109BF000EB68002BDED1FFF7B3F8DBE7883A0020F3
:109C0000F0B585B0057804790D4A0E4B4779866822
:109C10008DF800508DF80440C568046940690390D0
:109C200053F821308DF805708DF806608DF80750D7
:109C3000029452F821106846984705B0F0BD00BF65
:109C40009C3A0020A43A00202DE9F04F824690F87B
:109C50000090384D384845F829300C46497B40F88B
:109C6000292081B0934669B9344ABBF1000F4B46B5
:109C700021460AF1040008BF002201B0BDE8F04F00
:109C8000FFF798B923682E4A4FF0A04503F5E0731B
:109C900040F20C6145F82310636803F5E073012777
:109CA00045F82310236807FA03F3C5F808356368FD
:109CB00007FA03F3C5F80835236803F5E07340F2AB
:109CC0000D6145F82310636803F5E07342EA070865
:109CD00045F823104FF48070C04700266268D5F81D
:109CE0001035D340DB074FF4807020D4236807FA87
:109CF00003F3C5F80C35C047236807FA03F30136B0
:109D0000C5F808354FF48070C047092EE6D1626867
:109D100001254FF0A04605FA02F2C6F80C254FF4D3
:109D20008070C04763689D40C6F808559CE7002EC8
:109D3000EED199E79C3A0020A43A0020019C020051
:109D400080A1030070B50A4A0A4B06784568047A78
:109D5000C06853F8213052F8211084B003908DF878
:109D6000006001958DF808406846984704B070BDC2
:109D7000AC3A0020B03A002070B50A4A0A4B067887
:109D800045688468C06853F8213052F8211084B0C7
:109D900003908DF8006001958DF80840684698475B
:109DA00004B070BDAC3A0020B03A0020F0B51A4BB8
:109DB00006781A4D0C6991F81DC045F826400746F3
:109DC000174803F806C040F826200C4696460FCCEC
:109DD00089B06D460FC594E80F0085E80F00049622
:109DE000BCF1000F0BD0BEF1000F0E4A694607F11F
:109DF000040008BF0022FEF74BFD09B0F0BDBEF124
:109E0000000F094A694607F10C0008BF0022FEF75F
:109E100057FA09B0F0BD00BFA4A90020AC3A002059
:109E2000B03A0020459D0200799D02000748006875
:109E300080F3088862B661B6BFF34F8FBFF36F8FB0
:109E40004FF4F07080F3118800DF00BF0060020063
:109E5000064B19680868B0E8F04F80F30988BFF333
:109E60006F8F4FF0000080F311887047B43A0020E4
:109E7000EFF30980BFF36F8F144B1A681EF0100FB9
:109E800008BF20ED108A20E9F04F10604DF8043D26
:109E90004FF0C00080F31188BFF34F8FBFF36F8F77
:109EA00000F0F4FB4FF0000080F3118808BC196843
:109EB0000868B0E8F04F1EF0100F08BFB0EC108A31
:109EC00080F30988BFF36F8F704700BFB43A00205A
:109ED00080B5184DDFF86880174F184EDFF864A082
:109EE0004FF0805914E001F081FFFB68DC68201D11
:109EF00000F04EFE3368013B33602B68013B2B6062
:109F000001F07EFF206B01F0D1FE204601F0CEFE75
:109F10002B68002BE7D1D8F80030012B06D9CAF8FE
:109F2000049040BFBFF34F8FBFF36F8FFDF722FF49
:109F3000EEE700BF003B0020743B0020FC3A00200D
:109F4000C03A002000ED00E02DE9F84F4FEA82080A
:109F50000646404689461F460B9D01F07BFE0028C1
:109F600000F091808246582001F074FE04460028DB
:109F700000F095804246C0F830A0A52150460DF073
:109F80006FF8236BA8F10408984428F0070809F13A
:109F9000FF3309F1130104F13302587802F8010F7D
:109FA00013F8010F08B19942F7D10A9B022B28BF81
:109FB00002234FF0000B04F1040AE362A36450464D
:109FC00084F847B0C4F84CB0994600F0B7FD04F1EE
:109FD000180000F0B3FDC9F10303C4F850B0A36149
:109FE000246184F854B064623A463146404601F038
:109FF000C1FE206005B12C6001F0F8FE3C4A3D4FE7
:10A000001368013313603B68002B40D0DFF81881E0
:10A01000D8F800306BB3E36A374ADFF810E116680E
:10A02000DEF800C0354801252E44166005FA03F21B
:10A0300003EB830342EA0C0200EB83005146CEF8A7
:10A04000002000F07FFD01F0DBFED8F80030BBB14E
:10A050003A68E36AD26A9A4212D2294B4FF0805290
:10A060005A6040BFBFF34F8FBFF36F8F2846BDE8E4
:10A07000F88F3A68E36AD26A9A4298BF3C60CBE7AD
:10A080002846BDE8F88F4FF0FF30BDE8F88F3C6000
:10A090001368012B0AD0E36ADFF88C80BCE75046D6
:10A0A00001F004FE4FF0FF30BDE8F88F1348154E65
:10A0B000154DDFF8748000F035FD144800F032FDD6
:10A0C000134800F02FFD304600F02CFD284600F02C
:10A0D00029FD104800F026FD0F4800F023FD0F4831
:10A0E00000F020FD0E4B0F4A1E60E36A156093E7F7
:10A0F000FC3A0020B43A00200C3B0020C03A00207B
:10A1000000ED00E0143B0020283B0020D43A002062
:10A11000E83A0020483B0020743B0020603B0020D0
:10A12000B83A0020BC3A00205C3B0020103B0020E5
:10A1300070B504463E4E01F059FE002C5DD0251D41
:10A14000284600F025FD30B9E26A3A4902EB820365
:10A150009B00CB58CBB1A36A1BB104F1180000F0EF
:10A1600017FD29463448354D00F0ECFC94F8543086
:10A17000012B04BF002384F8543001F041FE2B680A
:10A1800063B933689C4218D070BD2D480121036823
:10A1900001FA02F223EA02020260DCE701F026FE85
:10A1A000284B1A681268BAB9274B4FF0FF321A6071
:10A1B00001F026FE33689C42E6D12B689BB91E490C
:10A1C000224A09681268914230D0214B1B68B3B112
:10A1D000204B01221A6070BD1A681B4BD268D268EE
:10A1E00052681A60E4E71C4B4FF080525A6040BF3F
:10A1F000BFF34F8FBFF36F8F70BD34689FE7154972
:10A200000F4A0B6013680B4AB3FA83F3C3F11F03C1
:10A2100003EB83039B00D018083341684968416011
:10A220001344994204BF49684160CB68336070BDF4
:10A23000B43A0020C03A0020603B00205C3B002084
:10A24000103B0020B83A0020403B0020FC3A0020A0
:10A25000083B00208C3B002000ED00E02DE9F041A0
:10A26000EFF31186C02383F311881F4B42699A4292
:10A2700005D0002586F311882846BDE8F081856A5F
:10A280001A4A9542F5D0002DF3D1194B1B680446AC
:10A2900003BB184BC56A1B68174FDB6A00F1040843
:10A2A0009D42404634BF0025012500F071FCE26A62
:10A2B00012483C680123934002EB8202234341464B
:10A2C00000EB82003B6000F03DFC86F311882846DD
:10A2D000BDE8F08100F11801104600F033FC86F370
:10A2E00011882846BDE8F081603B0020483B0020F3
:10A2F000083B0020B43A0020103B0020C03A002068
:10A3000030B583B0104B01930024009423463C22C7
:10A310000E490F48FFF718FE012801D003B030BDE9
:10A3200001F068FA0128F9D1C02383F311880949A3
:10A33000094A0A4B4FF0FF350D6010601C6003B0F6
:10A34000BDE8304001F02CBD3C3B002088A103005B
:10A35000D19E0200403B00205C3B0020883B002057
:10A36000024A136801331360704700BF083B0020A6
:10A37000014B1868704700BF883B0020014B1868EC
:10A38000704700BF883B00202DE9F04F464B1B680B
:10A3900083B0002B50D1454B1E6801361E60002E45
:10A3A00058D0434B01931B689E426AD3414DDFF85E
:10A3B0001C81DFF81C91404F002429E02B68DB68EA
:10A3C000D3F80CB0DBF804200BF1040A9642504697
:10A3D00066D300F0DDFBDBF828200BF118000AB192
:10A3E00000F0D6FBDBF82C003B680122824000EB3A
:10A3F00080001A43514608EB80003A6000F0A2FB4F
:10A40000D9F80010DBF82C20CB6A9A4228BF01242F
:10A410002B681B68002BD1D1019A4FF0FF331360DA
:10A42000D9F80030DB6A03EB83039B0058F8033054
:10A43000022B28BF012404E0204A13680133136073
:10A4400000241F4B1B68002B18BF0124204603B0BB
:10A45000BDE8F08F174D1B4B29681B4A1868286010
:10A4600019601368013313602B681B687BB9104BAC
:10A4700001931A464FF0FF33136013461B689E4248
:10A4800094D2DFF84880DFF848900024C8E72B68B2
:10A49000074ADB680192DB685B681360134682E75A
:10A4A000019B1A60BCE700BF083B0020883B0020EE
:10A4B000403B0020B83A0020103B0020043B002025
:10A4C0008C3B0020BC3A0020443B0020C03A0020D6
:10A4D000B43A00202DE9F84F01F088FC394B1A6896
:10A4E000013A1A601B68002B5ED1374A1268002AB5
:10A4F0005AD09A46DFF8EC90DFF8ECB0334EDFF834
:10A50000EC80334F22E0DBF80C30D3F80CA00AF1DA
:10A5100004040AF1180000F03BFB204600F038FB71
:10A52000DAF82C00326805FA00F300EB80001343E0
:10A53000214608EB8000336000F004FB3B68DAF84A
:10A540002C20DB6A9A4228BFC9F80050DBF80030A3
:10A550000125002BD7D1BAF1000F07D01D4B1A6887
:10A5600012683ABB1C4B4FF0FF321A601B4E346826
:10A5700044B10125FFF708FF08B1C9F80050013CBC
:10A58000F8D13460D9F8003073B1154B4FF08052D8
:10A590005A6040BFBFF34F8FBFF36F8F012401F0AC
:10A5A0002FFC2046BDE8F88F002401F029FC20464E
:10A5B000BDE8F88F1A68084BD268D26852681A60F2
:10A5C000D4E700BF083B0020FC3A0020103B0020ED
:10A5D000B43A0020B83A0020403B0020043B002061
:10A5E00000ED00E08C3B0020483B0020C03A0020FA
:10A5F00070B548B91D4B4FF080525A6040BFBFF351
:10A600004F8FBFF36F8F70BD194A1A4913681A4DE7
:10A610000133136004460E682868043000F0B8FA6D
:10A6200040B92B681549D86A0B680122824023EA99
:10A6300002030B6034442B68A6425C600FD8104BB9
:10A6400018682968043100F089FA0E4B1A689442A0
:10A6500038BF1C60FFF73EFF0028CBD070BD0A4B0F
:10A6600018682968043100F079FAF3E700ED00E09A
:10A67000083B0020883B0020B43A0020103B00201B
:10A68000B83A0020403B0020BC3A0020104B1B6829
:10A69000CBB91049104A0B601368104AB3FA83F320
:10A6A000C3F11F0303EB83039B00D01808334168F9
:10A6B000496841601344994204BF49684160084BAE
:10A6C000CA681A607047034B01221A60704700BFC6
:10A6D000083B00208C3B0020103B0020C03A0020AB
:10A6E000B43A002070B51C4D2B680C4603F11801DC
:10A6F00000F034FA194B1E682868043000F048FA5C
:10A7000040B92B681649D86A0B680122824023EAB7
:10A7100002030B60631C18D034442B68A6425C60B3
:10A720000BD8104B18682968043100F017FA0E4B4B
:10A730001A68944238BF1C6070BD0C4B18682968B9
:10A74000BDE87040043100F009BA296808480431B6
:10A75000BDE8704000F0F6B9B43A0020883B002014
:10A76000103B0020B83A0020403B0020BC3A0020BB
:10A77000603B0020F8B5224D2B680C4603F1180110
:10A78000174600F0DFF91F4B1E68286804304FB3EE
:10A7900000F0FEF9F8B94FF0FF342B681A49D86A77
:10A7A0000B680122824023EA02030B60631C10D075
:10A7B00034442B68B4425C6019D3144B1868296880
:10A7C000043100F0CBF9124B1A68944217D21C6086
:10A7D000F8BD002FECD029680E480431BDE8F840E0
:10A7E00000F0B0B900F0D4F90028DFD1D5E70A4B6A
:10A7F00018682968BDE8F840043100F0AFB9F8BD29
:10A80000B43A0020883B0020103B0020B83A0020DA
:10A81000403B0020603B0020BC3A0020F8B5C368F4
:10A82000DC6804F11805284600F0B2F9124B1B68E9
:10A83000EBB9261D114D304600F0AAF9E26A2F68E7
:10A840000F480123934002EB82023B43314600EB69
:10A8500082002B6000F076F90A4BE26A1B68DB6A23
:10A860009A4283BF084B012018600020F8BD29469A
:10A87000064800F067F9EFE7083B0020103B002096
:10A88000C03A0020B43A00208C3B0020483B002016
:10A89000034A044B12681B6880E80C00704700BF35
:10A8A000443B0020883B0020F8B50D46044601F0EB
:10A8B0009DFA2A681649501C0B6824D0DFF854E032
:10A8C0002668DEF800706068BE4201D0834209D27B
:10A8D0001B1A93420BD300232B60012501F090FA41
:10A8E0002846F8BD012501F08BFA2846F8BDDEF8B0
:10A8F0000000D31A0A682B6084E80500002501F0E7
:10A900007FFA2846F8BD002501F07AFA2846F8BDFE
:10A91000883B0020443B0020014B01221A60704715
:10A920008C3B0020054B1B6833B1054B1B68002B8B
:10A930000CBF022000207047012070475C3B0020C4
:10A94000083B002000284BD0F8B5274CC36A22688A
:10A95000D26A934214D28269002A04DB2268D26A46
:10A96000C2F103028261214D426903EB830305EBCF
:10A9700083039A420CD02368DB6AC3620120F8BDCE
:10A980002368806CDB6A98422CBF00200120F8BD50
:10A99000071D0646384600F0FBF810BBF16A144A62
:10A9A00001EB81039B00EB5833B91368012000FAD7
:10A9B00001F123EA010111602368D2F800E0D86AAE
:10A9C000F062012404FA00F300EB800005EB800044
:10A9D00043EA0E033946136000F0B4F82046F8BD90
:10A9E0007047034AE8E700BFB43A0020C03A0020AD
:10A9F000103B0020002839D0F8B5C36CC16A826CC6
:10AA0000013B9142C36400D00BB10020F8BD071D8B
:10AA10000446384600F0BCF878B9E26A1448154E8E
:10AA200002EB82039B00C3584BB93368012101FA42
:10AA300002F223EA0202326001E00D480D4EA36CDF
:10AA4000D6F800C0E3620125C3F1030E05FA03F254
:10AA500003EB830342EA0C0200EB83003946C4F89F
:10AA600018E0326000F06EF82846F8BD002070470C
:10AA7000C03A0020103B002088B3F8B5826CC36A4E
:10AA8000914238BF11468B4202D0C26C012A00D0DD
:10AA9000F8BD82691B4DC162002A03EB8303426942
:10AAA000A8BFC1F1030105EB8303A8BF81619A42EE
:10AAB000EED1061D0446304600F06AF8E36A78B12C
:10AAC0000122114F9A4098003C68224318443A6092
:10AAD00005EB80003146BDE8F84000F033B8704720
:10AAE0009800C2189200AA583AB9074F0122396853
:10AAF0009A4021EA02013960E6E701229A40024FBA
:10AB0000E2E700BFC03A0020103B0020044B1A6867
:10AB10001AB11968CA6C0132CA641868704700BF5C
:10AB2000B43A002000F108034FF0FF3100228160A9
:10AB300002604360C3600361704700BF002303618C
:10AB4000704700BF43684B609A688A609A6851609A
:10AB500099600861036801330360704730B40D6881
:10AB60006B1C11D000F1080200E01A4653681C6803
:10AB7000A542FAD24B6099608A605160086103680F
:10AB80000133036030BC704702695368F2E700BFCD
:10AB900042688168036991608268416851605A68BF
:10ABA000904204BF82685A60002202611A68013A2A
:10ABB0001A601868704700BF70B5064600FB01F0C8
:10ABC00048300D4601F046F8044618B325B300F1AD
:10ABD00048032360E663256401F008F9236CE16B08
:10ABE0002268A26001FB03F1CB1A134400200A443F
:10ABF000FF21A063E36084F84410626004F1100058
:10AC000084F84510FFF78EFF04F12400FFF78AFF58
:10AC100001F0F6F8204670BD0346DAE72DE9F04F63
:10AC2000044685B01D460192884601F0DFF8A26B0C
:10AC3000E36BB34F4FF000099A424E46C0F08B8051
:10AC4000022D00F013810198002800F07881B9F1FD
:10AC5000000F00F0078101F0D3F8FFF781FB01F04E
:10AC6000C5F894F84430FF2B08BF84F8446094F88A
:10AC70004530FF2B08BF84F8456001F0C1F801A9F9
:10AC800002A8FFF711FE002840F00B8101F0AEF89A
:10AC9000A26BE36B9A427FD001F0B2F801F0A6F804
:10ACA00094F845304FFA83FABAF1000F1ADD636A5F
:10ACB000C3B104F1240907E00AF1FF33DBB24FFA14
:10ACC00083FA7BB1636A6BB14846FFF7A7FD0028A2
:10ACD000F2D0FFF721FE0AF1FF33DBB24FFA83FA1D
:10ACE000002BEFD1FF2384F8453001F089F801F003
:10ACF0007DF894F844304FFA83FABAF1000F1ADD68
:10AD00002369C3B104F1100907E00AF1FF33DBB294
:10AD10004FFA83FA7BB123696BB14846FFF77EFD9A
:10AD20000028F2D0FFF7F8FD0AF1FF33DBB24FFA4B
:10AD300083FA002BEFD1FF2384F8443001F060F850
:10AD4000FFF7C8FB01F052F8A26BE36B9A424FF099
:10AD50000109BFF475AF226CA66B002A40F0F680A3
:10AD60002568002D00F003810136A663636A6BB18C
:10AD700004F12400FFF752FD40B1614B4FF08052C7
:10AD80005A6040BFBFF34F8FBFF36F8F01F038F8A9
:10AD9000012005B0BDE8F08F04F1100901F030F892
:10ADA00048460199FFF79EFC01F020F894F845A071
:10ADB0004FFA8AFABAF1000F1CDD636AD3B104F1CD
:10ADC000240B08E00AF1FF3A5FFA8AF34FFA83FA9C
:10ADD00083B1636A73B15846FFF720FD0028F1D0B4
:10ADE0000AF1FF3AFFF798FD5FFA8AF34FFA83FA08
:10ADF000002BEED1FF2384F8453001F001F800F07C
:10AE0000F5FF94F844304FFA83FABAF1000F06DCEC
:10AE100015E00AF1FF33DBB24FFA83FA7BB1236905
:10AE20006BB14846FFF7FAFC0028F2D0FFF774FD3B
:10AE30000AF1FF33DBB24FFA83FA002BEFD1FF2385
:10AE400084F8443000F0DCFFFFF744FB00287FF477
:10AE500079AF4FF080537B6040BFBFF34F8FBFF39C
:10AE60006F8F6FE702A8FFF713FDF4E6226CA66B65
:10AE7000002A3FF475AF4146E0680CF0E6F8236C19
:10AE8000E26821685B421A448A42E26005D2626845
:10AE90001344E360022D7FF467AF002E08BF012644
:10AEA00063E700F0A3FF94F845506DB2002D16DD66
:10AEB000636AA3B104F1240605E0013DEBB25DB283
:10AEC0006BB1636A5BB13046FFF7A8FC0028F4D091
:10AED000013DFFF721FDEBB25DB2002BF1D1FF2365
:10AEE00084F8453000F08CFF00F080FF94F8445067
:10AEF0006DB2002D18DD2369B3B104F1100607E02F
:10AF000000ED00E0013DEBB25DB26BB123695BB1D6
:10AF10003046FFF783FC0028F4D0013DFFF7FCFC2E
:10AF2000EBB25DB2002BF1D1FF2384F8443000F086
:10AF300067FFFFF7CFFA002005B0BDE8F08F009063
:10AF400000F05EFF009805B0BDE8F08F4146E5B91E
:10AF5000A0680CF07AF8A368216C62680B449342F5
:10AF6000A360FFF401AF2368A3600136FDE66068CB
:10AF70000136FFF73FFDA663636A6560002B7FF42F
:10AF8000F7AE00287FF4F9AE00E7E0680CF05DF85A
:10AF9000236CE26821685B421A448A42E260BFF493
:10AFA00079AF74E72DE9F041044682B017468E462A
:10AFB000EFF31186C02282F31188806BE26B90421E
:10AFC00021D3022B05D0002086F3118802B0BDE802
:10AFD000F08194F84550226CD4F838806DB252BBA1
:10AFE0002368002B4ED008F101086B1CC4F8388090
:10AFF0003AD001356DB284F84550012086F31188AE
:10B0000002B0BDE8F08194F84550226CD4F8388045
:10B010006DB2002AE4D073B9A0680CF016F8A368EA
:10B02000216C62680B449342A360DCD32368A36065
:10B0300008F10108D9E77146E06801930CF005F8C2
:10B04000206CE2682168019B404202448A42E2602F
:10B0500002D262681044E060022BC4D1B8F1000F44
:10B0600008BF4FF00108C0E7636A002BC5D004F1A8
:10B070002400FFF7D3FB0028BFD0002FBDD0012054
:10B080003860A1E760680193FFF7B4FC019B63603F
:10B0900008F10108A9E700BF2DE9F047044684B094
:10B0A0008A46019200F0A2FEA36BA44E00273D4603
:10B0B000002B40F0EC80019B002B00F05F81002F03
:10B0C00000F0FF8000F09CFEFFF74AF900F08EFED2
:10B0D00094F84430FF2B08BF84F8445094F845306E
:10B0E000FF2B08BF84F8455000F08AFE01A902A892
:10B0F000FFF7DAFB002868D100F078FEA36B002B85
:10B1000040F0E38004F1240900F07AFE48460199FA
:10B11000FFF7E8FA00F06AFE94F845304FFA83F83A
:10B12000B8F1000F06DC15E008F1FF33DBB24FFA8F
:10B1300083F87BB1636A6BB14846FFF76FFB002869
:10B14000F2D0FFF7E9FB08F1FF33DBB24FFA83F8E7
:10B15000002BEFD1FF2384F8453000F051FE00F0C2
:10B1600045FE94F844304FFA83F8B8F1000F1ADD29
:10B170002369C3B104F1100907E008F1FF33DBB222
:10B180004FFA83F87BB123696BB14846FFF746FB62
:10B190000028F2D0FFF7C0FB08F1FF33DBB24FFA13
:10B1A00083F8002BEFD1FF2384F8443000F028FE11
:10B1B000FFF790F9002863D14FF08053736040BFD0
:10B1C000BFF34F8FBFF36F8F5AE000F00FFE94F87C
:10B1D00045304FFA83F8B8F1000F1ADD636AC3B146
:10B1E00004F1240907E008F1FF33DBB24FFA83F8DA
:10B1F0007BB1636A6BB14846FFF710FB0028F2D0C1
:10B20000FFF78AFB08F1FF33DBB24FFA83F8002B1C
:10B21000EFD1FF2384F8453000F0F2FD00F0E6FDA9
:10B2200094F844304FFA83F8B8F1000F1ADD23691F
:10B23000C3B104F1100907E008F1FF33DBB24FFAA4
:10B2400083F87BB123696BB14846FFF7E7FA002822
:10B25000F2D0FFF761FB08F1FF33DBB24FFA83F85E
:10B26000002BEFD1FF2384F8443000F0C9FDFFF735
:10B2700031F900F0BBFDA36B002B7FD000F0C0FDC7
:10B2800000F0B4FDA36B0127002B3FF414AF226C38
:10B2900062B1E1686068009311448142E16024BFBB
:10B2A0002168E16050460BF0D0FE009B013BA36398
:10B2B0002369002B68D100F0A3FD012004B0BDE894
:10B2C000F08702A8FFF7E4FAFCE600F099FD00F031
:10B2D0008DFD94F845304FFA83F8B8F1000F1ADD70
:10B2E000636AC3B104F1240907E008F1FF33DBB25C
:10B2F0004FFA83F87BB1636A6BB14846FFF78EFA69
:10B300000028F2D0FFF708FB08F1FF33DBB24FFA59
:10B3100083F8002BEFD1FF2384F8453000F070FD57
:10B3200000F064FD94F844304FFA83F8B8F1000F50
:10B330001CDD2369D3B104F1100909E000ED00E040
:10B3400008F1FF33DBB24FFA83F87BB123696BB1AD
:10B350004846FFF763FA0028F2D0FFF7DDFA08F15C
:10B36000FF33DBB24FFA83F8002BEFD1FF2384F8D1
:10B37000443000F045FDFFF7ADF881E700F040FDF7
:10B38000002004B0BDE8F08704F11000FFF746FA92
:10B39000002890D0044B4FF080525A6040BFBFF35A
:10B3A0004F8FBFF36F8F86E700ED00E02DE9F0438C
:10B3B000044685B00026019100F018FDA36BB24F42
:10B3C000B0463546002B40F0E380019B002B00F097
:10B3D0007081B8F1000F00F0538100F011FDFEF70D
:10B3E000BFFF00F003FD94F84430FF2B08BF84F842
:10B3F000445094F84530FF2B08BF84F8455000F0C6
:10B40000FFFC01A902A8FFF74FFA00285CD100F069
:10B41000EDFCA36B002B00F0CC8000F0F1FC00F001
:10B42000E5FC94F845304FFA83F8B8F1000F1ADDC7
:10B43000636AC3B104F1240907E008F1FF33DBB20A
:10B440004FFA83F87BB1636A6BB14846FFF7E6F9C0
:10B450000028F2D0FFF760FA08F1FF33DBB24FFAB1
:10B4600083F8002BEFD1FF2384F8453000F0C8FCAF
:10B4700000F0BCFC94F844304FFA83F8B8F1000FA8
:10B480001ADD2369C3B104F1100907E008F1FF33A5
:10B49000DBB24FFA83F87BB123696BB14846FFF703
:10B4A000BDF90028F2D0FFF737FA08F1FF33DBB21D
:10B4B0004FFA83F8002BEFD1FF2384F8443000F0DB
:10B4C0009FFCFFF707F85BE000F090FC94F8453034
:10B4D0004FFA83F8B8F1000F1ADD636AC3B104F1C3
:10B4E000240907E008F1FF33DBB24FFA83F87BB1A0
:10B4F000636A6BB14846FFF791F90028F2D0FFF775
:10B500000BFA08F1FF33DBB24FFA83F8002BEFD1CF
:10B51000FF2384F8453000F073FC00F067FC94F8DA
:10B5200044304FFA83F8B8F1000F1ADD2369C3B134
:10B5300004F1100907E008F1FF33DBB24FFA83F89A
:10B540007BB123696BB14846FFF768F90028F2D058
:10B55000FFF7E2F908F1FF33DBB24FFA83F8002B73
:10B56000EFD1FF2384F8443000F04AFCFEF7B2FF2D
:10B5700000F03CFCA36B002B00F0888000F040FC46
:10B5800000F034FCA36B4FF00108002B3FF41DAF1B
:10B590002268013BA363002A00F0AE802369002BE0
:10B5A00040F0998000F02CFC0126304605B0BDE843
:10B5B000F08300F025FC2368002B00F0838004F169
:10B5C000240948460199FFF78DF800F00FFC94F824
:10B5D00045304FFA83F8B8F1000F06DC15E008F1AA
:10B5E000FF33DBB24FFA83F87BB1636A6BB1484635
:10B5F000FFF714F90028F2D0FFF78EF908F1FF33B6
:10B60000DBB24FFA83F8002BEFD1FF2384F84530EB
:10B6100000F0F6FB00F0EAFB94F844304FFA83F8B0
:10B62000B8F1000F1ADD2369C3B104F1100907E076
:10B6300008F1FF33DBB24FFA83F87BB123696BB1BA
:10B640004846FFF7EBF80028F2D0FFF765F908F15C
:10B65000FF33DBB24FFA83F8002BEFD1FF2384F8DE
:10B66000443000F0CDFBFEF735FF002888D14FF0C5
:10B6700080537B6040BFBFF34F8FBFF36F8F7FE777
:10B6800002A8FFF705F9A8E600ED00E000F0B8FB1E
:10B69000002E8AD000F0AAFB616A19B1236B1968E9
:10B6A000C1F103016068FFF7E7F9002600F0A8FB8D
:10B6B0007BE7009300F0A4FB009B1E46304605B0DC
:10B6C000BDE8F08300F092FB6068FFF73BF90646A7
:10B6D00000F096FB73E704F11000FFF79FF80028D5
:10B6E0003FF460AF064B4FF080525A6040BFBFF34B
:10B6F0004F8FBFF36F8F55E7FFF708FA60604DE794
:10B7000000ED00E0074B1A681AB19A6802B1704761
:10B71000012210B403EBC20443F8321060605DF8FC
:10B72000044BF4E7A8A9002070B505460C46164660
:10B7300000F05CFB95F84430FF2B04BF002385F834
:10B74000443095F84530FF2B04BF002385F8453081
:10B7500000F056FBAB6B2BB93246214605F12400B5
:10B76000FFF708F800F042FB95F8454064B2002C62
:10B7700016DD6B6AA3B105F1240605E0013CE3B2D6
:10B780005CB26BB16B6A5BB13046FFF747F80028DB
:10B79000F4D0013CFFF7C0F8E3B25CB2002BF1D16A
:10B7A000FF2385F8453000F02BFB00F01FFB95F8D8
:10B7B000444064B2002C16DD2B69A3B105F11006DC
:10B7C00005E0013CE3B25CB26BB12B695BB1304682
:10B7D000FFF724F80028F4D0013CFFF79DF8E3B20E
:10B7E0005CB2002BF1D1FF2385F84430BDE87040F6
:10B7F00000F006BBF0B5174C83B000F0F7FA2568EF
:10B800007DB100F0FDFA206848B1134B019302238B
:10B8100000938022002311491148FEF795FB03B0E5
:10B82000F0BD104F104E3846FFF77CF93046FFF759
:10B8300079F90E4A0E4B176010212A4620201E600F
:10B84000FFF7BAF920600028DBD00A49FFF75AFF5A
:10B85000D7E700BFC43B0020C83B002098A10300ED
:10B860006DB90200983B0020AC3B0020903B0020CB
:10B87000943B002090A103002DE9F04F804683B057
:10B8800028200F4616461D4600F0E4F9044690B104
:10B89000DFF8749000F0AAFAD9F800207AB100F02D
:10B8A000AFFA0C9BC4F80080A761E6612562636271
:10B8B000201DFFF743F9204603B0BDE8F08FDFF805
:10B8C0004CB0DFF84CA001925846FFF72BF95046D8
:10B8D000FFF728F909490A4BC1F800B0019AC3F8EB
:10B8E00000A010212020FFF767F9C9F80000002808
:10B8F000D5D00449FFF706FFD1E700BF903B0020F9
:10B90000943B002090A10300C43B0020983B002002
:10B91000AC3B002030B5144D2C6885B004B305292C
:10B920008DE8060002900BDCFEF7FCFF02280FD02A
:10B93000002328681A466946FFF770F905B030BD44
:10B940001A46204600236946FFF72CFB05B030BDA0
:10B950002868089A00236946FFF760F905B030BDF2
:10B96000204605B030BD00BFC43B00202DE9F04F9C
:10B97000A84EDFF8B082A84D8BB033681C68002C4D
:10B9800000F08C80DB681C68FEF7EAFCFEF7F0FC38
:10B99000D8F800308342074651D88442C8F80000E6
:10B9A00040F2C6800022E11B2868FFF7BDFEFEF7CB
:10B9B00091FD40B9994B4FF080525A6040BFBFF3A0
:10B9C0004F8FBFF36F8F002202A92868FFF764FB37
:10B9D0000028D2D0029B002B58DB049C636913B172
:10B9E000201DFFF7D5F8FEF7C3FCD8F800309842C9
:10B9F000814641D3029BC8F80090092BE3D801226D
:10BA000002FA03F313F4047F40F0B48013F0C70F7D
:10BA100040F0C1809B06D6D5204600F047F9D2E71A
:10BA2000DB68DC68D3F800A004F104094846FFF79E
:10BA3000AFF8636A20469847E369012B40D033682A
:10BA40001A68002AECD1764AC8F800701268326091
:10BA5000734A1360FEF73EFDB5E7DB68DF68D3F895
:10BA600000B007F1040A5046FFF792F87B6A3846A7
:10BA70009847FB69012B2ED033681A68002AECD155
:10BA8000674A12683260664A1360B3E7039B059900
:10BA900004989847029B002B95DB9EE7FEF760FC1D
:10BAA000FEF766FCD8F8003083420746C7D85C4BE7
:10BAB000C8F800701B681A68B2FA82F2520972E77D
:10BAC000A36953449A45494610D2636024613068A3
:10BAD000FFF744F8B3E7BB695B449B45514616D278
