:020000022000DC
:1060000000000120396202009162020093620200E6
:10601000956202009762020099620200000000008F
:106020000000000000000000000000009B62020071
:106030009D620200000000009F620200A162020057
:1060400021850200A762020061890200AB620200A2
:10605000AD620200AF620200DD870200B36202009F
:10606000B5620200B7620200B9620200BB620200C0
:10607000BD620200BF620200C1620200C362020090
:10608000C5620200E1700200C9620200CB62020038
:106090007D710200CF620200D9A50200D362020026
:1060A000D5620200D7620200D9620200DB62020000
:1060B000DD620200DF620200A3620200A36202004E
:1060C000E1620200E3620200E5620200E7620200B0
:0C60D000E9620200EB620200ED620200D7
:1060DC00354936480A1A02D0072291438D46344975
:1060EC0034480A1A06D00722914381F30988022208
:1060FC0082F3148830483149314A00F044F8314871
:10610C003149324A00F03FF831483249324A00F006
:10611C003AF832483249334A00F035F832483349BC
:10612C00334A00F030F833483349344A00F02BF846
:10613C0033483449344A00F026F8344834490022B4
:10614C0000F02CF833483449002200F027F833488B
:10615C003349091A082902DB002202604160314AE6
:10616C0090471F481F49884205D00268043003B489
:10617C00904703BCF7E700208646EC460020002140
:10618C00294A9047FEE7884207D0521A05D0037877
:10619C0001300B700131013AF9D17047884202D0BD
:1061AC0002700130FAE770470000012000E0002087
:1061BC00000001200000012014BA0200B41D0020D0
:1061CC00E8200020F0620200F0620200ECAA02005B
:1061DC0014BA0200B41D0020B41D002038AC02001B
:1061EC0038AC020038AC020038AC020038AC02000B
:1061FC0038AC020038AC020038AC020014BA020011
:10620C0048BD0200E8200020E8200020E820002003
:10621C000030002000300020003000200030002032
:10622C00003000205D6202006D9502000F484FF0B7
:10623C000701884385460E4880470E48016841F4A3
:10624C0070010160BFF34F8FBFF36F8FFFF740BF3B
:10625C0009480A490A4A884207D0521A05D00378DD
:10626C0001300B700131013AF9D170470000012067
:10627C00D17F020088ED00E0F4AB0200701D00201D
:10628C00B41D0020FEE7FEE7FEE7FEE7FEE7FEE7B3
:10629C00FEE7FEE7FEE7FEE7FEE7FEE7FEE7FEE7CA
:1062AC00FEE7FEE7FEE7FEE7FEE7FEE7FEE7FEE7BA
:1062BC00FEE7FEE7FEE7FEE7FEE7FEE7FEE7FEE7AA
:1062CC00FEE7FEE7FEE7FEE7FEE7FEE7FEE7FEE79A
:1062DC00FEE7FEE7FEE7FEE7FEE7FEE7FEE7FEE78A
:0462EC00FEE700BF0A
:1062F0007047000007B5044B0093044A402300F0A8
:1063000032F803B05DF804FB11630200E9200020BD
:106310002DE9F84389461446B2B10F4B0F4E0325C1
:10632000002743F00108224609EB0701002003F093
:106330000DFA0744241A48B933782BB14FF47A4048
:10634000C047013D02D13570BDE8F88301233370A9
:10635000002CE8D1F8E700BF40AC0200E8200020A4
:10636000704703F027BAF0B595B01C4616460846AC
:106370000D4601F012FD1A9B0D93CDE9086400242F
:106380002346082205A928460A948DF82C400C942F
:1063900001F03FFD079B0293069B03939DF8143089
:1063A0008DF8114003F00302012A1DD1BDF81440FD
:1063B000059EC3F3C203C4F383148DF81030A2000A
:1063C00008230EA9284601F024FDC6F3952608AB44
:1063D0000093224602AB0EA9304600F0E7FB2846A8
:1063E00001F0DFFC15B0F0BD022AF8D1BDF816406F
:1063F000C3F3C203A4098DF810300827082C2646E1
:1064000028BF08263B4632460EA9284601F001FD6A
:10641000A41B08AB02AA31460EA8374400F02AFCA0
:10642000002CEBD1DBE70000014B01221A70704712
:106430006A2100207047000070B50E4D06460FCD52
:1064400088B06C460FC495E80F00002E84E80F005A
:106450004FF00603084A0948009308BF0022694626
:1064600001F0EAFF08B100F08FFD054B1E7008B087
:1064700070BD00BF54AC020029640200B41D0020AE
:106480002921002007B5044B0093044A4023FFF75D
:106490006AFF03B05DF804FBA16402002A2100201A
:1064A00038B50D4B0D4D002018700D4804782D5D4A
:1064B000D2B21C4665B1043002F08CFE08B100F087
:1064C00063FD084B1A7812B12378002BFBD038BD3E
:1064D0000C3002F079FCF1E76A210020142800203A
:1064E000B41D00202921002008B50848084A037877
:1064F000D35C3BB1043002F009FE0020BDE8084047
:10650000FFF79ABF0C3002F0FBFBF6E7B41D00204A
:10651000142800200120FFF78FBF000038B5094C78
:10652000FFF71FFF01250421204600F0AFFA657236
:10653000054CFFF7EFFF0421204600F0A7FA657233
:1065400038BD00BFC81D0020D41D0020037813F003
:10655000030F03F0040202D012B910467047B2B123
:1065600003F00303012B03D0022B09D00120704755
:106570000A6800880232C0F3831002440A60F5E71B
:106580000B684288023303EB92130B60EEE70B6853
:106590004288013303EB92130288F4E72DE9F04FB0
:1065A00087B000230446851C0DF107000F46904676
:1065B0008DF8073000F0D4FF454806683E60D0E90A
:1065C0000132134401339B1B824600F21C4600F546
:1065D000836900F21447AB421BD30022B8F1000FCD
:1065E00070D0052363F3070264F38912DAF8001010
:1065F000DAF808309DF807000B4003330D444AF8E1
:106600002320CAF8005000F0CFFF012007B0BDE8FA
:10661000F08F0121304601F05FF8484601F072F832
:10662000384601F06FF8DAF80400DAF808B00290A2
:1066300000EA0B0003300AEB800002A9FFF786FF97
:10664000029B50BB0BEA03020AEB820203F1020C2D
:10665000D2680392013303EA0B0B0AEB8B0B02F0B7
:106660000302012ACDF808C0DBF80C1022D0022A60
:1066700016D08346384601F048F810B1029BCAF89C
:1066800004305946304601F027F8DAE90123134473
:10669000DAF8002001339B1A9DE70BEA0300C9E7F3
:1066A000BDF80E309B0903334FEA114B0CEB9303FB
:1066B0000293DFE7BDF80C30C3F383134FEA114BAD
:1066C0006344F5E7062363F3070264F39F528DE703
:1066D0003C22002008B50E4B0E48FF229A60002293
:1066E000C3F81824C3E90022C3F8142483F8202433
:1066F00001F00CFB38B9084A084B09499B1ADB0822
:1067000002469A4200D108BD21F822200132F8E762
:106710003C220020B4AB02002CAB0200B4AB020060
:10672000701D002030B50A4C71B10A4A0A49121B8B
:10673000D20800239A4201D1002030BD31F8235005
:10674000854202D00133F5E7034654F83300F4E7FD
:106750002CAB0200B4AB0200721D0020094B0139C2
:1067600003EBC000032909D8DFE801F00A020406A0
:1067700004207047007970474079704700207047C7
:10678000022070472CAB0200034BD3E90030C31A40
:1067900058425841704700BF3C2200202DE9F04785
:1067A00086B0FFF7F1FF0646002840F0F3807A4DEF
:1067B000C5F81804BFF34F8F6868AC68029020409A
:1067C000033005EB800002A9FFF7C0FE029B0746DD
:1067D00000285FD104EA0302991C013305EB820211
:1067E000234005EB8303D268DB68049302F00303C4
:1067F000022B0392029162D1BDF80E3067484FEA36
:106800009319B9F1500FCA4628BF4FF0500A6AF3E6
:106810008F130AF10801ADF80E3001F08FFA8046AF
:10682000002800F0A58001F0B8FA03A93B46082231
:10683000404601F0C5FA029924EA01060136B60085
:10684000B24535D95FFA8AFA7EB3F6B2AAEB060AE8
:10685000214003315FFA8AF4B246514E05EB8101C3
:1068600008235246404601F0ABFA36B10AF108035C
:1068700022463146404601F0A3FA029B09F1030982
:1068800003EB99030293D5F81834002B4AD1D5F8BD
:10689000104458E02A689A4204D86A60304606B02C
:1068A000BDE8F08704EA03008AE73D493446D7E7AC
:1068B000214003310823524605EB8101DAE7012B21
:1068C00056D1BDF80C303548C3F38311062928BFD3
:1068D000062161F3891302318900ADF80C3001F013
:1068E0002DFA8046002843D001F057FA3B46082293
:1068F00003A9404601F064FABDF80C20C2F38312EC
:10690000BB00974203F10803BDD202994A1C214003
:106910000331029205EB81010422404601F050FA56
:106920000137E9E7404601F03CFAFFF72DFF80F020
:106930000100C6B2B2E7637A23B1236841461B68FF
:10694000204698476468002CF5D1404601F029FAAA
:106950000DF107008DF8074000F002FED5F818345D
:106960000BB9029B6B609DF8070000F01DFEDCE791
:10697000D5F8104444B90B4B0B491888000440F07B
:10698000020000F06BF8D0E7236820469B68984728
:106990006468EFE7002681E73C220020B4AB0200E8
:1069A00048220020841D002080AC02002DE9F74F12
:1069B000284C80460F46924601A9012218469B4664
:1069C000D4F80890FFF7EAFD80B3019D0026A91CCA
:1069D0005E4506EB010233D100211F4800F051FE55
:1069E00080F310006A1C02EA090204EB8202000430
:1069F00005EA0903033340EA1840D06014F8232065
:106A000068F3C50204F8232034F8232066F38912C2
:106A100024F8232054F8232067F39F2244F82320EE
:106A200002F0F80242F0010204F8232094F8203426
:106A30001BB1FFF7B3FE0028FBD103B0BDE8F08F18
:106A400009EA020204EB82025AF82630D3600136CA
:106A5000BEE700BF3C2200205826002000231A4633
:106A6000FFF7A4BF07B50123019201AAFFF79EFF1C
:106A700003B05DF804FB07B5CDE9002302236A46A5
:106A8000FFF794FF03B05DF804FB00000F4A30B538
:106A9000D2F810440023214641B90372D2F81044C1
:106AA0004CB9C2F810044160184630BD0D7A9D42C1
:106AB00005D04968F0E7626842606060F4E701333E
:106AC0000A2BE8D14FF0FF33EEE700BF3C22002055
:106AD000084A38B50123D2F8104482F820341D4604
:106AE00004B938BD2368657220465B6898476468BE
:106AF000F6E700BF3C220020037A052B10B50C46B8
:106B00000FD0437A23B1084A0849204600F060FEBE
:106B10000749204600F05CFE2046BDE8104000F02A
:106B20004CBE002AF8D0F3E7DBAC0200E0AC020078
:106B300000AD0200C38873B504460D4633B1144A54
:106B400000921449144A284600F042FE217A052991
:106B50001CD0637A4BB1A088FFF700FE0F4B1049A1
:106B600053F82020284600F033FE227A0D4BA088EF
:106B700053F822600021FFF7D5FD0B49034632464A
:106B8000284602B0BDE8704000F022BE02B070BDE1
:106B9000DBAC0200EBAC0200E3AC0200A8AC0200EC
:106BA000E0AC020010AD020003AD02002DE9F0439D
:106BB00085B01F460C9D002306460C46904695F86E
:106BC0000C902B7329463846FFF7B4FFB8F1060F37
:106BD00009D8DFE808F00412181F283340003146B6
:106BE000284600F0F5FD002229463846FFF784FFCD
:106BF00085F80C9005B0BDE8F08322683146284640
:106C000000F0E6FDEFE7D4E900233146284600F026
:106C1000DFFDE8E7A36800933146D4E90023284666
:106C200000F0D6FDDFE7E3680193A36800933146E7
:106C3000D4E90023284600F0CBFDD4E72369029372
:106C4000E3680193A36800933146D4E90023284602
:106C500000F0BEFDC7E76369039323690293E3680D
:106C60000193A36800933146D4E90023284600F03D
:106C7000AFFDB8E708292DE9F84F80460E461746C4
:106C80001C4636D8002593F80C901D731946104603
:106C9000FFF750FFDFF87CA0DFF87CB0AE422AD9C6
:106CA00018F805205946204600F092FD0135082DC0
:106CB000F4D11649DFF864B0204600F089FD0025C4
:106CC000AE421DD918F805A0504603F021FE002859
:106CD00014BF52462E225946204600F079FD013558
:106CE000082DEDD1012221463846FFF705FF84F833
:106CF0000C90BDE8F88F5146204600F069FDD5E7BD
:106D00000349204600F064FDE9E700BFD6AC02006D
:106D1000D4AC0200D2AC0200CCAC0200D8AC020071
:106D20002DE9F04F394E87B04FF00009384B1B78F2
:106D30005FFA89F5AB4202D807B0BDE8F08F354B5A
:106D4000D3F800A01AF835000124D6E9001EA0F1FE
:106D50002002C0F1200304FA02F224FA03F31343E1
:106D600004FA00FC009301EA0C030293009B0EEA74
:106D700003030393DDE9022313430AEBC50B41D060
:106D8000009B21EA0C012EEA0303C6E9001301F07F
:106D90001BFD1AF835502049A5F12002C5F120034A
:106DA00004FA02F224FA03F31343D1E900C2AC401F
:106DB000134004EA0C0105930024C3B2CDE900346A
:106DC000009A0491C5F12003A5F1200122FA03F3F2
:106DD00002FA01F848EA03081346AB401F46DDE912
:106DE0000434444508BFBB420CD1DBF804304BB13E
:106DF0009BF801104A1E51425141081A414241413B
:106E00002846984709F1010990E700BF9026002025
:106E10006026002098260020882600202DE9F041D9
:106E20008046204800F08CFBD0BB0125A8F120044F
:106E3000C8F1200325FA03F305FA04F41C431A4BA6
:106E4000D3E9001205FA08F501EA050602EA04078B
:106E500056EA07001E461DD1404601F0B5FC134B13
:106E6000D3E9001288B129432243C3E90012D6E9CD
:106E700000231C430E4B0B4819681543C6E9005408
:106E80000022BDE8F04100F015BB21EA050122EA2D
:106E90000402EAE721EA050522EA0404C3E90054F2
:106EA000BDE8F0816826002090260020882600207A
:106EB00064260020042A2DE9F34105460C461646B7
:106EC0003AD901F0BDFBD8B11C4B1D491D601D4BCB
:106ED000DFF884801C701C4B00221E600023C1E977
:106EE00000231A49C1E90023013CE4B2002603272C
:106EF000FF2C0CD1164A1748002100F0C9FA03E014
:106F000001F064FB0028DFD002B0BDE8F08123B2BD
:106F100005EBC30201A992788DF8052015F833001E
:106F20008DF8066042468DF8047001F093FB013C39
:106F3000E4B20028DCD0E7E70720E5E79826002048
:106F4000882600206026002064260020902600204D
:106F5000216D020070AD02001D6E020070B5084D7B
:106F6000084E00242B789C4201D3002070BD33686A
:106F7000012113F8340001F0E1FB0134F2E700BF16
:106F800060260020982600201FB50021039001AA4A
:106F900044F20100CDE9011100F004F805B05DF8FC
:106FA00004FB000010B572B6FFF792FDFFF7F6FB89
:106FB0000028FBD1104C11492088000440F001004A
:106FC000FFF74CFD0E4B1B68DB0700D500BE208889
:106FD0000C49000440F00200FFF740FDBFF34F8F63
:106FE00009490A4BCA6802F4E0621343CB60BFF35D
:106FF0004F8F00BFFDE700BF841D002074AD02006D
:10700000F0ED00E080AD020000ED00E00400FA05C4
:10701000094A537891780133DBB2994208BF0023C3
:10702000117899421FBF03705078182303FB00208A
:1070300014BF0430002070479C26002073B505461D
:1070400000240DF107000E468DF8074000F088FA85
:107050000DF10600FFF7DCFF90B10670094B9DF8BB
:10706000062045605A709DF8070000F09DFA24B98B
:10707000054B4FF48012C3F80021204602B070BDCA
:107080000424F0E79C26002000E100E0024B4FF4CE
:107090003C6043F00103184790AD020038B50C4B3B
:1070A0000C4C4FF40032C3F8802001254FF480339C
:1070B000C4F84833C4F808336560FFF7E7FF064BB0
:1070C000A56000241C60FFF7E1FF044B1C7038BD75
:1070D00000E100E000100140B8270020A9270020AF
:1070E000F8B51F4B1F491B680025C1F84051C1F876
:1070F0004451C1F84851C1F84C51C1F80051C1F890
:1071000004514BB3D1F8044517490968641A24F0B7
:107110007F442F461A68A24209D8A41A15441A7C43
:10712000DE691AB11F74D3E905209047AEB90F4A42
:107130000F4B11781B788B4205D10133DBB2022B48
:1071400008BF0023137012780A4B43F822500A4BF1
:107150004FF48012C3F80021F8BD3346DAE700BFD0
:10716000BC27002000100140B8270020B5270020D0
:10717000B4270020AC27002000E100E02DE9F04F0B
:10718000A04AA14913780978A04D994285B03CD016
:107190000133DBB2022B08BF002313709C49127825
:1071A0009C4B0F6853F822003B1823F07F430022CA
:1071B0000B602B6816461446944613B942B12B60F7
:1071C00006E0196881420ED902B12B60091A1960D4
:1071D0004FF001082B68DFF844A201930027BEB9E5
:1071E000DFF840B266E0401A0C44D968C3F800C02A
:1071F000D3F81CE031B13A1922F07F42C3E90121F2
:10720000DE611E4601227346D7E70026B046E1E75D
:107210003446F6697E4A63681268DFF80CC2A068DB
:10722000991A21F07F41614500F2A5800144216057
:10723000012222742A680023C4E90133E361002A91
:1072400040F0A2802C60CAE75A1C9BF80210D2B210
:1072500091428BF8002004BF00228BF800201822F6
:1072600002FB03B31A799C68022A1CD0032A12D0AD
:10727000012A1FD1207CE8B9D3E90312A2605A6920
:10728000E2609A69644BA2611B78002B0CBF0B462D
:1072900003466360BEE700222B681146002B66D1CF
:1072A00042B12B6006E029680A468946002A59D176
:1072B000002323749BF800309BF801209A42C3D12D
:1072C0002B682FB9019A9A4202D1B8F1000F43D02E
:1072D000002B73D0D3F800A0504D4D4BD5F804755A
:1072E0001C68DFF848813E1B98F8003026F07F4686
:1072F00003369BB94FF48033C5F84433C5F80433E3
:10730000474B4FF400324FF00109C3F880211A6057
:10731000C5F80090FFF7BAFE88F80090B2452CBF80
:107320005444A41924F07F44C5F84045D5F80435E9
:10733000DB1B23F07F43E41B033324F07F44A34291
:107340000AD9D5F80435C5F84035FFF79FFE344B10
:107350004FF40032C3F800212F4B00221A7005B001
:10736000BDE8F08F94422CD09146D2699EE7197403
:107370000122DB6992E7D31A23F07F43834234BFB3
:10738000C31A0023236053E721681368994213D876
:10739000591A1160E26155E7091AD8691A4638B1DD
:1073A000034618688842F7D3401A186018461346F7
:1073B0002160E061DC6112E71346F2E7FFF76EFE41
:1073C000CAE74C4511D1CB692B6073B9DFF840E0B7
:1073D0000120CDE90212CAF80800CEF800300E4BA9
:1073E0001870FFF753FEDDE902121368D269C9F87D
:1073F0001C2012B11068034413602B68994218BF17
:10740000012755E7B4270020B5270020BC2700201E
:10741000B8270020AC270020A8270020001001403A
:1074200000E100E09C260020FEFF7F00A92700204D
:1074300008B5FFF733FE104B00200B2218809A701E
:107440000E4B18600E4B18700E4B18700E4B4FF40D
:107450008012E021C3F8802183F814131A6002F12E
:107460008042A2F56F22C2F8080583F81113074B7A
:10747000D2F804251A6008BD9C260020BC270020F5
:10748000B4270020B527002000E100E0B827002045
:10749000074B9B784BB132B128B10368187C20B9F7
:1074A00059745A617047072070470820704700BF21
:1074B0009C2600202DE9F7431E4FBB7805460E465B
:1074C0009046A3B398B304292FD943697BB3437C77
:1074D0000024012B0DF107000CBF8946A1468DF851
:1074E000074000F03DF80DF10600FFF791FDD0B127
:1074F00001230370104B4560D3F80435C0E90498AC
:10750000C0E902369DF806307B709DF8070000F058
:107510004BF824B9094B4FF48012C3F800212046E0
:1075200003B0BDE8F0830424EFE70724F7E708245D
:10753000F5E700BF9C2600200010014000E100E0BC
:10754000064A92783AB130B1426922B100220274FF
:107550000221FFF773BD0820704700BF9C26002062
:1075600070B5EFF3108672B60C4A946801239CB98B
:1075700093600B4B0B4DD3F8801029401160C3F87A
:107580008050D3F8841051604FF0FF32C3F884204C
:10759000047006B962B670BD0370FAE7C027002018
:1075A00000E100E0FC06FFBD084B9A6810B55AB137
:1075B00050B9EFF3108172B6054A1C6814605C681C
:1075C0005460986001B962B610BD00BFC0270020AA
:1075D00000E100E037B550E8023F1FFAA3F5C48888
:1075E000A54202BFBFF32F8F00220DE0C4892544BE
:1075F0008489A54228BF2D1BC3EA054540E80254F3
:10760000002CE8D14FF001028DF803200193019B7B
:107610009DF803200B6002F0FF0322B14B88006845
:10762000184403B030BD1846FBE70A884B889A42DD
:1076300009D150E8022FC2EA224240E80223002B7F
:10764000F7D1012070470020704701F01F024B095D
:107650000121914000EB830000F01DB801F01F03F1
:1076600001229A404B0900EB8300D14300F029B876
:107670004B0901F01F0150F82300C84000F0010041
:10768000704750E8002F0B4640E8003C9CF0000F8C
:10769000F7D11046704750E8003F43EA010240E846
:1076A000002C9CF0000FF6D11046704750E8002FD8
:1076B00002EA010340E8003C9CF0000FF6D11046BE
:1076C000704750E8003F03EA010240E8002C9CF0BC
:1076D000000FF6D11046704750E8003F03EB01025F
:1076E00040E8002C9CF0000FF6D11046704750E89F
:1076F000003FA3EB010240E8002C9CF0000FF6D104
:10770000104670470121FFF7C6BF0021FFF7CEBF2B
:1077100010B590B1D0E9012301689B1ADBB20A6071
:10772000013BDBB2FF2B026802D10020107110BDBB
:1077300011684C1C14600B70F2E70E20F7E737B5A8
:10774000054600240DF107008DF80740FFF708FFFC
:107750002A686B68116899420ED9481E106011F8AA
:10776000014CEB68A98A01FB0434AB6811791B1A40
:10777000DBB2994238BF13719DF80700FFF714FF81
:10778000204603B030BD37B5054600230DF1070094
:107790000C468DF80730FFF7E3FE2A681368591C82
:1077A0001160E968641AA98AB4FBF1F41C709DF8B1
:1077B0000700FFF7F9FE03B030BD826810B504463C
:1077C0002AB143690168006998470023A36010BD8E
:1077D0000EB403B5039921B104AB01AA019300F0E3
:1077E0006DF802B05DF804EB03B07047826830B406
:1077F0000468551C8560A154D0E901329A4202D335
:1078000030BCFFF7DABF30BC704700002DE9F84FFD
:107810009946DDE90A431746824688460A4601260C
:10782000BA420FD24E4538BF4E4613F0010B01D17C
:1078300064B900240125B9F1010F1AD909F1FF3902
:107840007D43F8E7B2FBF7F20136E9E79B070ED577
:10785000B9F1000F0CBF30252025A642EAD2013C29
:1078600029465046FFF7C2FF002CF6D1E1E720255C
:10787000F3E7B8FBF5F39F42E2D9DFF83C90B8FBA1
:10788000F5F3504619F8031005FB1388FFF7AEFF18
:10789000B5FBF7F3BD4207D2BBF1000F02D00CB12C
:1078A000A64203D3BDE8F88F1D46E8E720215046E5
:1078B000013CFFF79BFFF2E796AD02002DE9F74F81
:1078C000054617468846002900F0318118F8011B4B
:1078D00049B92B7B002B00F02A81284603B0BDE874
:1078E000F04FFFF76ABF252940F0C080002698F8C6
:1078F00000302D2B424608F1010823D0302B24D034
:107900002B2B25D000242A2B02F1010123D13B6827
:107910001A1D1B683A601C440A4613782E2B26D188
:1079200001324FF0000A104610F8011BA1F1300C93
:10793000BCF1090F1DD80A2303FB0A13A3F1300A77
:107940000246F0E746F00106D1E746F00206CEE730
:1079500046F00406CBE711F8013CA3F130000928FA
:10796000DBD80A2202FB0434303C0A46CBE74FF056
:10797000000A12F8011B01F0FB0068289046F8D0BD
:1079800069290ED04AD8582964D006D825296DD047
:1079900098F80030002B99D19BE7632962D06429C5
:1079A000F6D13A68D2F80090111D89EAE97239607F
:1079B000A2EBE9724FF0010B092A5BDCD34538BF1B
:1079C000D3462CB1B9F1000F01DB710700D5013CA2
:1079D000B20702D5BAF1000F04D0F30702D4002C8D
:1079E0004ED10024B9F1000F52DAC9F100092D215E
:1079F0002846FFF7FBFE06F00302022A05D1BAF182
:107A0000000F02D1002C47D10024CDE90046534697
:107A10000A2249462846FFF7F9FEB9E773294CD0F8
:107A200014D87029B4D13B681A1D3A603021284619
:107A30001C68FFF7DBFE78212846FFF7D7FE0022FF
:107A40000823CDE9003221461022E3E775292BD027
:107A500078299DD139680A1D3A60CDE90046534620
:107A6000102228E03B681A1D19783A602846FFF773
:107A7000BDFE8DE70A230BF1010BB2FBF3F29BE78E
:107A8000A345AFD220212846013CFFF7AFFEA6E771
:107A90007007B0D52B21ABE7A345B6D230212846DD
:107AA000013CFFF7A3FEADE73968CDE900460A1DAA
:107AB0003A6053460A220968ACE73B681A1D3A60EF
:107AC000F107D3F8009020D4B9F1000F25D0484633
:107AD00002F0DCFF0646B44200D9C4B909F1FF390F
:107AE00020E028460136FFF781FE19F8061000292C
:107AF000F7D1A642BFF44CAF002C3FF449AF202190
:107B00002846013CFFF772FEF3E70026EDE720214F
:107B10002846013CFFF76AFEDDE74E46DBE72846D4
:107B2000FFF764FE19F8011F0029F8D130E703B010
:107B3000BDE8F08F29DF704728DF704770B5036814
:107B40009D6886B004460E466DB114220021684639
:107B500002F047FFA3680593237901962BB1012B0F
:107B60000DD06846A84706B070BD01238DF80030DF
:107B700023690293E368039363690493F1E70223A3
:107B80008DF80030E3681B030293F5E7034B187A86
:107B90000122B0FA80F05A7440097047CC270020C7
:107BA00070B5244D244E2B7A2C463BB923492448EA
:107BB000FFF710FD306008B9686070BD02232372C2
:107BC00033681A7972B1012A24D018460321FFF7CD
:107BD000B5FF00232372636018491948BDE870405F
:107BE000FFF723BDD3E90520121AB2F5805F28BF45
:107BF0004FF48052D3E903159208012A014438BF9B
:107C000001222844FFF796FF50B11128DDD101234E
:107C10002372D2E7D3E903021044FFF78DFFF3E7A5
:107C2000237C002BC9D10146BDE87040022000F042
:107C300009B800BFCC270020E4270020E02700205F
:107C4000E01D002038B5831E012B45D8234C237A34
:107C5000002B41D0022B09D1032830D0204B1B68C8
:107C60000022E2601A793AB1012A22D0637C7BBB00
:107C7000BDE83840FFF794BFD3E905128D1AB5F57A
:107C8000805F94BF521902F580529A619142EDD102
:107C900002284FF0000308BF19462372104B18BF8B
:107CA0000D211868FFF74AFF0E490F48FFF7BDFC8A
:107CB000DCE71A6901321A615B699A42E7E7E36817
:107CC0000133082B01D8E360D0E70023E360DFE74E
:107CD000BDE8384002F056BC38BD00BFCC270020BC
:107CE000E4270020E0270020E01D002000F0FD0335
:107CF000012B08D1044B00225A74421E50425041BD
:107D00001874FFF74DBF7047CC270020FFF700BD68
:107D1000F8B546790146721E0546002393422D6848
:107D200003D30024A64202D8F8BD0133F6E70F685A
:107D30002846FFF728FD01343946F3E72DE9F843DB
:107D4000868ACD1C0746FFF7FAFC043E35440446FC
:107D5000B5FBF6F5F0B14FF48073EDB28380C680C9
:107D6000013D076081464FF00008A84512D2384611
:107D7000FFF7E5FC064648B163790133637108F10A
:107D80000108C9F8000007608146EEE72046FFF7CA
:107D9000BFFF34462046BDE8F88301210430FFF7D9
:107DA0009BBC10B5012104460430FFF7A0FC10F085
:107DB000FF0F04D12046BDE81040FFF7A9BF10BD5A
:107DC0002DE9F843C7880546181D8846B0FBF7F42F
:107DD000164607FB14003CB9A7EB0009B14528BFC4
:107DE000B14626B9BDE8F8832D68013CF3E70430BD
:107DF000A6EB09064A4608EB0401284402F0C8FD38
:107E0000B7424C442D68B9464FF0000028BFB14638
:107E1000E7E72DE9F843C7888846191D0546B1FBF9
:107E2000F7F4164607FB14113CB9A7EB0109B1455D
:107E300028BFB14626B9BDE8F8832D68013CF3E7B9
:107E400004312944A6EB09064A4608EB040002F077
:107E50009FFDB7424C442D68B9464FF0000128BF42
:107E6000B146E7E741DF7047064B10B500241C70B0
:107E7000054B1C60BFF35F8F0449054800F030F8E4
:107E8000204610BDF0270020F4270020C4AD0200DA
:107E9000E827002007B500230DF107008DF8073013
:107EA000FFF75EFBF1EE103A23F09F03E1EE103A8C
:107EB000BFF35F8F094B4022C3F884219DF8070070
:107EC000FFF772FB02F06EFB20B1FFF7CBFF03B0B0
:107ED0005DF804FB20BF40BF20BFF8E700E100E0F1
:107EE0000B684A684360934208BF0023016008BFE3
:107EF00043607047436843B10268916852680B441D
:107F00009342436004BF00234360704710B50D499E
:107F1000A1F59472914201D800200FE08B1ADB107A
:107F200003EBD3735B1002EBC30452F8333083428C
:107F300005D802D204F10802ECE7606810BD2146C2
:107F4000E8E700BF14AF020008B5FFF7DFFF024B00
:107F5000002808BF184608BDD9AD02000C4B1B789D
:107F6000062B10D10B4B1B681A070CD10A4B186853
:107F700000F0F003302B08D000F0E000A0F1400347
:107F8000584258417047002070470120704700BF99
:107F9000E00F00F0E40F00F0E80F00F0094B1B7851
:107FA000062B0CD1084B1B681A0708D1074B186821
:107FB00000F0F000A0F13003584258417047002013
:107FC000704700BFE00F00F0E40F00F0E80F00F092
:107FD00008B5FFF7C3FF28B17D4B7E4A1B68C3F38A
:107FE00004231360FFF7DAFF10B17B4B7B4A1A6062
:107FF000FFF7B4FF28B17A4B7A4A1B68C3F34233C8
:108000001360FFF7CBFF20B1774AD36823F080736A
:10801000D360FFF7A3FF40B14FF080430022C3F8C5
:108020000C21C3F81021C3F83825FFF7B7FF10B1B2
:108030006E4B03221A60FFF7B1FF40B16C4B052273
:108040001A6001229A6700229A603F225A60694BA7
:108050001B78062B50D1684B1B6819074CD1674B16
:108060001B6803F0F003502B46D14FF08052644B55
:10807000D2F80414C3F82015D2F80814C3F8241554
:10808000D2F80C14C3F82815D2F81014C3F82C1524
:10809000D2F81414C3F83015D2F81814C3F83415F4
:1080A000D2F81C14C3F84015D2F82014C3F84415B4
:1080B000D2F82414C3F84815D2F82814C3F84C1584
:1080C000D2F82C14C3F85015D2F83014C3F8541554
:1080D000D2F83414C3F86015D2F83814C3F8641514
:1080E000D2F83C14C3F86815D2F84014C3F86C15E4
:1080F000D2F84424C3F87025FFF730FF28B1414B74
:10810000414A1B6803F04F031360FFF727FF48B194
:108110004FF08043D3F80024D20744BF6FF0010230
:10812000C3F80024394B1B68062B08D1384B1B6859
:10813000062B01BF374A136843F480631360364A45
:10814000D2F8883043F47003C2F88830BFF34F8F01
:10815000BFF36F8F4FF01023D3F80022002A03DB08
:10816000D3F80432002B2FDA2C4B0122C3F804255C
:10817000D3F80024002AFBD04FF010221521C2F8BA
:108180000012D3F80024002AFBD04FF01023152250
:10819000C3F80422214B1A46D3F800140029FBD05F
:1081A0000021C3F80415D2F80034002BFBD0BFF334
:1081B0004F8F19491A4BCA6802F4E0621343CB602F
:1081C000BFF34F8F00BFFDE7164B174A1A6008BD7B
:1081D000240300104035014074C007400DF0ADBAD3
:1081E000440200103C050040F0ED00E0A005004016
:1081F00010560040E00F00F0E40F00F0E80F00F030
:1082000000C0004058020010E40E00403001001091
:10821000340100103C17004000ED00E000E0014098
:108220000400FA05F41D00200090D003044B1A5CF2
:10823000012393404FF0A042C2F80C35704700BFB5
:10824000CEB20200044B1A5C012393404FF0A042CF
:10825000C2F80835704700BFCEB2020008B5002052
:10826000FFF7F0FF0120FFF7EDFF0220FFF7EAFF25
:108270000320BDE80840FFF7E5BFC20708B5014687
:108280000CD54FF0A0430322C3F84427C3F8482776
:10829000C3F84C27C3F85027FFF7E0FF8B070AD538
:1082A0004FF0A0430C22C3F83427C3F83827C3F893
:1082B0003C27C3F8402708BD38B5074C051E04F11C
:1082C000080318BF1C4623682BB11A6822605B683C
:1082D00028469847F7E738BD0028002020B9054B0D
:1082E00001225A70FFF7E8BF012802D1014A9070BD
:1082F000F8E77047F827002020B9034B01225A7095
:10830000FFF7DABF704700BFF827002038B50B4CE5
:10831000237883B90A486360A3602361E36000F0B7
:10832000D3F8054602F03EF908B900F0D9F8012368
:108330002370284638BD8525FBE700BFF8270020BD
:10834000DD82020037B50B4C00230DF107008DF8DC
:108350000730FFF705F9E368013BE360E56815B90D
:1083600000F0D2F8A5709DF80700FFF71DF903B0E3
:1083700030BD00BFF8270020012813B509D018B17F
:1083800003281CD002B010BD0F4B0122C3F880207F
:10839000F8E70E4C00230DF107008DF80730FFF7CA
:1083A000DFF823780BB9FFF7B1FFE3689DF807000A
:1083B0000133E3600123A370FFF7F6F8E2E700F072
:1083C0008FF8FFF7BFFFDDE700E100E0F8270020AE
:1083D0001FB503788DF8003043680193037A8DF858
:1083E0000830C3680393054A054B684653F82130AB
:1083F00052F82110984705B05DF804FB0C280020C6
:10840000102800201FB503788DF8003043680193D1
:1084100083688DF80830C3680393054A054B6846A6
:1084200053F8213052F82110984705B05DF804FB4D
:108430000C28002010280020F0B5194B067891F880
:108440001DE043F82620174B94460A6943F826207E
:10845000154B03F806E00C4607460FCC89B06D4675
:108460000FC594E80F0085E80F000496BEF1000FD9
:108470000AD0BCF1000F0D4A694608BF0022381D22
:1084800000F07CFD09B0F0BDBCF1000F084A694660
:1084900008BF002207F10C0000F072FBF2E700BFFA
:1084A000102800200C28002014280020D18302006E
:1084B0000584020000F18040002382B0036003685D
:1084C0000193019B02B07047044A137923B901213B
:1084D000106091801846704785207047182800204A
:1084E000084B1A68D20706D4E02283F80023012241
:1084F000C3F880211A604FF080430122C3F8182589
:10850000704700BF00E100E0044B01221A604FF009
:108510008042D2F81834DB03FBD470470C000040D3
:10852000124B1B6810B573B14FF48070FFF7C2FF98
:108530004FF080430122C3F808230D4B587910B93E
:108540005A711B6898470B4B1B6873B14FF48270CC
:10855000FFF7B0FF4FF080430222C3F80823044B1B
:1085600001201B68BDE81040184710BD0001004005
:10857000182800200401004000F1804000F5C040B0
:10858000002382B0036003680193019B02B070472F
:10859000800000F1A040D0F8003723F44033C0F849
:1085A0000037D0F8003743EA0141C0F800177047A0
:1085B000054B4FF0FF32072843F8202084BF1B18DB
:1085C00083F84820704700BF2028002010B5184CC1
:1085D00094F8583053BB04F130032021FF220139B5
:1085E00011F0FF0103F8012BF9D1C8B2FFF7E0FF4A
:1085F00001310C29F9D1042200210E4802F0F1F9D1
:108600000D4BE02283F806234022C3F880214FF46B
:10861000BE701A60FFF7B0FF084B4FF00042C3F87E
:108620000423012384F85830002010BD0820FCE703
:10863000202800207428002000E100E000600040B5
:10864000034B93F85800003018BF0120704700BF5B
:1086500020280020F0B5374B1C1894F93040002C2E
:108660001C4664DA8D78C5F34005002D0BBF082346
:1086700000230C260826B34201D10420F0BD54F893
:10868000237001373FD1261844F8232086F8303074
:1086900015B9E21882F848008A78550713D4D6072E
:1086A00033D5820002F1A042D2F8005725F002052E
:1086B000C2F80057204EC50800F007070122BA4053
:1086C000775D3A4372558A780D7812F0020225D010
:1086D0009B0003F1804303F5C0430202D3F8101559
:1086E00021F4473121F44071C3F810152D04D3F85B
:1086F000101502F4F85205F440352A430A43C3F832
:1087000010250020BAE70133B5E74D7800F5E07297
:108710004FF0A046AD0046F82250CBE7083B23447B
:1087200093F8501041EA851583F85050E9E7082086
:10873000A4E700BF202800207428002038B5204C72
:10874000251895F93020072A18DD224492F8483080
:108750009B09032B0DD14FF0A043D3F81035C34034
:1087600013F0010F0CBF02210321BDE83840FFF7D1
:108770000FBF012B14BF03210221F6E7D3B2072B51
:108780001CD8930003F1804303F5C043D3F81005D0
:1087900040F00100C3F8100502F14000800080B2F3
:1087A000FFF7EAFE51B195F9303054F823302BB180
:1087B000012303FA02F2034BC3F8042338BD00BFC0
:1087C00020280020006000404FF0A043D3F810356F
:1087D00023FA00F000F00100704700002DE9F04F8F
:1087E00085B000245A4D01944FF48072012102F1AA
:1087F000804303F5C04390B21B68012B06D1D5F826
:1088000004330B4202D0FFF7B7FE0C430432B2F53B
:10881000907F4FEA4101EAD14E4B1B68012B0AD1F0
:108820004FF4BE70FFF7A8FE4FF0A04344F00044A1
:10883000D3F81035019314F0FF0F1AD0464F0025DE
:108840000126344210D0AB0003F1804303F5C0434E
:10885000D3F81005D3F8101557F8253023B1C1F31C
:108860000141C0F3042098470135082D4FEA460620
:10887000E7D1002C64DA00224FF0FF33CDE9022368
:10888000354D01274FF0000A344E54464FF0A048B2
:1088900016F9012B531C46D0D2B222F0C0094FEA80
:1088A000D90104A8084402F0070310F804CC07FA21
:1088B00003F31CEA030F36D005EB090C92099CF96F
:1088C00030C055F82CB0BBF1000F0AD1032A2AD1D1
:1088D0000DF1080E1EF801C04CEA030C0EF801C0A1
:1088E00001E0032AF4D009F5E07110F80C0C58F8F7
:1088F00021101842C1F3014105D0022913D1032AE6
:108900000BD1114604E003290DD1032A05D1022120
:108910004846FFF73DFE0134E4B2BBF1000F02D040
:1089200011464846D8470AF1010ABAF1040FAFD1FF
:1089300034B14FF0A043019AD3F81035934202D1DD
:1089400005B0BDE8F08F0193029B03939AE700BF47
:10895000006000407C61004020280020702800203A
:10896000014B1B68184700BF7C2800200E4B984223
:1089700037B50D4602D0002003B030BD00230DF105
:1089800007008DF80730FEF7EBFD084B1C7914B992
:1089900001221D601A719DF80700FEF705FE002CEC
:1089A000E9D01120E8E700BF002000407C2800202B
:1089B000034B984201BF034B00221A601A717047A3
:1089C000002000407C2800200023435082B0435800
:1089D0000193019B02B070470A4610B54FF48E71A7
:1089E000FFF7F2FF136A9168C95C136A01331362DF
:1089F000C0F81C1510BD8B690A4610B54FF4847180
:108A000023B9FFF7E1FFD0F8183510BDFFF7DCFF01
:108A1000536AD168D0F81805C854536A01335362B9
:108A2000F3E700001FB501238DF80030044BCDE9BA
:108A30000110D3E900126846904705B05DF804FBC9
:108A40008428002030B54C4AD2F8043313F4007F58
:108A500085B015464FD0D2F82431002B4BD04FF4BF
:108A600092711046FFF7B0FF4FF40173C2F808335C
:108A7000424B93F8291009B9012151603E49022265
:108A80008DF80020D1F88024C1F8802403929A69DF
:108A90000292DA6801920022C3E906226846D3E90D
:108AA000001290473448D0F81C315BB133490A6A50
:108AB0004B699A420A464BD291F82830002B47D195
:108AC000FFF78AFF2C4AD2F8443193B14FF4A271D8
:108AD0001046FFF779FF294B93F8291009B10121BE
:108AE00011609A692AB100229A61586AD968FFF721
:108AF00099FF05B030BDD5F804335B07D2D5D5F862
:108B00000831002BCED01D4C1B482146FFF773FFC8
:108B1000636AA2699A422346C4D1E269E1684AB114
:108B20002369E3600023606AA261E3616362FFF787
:108B300079FFB7E794F829200AB901226A600E4A42
:108B40004FF40170C2F8080300229A61586AEEE7F8
:108B50004FF48E710848FFF737FF51690029B1D0F3
:108B60000023029191688DF80030019153616846AD
:108B7000D2E900139847A5E7002000408428002090
:108B80002DE9F8435A4B047991462C2202FB04321A
:108B9000064692F82A200D469846002A40F0A38007
:108BA00054490068FFF7E2FE0746002840F09D8028
:108BB00029683368481C0BD04FF0A04001228A403E
:108BC000C0F8082501F5E0724FF0030C40F822C010
:108BD0006868421C1FBF00F5E0724FF0A04C4FF0D8
:108BE000000E4CF822E0AA6995F814C0C3F82425B9
:108BF0006A7DBCF1010F4CEA0202C3F86C25C3F890
:108C00001405C3F80C151DD1AA68511C1FBF02F52D
:108C1000E0714FF0A0404FF0000C40F821C0E9682F
:108C2000481C0BD04FF0A04C01208840CCF8080520
:108C300001F5E0704FF0030E4CF820E0C3F8081582
:108C4000C3F810252C23634308EB0302C2F80490F9
:108C50002A6948F80320B9F1000F31D04FF48E7122
:108C600030682D7FFFF7B0FE30684FF4A271FFF738
:108C7000ABFE3268204BC2F80433120B53B2002B08
:108C8000A8BF03F160404FEA53134FEA4511BABF42
:108C90001A4802F00F0500F561404FEA8303C9B29C
:108CA00003F16043B4BF415580F8001303F56143FD
:108CB00002F01F02012101FA02F2C3F880211A60BA
:108CC00033680422C3F800252C2303FB048300220D
:108CD000C3E9062283F829205A61012283F82A2059
:108CE0003846BDE8F8830827FAE71127F8E700BF00
:108CF00084280020458A02008000020014ED00E074
:108D0000F8B5047900682D4D0023C0F800352C23F8
:108D100003FB04535B6873B1294BC0F80833020BA3
:108D200053B201215B0902F01F0201FA02F2203363
:108D3000244941F82320D0F80C65D0F81415D0F858
:108D40000835D0F810254FF0FF37BE42C0F8147533
:108D500018BF06F5E076C0F80C75C0F80875C0F8C5
:108D600010751EBF4FF0A0474FF0020C47F826C009
:108D70004E1C1FBF4FF0A04601F5E071022746F8D8
:108D80002170511C1FBF4FF0A04102F5E072022676
:108D900041F822605A1C1FBF03F5E0734FF0A04258
:108DA000022142F82310FFF703FE2C2303FB045497
:108DB000002384F82A306360F8BD00BF84280020B7
:108DC0008402020000E100E02DE9F843224F067919
:108DD0004FF02C0909FB067480466569002D37D1D8
:108DE0006261A16025624FF48E71006884F828509A
:108DF000FFF7EAFDD8F80000012383602146FFF762
:108E0000EBFD6368A1462BBBD8F80050226A63696A
:108E10009A4212D3D8F80030D3F81C21002AFBD094
:108E20000122DA6000202C2303FB06760023736105
:108E3000BDE8F88394F8283043B9D5F81C31002BED
:108E4000F8D049462846FFF7C7FDDFE70F20EAE7DD
:108E50001120EDE72846EBE784280020002343504B
:108E600082B043580193019B02B070471FB50123A4
:108E70008DF80030054B8DF8080001916846D3E964
:108E80000012904705B05DF804FB00BFB028002039
:108E90007FB5384AD2F82461002E49D010464FF4ED
:108EA0009271FFF7DBFF02238DF80030D2F8803497
:108EB000C2F880340393D2F83C358DF808302E4B3D
:108EC000DA6801920022C3E906226846D3E900125B
:108ED0009047284AD2F8443173B14FF4A27110463A
:108EE000FFF7BCFF244B996931B100219961D2F899
:108EF0003C05D968FFF7BAFF1E4AD2F82031ABB162
:108F00004FF490711046FFF7A9FF1B4B596969B1E7
:108F1000D2F84C158DF80810002299688DF80020C1
:108F200001915A616846D3E90012904704B070BDC0
:108F3000D2F81031002BCCD04FF488711046FFF7D7
:108F40008DFF0D4BD2F83C0599698842C1D1DC698F
:108F5000D96864B1D2F8005225F02005C2F8005259
:108F60001A699C61DA60DE61FFF780FFB1E79C61FE
:108F7000FAE700BF00200040B02800202DE9F843A8
:108F80005E4B06799146242202FB0632044692F893
:108F900020200D469846002A40F0AB8058490068D2
:108FA000FFF7E4FC0746002840F0A5802968236805
:108FB000481C0BD04FF0A04001228A40C0F8082581
:108FC00001F5E0724FF0030C40F822C06868421CC3
:108FD0001FBF00F5E0724FF0A04C4FF0000E4CF8B0
:108FE00022E0AA6995F814C0C3F824256A7DBCF173
:108FF000010F4CEA0202C3F86C25C3F80C15C3F844
:1090000014051DD1AA68511C1FBF02F5E0714FF075
:10901000A0404FF0000C40F821C0E968481C0BD07C
:109020004FF0A04C01208840CCF8080501F5E07015
:109030004FF0030E4CF820E0C3F80815C3F81025D4
:109040002423734308EB0302C2F804902A6948F80A
:109050000320B9F1000F3BD04FF4887120682D7FB9
:10906000FFF7FCFE4FF490712068FFF7F7FE4FF416
:1090700092712068FFF7F2FE20684FF4A271FFF7AB
:10908000EDFE22681F4BC2F80433120B53B2002BC3
:10909000A8BF03F160404FEA53134FEA4511BABF2E
:1090A000194802F00F0500F561404FEA8303C9B289
:1090B00003F16043B4BF415580F8001303F56143E9
:1090C00002F01F02012101FA02F2C3F880211A60A6
:1090D00023680822C3F80025242303FB068300220B
:1090E000C3E906225A61012283F820203846BDE8F0
:1090F000F8830827FAE71127F8E700BFB028002017
:10910000918E02001003020014ED00E0F8B504791E
:1091100000682D4D0023C0F80035242303FB0453C1
:109120005B6873B1294BC0F80833020B53B20121BD
:109130005B0902F01F0201FA02F22033244941F8D0
:109140002320D0F80C65D0F81415D0F80835D0F8E5
:1091500010254FF0FF37BE42C0F80C7518BF06F55A
:10916000E076C0F81475C0F80875C0F810751EBF19
:109170004FF0A0474FF0020C47F826C04E1C1FBF0F
:109180004FF0A04601F5E071022746F82170511C0E
:109190001FBF4FF0A04102F5E072022641F82260A5
:1091A0005A1C1FBF03F5E0734FF0A042022142F8A2
:1091B0002310FFF7FDFB242303FB0454002384F852
:1091C00020306360F8BD00BFB0280020100302000B
:1091D00000E100E001F06043B3F1005F2DE9F041F0
:1091E000074632D11C4B0679242505FB06359846E7
:1091F0006C6964BB6A61A96000684FF49071FFF705
:109200002DFE4FF4AC713868FFF728FE3B686A69A1
:10921000A968C3F84415C3F8482501229A606A6812
:10922000BAB9D3F82011D3F8582149B9002AF8D097
:109230000F20242303FB068600237361BDE8F08121
:10924000002A14BF0F200020F3E71020F6E71120BA
:10925000F4E72046F2E700BFB0280020032813D827
:10926000012A0BD1012908D100F10E02D2B200EB84
:1092700040000C4B1A540020704700220129F6D000
:109280004BB24BB1022901D007207047054B00EBD0
:10929000400018444270EEE7024900EB40000844E9
:1092A0008270E8E7D428002008B5012202210020BE
:1092B000FFF7D4FF08B1072810D1072202210120AF
:1092C000FFF7CCFF08B1072808D100210A22084681
:1092D000FFF7C4FF10B1072808BF002008BD000039
:1092E0000388102B10B502D0112B1ED010BD1A4CC4
:1092F0002168B1B901220846FFF7B0FF08B107287D
:1093000024D1072202210120FFF7A8FF08B1072876
:109310001CD1042202210020FFF7A0FF08B107287A
:1093200014D1236801332360E0E70B4A1368013B43
:109330001360002BDAD1FFF7B7FF0028D6D0074B18
:109340001B68002BD2D0BDE810401847034B1B68A8
:10935000002BE6D09847E4E7E4280020E02800202E
:1093600075DF704776DF70478ADF70478BDF7047A5
:109370008CDF70478FDF704708B5FFF7F7FF0749AD
:109380000748FFF7F1FF08B1FDF7FEFD0120FEF7EA
:1093900059FF0020BDE80840FEF748BFCC20002060
:1093A00086B3020003881F2B13B5044654D024D87B
:1093B000112B30D01D2B39D0102B1CD12C4B2D490B
:1093C0001888000440F00300FDF748FB0022A18844
:1093D000294800F0F7FF08B1FDF7D6FDA18827481E
:1093E00000F056FC08B1FDF7CFFD0120FEF71EFF8F
:1093F0000020FEF727FF02B010BD3B2B32D0562BCA
:1094000030D0212BF7D1002301A98088ADF804309A
:10941000FFF7B0FF17E0164B19491888000440F019
:109420000300FDF71BFBFFF7A7FFE4E7818C154A5C
:10943000006A00F0DDF958B10123134A134904F121
:109440000A00FFF795FF0028D5D0FDF79DFDD2E774
:109450000F49FFF789FFF6E700F108018088FFF761
:109460007FFFF0E71321A088FFF77CFFEBE700BF49
:10947000841D0020F4B20200E8280020001E002015
:10948000FFB2020094B302007EB3020086B3020072
:10949000CC2000200146014800F07CBEE8280020D6
:1094A0000D2810B50C4609D10C4800F05FFF48B1FB
:1094B00043F20202904210D008280ED0BDE81040BE
:1094C000FDF762BD064B074918880004224640F0AC
:1094D0000300BDE81040FDF7C5BA10BDE828002024
:1094E000841D00200DB3020070B50D78012D0646D5
:1094F0000C4602D0022D1CD070BD0A1D17484988A9
:1095000000F060FF164B628818881649000440F08E
:109510000300FDF7A7FAFDF721FD08B1FDF734FDC3
:10952000304600F0F7FE0028E6D0BDE87040FDF7B9
:109530002BBD0B4B0A7918880B49000440F003003F
:10954000FDF790FA237928461BB1BDE87040FEF77D
:109550006DBEBDE87040FEF775BE00BFE828002074
:10956000841D002024B3020057B3020007B54FF456
:1095700000410020FDF7AEF808B1FDF705FDFCF74E
:10958000CDFFFDF755FF08B1FDF7FEFC0120FEF70A
:1095900074FE40F2666201212448FDF78BFC08B19D
:1095A000FDF7F2FCFEF760FC08B1FDF7EDFC00F002
:1095B00073FF08B1FDF7E8FC002301A90120019326
:1095C00001F03AF808B1FDF7DFFC01A801F0DEF880
:1095D00008B1FDF7D9FC0021154800F0D9FC08B10D
:1095E000FDF7D2FC134800F019FB08B1FDF7CCFCE5
:1095F000114B1248019301A900F024FE08B1FDF7B8
:10960000C3FC0F4B0F491888000440F00300FDF71E
:1096100025FAFFF7B1FE0020FEF708FEFDF7BEF8C1
:109620000028FBD1FEF736FCF8E700BFF81D00204C
:10963000F828002095940200E9940200E828002010
:10964000841D0020A2B302000369C1688B429DBF44
:109650008268D21802F1FF3203F1FF3394BF501A2F
:10966000581A70472DE9F041D0E9027405463E1BB7
:109670004068964220448846144404D901F088F991
:10968000EC60BDE8F0813246E41B01F081F922462E
:1096900008EB06016868F1E72DE9F843C56806465E
:1096A000894617464FF000083469B3687068A542D0
:1096B00028BFE418013C621B5C1BBC4228BF3C462F
:1096C000944228BF144649462844224601F060F9D6
:1096D000B3682544AB4208BF00253F1BA044A1440A
:1096E000F560E1D14046BDE8F883000010B5114CAB
:1096F000114AA2610223C4E90433104BE361A2645E
:109700004FF400730E4A2362E264002310220D49D5
:10971000A362E01D6362E362A3656365E36522659E
:1097200001F092F90849204601F08EF92023A37137
:1097300010BD00BF2C290020C2B30200B4290020B4
:10974000A4290020CBB30200CFB30200F8B5184C17
:10975000182300FB033503FB00402544C46A012C99
:109760000F46164611D024B1022C1BD000242046EF
:10977000F8BD2846FFF768FFB042F8D332463946B5
:109780002846FFF76FFF3446F1E72846FFF75CFFF6
:109790008642344628BF0446224639462846FFF70B
:1097A00061FFE4E72846BDE8F840FFF775BF00BF5A
:1097B0002C290020FFF79ABF70B5C0B14AB11688B6
:1097C0000024B44203D305196D789D4208D0A1420C
:1097D00001D800200BE0055D01352C44A4B2F0E770
:1097E000A142F6D9A31C1380005D013880B270BD80
:1097F000F7B500230746ADF80630144612B900202D
:1098000003B0F0BD09230DF10602FFF7D5FFBDF847
:1098100006500646002DF2D00028F0D0204601F078
:1098200035F9B0420246EAD17919204601F075F8BF
:10983000B0FA80F04009E3E773B50191019C064658
:109840006CB100252C46294601A8FDF711FF18B17F
:1098500006EB440301349D800135142DF3D13046CD
:10986000346002B070BD00002DE9F04703888488A1
:10987000112B8CB006463CD01A2B3FD0102B17D1A1
:10988000274DAB68DB43009369686846FDF719FF15
:10989000009901A8FFF7D0FF0DF108094FF000086B
:1098A000019B984507D3132C13D90420FDF76CFBBB
:1098B0000CB0BDE8F08739F802AB002701375146FC
:1098C00005EB8700FDF7CAFE1D2FF7D108F101084F
:1098D000E6E721461348FDF7B8FE21461248FDF79A
:1098E000B4FEF37B012BE3D010482146FDF7ADFE1B
:1098F000DEE70C482146FDF7B1FED9E7057A0C48B2
:109900002D09012D214606D9FDF79FFE022D214686
:109910000848F0D0EAE7FDF7A1FE21460548EAE74E
:10992000B42B0020BC2B0020B82B0020C02B002023
:10993000C42B0020C82B00209BDF70479DDF7047A1
:109940009EDF704730B50B4B19680B4B00229142DC
:1099500001D1002009E09D788478A54206D11D88B8
:109960000488A54202D1054B186830BD013204338A
:10997000EDE700BF342C00203C2F00202C2C0020D1
:1099800070B590F8C63216467622A0B002FB0300EE
:109990000D46FFF7D7FF044660B17C22002101A8E5
:1099A00001F01FF801238DF80430ADF80660029530
:1099B00001A8A04720B070BD2DE9F74F8B4690F865
:1099C000C61201927623804601FB03000091FFF747
:1099D000B9FF814670B3194E3568052D2AD8184C49
:1099E0000099019A4FEAC51A04EB0A07762303FB94
:1099F00001817A80381D1A4600F0CAFFBBF1000FC2
:109A000014BF0023022304F80A300E4BC7F87C90E1
:109A10001A680135954235601D460BD10027E36F6A
:109A2000204698472B6801379F4204F18004F6D303
:109A30000023336003B0BDE8F08F00BF382F002053
:109A4000382C0020342C002037B590F8C53290F81F
:109A5000C6220C46C3B1013B7621DBB2514312252D
:109A600005FB031303445B8A01339BB2ADF804305A
:109A7000762303FB020201A91389ADF806302046C4
:109A8000FFF75CFF03B030BD762303FB0203DB88E6
:109A9000ECE7000038B54FF433720D460021044660
:109AA00000F09FFF114AA4F8CA5200231360104A25
:109AB00084F8C9321268226084F8C63284F8C5324C
:109AC000224601212846FFF737FF112806D020B98A
:109AD000012384F8C73284F8C80238BD012284F813
:109AE000C72284F8C8221846F7E700BF382F0020A5
:109AF0003C2F002070B50C4690F8C922174901325E
:109B00000968D2B28A42034680F8C9224FF00005A4
:109B100021D290F8C61280F8C5520131C9B280F83E
:109B2000C612762011FB00F00D4E1A1856F82110BF
:109B30001950012115712046FFF7FEFE014648B17C
:109B400083F8C75222461846FFF71AFF054B032237
:109B50001A705C8070BD80F8C752F7E7342C002083
:109B60003C2F0020382C00202DE9F34790F8C652F6
:109B700090F8C542762315FB03F54619122796F88F
:109B800004E017FB045304F1010C0A33F4450344C9
:109B900011D000F11C0A06F122080EF1FF39AA4487
:109BA000E5B2AE450BD9A1451D891AD133899D4235
:109BB00026D100231DE01B893089834205D1012372
:109BC0000B70002002B0BDE8F0870133ADF804301F
:109BD000ADF8060000230B70104601A9FFF7B0FE98
:109BE000F0E707FB04F3013538F803C065450DD1F4
:109BF000534490F8C552013580F8C5520134CFE77F
:109C00000135ADF80450ADF80630E3E70CF1FF3C48
:109C1000ADF80450ADF806C0DCE7000058B1074AC3
:109C200000231360064A01211170064A1360064A98
:109C30001060184670470E20704700BF342C00207B
:109C4000302C0020382F00202C2C002010B504468A
:109C500080B10C4B1B787BB1FFF774FE70B90A4AD8
:109C60001368052B0CD80949246841F823400133B7
:109C7000136010BD0E20FCE70820FAE70020F8E78B
:109C80000420F6E7302C0020342C00203C2F00204C
:109C900050B1084A12784AB1074A126832B190F8B6
:109CA000C7322BB9FFF7F6BE0E2070470820704769
:109CB00011207047302C0020342C00202DE9F74370
:109CC0000C460546C8B1C1B18B4B1B78ABB10388BC
:109CD000302B35D014D8112B00F0FE8094F8C83208
:109CE0005BB12B88303B1F2B07D8B4F8CA32A98848
:109CF000994202D12046FFF7CDFE03B0BDE8F083C4
:109D0000322B42D0332BE9D18288B1F8CA32934248
:109D1000E4D1C68891F8C6C291F8C572002E00F051
:109D2000A780762101FB0C4C7B1C9CF804100026BC
:109D30008B428DF8076000F0CB8084F8C53287E055
:109D40008388B1F8CA229A42C8D1C688A6B991F8C8
:109D5000C632C068762113FB01F3E118E0502B698D
:109D6000C1F8063020461146FFF76EFE0146002876
:109D7000B4D084F8C76246E000212046FFF71CFEFD
:109D8000A9882046FFF7B6FEA8E78288B1F8CA3254
:109D90009342A3D1C388002B57D191F8C662807A31
:109DA000762316FB03F68F1905F10C083B7918444E
:109DB0000628D4BFC0B20620387103EBC30006EBFF
:109DC000400008444FF0000939798B4208F10A0835
:109DD00000F1120021D31220013B00FB0343334466
:109DE000588A3B89984230D206292ED084F8C51271
:109DF00020461146FFF728FE014600283FF46EAFCB
:109E0000002384F8C732AA882046FFF7B9FD3B4BF0
:109E100003221A70AA885A8060E74146A0F1080C14
:109E200051F80AED40F808ECD1F804E040F804ECF1
:109E30000989ACF808100133A0F80290A0F804904A
:109E4000A0F80690A0F80890BEE7002684F8C56246
:109E50000DF107012046FFF787FE0146002888D153
:109E60009DF80730002B3FF439AFAA88012184E721
:109E7000762303FB0CF1122303FB0713B0F80AE06F
:109E800023447645BFF44DAFC189A1F5245108297B
:109E900008D8DFE801F014170507070707071A00BD
:109EA00081899982998A39B1D98A29B1198B19B1D5
:109EB000598B00297FF435AF01360630E1E78189FF
:109EC000D982EFE781891983ECE781895983E9E732
:109ED00001238DF80730C8E78288B1F8CA329A4268
:109EE0007FF4FCAE002381F8C73281F8C8324FF608
:109EF000FF73A1F8CA32F1E6302C0020382C002084
:109F000090DF7047A5DF7047B5DF7047F0B585B0CB
:109F10000023ADF80810ADF80A106A4602A90746FA
:109F200003930093ADF80430FFF7EAFF064620B331
:109F3000134C2588FEF708F82D0445F0010503466B
:109F40003A4610492846FCF796FDBDF80020BDF8BA
:109F5000023052EA030106D020880B49000440F089
:109F60000100FCF788FDBDF8042032B120880749C4
:109F7000000440F00100FCF775FD304605B0F0BD6F
:109F80009C1D0020E2B302002CB402006BB402005E
:109F900078B14FF0171303601B2303711723C3809D
:109FA000038141F61B3200230161438182811846FF
:109FB00070470E207047000037B5034680880C4676
:109FC000A0B91A88232A00F0A18011D8102A22D023
:109FD000112A50D0A37A4BB1E1880020FFF792FFFD
:109FE000002840F099804FF48073638103B030BD46
:109FF0003A2A48D0552A5ED0242AEBD11A7A0B6926
:10A000004A73002BE6D04DF67A21ADF8040000919A
:10A010008DF8042076E0DB7B0A790A73012B13D0DC
:10A02000022B14D0E18823898B4205D20020FFF750
:10A0300069FF70B90123E372217B637B8B42C9D234
:10A040000020FFF763FFC5E70B88E380EAE74B8852
:10A05000FBE7112802D10123A372EDE7364B1D88DF
:10A06000FDF772FF2D0445F00105024633492846ED
:10A07000FCF7F8FCE0E71723CB800B8141F61B339C
:10A0800048818B81A6E75B89CA88934228BF134623
:10A09000172B0A6938BF17230B814AB1C97A39B126
:10A0A00040F677210091ADF804306946204690478C
:10A0B000002363818EE7DB88C988A072172B38BF25
:10A0C00017238B4228BF0B462381FFF71DFF58B192
:10A0D000194B1D88FDF738FF2D0445F00105024698
:10A0E00017492846FCF7BEFCE37A002B7FF472AFD9
:10A0F0002369002B3FF46EAF40F67722009222894D
:10A10000ADF8042069462046984763E7197A237B17
:10A11000994228BF194694E711283FF467AF064BD0
:10A120001C88FDF711FF240444F001040246034992
:10A130002046FCF797FC59E79C1D0020C1B40200A3
:10A14000F2B40200A1DF7047A3DF704762DF7047FF
:10A1500070B50D4A0D4D12682B6893420ED00C4914
:10A1600014245C430E19085BB27842B9B188FFF73A
:10A17000E9FF18B9013303F007032B6070BD083401
:10A180002144FFF7E1FFF4E7F82F0020F42F00202F
:10A19000542F00202DE9FF470B780246002B3DD1BC
:10A1A0008C8841F22350844238D18C79107B8442D0
:10A1B00034D101208DF8040091F808804888BDF85A
:10A1C0000C70BDF80A50BDF80840ADF806001E46F8
:10A1D0009C46184641F2245941F2255A804520D820
:10A1E000BCF1000F01D0ADF80C700EB1ADF80A5003
:10A1F0000BB1ADF8084011884FF6FF73994209D0B2
:10A2000053683BB953882BB90298BDF80C30C2F89B
:10A210000200D380936801A91046984704B0BDE8B6
:10A22000F087B1F80EE0CE4507D0D64502D1CF8AEF
:10A230004FF0010C01301231D0E70123CD8A0C8B95
:10A240001E46F7E7F0B5174A87B002AC03460E4644
:10A2500002F1100C274610685168254603C50832E4
:10A2600062452C46F7D1D3B1CEB13268BAB14FF6C0
:10A27000FF700021C3E900019A6003F10C01384628
:10A28000FFF764FF48B91B7B8DF8063001A841F247
:10A290002353ADF80430FFF7D9FC07B0F0BD0E2012
:10A2A000FBE700BF2EB502001FB50B4641B338B324
:10A2B0000288382A26D0392A0BD0112A20D1818849
:10A2C0001A88914202BF4FF6FF710022C3E90012C3
:10A2D00016E0098882888A4212D1448999888C4282
:10A2E0000ED1C18901290BD10221ADF80620027CD3
:10A2F0008DF804108DF8082001A99A681846904737
:10A3000004B010BD0A8883889A42F9D1FFF720FF74
:10A31000F6E7000038B508B305884FF6FF739D4295
:10A320001ED0104A448811680F484B1C03F00703E5
:10A33000136014224A4383180221D981111D01445C
:10A340005C8119610024012185529C811972197167
:10A350005C719970FFF7FCFE204638BD0E20FCE7CB
:10A360000820FAE7F82F0020542F0020F8B500B39A
:10A3700007884FF6FF739F421DD0104A104D146896
:10A38000C088631C03F00703136014226243AB18F8
:10A3900001265881101D28441861002402201872DB
:10A3A000DE819C8119719E70AF52FFF7D1FE20466D
:10A3B000F8BD0E20FCE70820FAE700BFF82F0020C8
:10A3C000542F002040B1018022B11368C0F8023040
:10A3D0009388C380002070470E20704710DF7047BD
:10A3E00011DF704713B5044609496846FDF778FD4B
:10A3F000019808B902B010BDD0E900312046984755
:10A4000018B16846FDF776FDF2E71120F2E700BFCC
:10A410004CB5020013B5044607496846FDF760FDD8
:10A42000019B0BB902B010BD2046D3E90021904733
:10A430006846FDF75FFDF3E764B502000B4A92F84A
:10A4400016335B09012B08D9042B06D0084B9968F9
:10A4500039B94FF480031360704742F20200FCF7F1
:10A4600093BD1A6842F480021A60704700E100E070
:10A47000C0270020064B9A6822B11A6822F4800295
:10A480001A607047034B4FF48002C3F88020704776
:10A49000C027002000E100E0F7B51C4F3C7894BBDA
:10A4A0001B4E012520463570FFF79CFF112827D051
:10A4B0002046FFF7AFFF174B8DF803401868019057
:10A4C0000DF10300FDF74CF8134901A8FFF786FFD3
:10A4D0000446B0FA80F0400938709DF80300FDF79B
:10A4E00063F86CB90D4B34701C700D4BE02283F88F
:10A4F000162383F81523FFF7A1FF2846FFF78AFFED
:10A50000204603B0F0BD0824FAE700BFFD2F00206D
:10A51000FC2F002048B50200A56F0200FE2F00208E
:10A5200000E100E0F7B5154F3B781BB3144E012056
:10A530003070FFF757FF11284FF000051CD00220A4
:10A54000FFF768FF0DF107008DF80750FDF708F8D9
:10A55000FFF746FF04469DF807003D70FDF724F81D
:10A560002CB93470FFF786FF0320FFF753FF204616
:10A5700003B0F0BD0824FAE72C46F8E7FD2F0020D1
:10A58000FC2F0020054B1B7833B1054B1B780BB11A
:10A59000FFF7C8BFFFF780BF08207047FC2F0020DF
:10A5A000FD2F0020014B1878704700BFFD2F0020C1
:10A5B00007B508496846FDF793FC019B13B903B042
:10A5C0005DF804FBD3E9002090476846FDF792FC54
:10A5D000F3E700BF58B50200FFF7EABF60DF70473E
:10A5E00069DF704761DF704730B5114B1B7891B060
:10A5F000E3B1104D34240DF1020103A8ADF802407F
:10A60000FFF7F0FF70B9294601A8FDF769FC029B2E
:10A61000002BF0D003A8D3E90021904701A8FDF753
:10A6200069FCF4E7052801D0FCF7AEFC11B030BDA1
:10A63000FF2F0020A4B7020030B5054685B00C46B8
:10A64000002900F092804A4B0B600C22002101A8E7
:10A6500000F0C7F901238DF8063022688DF8045008
:10A66000062301A92020ADF80830FFF7B9FF58B143
:10A67000404B1D88FDF768FC2D0445F0010502469E
:10A680003D492846FCF7EEF90C22002101A800F014
:10A69000A8F900238DF80530226840F2011301A9C2
:10A6A0004020ADF80630FFF79BFF58B1314B1D88B5
:10A6B000FDF74AFC2D0445F0010502462F492846C6
:10A6C000FCF7D0F90C22002101A800F08AF90A2336
:10A6D00022688DF8043001A90120FFF781FF58B1ED
:10A6E000244B1D88FDF730FC2D0445F00105024682
:10A6F00023492846FCF7B6F90C22002101A800F0F6
:10A7000070F9F8232268019301A9A120FFF768FFDF
:10A7100058B1184B1D88FDF717FC2D0445F00105B5
:10A72000024618492846FCF79DF90C22002101A891
:10A7300000F057F99DF8043022686FF3000301A977
:10A74000A0208DF80430FFF74BFF60B1094B1C8847
:10A75000FDF7FAFB240444F0010402460A492046AE
:10A76000FCF780F9002005B030BD0E20FBE700BFEC
:10A77000701D0020A81D002078B50200BEB50200A3
:10A780000AB6020056B60200A7B60200F8B50446A3
:10A790000768FFF723FF2368BB42054620D91A4EFE
:10A7A0001A493088000440F00200FCF757F930885D
:10A7B0002368174900043A4640F00200FCF75BF9B1
:10A7C0004FF080533088D3F80C31226811499B0236
:10A7D00003F1005300049A1A40F00200FCF742F91A
:10A7E00025B90D4B01221A702846F8BD064B2846A4
:10A7F0001C88FDF7A9FB240444F001040246074924
:10A800002046FCF72FF9EFE7A81D0020FAB602005A
:10A8100029B702005AB70200FF2F002084B70200B8
:10A820004BDF70471FB50D4C01A8FFF7F9FF70B95A
:10A83000214602A8FDF754FB039B002BF4D001989E
:10A84000D3E90021904702A8FDF754FBF4E705285F
:10A8500001D0FCF799FB04B010BD00BFBCB70200EB
:10A860007F2805D8034B185C034B5B5C184070478E
:10A8700000207047D4B7020054B80200A0F1610371
:10A88000192B98BF20387047A0F14103192B98BFAE
:10A89000203070477F2805D8034B185C034B5B5C66
:10A8A0001840704700207047D4B7020054B8020027
:10A8B000A0F16103192B98BF20387047A0F1410324
:10A8C000192B98BF203070477F299ABF0170012053
:10A8D0006FF02E0070475AB10A787F2A0AD800B16B
:10A8E0000260002119605960501A18BF012070479A
:10A8F000002070476FF02E007047000008B5034B32
:10A900005B689B681B68984708BD00BFD420002087
:10A9100008B50921FFF7F2FF08BD002A36D070B450
:10A9200013460F2A1AD940EA010212F0030F01D090
:10A930005A1E15E004680A689442F9D1043B041DCC
:10A940000A1D114620460434043206680D68AE42E2
:10A95000EED120461146043B042BF2D85A1E10D0EB
:10A9600004780B789C420CD1431C4C1C02441846C2
:10A970002146934205D00133013406780D78AE426A
:10A98000F5D000780B78C01A70BC70470020704773
:10A99000844640EA010313F0030F18D18446202AAD
:10A9A0000BD32DE9F007B1E8F807A0E8F807A2F10A
:10A9B0002002202AF7D2BDE8F007042A07D351F875
:10A9C000043B40F8043BA2F10402042AF7D2002A17
:10A9D00005D011F8013B00F8013B013AF9D160467E
:10A9E00070478446002A2DD010F0030F04D000F8E1
:10A9F000011B013A26D0F7E7C9B241EA012141EA39
:10AA00000141202A12D3A2F120022DE9F0030B46C6
:10AA10000C460D460E460F4688468946A0E8FA03C6
:10AA2000203AFBD2BDE8F00320320BD0042A05D334
:10AA300040F8041B043A05D0042AF9D200F8011B9F
:10AA4000013AFBD160467047024610F0030F16D161
:10AA500011F0030F13D12DE9F0004FF001374FF043
:10AA6000803351F8044BA4EB070525EA04051D408B
:10AA700002D142F8044BF4E7A1F10401F0BC11F853
:10AA8000013B02F8013B002BF9D1704700F10101B5
:10AA900010F0030F11D010F8012B002A23D010F072
:10AAA000030F0AD010F8012B002A1CD010F0030F5E
:10AAB00003D010F8012B002A15D02DE970004FF0BB
:10AAC00001324FF0803350F8044BA4EB020525EA25
:10AAD00004051D4000D1F6E7A0F1040070BC10F899
:0CAAE000012B002AFBD1A0EB0100704705
:10AAEC00457C020000000000F9820200000000001A
:10AAFC006998020000000000E192020000000000D2
:10AB0C00BD9C0200001E0020B99F0200F828002006
:10AB1C00A9A20200E8280020A59302000000000072
:10AB2C00D8B2020000000000DEB2020000000000FB
:10AB3C00E5B2020000000000E9B2020000000000D3
:10AB4C00EEB202000000000091AC02000000030312
:10AB5C00B3AD02000000000395AC0200000000033E
:10AB6C00D6B30200000003033EB50200000003034D
:10AB7C00D2B202000000000021B502000000030365
:10AB8C00A6AD02000000030370B502000000030331
:10AB9C00B0B7020000000303C8B7020000000303B3
:08ABAC00D0AD02000000000022
:10ABB4006C210020342200203C220020742100203B
:08ABC4008C1D002018000000A8
:10ABCC00ED7C020000000000798302000000000010
:10ABDC00E9A502000000000025A80200000000000A
:08ABEC008D7B02000000000057
:10ABF4000000000000000000000000000000000051
:10AC04000000000000000000000000000000000040
:10AC14000000000000000000000000000000000030
:10AC24000000000000000000000000000000000020
:04AC3400000000001C
:10AC380000000000000000000338FDD87047000045
:10AC4800F562020061630200F1620200FFFFFFFF8C
:10AC5800FFFFFFFFFFFFFFFFFFFFFFFF00000000F8
:10AC6800000000000000D601070100008564020012
:10AC7800E9640200356402004261636B656E6473C7
:10AC880020666C7573686564006170700062616C41
:10AC98006C6F632E6C6F675F6D656D706F6F6C00A6
:10ACA800DBAC020024AD0200E3AC02002CAD0200D4
:10ACB80034AD02003CAD020044AD02004CAD0200D0
:10ACC80054AD0200202530327800202020007C007E
:10ACD8002563001B5B306D002573001B5B313B3324
:10ACE800316D0025734C6F67732064726F707065E7
:10ACF80064202825642925730D0A003C25733E200D
:10AD080025733A2000000000000000007AAD020020
:10AD18005CAD020064AD020069AD02001B5B313B13
:10AD280033306D001B5B313B33326D001B5B313BB5
:10AD380033336D001B5B313B33346D001B5B313BA0
:10AD480033356D001B5B313B33366D001B5B313B8C
:10AD580033376D007761726E696E6700696E666F72
:10AD680000646562756700006826002046617461AA
:10AD78006C206572726F720053797374656D2072FE
:10AD880065736574000000000338FDD870473031E2
:10AD980032333435363738394142434445466E728A
:10ADA800665F6673746F7261676500617466696671
:10ADB8006F2E6D5F6669666F000000002CAB0200A5
:10ADC8002CAB0200040000007077725F6D676D7431
:10ADD80000556E6B6E6F776E206572726F722063AE
:10ADE8006F6465000000000014AF0200010000005D
:10ADF80020AF0200020000003EAF02000300000086
:10AE08005FAF02000400000072AF020005000000FE
:10AE180083AF02000600000097AF020007000000A1
:10AE2800AFAF020008000000C7AF02000900000031
:10AE3800DFAF02000A000000F8AF02000B000000BC
:10AE480010B002000C00000027B002000D00000046
:10AE58003BB002000E0000004DB002000F000000E1
:10AE68005CB002001000000070B002001100000089
:10AE780087B002001200000096B002001300000024
:10AE8800ABB0020080000000BFB0020081000000EB
:10AE9800E0B0020082000000FCB002008300000065
:10AEA80018B102008400000036B1020085000000DD
:10AEB80057B10200860000007CB10200900000003B
:10AEC80093B1020091000000B1B1020092000000AD
:10AED800CFB1020000820000E4B10200018200004C
:10AEE80002B20200028200001EB2020000840000CA
:10AEF8003AB20200018400005EB20200028400003F
:10AF080088B2020003840000ADB202004E52465FD0
:10AF180053554343455353004E52465F4552524F93
:10AF2800525F5356435F48414E444C45525F4D492A
:10AF38005353494E47004E52465F4552524F525F57
:10AF4800534F46544445564943455F4E4F545F4519
:10AF58004E41424C4544004E52465F4552524F5274
:10AF68005F494E5445524E414C004E52465F455241
:10AF7800524F525F4E4F5F4D454D004E52465F4512
:10AF880052524F525F4E4F545F464F554E44004EFB
:10AF980052465F4552524F525F4E4F545F53555081
:10AFA800504F52544544004E52465F4552524F52FC
:10AFB8005F494E56414C49445F504152414D004E05
:10AFC80052465F4552524F525F494E56414C494492
:10AFD8005F5354415445004E52465F4552524F52BA
:10AFE8005F494E56414C49445F4C454E47544800D2
:10AFF8004E52465F4552524F525F494E56414C4958
:10B00800445F464C414753004E52465F4552524FAB
:10B01800525F494E56414C49445F44415441004EA9
:10B0280052465F4552524F525F444154415F534923
:10B038005A45004E52465F4552524F525F54494D51
:10B04800454F5554004E52465F4552524F525F4E3F
:10B05800554C4C004E52465F4552524F525F464F38
:10B068005242494444454E004E52465F4552524F63
:10B07800525F494E56414C49445F41444452004E48
:10B0880052465F4552524F525F42555359004E52F5
:10B09800465F4552524F525F434F4E4E5F434F55A6
:10B0A8004E54004E52465F4552524F525F524553DE
:10B0B8004F5552434553004E52465F4552524F52E8
:10B0C8005F4D4F44554C455F4E4F545F494E495470
:10B0D80049414C495A4544004E52465F4552524FE9
:10B0E800525F4D555445585F494E49545F46414952
:10B0F8004C4544004E52465F4552524F525F4D55A3
:10B108005445585F4C4F434B5F4641494C454400BA
:10B118004E52465F4552524F525F4D555445585F07
:10B12800554E4C4F434B5F4641494C4544004E52A7
:10B13800465F4552524F525F4D555445585F434FF5
:10B148004E445F494E49545F4641494C4544004E80
:10B1580052465F4552524F525F4D4F44554C455FE2
:10B16800414C52454144595F494E495449414C4923
:10B178005A4544004E52465F4552524F525F53540F
:10B188004F524147455F46554C4C004E52465F452D
:10B1980052524F525F4150495F4E4F545F494D5094
:10B1A8004C454D454E544544004E52465F4552521B
:10B1B8004F525F464541545552455F4E4F545F4587
:10B1C8004E41424C4544004E52465F4552524F5202
:10B1D8005F494F5F50454E44494E47004E52465FC7
:10B1E8004552524F525F4452565F5457495F455239
:10B1F800525F4F56455252554E004E52465F455289
:10B20800524F525F4452565F5457495F4552525FFE
:10B21800414E41434B004E52465F4552524F525F9A
:10B228004452565F5457495F4552525F444E41431A
:10B238004B004E52465F4552524F525F424C455F5B
:10B24800495053505F52585F504B545F5452554EBB
:10B258004341544544004E52465F4552524F525F57
:10B26800424C455F495053505F4348414E4E454C10
:10B278005F414C52454144595F4558495354530026
:10B288004E52465F4552524F525F424C455F4950BD
:10B2980053505F4C494E4B5F444953434F4E4E45C4
:10B2A80043544544004E52465F4552524F525F4206
:10B2B8004C455F495053505F504545525F52454A8F
:10B2C80045435445440011121314636C6F636B00BB
:10B2D800434C4F434B004750494F5445005052533D
:10B2E800005541525400554152544500436F6E6E0B
:10B2F80065637465642E00446973636F6E6E65637D
:10B308007465642E004C4253207772697465204C32
:10B318004544207374617465202564004C454420BD
:10B32800427574746F6E2073657276696365206404
:10B338006973636F7665726564206F6E20636F6EE4
:10B348006E5F68616E646C6520307825782E0042E7
:10B358007574746F6E207374617465206368616EB0
:10B36800676564206F6E207065657220746F203089
:10B378007825782E000006001800000090010401CE
:10B38800A000500000000000000000004E6F726432
:10B3980069635F426C696E6B7900426C696E6B79A8
:10B3A8002043454E5452414C206578616D706C6560
:10B3B80020737461727465642E005465726D696ED1
:10B3C800616C005254540053454747455200626C23
:10B3D800655F64625F646973630073645F626C6570
:10B3E8005F6761705F646174615F6C656E677468E4
:10B3F8005F757064617465282920287265717565A8
:10B40800737429206F6E20636F6E6E656374696F45
:10B418006E20307825782072657475726E656420A8
:10B4280025732E005468652072657175657374659F
:10B43800642054582F5258207061636B6574206CD7
:10B44800656E67746820697320746F6F206C6F6E07
:10B45800672062792025752F2575206F63746574C0
:10B46800732E005468652072657175657374656420
:10B4780020636F6D62696E6174696F6E206F6620FC
:10B48800545820616E64205258207061636B657453
:10B49800206C656E6774687320697320746F6F2001
:10B4A8006C6F6E67206279202575206D6963726FF5
:10B4B8007365636F6E64732E0073645F626C655F9F
:10B4C80067617474635F65786368616E67655F6DF3
:10B4D80074755F7265717565737428292072657457
:10B4E80075726E65642025732E0073645F626C65E7
:10B4F8005F67617474735F65786368616E67655FC1
:10B508006D74755F7265706C792829207265747521
:10B51800726E65642025732E006E72665F626C65BC
:10B528005F676174740023D1BCEA5F782315DEEF8E
:10B53800121200000000626C655F6C62735F63004A
:10B5480001000007ECAB0200F4AB020008000000A9
:10B55800DCAB0200ECAB020008000000CCAB020040
:10B56800DCAB0200080000006E72665F736468005E
:10B5780073645F626C655F6366675F7365742829CF
:10B588002072657475726E6564202573207768650E
:10B598006E20617474656D7074696E6720746F20B5
:10B5A80073657420424C455F434F4E4E5F43464798
:10B5B8005F4741502E0073645F626C655F63666726
:10B5C8005F73657428292072657475726E656420CE
:10B5D8002573207768656E20617474656D70746971
:10B5E8006E6720746F2073657420424C455F474135
:10B5F800505F4346475F524F4C455F434F554E544B
:10B608002E0073645F626C655F6366675F73657461
:10B6180028292072657475726E65642025732077F9
:10B6280068656E20617474656D7074696E672074E6
:10B638006F2073657420424C455F434F4D4D4F4E0C
:10B648005F4346475F56535F555549442E00736420
:10B658005F626C655F6366675F7365742829207233
:10B66800657475726E6564202573207768656E2031
:10B67800617474656D7074696E6720746F2073658A
:10B688007420424C455F47415454535F4346475FDB
:10B69800415454525F5441425F53495A452E0073F6
:10B6A800645F626C655F6366675F736574282920F1
:10B6B80072657475726E6564202573207768656E8F
:10B6C80020617474656D7074696E6720746F20737F
:10B6D800657420424C455F47415454535F43464785
:10B6E8005F534552564943455F4348414E47454499
:10B6F8002E00496E73756666696369656E742052BB
:10B70800414D20616C6C6F636174656420666F7273
:10B718002074686520536F66744465766963652E86
:10B72800004368616E6765207468652052414D204A
:10B738007374617274206C6F636174696F6E2066D4
:10B74800726F6D203078257820746F2030782578D6
:10B758002E004D6178696D756D2052414D207369D9
:10B768007A6520666F72206170706C6963617469B4
:10B778006F6E20697320307825782E0073645F62BD
:10B788006C655F656E61626C6528292072657475E9
:10B79800726E65642025732E00000000FCAA02006A
:10B7A8002CAB0200080000006E72665F7364685F6D
:10B7B800626C6500ECAA0200FCAA02000800000006
:10B7C8006E72665F7364685F736F63002020202069
:10B7D80020202020206828282828202020202020F9
:10B7E8002020202020202020202020204810101059
:10B7F8001010101010101010101010108484848471
:10B808008484848484841010101010101081818125
:10B818008181810101010101010101010101010190
:10B828000101010101010110101010101082828223
:10B838008282820202020202020202020202020260
:10B848000202020202020210101010200007032058
:10B8580004170201085710408000000008BA0200CF
:10B86800CCB80200E0B9020053756E004D6F6E004F
:10B878005475650057656400546875004672690020
:10B8880053617400000000004A616E004665620062
:10B898004D617200417072004D6179004A756E0009
:10B8A8004A756C0041756700536570004F637400FA
:10B8B8004E6F76004465630000000000414D005063
:10B8C8004D00000004BA020000BA020000BA0200EB
:10B8D80000BA020000BA020000BA020000BA020070
:10B8E80000BA020000BA020000BA0200FFFFFFFF20
:10B8F800FFFFFFFFFFFFFFFFFFFF000040B902004F
:10B9080070B802007CB9020090B80200C4B8020006
:10B9180024B90200D4B9020030B90200256D2F25E0
:10B92800642F257900000000256120256220256507
:10B93800202554202559000053756E646179004D07
:10B948006F6E646179005475657364617900576539
:10B95800646E6573646179005468757273646179A3
:10B968000046726964617900536174757264617923
:10B97800000000004A616E75617279004665627266
:10B9880075617279004D6172636800417072696C0B
:10B99800004D6179004A756E65004A756C79004101
:10B9A80075677573740053657074656D62657200B0
:10B9B8004F63746F626572004E6F76656D62657273
:10B9C80000446563656D62657200000025483A258C
:10B9D8004D3A25530000000061A802007DA802002E
:10B9E80089A8020095A80200B1A80200BDA802001B
:10B9F800C9A80200D7A80200000000002E0000001D
:0CBA080043000000504F5349580000005C
:10BA14000000000000200040000000000020004062
:10BA24000000000048AC020000000000000000001C
:10BA340074AC0200000000000000000000000000E0
:10BA4400000000000000000000000000881D00202D
:10BA54000090D0030D000300A19402000000000038
:10BA640000000000000000000000000000000000D2
:10BA740000000000000000000000000000000000C2
:10BA840000000000000000000000000000000000B2
:10BA940000000000000000000000000000000000A2
:10BD2400000000000000FFFF0C2900201F0000009D
:10BD340064B8020064B8020064B8020064B8020087
:04BD440064B80200DD
:04000003200062393E
