:020000022000DC
:10600000000001203962020091620200519A0200F0
:10601000956202009762020099620200000000008F
:1060200000000000000000000000000019C0020095
:106030009D620200000000003DC00200A16202005B
:10604000E1ED0200A762020091FA0200AB620200D9
:10605000AD620200AF620200B1F70200B36202005B
:10606000B5620200B7620200B9620200BB620200C0
:10607000BD620200BF620200C1620200C362020090
:10608000C562020081C40200C9620200CB62020044
:10609000CD620200CF620200E1B40300D3620200CD
:1060A000D5620200D7620200D9620200DB62020000
:1060B000DD620200DF620200A3620200A36202004E
:1060C000E1620200E3620200E5620200E7620200B0
:0C60D000E9620200EB620200ED620200D7
:1060DC00354936480A1A02D0072291438D46344975
:1060EC0034480A1A06D00722914381F30988022208
:1060FC0082F3148830483149314A00F044F8314871
:10610C003149324A00F03FF831483249324A00F006
:10611C003AF832483249334A00F035F832483349BC
:10612C00334A00F030F833483349344A00F02BF846
:10613C0033483449344A00F026F8344834490022B4
:10614C0000F02CF833483449002200F027F833488B
:10615C003349091A082902DB002202604160314AE6
:10616C0090471F481F49884205D00268043003B489
:10617C00904703BCF7E700208646EC460020002140
:10618C00294A9047FEE7884207D0521A05D0037877
:10619C0001300B700131013AF9D17047884202D0BD
:1061AC0002700130FAE770470000012000F800206F
:1061BC000000012000000120F8C803001458002042
:1061CC00CC580020F0620200F0620200B6B8030066
:1061DC00F8C8030014580020145800204CBA0300CF
:1061EC004CBA03004CBA03004CBA03004CBA03007F
:1061FC004CBA03004CBA03004CBA0300F8C80300B5
:10620C00B0C90300CC580020CC580020CC5800203A
:10621C0008780020087800200878002008780020F2
:10622C00087C00205D6202008D2A03000F484FF0AD
:10623C000701884385460E4880470E48016841F4A3
:10624C0070010160BFF34F8FBFF36F8FFFF740BF3B
:10625C0009480A490A4A884207D0521A05D00378DD
:10626C0001300B700131013AF9D170470000012067
:10627C0061B8020088ED00E0F0B90300B8570020C7
:10628C0014580020FEE7FEE7FEE7FEE7FEE7FEE718
:10629C00FEE7FEE7FEE7FEE7FEE7FEE7FEE7FEE7CA
:1062AC00FEE7FEE7FEE7FEE7FEE7FEE7FEE7FEE7BA
:1062BC00FEE7FEE7FEE7FEE7FEE7FEE7FEE7FEE7AA
:1062CC00FEE7FEE7FEE7FEE7FEE7FEE7FEE7FEE79A
:1062DC00FEE7FEE7FEE7FEE7FEE7FEE7FEE7FEE78A
:0462EC00FEE700BF0A
:1062F00000B5A1B00590049103920293049805F0B3
:10630000E8F8039B1593029B169300231793002331
:106310008DF8603000231993229B1A9300231F935A
:106320000FA91F9B0822049805F082F908231F93E8
:10633000119B1293BDF84030ADF84C30BDF842309F
:10634000ADF84E3000238DF851309DF83C3003F00D
:106350000303DBB2012B26D10F9BC3F395231D93BF
:106360009DF83C30C3F3C203DBB28DF85030BDF86A
:106370003C30C3F38313DBB21C931C9B9A0009A926
:106380001F9B049805F054F91C9B9B001F9A134413
:106390001F9312AA09A915AB009313461C9A1D98C6
:1063A00000F0D8FF2FE09DF83C3003F00303DBB290
:1063B000022B28D1BDF83E30C3F389139BB21E9344
:1063C0009DF83C30C3F3C203DBB28DF850301E9B06
:1063D000082B28BF08231B9307A91F9B1B9A04980F
:1063E00005F026F91F9A1B9B13441F931E9A1B9BB3
:1063F000D31A1E9315AB12AA07A81B9901F04CF8EB
:106400001E9B002BE3D1049805F072F800BF21B069
:106410005DF804FB00B583B00190019B1B781A4620
:106420000C4B9B5C002B05D0019B043318460AF0F3
:1064300037FD0BE0019B1B781A46064B9B5C002B3B
:1064400004D1019B0C33184609F022FF00BF03B0B2
:106450005DF804FB5471002000B587B003900291F1
:1064600013468DF8073000230593039B1B781A46CB
:10647000114B9B5C002B09D0039B04339DF8072034
:10648000029918460AF03AFD05900FE0039B1B782D
:106490001A46094B9B5C002B08D1039B0C339DF8DB
:1064A00007200299184609F069FF0590059B1846D8
:1064B00007B05DF804FB00BF5471002082B001906A
:1064C0000091034B01221A7000BF02B0704700BF59
:1064D0000C59002030B58DB003468DF80730194BAC
:1064E00002AC1D460FCD0FC495E80F0084E80F00E5
:1064F000062302934FF0FF3303934FF0FF330493CF
:106500004FF0FF3305934FF0EB7308939DF807307E
:10651000002B01D00C4A00E0002202AB19460B48C8
:1065200008F074FA0B900B9B0A930A9B002B02D085
:106530000A9801F01DFA064A9DF80730137000BF53
:106540000DB030BD4CBA0300BD64020014580020E9
:106550000D59002000B583B001238DF807309DF858
:1065600007301846FFF7B6FF00BF03B05DF804FB25
:1065700000B589B0039002910192019B8DF81F3004
:10658000114B00221A709DF81F301A4602990F48CD
:10659000FFF762FF0690069B0593059B002B02D038
:1065A000059801F0E5F900BF094B1B78002B07D0D7
:1065B000054B1B78DBB283F00103DBB2002BF3D178
:1065C00000BF09B05DF804FB0C59002014580020EE
:1065D0000D59002000B585B003900291054B009342
:1065E0004023054A02990398FFF782FE00BF05B0D9
:1065F0005DF804FB71650200CC58002082B0019068
:1066000000BF02B07047000000B583B0019005489C
:10661000FFF700FF0020FFF75DFF00BF03B05DF84C
:1066200004FB00BF1458002082B00190019B01229E
:106630005A7200BF02B0704700B583B04FF0FF330D
:106640000193FFF787FF0421054800F0A3FD0190A7
:106650000348FFF7E9FF00BF03B05DF804FB00BF8C
:106660002858002000B583B001900091019B1B6861
:106670001B6800990198984700BF03B05DF804FBC0
:1066800000B583B00190019B1B685B680198984737
:1066900000BF03B05DF804FB00B583B00190019B1F
:1066A0001B689B680198984700BF03B05DF804FB26
:1066B00082B001900B468DF80330019B9DF80320BA
:1066C0001A7200BF02B0704782B00190019B1B7A22
:1066D000184602B0704782B00190019B01225A72A5
:1066E00000BF02B0704782B00190019B5B7A1846F0
:1066F00002B0704700B587B0019000911D4BFF229A
:106700009A601C4B00221A601A4B00225A60194BE7
:106710000022C3F81824174B0022C3F81424154B89
:10672000002283F82024144804F038FE0490049BCF
:10673000002B01D0049B18E0104A114BD31ADB0840
:106740000393002305930BE0059B9B000D4A134424
:106750000293059B9AB2029B1A80059B0133059315
:10676000059A039B9A42EFD30023184607B05DF8C1
:1067700004FB00BFE0590020B0B90300B0B903002A
:1067800020B90300B8570020024A034BD31ADB0894
:1067900018467047B0B9030020B9030000B587B0B0
:1067A00001900B468DF803309DF80330002B1FD06D
:1067B000FFF7EAFF04900023059313E0059B9B007D
:1067C0000E4A13440393039B5B881A46019B1B6884
:1067D0009A4204D1019B059A1A60002309E0059BA7
:1067E00001330593059A049B9A42E7D3052300E001
:1067F0000023184607B05DF804FB00BFB85700201F
:1068000000B585B001900B468DF803309DF803204C
:1068100001AB11461846FFF7C1FF0346002B07D115
:10682000019BDB00054A13440393039B1B6800E0B4
:106830000023184605B05DF804FB00BF20B9030033
:1068400084B001900B468DF80330019BDB00174AA2
:10685000134402939DF80330013B032B1CD801A283
:1068600052F823F0756802007D6802008568020016
:106870008F68020002238DF80F3011E004238DF899
:106880000F300DE0029B1B798DF80F3008E0029B62
:106890005B798DF80F3003E000238DF80F3000BFD7
:1068A0009DF80F30184604B0704700BF20B90300B0
:1068B00084B00190009100238DF80F30019B1B786C
:1068C00003F00303DBB2002B06D0019B1B7803F01F
:1068D0000403DBB2002B3DD0019B1B7803F00403C3
:1068E000DBB2002B21D0019B1B78C3F30103DBB289
:1068F000012B02D0022B0CD029E0009B1B68019ACF
:106900001288C2F38312D2B213449A1C009B1A60FD
:106910001DE0009B1B68019A5288C2F3891292B253
:1069200013449A1C009B1A6011E0009B1A68019B9B
:106930005B88C3F389139BB21946019B1B88C3F381
:1069400089139BB20B4413445A1C009B1A60012309
:106950008DF80F309DF80F30184604B070470000D6
:1069600000B58BB00023ADF826303B4803F07DFB2B
:106970003A4803F07AFB3A4B5B680493384B9B68C8
:106980000693049A069B134002339B00344A134437
:106990000433089304AB19460898FFF789FF0346B0
:1069A000002B09D0049A069B134002339B002C4A0B
:1069B000134404330893EDE700BF0023079311E06D
:1069C000049B5A1C0492069A1340079A920001A94C
:1069D0000A44234902339B000B445B681360079B06
:1069E00001330793079B012BEAD99DF80430C3F3C9
:1069F0000103DBB2012B10D0022B1CD1BDF80A30F1
:106A0000ADF82630BDF80630C3F389139BB20333CB
:106A10009A08049B134404930EE0BDF80A30ADF8C5
:106A20002630BDF80430C3F38313DBB21A46049B4F
:106A30001344049300E000BF084803F022FB0590D4
:106A4000059B002B02D0049B054A5360BDF82630FD
:106A500018460BB05DF804FBF85D0020F45D0020E3
:106A6000E059002000B585B00021074803F032FA54
:106A70000390039B0293029B83F310030193019BFA
:106A8000184605B05DF804FBFC5D002000B589B038
:106A90000390029101920093039B1B0C0693FFF756
:106AA000E1FF0790079B1904009B5A1C0A9B1340A7
:106AB000069A0A431B4902339B000B445A60009A12
:106AC0000A9B134002339B00164A13440433059378
:106AD000039B03F00703D9B2059A137861F3C5034A
:106AE0001370019B03F00F03D9B2059A138861F369
:106AF00089131380029BC3F31501059A136861F390
:106B00009F231360059A1378012161F30103137029
:106B1000059A13786FF38203137000BF09B05DF814
:106B200004FB00BFE059002000B58DB00390029136
:106B300013468DF80730039B02330A9301238DF827
:106B4000273000238DF81B300DF11B03184601F090
:106B500003F9404B1A68029B1A603E4B9A683D4B02
:106B600059683C4B1B68CB1A134401330B9314E058
:106B70000121394803F03DFAFFF7F2FE0890089929
:106B8000354803F036FA334B9A68324B5968314B2B
:106B90001B68CB1A134401330B930A9A0B9B9A423E
:106BA000E6D89DF82730002B48D0002305939DF8A8
:106BB0000730002B17D09DF81430012262F3010337
:106BC0008DF814309DF8143043F004038DF8143020
:106BD000039B03F00F03DAB2BDF8143062F389139C
:106BE000ADF8143016E09DF81430022262F3010370
:106BF0008DF814309DF8143043F004038DF81430F0
:106C0000039BC3F309039AB2BDF8163062F38F13E6
:106C1000ADF816300F4B1A680E4B9B6813400233C9
:106C20009B000C4A134404330793059A079B1A6090
:106C3000084B1A680A9B1344064A13609DF81B30E0
:106C4000184601F093F89DF8273018460DB05DF80E
:106C500004FB00BFE0590020FC5D002000B58BB0B4
:106C600005900491039202931F4B9B68079306AB18
:106C7000012219460298FFF757FF0346002B24D044
:106C8000069B023309930023089311E0089B9B00A5
:106C9000039A1A44099B591C099107990B401268E1
:106CA000114902339B000B445A60089B013308933F
:106CB000089A029B9A42E9D3069A079B00931346CF
:106CC000029A04990598FFF7E1FE074B93F82034E8
:106CD000002B05D000BF00F061F80346002BFAD16D
:106CE00000BF0BB05DF804FBE059002000B583B095
:106CF000019000910023002200990198FFF7AEFF58
:106D000000BF03B05DF804FB00B587B003900291AB
:106D10000192019B059305AA012302990398FFF7AD
:106D20009DFF00BF07B05DF804FB00B587B003907E
:106D3000029101920093019B0493009B059304AA86
:106D4000022302990398FFF789FF00BF07B05DF89F
:106D500004FB00B589B00390029101920093019B5E
:106D60000593009B06930A9B079305AA03230299A8
:106D70000398FFF773FF00BF09B05DF804FB000044
:106D8000054B5A68044B1B689A420CBF0123002331
:106D9000DBB21846704700BFE059002000B599B03B
:106DA000FFF7EEFF0346002B01D00023B4E1984B20
:106DB0000022C3F81824BFF34F8F954B5B680493F0
:106DC000934B9B681093049A109B134002339B00D3
:106DD0008F4A13440433129300231793002316930E
:106DE00000230F9304AB19461298FFF761FD034689
:106DF000002B14D0864B1A68049B9A4205D8844B0A
:106E00001B68834A5360002386E1049A109B134059
:106E100002339B007E4A134404331293E2E700BF1F
:106E20000023159311E0049B5A1C0492109A1340FE
:106E3000159A920001A90A44754902339B000B443C
:106E40005B681360159B01331593159B012BEAD9E1
:106E50009DF8043003F00303DBB2022B40F09C806A
:106E6000BDF80630C3F389139BB20E93BDF806300C
:106E7000C3F389139BB2502B28BF50239BB20D93B1
:106E80000D9BC3F309039AB2BDF8063062F38F136A
:106E9000ADF806300D9B08330C939DF80430C3F316
:106EA000C203DBB20F930C995A4804F082FA179090
:106EB000179B002B00F0D080179804F00AFB01A963
:106EC000169B0822179804F0A1FB169B0833169313
:106ED000049BDA43109B134001339B000B930D9AE4
:106EE0000B9B9A4242D90B9B002B08D0049A109B13
:106EF000134002339B00464A1344043300E0464BE0
:106F00000A930B9B002B02D00B9BDBB201E00D9B85
:106F1000DBB28DF827300B9B002B01D03E4B00E0FD
:106F2000002308930B9B002B06D00D9BDAB20B9B22
:106F3000DBB2D31ADBB200E000238DF81F309DF8DE
:106F40002720169B0A99179804F060FB9DF82730BC
:106F5000169A13441693089B002B16D09DF81F20F9
:106F6000169B0899179804F051FB0EE0049A109BA9
:106F7000134002339B00264A134404330693169BA6
:106F80000D9A0699179804F041FB0E9B03339A085B
:106F9000049B134404935FE09DF8043003F0030363
:106FA000DBB2012B58D1BDF80430C3F38313DBB23D
:106FB000062B28BF0623DAB2BDF8043062F389132A
:106FC000ADF80430BDF80430C3F38313DBB20233F1
:106FD00005939DF80430C3F3C203DBB20F93059B06
:106FE0009B0019460B4804F0E4F91790179B002BFF
:106FF00032D0179804F06DFA01A9169B0822179851
:1070000004F004FB169B08331693002315931AE033
:10701000E0590020B0B90300EC590020049B5A1C31
:107020000492109A134002339B003D4A1344191DE9
:10703000169B0422179804F0E9FA169B0433169362
:10704000159B01331593BDF80430C3F38313DBB2F2
:107050001A46159B9342E1D3179B002B3FD0304B30
:10706000D3F8103414932E4BD3F81834002B1AD0C5
:10707000179804F03DFA49E000238DF84F3014983A
:10708000FFF731FB0346002B02D001238DF84F3070
:107090009DF84F30002B03D017991498FFF7E2FAB0
:1070A000149B5B681493149B002BE5D1179804F094
:1070B0001FFA00238DF803300DF10303184600F08A
:1070C0004BFE174BD3F81834002B02D1049B144A03
:1070D00053609DF80330184600F048FE16E0104B50
:1070E000D3F81034119305E01198FFF7D5FA119BEE
:1070F0005B681193119B002BF6D10A4B1B881B0474
:1071000043F0020308491846FFF7F0FDFFF738FE89
:10711000034683F00103DBB2184619B05DF804FBA7
:10712000E0590020CC57002090BA030000B585B08C
:107130000023039322E0164BD3F81034029301236B
:107140008DF807300EE00298FFF7BEFA03461A46A4
:10715000039B934203D100238DF8073005E0029B87
:107160005B680293029B002BEDD19DF80730002B4A
:1071700001D0039B07E0039B01330393039B092B7F
:10718000D9DD4FF0FF33184605B05DF804FB00BFB2
:10719000E059002000B585B001900B468DF8033012
:1071A000FFF7C4FF0390039BB3F1FF3F01D1039BA3
:1071B0001EE0039BDBB219460198FFF779FA0E4BEC
:1071C000D3F81034002B07D10B4A019BC2F81034BE
:1071D000019B00225A600AE0074BD3F810345A682A
:1071E000019B5A60044BD3F81034019A5A60039BF8
:1071F000184605B05DF804FBE059002000B583B0E7
:107200000C4BD3F8103401930A4B012283F820244D
:1072100008E00198FFF75FFA0198FFF731FA019B48
:107220005B680193019B002BF3D100BF03B05DF8B5
:1072300004FB00BFE059002082B00190009100BF24
:1072400002B0704710B584B003900291039BDB88B5
:10725000002B0AD0039BDB881A461F4B0093134672
:107260001E4A1F49029802F0DAFF039B1B7A052B86
:107270002ED0039B5B7A002B12D0039B9B881A466F
:10728000039B1B7A19461046FFF7DAFA03461A46A3
:10729000144B53F822301A461349029802F0BFFFEC
:1072A000039B1B6819460298FFF7C6FF039B1B7AD6
:1072B0001A460E4B53F82240039B9B880021184628
:1072C000FFF79EFA034622460949029802F0A7FFFB
:1072D00000BF04B010BD00BFC4BA0300D4BA03009D
:1072E0000CBB03004858002024BB03003458002086
:1072F00028BB030000B585B00390029113468DF8BA
:107300000730039B1B7A052B0FD0039B5B7A002B66
:1073100006D00D4B1B681A460C49029802F07FFFFD
:107320000B49029802F07BFF07E09DF80730002B25
:1073300003D00749029802F072FF029802F057FF4B
:1073400000BF05B05DF804FB4858002024BB0300D3
:1073500034BB030030B58BB00790069105920493BF
:107360000E9B1B7B8DF827300E9B00221A730E9903
:107370000498FFF767FF059B062B7FD801A252F800
:1073800023F000BFA1730200AB730200BB730200C5
:10739000CF730200ED730200157402004574020001
:1073A00007990E9802F03BFF69E0069B1B681A469E
:1073B00007990E9802F033FF61E0069B1A68069B5E
:1073C00004331B6807990E9802F029FF57E0069BCB
:1073D0001A68069B04331968069B08331B680093E0
:1073E0000B4607990E9802F01AFF48E0069B1968B1
:1073F000069B04331868069B08331B68069A0C32F8
:1074000012680192009303460A4607990E9802F00B
:1074100006FF34E0069B1868069B04331C68069B35
:1074200008331B68069A0C321268069910310968F5
:107430000291019200932346024607990E9802F0AA
:10744000EEFE1CE0069B1C68069B04331D68069B31
:1074500008331B68069A0C321268069910310968C5
:1074600006981430006803900291019200932B4615
:10747000224607990E9802F0D2FE00E000BF0022DB
:107480000E990498FFF736FF0E9B9DF827201A737C
:1074900000BF0BB030BD00BF00B587B003900291B4
:1074A00001920093029B082B5CD8009B1B7B8DF8FC
:1074B0001330009B00221A7300990198FFF7C2FE57
:1074C0000023059314E0059A029B9A4209D2039A7D
:1074D000059B13441B781A462449009802F09FFE2E
:1074E00003E02349009802F09AFE059B01330593BF
:1074F000059B072BE7D91F49009802F090FE002357
:10750000059322E0059A029B9A4217D2039A059BA3
:1075100013441B788DF812309DF81230184614F081
:10752000E1F80346002B02D09DF8123000E02E2334
:107530001A461149009802F072FE03E00F490098C4
:1075400002F06DFE059B01330593059B072BD9D9EE
:10755000012200990198FFF7CDFE009B9DF81320B2
:107560001A7300E000BF07B05DF804FB38BB0300EE
:1075700040BB030044BB030048BB03004CBB0300FB
:107580002DE9F04790B0099000238DF83F30A8E036
:10759000594B1A689DF83F30DB0013440E930E9B45
:1075A0001B7818464FF001034FF00004A0F12002B1
:1075B000C0F1200104FA00FA03FA02F24AEA020AD0
:1075C00023FA01F14AEA010A03FA00F9CDE90C9A1B
:1075D0004A4BD3E90012DDE90C3401EA03000090C4
:1075E00002EA04030193DDE90034234374D0DDE9AA
:1075F0000C34DA430292E3430393404BD3E9003463
:10760000DDE9020102461A4004920A4602EA040336
:1076100005933A4BDDE90412C3E900120E9B1B7877
:10762000184608F0B5F803468DF82F300E9B1B78EE
:1076300018464FF001034FF00004A0F12002C0F102
:10764000200104FA00F603FA02F2164323FA01F1CC
:107650000E4303FA00F52A4BD3E9003405EA03028E
:10766000069206EA040307939DF82F104FF00002DC
:107670000E9B1B781C46A4F12003C4F1200002FAE3
:1076800004F801FA03F348EA030821FA00F048EA93
:10769000000801FA04F7DDE90634444508BFBB429F
:1076A0001AD19DF82F200E9B5B78012B0CBF012374
:1076B0000023DBB29A420CBF01230023DBB20A9302
:1076C0000E9B5B68002B07D00E9B5A680E9B1878A8
:1076D0000A9BDBB2194690479DF83F3001338DF885
:1076E0003F30084B1A789DF83F309342FFF450AF7B
:1076F00000BF10B0BDE8F087045E0020385E0020B7
:10770000305E0020085E00202DE9F04790B00B901D
:107710000B468DF82B304FF001034FF000040B980F
:10772000A0F12002C0F1200104FA00F603FA02F2EF
:10773000164323FA01F10E4303FA00F5CDE90E5684
:10774000394B184600F04EFA0D900D9B002B66D178
:10775000364BD3E90012DDE90E3401EA0300009054
:1077600002EA04030193DDE90034234343D10B987B
:1077700008F00EF80346002B10D02D4BD3E9001271
:10778000DDE90E3441EA0300029042EA0403039368
:10779000274BDDE90212C3E9001213E0DDE90E34E4
:1077A0006FEA03096FEA040A214BD3E9003409EABE
:1077B000030204920AEA040305931D4BDDE9041257
:1077C000C3E90012194BD3E90012DDE90E3441EA96
:1077D0000300069042EA04030793144BDDE9061206
:1077E000C3E900121048134B1B680022194600F031
:1077F00081F90D9014E0DDE90E34DF436FEA0408EF
:107800000A4BD3E9003407EA0302089208EA0403AA
:107810000993064BDDE90812C3E9001200E000BF3E
:1078200010B0BDE8F08700BF105E0020385E002079
:10783000305E00200C5E002010B58AB003900B462D
:1078400001928DF80B30019B042B01D807235AE0DD
:1078500007F0AEFE034683F00103DBB2002B09D034
:1078600007F054FE0990099B0893089B002B01D058
:10787000089B48E0254A039B1360254A9DF80B307E
:107880001370244A019B1360234A4FF000034FF00A
:107890000004C2E90034214A4FF000034FF0000415
:1078A000C2E9003422E09DF80B30DB00039A134458
:1078B000079305AB00210A461A800A469A700323F3
:1078C0008DF81430079B9B788DF81530079B1B783B
:1078D000184605AB124A194607F076FE0990099B37
:1078E0000693069B002B01D0069B0CE09DF80B3005
:1078F0005A1E8DF80B20002BD5D10A4A00210A48C8
:1079000000F0AAF8034618460AB010BD045E002035
:10791000085E00200C5E0020305E0020385E0020F3
:10792000097702008175020050BB030000B583B0E7
:10793000002301930CE00C4B1A68019BDB001344FD
:107940001B780121184607F0AFFE019B013301931C
:10795000064B1B781A46019B9342ECD30023184632
:1079600003B05DF804FB00BF045E0020085E002049
:1079700000B587B001900023039300230493019B7B
:10798000059303AB1A46002144F2010000F016F8FB
:1079900000BF07B05DF804FBBFF34F8F054BDB68FA
:1079A00003F4E0620349044B1343CB60BFF34F8FF2
:1079B00000BFFDE700ED00E00400FA0500B585B06A
:1079C00003900291019272B6FFF718FC00BFFFF717
:1079D000E5F90346002BFAD10F4B1B881B0443F03B
:1079E00001030E491846FFF781F90D4B1B6803F0A0
:1079F0000103002B00D000BE074B1B881B0443F083
:107A0000020308491846FFF771F9FFF7C5FF00BFE9
:107A100005B05DF804FB00BFCC57002054BB030049
:107A2000F0ED00E060BB030000B585B00190019867
:107A300006F0EAFB0390039B1B7B002B05D0039B06
:107A40009B68039A12681046984700BF05B05DF81E
:107A500004FB00231846704700B58BB005900B4619
:107A600003928DF81330059B1B680793002309933D
:107A7000039B002B02D0059B002B01D1072330E094
:107A8000079B1B7B002B01D008232AE0079B5B6828
:107A9000002B23D110220021079813F0A9FE9DF896
:107AA0001330002B02D10023089301E00123089337
:107AB000079B039A9A600D4B0093079B089A4FF41B
:107AC0007A710B4806F0F6F80246079B5A60079B4E
:107AD0005B68002B04D10E23099301E0082300E02A
:107AE000099B18460BB05DF804FB00BF297A020021
:107AF00070BB030000B58BB0059004910392059B09
:107B00000993099B5B680893089B002B01D108230C
:107B100062E0099B1B7B002B07D0089806F05EFBF8
:107B20000346002B01D0002356E0099B039A1A60FC
:107B3000EFF305830793079B002B2DD000230693BB
:107B400006AA002300931346049A0921089806F018
:107B5000F1F80346012B01D004233DE005F0D6FCEB
:107B6000014606AA0023009313460A4606210898F8
:107B700006F0E0F80346012B01D004232CE0069B1D
:107B8000002B25D0164B4FF080525A6040BFBFF3F8
:107B90004F8FBFF36F8F1BE0022300930023049AE3
:107BA0000421089806F0C6F80346012B01D00423EF
:107BB00012E005F0A1FC02460223009300230121FC
:107BC000089806F0B7F80346012B01D0042303E020
:107BD000099B01221A73002318460BB05DF804FBC1
:107BE00000ED00E000B589B00390039B0793079B6D
:107BF0005B680693069B002B01D1082333E0EFF36B
:107C000005830593059B002B1CD00023049304AA35
:107C100000230093134600220821069806F08AF8F4
:107C20000346012B01D004231DE0049B002B16D03A
:107C30000F4B4FF080525A6040BFBFF34F8FBFF3DE
:107C40006F8F0CE00223009300230022032106988B
:107C500006F070F80346012B01D0042303E0079BD4
:107C600000221A730023184609B05DF804FB00BF18
:107C700000ED00E082B0EFF310830093009B0193CE
:107C800072B6019B184602B0704762B600BF7047DB
:107C900000B585B00190FFF7EDFF0390164B9B6890
:107CA000002B1BD1144B01229A60144BD3F8802077
:107CB000134B1340104A1360104B114AC3F8802035
:107CC0000E4BD3F884300C4A53600C4B4FF0FF320C
:107CD000C3F88420019B00221A7002E0019B01225C
:107CE0001A70039B002B01D1FFF7CFFF002318462A
:107CF00005B05DF804FB00BF405E002000E100E03D
:107D0000FC06FFBD00B585B003468DF80730104B6B
:107D10009B68002B16D09DF80730002B12D1FFF77F
:107D2000A9FF03900B4A0A4B1B681360094A084BD2
:107D30005B685360064B00229A60039B002B01D1C5
:107D4000FFF7A3FF0023184605B05DF804FB00BF52
:107D5000405E002000E100E000B583B00190019892
:107D6000FFF796FF00BF03B05DF804FB00B583B0DA
:107D700003468DF807309DF807301846FFF7C2FF1D
:107D800000BF03B05DF804FB82B00190019B03F0DB
:107D90000303002B0CBF01230023DBB2184602B003
:107DA0007047000000B585B00190002303930EE0FA
:107DB0000A4A039B52F82330002B05D0074A039B45
:107DC00052F8233001989847039B01330393039B98
:107DD000032BEDD900BF05B05DF804FB5C5E00200D
:107DE00082B001900091019B1B78013B052B61D86B
:107DF00001A252F823F000BF117E0200197E02009A
:107E00003F7E0200717E0200917E0200AD7E020084
:107E1000009B00221A704EE0009B01221A70019B09
:107E20001A89009B9A81019B9A88009BDA81019BA9
:107E3000DA68009B9A60009B00221A743BE0009B6A
:107E400002221A70019B1A89009B9A81019B9A88D1
:107E5000009BDA81019BDA68009B9A60019B9B7D05
:107E6000062B0CBF01230023DAB2009B1A7422E018
:107E7000009B03221A70019BDA88009B9A81019B68
:107E80001A89009BDA81019BDA68009B9A6012E0F4
:107E9000009B04221A70019BDA88009B9A81009B48
:107EA0000022DA81009B00229A6004E0009B0522F8
:107EB0001A7000E000BF00BF02B0704784B00190AC
:107EC0000091019B0393039A009B9A4206D2039B65
:107ED0001B68B3F1FF3F01D0012300E0002303F052
:107EE0000103DBB2184604B0704782B00190019BD9
:107EF0005B8803339B00019A1344184602B0704715
:107F000000B583B0019000910198FFF7EEFF0246A3
:107F1000009B934201D202230CE0019B9B884FF609
:107F2000FF72934203D0019B1B88002B01D10123D8
:107F300000E00023184603B05DF804FB00B583B0F1
:107F40000190019B002B13D00D4BDB681A46019B5F
:107F500093420DD30A4B1B691A46019B934207D8E3
:107F60000198FFF711FF0346002B01D0012300E029
:107F7000002303F00103DBB2184603B05DF804FBF5
:107F80000058002082B00190019B002B04D0019B7F
:107F90001B680B4A934201D003230DE0019B04337D
:107FA0001B68084A934204D0074A934203D1012335
:107FB00002E0002300E00323184602B0704700BF30
:107FC000DEC0ADDEFE011EF1FF011EF184B00190A6
:107FD000002303930CE0039B9B00019A13441B684E
:107FE000B3F1FF3F01D0002307E0039B013303936C
:107FF000039BB3F5806FEED30123184604B070479E
:1080000082B003460A46ADF806301346ADF8043098
:10801000BDF80620134913469B0013449B000B44F4
:1080200008331A88BDF804301344ADF80430BDF8A5
:1080300006200C4913469B0013449B000B440A3353
:108040001A88BDF804301344ADF80430BDF804308C
:1080500040F2FF32934294BF01230023DBB2184663
:1080600002B07047FC5E002084B0019000910A23AA
:1080700003930023ADF80A3027E0BDF80A20174922
:1080800013469B0013449B000B4404331B68009A67
:108090009A4215D9BDF80A20104913469B00134493
:1080A0009B000B4404331B6803F58053009A9A42EB
:1080B00006D200230393019BBDF80A201A8008E032
:1080C000BDF80A300133ADF80A30BDF80A30012B93
:1080D000D3D9039B184604B0704700BFFC5E002054
:1080E00000B589B0039002910192039B03F5805380
:1080F0000693039B08330393029B02221A80039B7F
:10810000079332E006990798FFF7FAFE03468DF8C9
:1081100017309DF81730002B0AD1079B9A68184B2F
:108120001B689A4213D9079B9B68154A13600EE09F
:10813000019B002B02D0019B01221A709DF8173081
:10814000022B04D1029B4FF480621A8014E0029B40
:108150001A88079B5B8813449BB203339AB2029B35
:108160001A800798FFF7C1FE079006990798FFF756
:10817000A5FE0346002BC5D109B05DF804FB00BF86
:108180006C5E002082B001900091009B9B7D022BD1
:1081900009D9019B1A89009BDB8813449BB20333E6
:1081A0009AB2019B1A81019B5A89009BDB88D31AE2
:1081B0009BB2033B9AB2019B5A8100BF02B0704749
:1081C00000B583B0074B1B681946002300930823B2
:1081D000054A064802F01AFC0346184603B05DF84B
:1081E00004FB00BF245F002084BB03000058002074
:1081F00000B585B003900399002300930823044A37
:10820000044802F003FC0346184605B05DF804FB81
:108210008CBB03000058002000B585B003460091D8
:10822000ADF8063000238DF80F30BDF8063003336B
:10823000ADF80A30BDF80A3040F2FD32934201D960
:1082400009234AE00023ADF80C303BE0BDF80C20D8
:10825000244913469B0013449B000B441B78002BBE
:108260002BD1BDF80A20BDF80C3011461846FFF797
:10827000C7FE0346002B20D001238DF80F30009B52
:10828000BDF80C201A80BDF80C20164913469B003F
:1082900013449B000B440A331988BDF80C20BDF829
:1082A0000A300B4498B20F4913469B0013449B00BD
:1082B0000B440A3302461A8008E0BDF80C30013343
:1082C000ADF80C30BDF80C30012BBFD99DF80F3044
:1082D000002B01D0002300E00723184605B05DF80D
:1082E00004FB00BFFC5E002082B003460A46ADF8E6
:1082F00006301346ADF80430BDF804200D4913468E
:108300009B0013449B000B440A331A88BDF80630C7
:10831000D31A9BB2BDF80420033B98B2054913461B
:108320009B0013449B000B440A3302461A8000BF93
:1083300002B07047FC5E002008B50121024801F040
:1083400058FE0346184608BD6C5E002000B585B097
:1083500003460091ADF80630BDF8062022491346C9
:108360009B0013449B000B4404331B6803F58053AC
:108370000293009B1B680393039B002B04D003987C
:10838000FFF7B3FD039023E0BDF80620164913461E
:108390009B0013449B000B4404331B680833039376
:1083A00016E002990398FFF7ABFD0346012B08D0B6
:1083B000022B0BD0002B0BD1009B039A1A600123D8
:1083C0000EE00398FFF791FD039001E0002307E022
:1083D00002990398FFF772FD0346002BE1D10023B9
:1083E000184605B05DF804FBFC5E002000B585B0C2
:1083F00001900091019B5B681846FFF79FFD0346C3
:10840000002B19D0019B1A89244B1B899A4213D146
:10841000019B1A68019B5B689B689A420CD1019B87
:108420005B6819460098FFF71FFE0346002B0CBF40
:1084300001230023DBB22CE0009B00221A8023E002
:108440000023029310E0029B0393039B9A68019B15
:108450001B689A4208D1029A019B5A600F4B1A89F5
:10846000019B1A81012314E0009B1B8802AA11467C
:108470001846FFF76BFF0346002BE4D1009B1B88D7
:1084800001339AB2009B1A80009B1B88012BD7D91D
:108490000023184605B05DF804FB00BF2C5F0020E8
:1084A00000B587B00390029101920093304B1B7886
:1084B000DBB283F00103DBB2002B01D0022353E0D7
:1084C000019B002B02D0009B002B48D105234BE0E1
:1084D000009B9B881946274A0B469B000B449B0038
:1084E00013441B78002B33D124E0009B1B680593B9
:1084F000039B002B06D0059B9A88039B1B889A42FE
:1085000000D017E0029B002B06D0059B1A88029B27
:108510001B889A4200D00DE0059B9A68019B1A6067
:10852000009B1A68019B5A60134B1A89019B1A81A0
:10853000002319E0009B9B88009A11461846FFF71C
:1085400005FF0346002BD0D1009B00221A6000E0FB
:1085500000BF009B9B8801339AB2009B9A80009BCE
:108560009B88012BB4D90A23184607B05DF804FB99
:108570004C5E0020FC5E00202C5F002000B585B022
:108580000190084B0199184601F091FB03901C22C1
:108590000021039813F02CF9039B184605B05DF8F1
:1085A00004FB00BF6C58002000B583B00190044B61
:1085B0000199184601F094FB00BF03B05DF804FB7D
:1085C0006C58002000B583B00190054B0199184606
:1085D00001F09AFB0346184603B05DF804FB00BFA8
:1085E0006C58002000B583B00190044B01991846E7
:1085F00001F0A3FB00BF03B05DF804FB6C58002042
:1086000008B50121054801F00CFD0346002B14BFFD
:1086100001230023DBB2184608BD00BF545E0020D2
:1086200000B587B0002305930023ADF81230032373
:10863000ADF8103000238DF80F300023ADF80C306A
:10864000EFE0BDF80C301A037E4BDB681344029355
:108650000298FFF797FC03468DF807309DF8073026
:10866000012B00F09C80032B02D0002B62D0D3E0C2
:108670000298FFF7ABFC0346002B3BD0724B1B6804
:10868000002B29D0BDF81220704913469B001344DB
:108690009B000B4402221A70BDF812206B4913464E
:1086A0009B0013449B000B440433029A1A60BDF8EC
:1086B0001220664913469B0013449B000B44083369
:1086C00002221A80624ABDF812305380BDF812307F
:1086D0000133ADF8123008E05B4A029B13605A4B3D
:1086E00002229A8001238DF80F30059B43F001038D
:1086F000059391E0BDF81030013BADF81030BDF8A6
:108700001220524913469B0013449B000B44043330
:10871000029A1A60BDF812204C4913469B0013447C
:108720009B000B4403221A70BDF812300133ADF8E0
:10873000123071E0BDF81220444913469B001344E7
:108740009B000B4400221A70BDF812203F491346CB
:108750009B0013449B000B440433029A1A60BDF83B
:10876000122013469B0013449B000833374A991884
:10877000BDF8122013469B0013449B001033334A6C
:1087800013441A460298FFF7ABFC059B43F0020323
:108790000593BDF812300133ADF812303CE09DF87E
:1087A0000F30002B25D0BDF81220284913469B001E
:1087B00013449B000B4402221A70BDF81220224B76
:1087C0001968224813469B0013449B00034404335A
:1087D0001960BDF812201D4913469B0013449B00ED
:1087E0000B44083302221A80BDF812300133ADF871
:1087F0001230154A029B1360002216490298FFF7B7
:108800006FFC114B9B88022B01D1042300E008234D
:10881000059A1343059300BFBDF80C300133ADF842
:108820000C30BDF80C30022B7FF60BAFBDF81030CA
:10883000012B01D800230593059BDBB2184607B036
:108840005DF804FB00580020245F0020FC5E00203F
:108850002C5F0020285F002000B587B003900291B4
:10886000039B02229A750299039B1A1D0023009311
:108870000423074802F0CAF80590059B002B01D19C
:10888000002300E00E23184607B05DF804FB00BF8C
:108890000058002000B587B003900291039B1B692C
:1088A000002B01D0032200E00122039B9A75029B5A
:1088B00008331946039B03F10C02002300930423A1
:1088C000064802F0A3F80590059B002B01D1002378
:1088D00000E00E23184607B05DF804FB00580020A6
:1088E00000B587B003900291039B1B78032B01D145
:1088F000052200E00622039B9A75029B0433194669
:10890000039B03F10802002300930423064802F0AE
:108910007DF80590059B002B01D1002300E00E237C
:10892000184607B05DF804FB0058002000B587B07A
:1089300003900B46ADF80A300399002300930423FB
:108940000C4A0D4802F062F80590059B002B01D0FF
:108950000E230BE0BDF80A20084913469B00134480
:108960009B000B44103301221A700023184607B0F5
:108970005DF804FB94BB030000580020FC5E00205F
:1089800000B589B0019002AB00221A605A609A606B
:10899000019BDB6802930DF1160202AB11461846EB
:1089A000FFF724FD0346002B12D0039B0693069B82
:1089B0009A88019BDA80069B1A88019B1A81039B87
:1089C000BDF8162011461846FFF7B0FF079001E0EA
:1089D0000A230793079B184609B05DF804FB0000C3
:1089E00000B587B00190019B981D02AA0D4B002194
:1089F000FFF756FD0590059B002B08D1039A094B04
:108A00009B8819461046FFF791FF059004E0082265
:108A10000021044812F0ECFE059B184607B05DF8F3
:108A200004FB00BF3C5F002000B587B003900291BB
:108A3000039B01229A75029B0C331846039B1A690B
:108A4000039BDB889900002300930B4601460748EF
:108A500001F0DCFF0590059B002B01D1002300E015
:108A60000E23184607B05DF804FB00BF0058002035
:108A700082B0184B1B8901339AB2164B1A81154BE1
:108A800000225A80134B00221A730023ADF80630DF
:108A900018E0BDF80620104913469B0013449B00C4
:108AA0000B441A78BDF80630002A0CBF01220022C0
:108AB000D1B2084A13440A469A72BDF8063001330F
:108AC000ADF80630BDF80630012BE2D900BF02B088
:108AD000704700BF2C5F0020FC5E002084B0019036
:108AE00000238DF80F300023ADF80C3031E0BDF8D5
:108AF0000C301C4A13449B7A002B25D0BDF80C3057
:108B0000184A134400229A72BDF80C2016491346E5
:108B10009B0013449B000B440C331B68002B13D1A8
:108B2000BDF80C20104913469B0013449B000B44D6
:108B300010331B78002B07D0019BBDF80C201A8046
:108B400001238DF80F3008E0BDF80C300133ADF88B
:108B50000C30BDF80C30012BC9D99DF80F301846E8
:108B600004B070472C5F0020FC5E002008B5084B65
:108B700005221A70074B02229A80064B1B68194681
:108B800000230122044802F019F80346184608BDE4
:108B90002C5F0020245F00200058002000B583B027
:108BA000164B5B88ADF80230BDF80220144913461D
:108BB0009B0013449B000B440C331B68002B14D107
:108BC0000E4B04221A70BDF802200D4913469B007B
:108BD00013449B000B4404331B68194600230122F5
:108BE000084801F0EBFF019002E0FFF7BFFF0190A2
:108BF000019B184603B05DF804FB00BF2C5F00200A
:108C0000FC5E00200058002000B587B0114B5B6867
:108C10000593114B1A68104B9B889B0013440493D7
:108C2000059B5B880333ADF80E300A4B03221A70A4
:108C30000499084B5A68BDF80E3098000023009341
:108C40000346064801F0E2FE0346184607B05DF809
:108C500004FB00BF2C5F0020245F00200058002090
:108C600000B583B00A4B5B880A491846FFF76EFBD4
:108C70000346002B03D0FFF7C7FF019002E0FFF788
:108C80008DFF0190019B184603B05DF804FB00BF07
:108C90002C5F0020305F002008B50A4B06221A70B6
:108CA000084B5B881946084A0B469B000B449B0007
:108CB000134404331B681846FFF79AFA0346184614
:108CC00008BD00BF2C5F0020FC5E002008B5054BEE
:108CD00007221A70034B00225A60FFF771FA03460D
:108CE000184608BD2C5F002008B50D48FFF7F6FEBA
:108CF000034683F00103DBB2002B0BD0094B0022AB
:108D00001A70084B00225A80064B00225A6041F626
:108D10001D5302E0FFF7A4FF0346184608BD00BF3D
:108D20002E5F00202C5F002082B0094B5B6801930E
:108D3000019B5B880333ADF80230064B9A88BDF87F
:108D4000023013449AB2034B9A8000BF02B07047BE
:108D50002C5F0020245F002082B0184B1B68019319
:108D6000174B5B881946174A0B469B000B449B0028
:108D7000134404331B68114A1360114B5B88194676
:108D8000104A0B469B000B449B0013440433019A8A
:108D90001A600B4B5B881946084B9888094A0B46AA
:108DA0009B000B449B001344083302461A80034B7C
:108DB00002229A8000BF02B0704700BF245F0020EB
:108DC0002C5F0020FC5E002008B51A4B1B78072B97
:108DD0002CD801A252F823F0F98D02002D8E02004A
:108DE0002D8E0200058E0200118E02001D8E0200E3
:108DF0001D8E0200258E0200FFF73AFE0D4B012268
:108E00001A7014E0FFF790FF0A4B02221A700EE06E
:108E1000FFF7A2FF074B06221A7008E0054B072256
:108E20001A7004E0034B01221A7000E000BF00BF7B
:108E300008BD00BF2C5F002000B587B001900091F5
:108E40000F230593019B002B04D0624B00225A6034
:108E50000123BBE0009B1B79032B00F2AB8001A236
:108E600052F823F0758E0200838E0200118F0200EB
:108E7000318F0200009B01221A71FFF7A1F90590C2
:108E80009BE000238DF813300023ADF810302BE069
:108E9000BDF81020504913469B0013449B000B441F
:108EA0001B78022B1BD1BDF810204B4913469B00A9
:108EB00013449B000B4400221A7001238DF81330D9
:108EC000BDF81020444913469B0013449B000B44FB
:108ED00004331B681846FFF78BF9059008E0BDF8CE
:108EE00010300133ADF81030BDF81030012BCFD960
:108EF0009DF8133083F00103DBB2002B5CD0354BBF
:108F000001221A70334B00225A6041F61D535DE076
:108F1000009B00221A71314B02229A802F4B1B6852
:108F20001946002301222E4801F048FE059044E036
:108F3000009B00221A71294B1B681846FFF758F94D
:108F40000590284B5B88ADF80E30244B1B680293CC
:108F5000BDF80E20204913469B0013449B000B4490
:108F600004331B681D4A1360BDF80E201A491346CE
:108F70009B0013449B000B440433029A1A60BDF813
:108F80000E20164B9888144913469B0013449B00EF
:108F90000B44083302461A80104B02229A80BDF817
:108FA0000E200D4913469B0013449B000B440022E6
:108FB0001A7002E000BF00E000BF059B002B04D048
:108FC000044B00225A600E2300E00023184607B02D
:108FD0005DF804FB4C5E0020FC5E0020245F002056
:108FE000005800202C5F002000B587B00190009150
:108FF000009B9B8A1A4613469B0013449B003A4AE7
:1090000013440493019B002B05D000990498FFF7AB
:10901000B9F8012363E0049B5A68049B1B899B00F9
:1090200013440393009B9B7D062B4DD801A252F85D
:1090300023F000BF779002009B9002008390020013
:109040008F90020051900200A7900200C190020090
:10905000264B00225A60009B9B69244A13602449D6
:109060002248FFF7C3F9034683F00103DBB2002B6C
:1090700001D00A2333E003990098FFF7EDFB059038
:1090800025E003990098FFF705FC05901FE0039980
:109090000098FFF7C9FC059019E003990098FFF7C5
:1090A0001FFC059013E0009B06229A750F4B5A682F
:1090B0000F4B1B8819461046FFF738FC059006E059
:1090C00041F61D53059302E00F23059300BF059B56
:1090D000002B03D000990498FFF754F8059B18461D
:1090E00007B05DF804FB00BFFC5E0020445F002079
:1090F000505F002000B585B001900091019B002BCE
:1091000001D0012323E0009B1B79012B0BD0022B04
:1091100014D0002B16D1009B02221A710098FFF781
:109120002FFC039012E00098FFF75AFC0390039B7A
:109130000A2B0AD141F61D53039306E041F61D5355
:10914000039303E00F23039300E000BF039B184643
:1091500005B05DF804FB000000B585B00190019BEF
:10916000002B01D001233BE01F4B1B7B002B03D0C6
:109170001D4B00221A7301E0FFF726FE1A4B1B78E5
:10918000013B062B28D801A252F823F0A991020036
:10919000B1910200B9910200C1910200D99102007F
:1091A000C9910200D1910200FFF79EFD039016E0E5
:1091B000FFF756FD039012E0FFF726FD03900EE047
:1091C000FFF7ECFC03900AE0FFF766FD039006E072
:1091D000FFF77CFD039002E00F23039300BF039B86
:1091E000184605B05DF804FB2C5F002000B589B07F
:1091F00001903A4B1B68002B05D13948FFF7E2F983
:109200000246364B1A60354B1B681B78013B052B19
:109210002BD801A252F823F03192020041920200B1
:1092200041920200519202005192020061920200AA
:109230002A4B1B6819460198FFF7FEFD019017E0C5
:10924000264B1B6819460198FFF7CEFE01900FE0F0
:10925000224B1B6819460198FFF74CFF019007E06D
:109260000198FFF779FF019002E00F23019300BFFF
:10927000019B002B2BD003AB00221A605A609A602E
:10928000DA601A61019B41F61D52934201D0019BA5
:1092900000E000230493114B1B6803AA11461846F3
:1092A000FEF79EFD03AB1846FEF77CFD0B4B00223C
:1092B0001A60002301930A48FFF794F9FFF7A0F919
:1092C000034683F00103DBB2002B02D191E700BF1C
:1092D00000E000BF00BF09B05DF804FB545F002050
:1092E000585F002008B50121054800F06AFE0346DA
:1092F000002B02D10020FFF779FF00BF08BD00BF9F
:10930000545E002000B583B00190019B5B68184655
:10931000FFF76CFF00BF03B05DF804FB00B58BB036
:109320000390029101928DF803300023ADF82430B0
:109330000023ADF82630514B1B78DBB283F00103DC
:10934000DBB2002B01D0022393E0029B002B01D162
:1093500005238EE0029B1B884FF6FF72934203D0D9
:10936000029B5B88002B01D1042382E0029B5B6897
:109370001846FEF709FD034683F00103DBB2002B1C
:1093800001D0032375E0019B002B11D1029B9B6848
:10939000ADF826300DF11A02BDF8263011461846F8
:1093A000FEF73AFF0890089B002B09D0089B60E06D
:1093B000019B1B88ADF81A30019B5B88ADF8263005
:1093C00005AB1846FFF7DAF80790079B002B09D189
:1093D000BDF81A20BDF8263011461846FEF784FF66
:1093E000082346E0079B9DF803201A70079B002284
:1093F0009A75BDF81A20079B9A82029B5A68079BB0
:109400001A61FEF799FF0246079BDA60029B1A88F1
:10941000079B1A81029B5A88079B9A80079BBDF87D
:109420002620DA809DF80330032B06D1079B042207
:109430009A75039B1A68079B9A61079BBDF82420C5
:109440005A8105AB1846FFF7AFF8039B002B0DD0F0
:10945000039B00225A60079BDA68039B1A60039BF8
:1094600000229A72064B1A89039B1A81FFF73AFF72
:10947000002318460BB05DF804FB00BF4C5E0020D3
:109480002C5F002000B585B001900C4B1B68042BAD
:1094900002D10C2303930BE0084B1B680849019A87
:1094A00041F823200121054800F0A3FD0023039388
:1094B000039B184605B05DF804FB00BF585E002012
:1094C0005C5E002084B04FF010235B6903934FF083
:1094D00080531B6902934FF080535B690193039B98
:1094E000B3F1FF3F04D1019B029A02FB03F300E0BA
:1094F000039B184604B0704700B583B04FF4405347
:109500000193FFF7DFFF0246054B1A61044B1A690E
:10951000019BD31A024AD36000BF03B05DF804FB7D
:109520000058002008B5FFF7E7FF00220349044870
:1095300001F028FA0346184608BD00BFC0BD03006D
:109540000058002008B504481C238C22034900F071
:1095500067FB00BF08BD00BF6C580020705E002094
:1095600000B58BB002AB00221A605A609A60DA60D4
:109570001A61404B1B78DBB2002B05D002AB1846BA
:10958000FEF710FC002371E03B4800F062FD03464B
:10959000002B01D0002369E0FFF7C4FF0990099B6D
:1095A000002B01D0099B61E0FFF7CCFFFFF738F8F3
:1095B00003468DF823309DF82330022B03D0062B71
:1095C00003D0002B0DD10B2350E02A4B01221A703F
:1095D000284B00225A6002AB1846FEF7E3FB00233B
:1095E00044E000BF01AB1846FEF7C8FF0790079B99
:1095F000002B01D1082339E0079B01221A709DF846
:109600002330013B0A2B29D801A252F823F000BFD6
:109610003D9602005D9602003D9602005D960200B6
:10962000559602005D960200559602005D96020076
:10963000459602004D96020045960200079B0022C7
:109640001A710CE0079B03221A7108E0079B0222A3
:109650001A7104E0079B01221A7100E000BF01AB00
:109660001846FEF7A1FFFFF73DFE002318460BB09A
:109670005DF804FB4C5E0020505E002000B585B014
:1096800001900091019B002B02D0009B002B01D187
:10969000052329E00DF10A0319460198FEF7A6FEFD
:1096A0000346002B1FD0019B5B680393BDF80A3073
:1096B0001A4613469B0013449B0008330C4A13447C
:1096C00004330121184600F094FC009B039A1A60B1
:1096D000019B5B6803F10C02009B5A60019B012215
:1096E0009A72002300E00A23184605B05DF804FBD7
:1096F000FC5E002000B585B00190019B002B01D1DC
:10970000052339E00DF10A0319460198FEF76EFEB4
:109710000346002B2DD0BDF80A301946184A0B46D7
:109720009B000B449B0013440C331B68002B1DD083
:10973000019B9B7A002B19D0BDF80A301A461049BC
:1097400013469B0013449B000B440C331B68591EAB
:109750000B4813469B0013449B0003440C331960D1
:10976000019B00229A720023039304E006230393D3
:1097700001E00A230393039B184605B05DF804FB40
:10978000FC5E002000B585B001900B46ADF80230BC
:10979000134B1B78DBB283F00103DBB2002B01D04B
:1097A000022319E0019B002B01D1052314E00DF1E8
:1097B0000A02BDF8023011461846FEF72DFD03904F
:1097C000039B002B07D1BDF80A20019B1A80019B47
:1097D000BDF802205A80039B184605B05DF804FBD3
:1097E0004C5E002000B585B001901F4B1B78DBB2AA
:1097F00083F00103DBB2002B01D002232FE0019B99
:10980000002B01D105232AE0019B1B88022B01D9E3
:10981000042324E0019B1B881A4613469B00134433
:109820009B00124A13440293019B5B880233029A05
:109830005289934210DA019B5A88019B1B88194672
:109840001046FEF751FD019B00221A80019B002269
:109850005A800023039301E004230393039B1846DB
:1098600005B05DF804FB00BF4C5E0020FC5E0020EC
:1098700000B583B001900091022300220099019865
:10988000FFF74CFD0346184603B05DF804FB00B536
:1098900085B0039002910192019B002B01D1052319
:1098A00006E00223019A02990398FFF737FD034669
:1098B000184605B05DF804FB00B583B00190009137
:1098C000019B002B01D1052306E003230022009910
:1098D0000198FFF723FD0346184603B05DF804FB2B
:1098E00000B585B00346ADF80630184B1B78DBB2E7
:1098F00083F00103DBB2002B01D0022322E0BDF88C
:1099000006304FF6FF72934201D104231AE002ABF6
:109910001846FEF733FE0390039B002B01D108236A
:1099200010E0039B05221A70039B01221A71039B0E
:10993000BDF80620DA8002AB1846FEF735FEFFF7C9
:10994000D1FC0023184605B05DF804FB4C5E0020F6
:1099500000B583B0144B1B78DBB283F00103DBB29C
:10996000002B01D002231AE06B461846FEF706FED4
:109970000190019B002B01D1082310E0019B0622DE
:109980001A706B461846FEF70FFE084B1B78002B2B
:1099900002D0064B01221A73FFF7A4FC00231846DD
:1099A00003B05DF804FB00BF4C5E00202C5F00207C
:1099B00000B585B0029201930346ADF80E300B4618
:1099C000ADF80C3003A90DF10E00019B029AFEF7D1
:1099D00067FD0346184605B05DF804FB00B585B089
:1099E000034602910192ADF80E300DF10E01019B7C
:1099F000029A0020FEF754FD0346184605B05DF8B4
:109A000004FB00B585B0034602910192ADF80E301B
:109A10000DF10E00019B029A0021FEF741FD034665
:109A2000184605B05DF804FB82B001900091019BDF
:109A3000002B02D0009B002B01D1052304E0019BE9
:109A40001A68009B1A600023184602B07047000095
:109A50001EF0040F1CBFEFF309800AE0EFF308804B
:109A60000849094A884201D8904202D88D464FF0F1
:109A700000006B46854608B5044B9847BDE8084092
:109A80009D4670470000012000F80020CB9A02009C
:109A900000BF00BFBFF34F8F054BDB6803F4E062EC
:109AA0000349044B1343CB60BFF34F8F00BFFDE767
:109AB00000ED00E00400FA0500B583B00190FFF767
:109AC000E9FF00BF03B05DF804FB00B583B001906F
:109AD000FDF794FB00BFFDF761F90346002BFAD1B7
:109AE0000198FFF7E9FF00BF03B05DF804FB86B003
:109AF00001900091019B53E8011F8AB2D88902446A
:109B00009889824228BF121A1889824202BFBFF385
:109B10002F8F002307E0C2EA010243E8012000285A
:109B2000E9D14FF001038DF80F30059002910492B6
:109B3000029A009B1A609DF80F30DBB2184606B0FF
:109B4000704784B00190019951E8013FC3EA034393
:109B500041E80132002AF7D10392029300BF04B01A
:109B6000704786B001900091019B53E8021F1FFAD5
:109B7000A1F2D888824202BFBFF32F8F00230DE0ED
:109B8000D88902449889824228BF121AC1EA024247
:109B900043E802200028E8D14FF001038DF80F3090
:109BA000059002910492029A009B1A609DF80F3072
:109BB000DBB2184606B0704784B00190019951E8B5
:109BC000023FC3EA234341E80232002AF7D103925D
:109BD000029300BF04B0704786B00190019B53E828
:109BE000021FDA88B1EB314F4FF0000017BF89B286
:109BF00042EA024241EA024204E05968B1EB314FC5
:109C000008BF012043E802210029E8D18DF80F00A8
:109C1000059104929DF80F30DBB2184606B07047EC
:109C200084B00390029111461A460B46ADF80630F7
:109C30001346ADF80430029B002B01D10E231FE028
:109C4000BDF80630BDF80420B3FBF2F102FB01F2CF
:109C50009B1A9BB2002B01D0092311E0039B029AAF
:109C60001A60039B00225A60039B00229A60039BA8
:109C7000BDF806209A81039BBDF80420DA810023F9
:109C8000184604B0704700B585B001900198FFF701
:109C9000A3FF03468DF80F309DF80F30002B01D045
:109CA000002300E01123184605B05DF804FB00B561
:109CB00085B001900091009B19460198FFF717FFAE
:109CC0000346002B07D0019B1B68009A128813449F
:109CD0000393039B00E00023184605B05DF804FBE6
:109CE00000B583B001900091009B1A88009B5B88AF
:109CF0009A4204D10198FFF724FF012300E00023DA
:109D0000184603B05DF804FB00B585B001900091E2
:109D1000009B19460198FFF724FF0346002B07D04C
:109D2000019B1B68009A528813440393039B00E035
:109D30000023184605B05DF804FB00B583B0019020
:109D40000091009B1A88009B5B889A4204D101987D
:109D5000FFF732FF012300E00023184603B05DF84F
:109D600004FB00B585B001900091009B5B099B004E
:109D7000019AD018009B03F01F03012202FA03F39B
:109D8000194600F0D6F8039000BF05B05DF804FB5B
:109D900000B583B001900091009B5B099B00019A84
:109DA000D018009B03F01F03012202FA03F31946A7
:109DB00000F0A7F80246009B03F01F0322FA03F30A
:109DC00003F00103002B14BF01230023DBB218466C
:109DD00003B05DF804FB00B585B001900091009BD5
:109DE0005B099B00019AD018009B03F01F0301221E
:109DF00002FA03F3DB43194600F0CBF8039000BFEF
:109E000005B05DF804FB82B001900091009B5B09F6
:109E10009B00019A13441A68009B03F01F0322FA67
:109E200003F303F00103002B14BF01230023DBB273
:109E3000184602B0704700B58BB001900091002326
:109E400009933BE0099B9B00019A13441B68DB4389
:109E50000693069B93FAA3F30593059BB3FA83F34A
:109E6000089323E0099B5B01089A13440793079A20
:109E7000009B9A421ED207990198FFF789FF03467B
:109E800083F00103DBB2002B01D0079B1EE0099B8E
:109E90009B00019A13441B68DB430493049B93FAD1
:109EA000A3F30393039BB3FA83F30893089B1F2B3D
:109EB000D8D900E000BF099B01330993009B013B07
:109EC0005B090133099A9A42BCD3009B18460BB038
:109ED0005DF804FB10B487B001900091019B009ADB
:109EE00053E8004F104643E8000191F0000FF7D10E
:109EF000059404900391059B184607B05DF8044B48
:109F0000704710B487B001900091019B009A53E80C
:109F1000004F44EA020043E8000191F0000FF6D13F
:109F2000059404900391059B184607B05DF8044B17
:109F3000704710B487B001900091019B009A53E8DC
:109F4000004F44EA020043E8000191F0000FF6D10F
:109F5000059404900391049B184607B05DF8044BE8
:109F6000704710B487B001900091019B009A53E8AC
:109F7000004F04EA020043E8000191F0000FF6D11F
:109F8000059404900391059B184607B05DF8044BB7
:109F9000704710B487B001900091019B009A53E87C
:109FA000004F04EA020043E8000191F0000FF6D1EF
:109FB000059404900391049B184607B05DF8044B88
:109FC000704710B487B001900091019B009A53E84C
:109FD000004F04EB020043E8000191F0000FF6D1BE
:109FE000059404900391059B184607B05DF8044B57
:109FF000704710B487B001900091019B009A53E81C
:10A00000004F04EB020043E8000191F0000FF6D18D
:10A01000059404900391049B184607B05DF8044B27
:10A02000704710B487B001900091019B009A53E8EB
:10A03000004FA4EB020043E8000191F0000FF6D1BD
:10A04000059404900391049B184607B05DF8044BF7
:10A05000704700B583B0019001210198FFF751FFCF
:10A060000346184603B05DF804FB00B583B00190C9
:10A0700001210198FFF75DFF0346184603B05DF824
:10A0800004FB00B583B0019000210198FFF769FF40
:10A090000346184603B05DF804FB82B001900B46FE
:10A0A0008DF80330019BDA689DF803300199898AA5
:10A0B00001FB03F31344184602B0704782B00190CD
:10A0C0000091009B019AD2689B1A019A928AB3FB75
:10A0D000F2F3DBB2184602B0704784B00190019BE6
:10A0E000002B01D10E2320E0019B9A68019B5B6845
:10A0F000D31A8DF80F30019B1B68019A52681A60C1
:10A1000007E0019B1A681368591C11609DF80F2025
:10A110001A709DF80F305A1E8DF80F20002BF0D1C9
:10A12000019B1B6800221A710023184604B0704777
:10A1300000B585B001900023039300238DF80A3009
:10A140000DF10A031846FDF707FE019B1B681A680C
:10A15000019B5B689A421FD9019B1B681A68013AF0
:10A160001A601B681B7819460198FFF796FF039049
:10A17000019B9A68019B1B681B68D31A8DF80B30F2
:10A18000019B1B681B799DF80B209A4204D9019B07
:10A190001B689DF80B201A719DF80A301846FDF7D0
:10A1A000E5FD039B184605B05DF804FB10B584B0CF
:10A1B00001900091009B039300238DF80B300DF16B
:10A1C0000B031846FDF7C8FD019B1B681C68621C49
:10A1D0001A6003990198FFF771FF034623709DF8F9
:10A1E0000B301846FDF7C2FD00BF04B010BD00B52E
:10A1F00083B00190019B9B68002B0CD0019B5B6995
:10A20000019A1069019A1168019A92689847019B16
:10A2100000229A6000E000BF03B05DF804FB0EB4BA
:10A2200000B584B00190059B002B0AD00023039356
:10A2300006AB039303AB1A460599019800F0ACF9FD
:10A2400000E000BF04B05DF804EB03B0704700B558
:10A2500083B001900B468DF80330019B1A68019B77
:10A260009B68581C0199886013449DF803201A705C
:10A27000019B9A68019B5B689A4202D30198FFF7A1
:10A28000B6FF00BF03B05DF804FB00B587B00390D4
:10A2900002910192009300230593009B03F00103B8
:10A2A000002B24D00BE0029B01330293059B01336A
:10A2B00005939DF8133019460398FFF7C8FF029BDA
:10A2C0001B788DF813309DF81330002BEBD106E08E
:10A2D000019B013B019320210398FFF7B8FF019AEE
:10A2E000059B9A422ED9019B002BF1D12AE0029BBB
:10A2F000002B0BD0029811F0AEFA059006E0019BFE
:10A30000013B019320210398FFF7A1FF019A059BD0
:10A310009A420FD9019B002BF1D10BE0029B013334
:10A320000293059B013305939DF81330194603985A
:10A33000FFF78DFF029B1B788DF813309DF81330CB
:10A34000002BEBD100BF07B05DF804FB00B589B06E
:10A350000390029101920093029B079301230693BD
:10A3600007E0079A019BB2FBF3F30793069B0133C7
:10A370000693079A019B9A42F3D2009A069B9A424F
:10A3800001D9009B06930B9B03F00103002B22D104
:10A390000A9B002B1FD00B9B03F00203002B06D05F
:10A3A000009B002B03D130238DF8173002E02023CF
:10A3B0008DF8173008E00A9B013B0A939DF817308F
:10A3C00019460398FFF743FF0A9B002B03D0069A18
:10A3D0000A9B9A42EFD301230793009B012B03D9D9
:10A3E000009B013B009309E0029A079BB2FBF3F349
:10A3F0000493049A019B9A4200D205E0079B019ABC
:10A4000002FB03F30793E8E7029A079BB2FBF3F31F
:10A410000493049B079A02FB03F3029AD31A029354
:10A42000154A049B13441B7819460398FFF70FFF46
:10A43000079A019BB2FBF3F30793079B002BE3D131
:10A440000B9B03F00103002B11D00A9B002B0ED0B5
:10A4500006E00A9B013B0A9320210398FFF7F7FED1
:10A460000A9B002B03D0069A0A9B9A42F1D300BFA5
:10A4700009B05DF804FB00BFA4BB030000B589B0C0
:10A480000590049103920293049B002BB8BF5B429A
:10A4900006930123079307E0039B069A92FBF3F3CD
:10A4A0000693079B01330793039B069A9A42F3DABC
:10A4B000029A079B9A4201D9029B07930A9B002BA1
:10A4C0000AD0049B002B04DB0B9B03F00403002B3E
:10A4D00002D00A9B013B0A930B9B03F00203002B63
:10A4E00002D0029B002B16D00B9B03F00103002B24
:10A4F00011D10A9B002B0ED006E00A9B013B0A9368
:10A5000020210598FFF7A3FE0A9B002B03D0079A92
:10A510000A9B9A42F1D3049B002B07DA049B5B420F
:10A5200004932D210598FFF792FE08E00B9B03F0A2
:10A530000403002B03D02B210598FFF788FE0B9B0B
:10A5400003F00203002B19D00B9B03F00103002B37
:10A5500014D1029B002B11D10A9B002B0ED006E0D8
:10A560000A9B013B0A9330210598FFF770FE0A9B76
:10A57000002B03D0079A0A9B9A42F1D304990B9BB4
:10A5800001930A9B0093029B039A0598FFF7DEFE56
:10A5900000BF09B05DF804FB00B58FB005900491D1
:10A5A0000392049B002B00F0E981049B1B788DF83B
:10A5B0003730049B013304939DF83730002B00F0B3
:10A5C000D4819DF83730252B40F0C38100230A93B6
:10A5D00001230C93049B1B788DF837309DF837309E
:10A5E0002D2B04D0302B0AD02B2B10D017E00A9B38
:10A5F00043F001030A93049B0133049312E00A9B86
:10A6000043F002030A93049B013304930AE00A9B7C
:10A6100043F004030A93049B0133049302E00023F4
:10A620000C9300BF0C9B002BD4D1002309939DF801
:10A6300037302A2B0CD1039B1B68191D039A11601C
:10A640001B68099A13440993049B013304931AE08D
:10A65000049B1B788DF837309DF837302F2B12D99B
:10A660009DF83730392B0ED8049B01330493099A97
:10A6700013469B0013445B001A469DF83730134481
:10A68000303B0993D3E700230B93049B1B788DF891
:10A6900037309DF837302E2B1DD1049B01330493A6
:10A6A000049B1B788DF837309DF837302F2B12D94B
:10A6B0009DF83730392B0ED8049B013304930B9A45
:10A6C00013469B0013445B001A469DF83730134431
:10A6D000303B0B93E4E7049B1B788DF837309DF8F3
:10A6E00037306C2B03D09DF83730682B07D1049B93
:10A6F00001330493049B1B788DF83730EFE79DF806
:10A700003730253B532B00F21F8101A252F823F072
:10A710003FA9020049A9020049A9020049A9020073
:10A7200049A9020049A9020049A9020049A9020059
:10A7300049A9020049A9020049A9020049A9020049
:10A7400049A9020049A9020049A9020049A9020039
:10A7500049A9020049A9020049A9020049A9020029
:10A7600049A9020049A9020049A9020049A9020019
:10A7700049A9020049A9020049A9020049A9020009
:10A7800049A9020049A9020049A9020049A90200F9
:10A7900049A9020049A9020049A9020049A90200E9
:10A7A00049A9020049A9020049A9020049A90200D9
:10A7B00049A9020049A9020049A9020049A90200C9
:10A7C00049A9020049A9020049A9020049A90200B9
:10A7D00049A9020049A9020049A90200CBA8020028
:10A7E00049A9020049A9020049A9020049A9020099
:10A7F00049A9020049A9020049A9020049A9020089
:10A8000049A9020049A9020061A8020083A8020028
:10A8100049A9020049A9020049A9020049A9020068
:10A8200083A8020049A9020049A9020049A902001F
:10A8300049A9020049A9020049A902000BA9020086
:10A8400049A9020049A90200EFA8020049A9020093
:10A85000A7A8020049A9020049A90200CBA802004A
:10A86000039B1B68191D039A11601B680C930C9BBA
:10A870008DF823309DF8233019460598FFF7E7FC43
:10A8800063E0039B1B68191D039A11601B680C93FE
:10A890000A9B0193099B00930B9B0A220C99059834
:10A8A000FFF7ECFD51E0039B1B68191D039A116033
:10A8B0001B680C930C990A9B0193099B00930B9BBB
:10A8C0000A220598FFF742FD3FE0039B1B68191D14
:10A8D000039A11601B680C930C990A9B0193099BC6
:10A8E00000930B9B10220598FFF730FD2DE0039B92
:10A8F0001B68191D039A11601B6807930A9B099A2C
:10A9000007990598FFF7C1FC1FE0039B1B68191D01
:10A91000039A11601B680C9330210598FFF797FC90
:10A9200078210598FFF793FC0C99002301930823E5
:10A930000093082310220598FFF708FD05E0252164
:10A940000598FFF784FC00E000BF049B01330493EB
:10A9500005E09DF8373019460598FFF778FC049B11
:10A960001B78002B7FF421AE00E000BF059B1B7B12
:10A97000002B04D00598FFF73AFC00E000BF0FB0B1
:10A980005DF804FB00B587B0059004910392059B28
:10A99000002B0FD1184B1B881B0443F001031846F2
:10A9A000164A17490E2300930B461649FCF7D1F9B6
:10A9B0000E231CE0049B002B0FD10F4B1B881B04A4
:10A9C00043F001031846104A0D490E2300930B462D
:10A9D0000C49FCF7BEF90E2309E0059B049A1A60A6
:10A9E000059B1B681B680399059898470346184602
:10A9F00007B05DF804FB00BFEC570020C4BB0300A8
:10AA000068BD0300CCBB0300F8BB030010B586B0E3
:10AA10000590049103920293059B002B0FD15C4B90
:10AA20001B881B0443F0010318465A4A5A490E2357
:10AA300000930B465949FCF78CF90E23A4E0039BC5
:10AA4000002B0FD1524B1B881B0443F00103184607
:10AA5000534A51490E2300930B465049FCF779F9AC
:10AA60000E2391E0059B1B68002B0FD1484B1B88E0
:10AA70001B0443F0010318464A4A47490823009340
:10AA80000B464649FCF765F908237DE0029B002B45
:10AA90000FD13F4B1B881B0443F001031846424A69
:10AAA0003D49092300930B463C49FCF752F9092321
:10AAB0006AE0059B5B685A68029BB3FBF2F102FBFC
:10AAC00001F29B1A002B0FD0314B1B881B0443F063
:10AAD00001031846354A3049092300930B462F4994
:10AAE000FCF737F909234FE0049800F057F90346C3
:10AAF000002B0FD1264B1B881B0443F00103184683
:10AB00002B4A2549102300930B462449FCF721F9D1
:10AB1000102339E0039B184600F040F90346002B50
:10AB20000FD11B4B1B881B0443F001031846214A1D
:10AB30001949102300930B461849FCF70AF9102312
:10AB400022E0029A0499059800F00EF90346002BC2
:10AB50000FD10F4B1B881B0443F001031846164A04
:10AB60000D49102300930B460C49FCF7F2F8102313
:10AB70000AE0059B1B68DC68089B0093029B039A14
:10AB800004990598A0470346184606B010BD00BFBB
:10AB9000EC570020C4BB03007CBD0300CCBB03000A
:10ABA00058BC030000BC030014BC030060BC0300DD
:10ABB0008CBC0300A4BC0300C8BC030010B586B065
:10ABC0000590049103920293059B002B0FD13C4BFF
:10ABD0001B881B0443F0010318463A4A3A490E23E6
:10ABE00000930B463949FCF7B4F80E2364E0059B4B
:10ABF0001B68002B0FD1324B1B881B0443F0010351
:10AC00001846334A3049082300930B462F49FCF776
:10AC1000A0F8082350E0039B002B0FD1284B1B8882
:10AC20001B0443F0010318462A4A274909230093CD
:10AC30000B462649FCF78DF809233DE00499059859
:10AC400000F0B9F80346002B0FD11D4B1B881B04E5
:10AC500043F001031846204A1B49102300930B467A
:10AC60001A49FCF776F8102326E0059B5B681B6801
:10AC7000039A02FB03F31A460499059800F074F84E
:10AC80000346002B0FD10E4B1B881B0443F001031E
:10AC90001846124A0C49102300930B460B49FCF747
:10ACA00058F8102308E0059B1B681C69029B039A57
:10ACB00004990598A0470346184606B010BD00BF8A
:10ACC000EC570020C4BB030090BD0300CCBB0300C5
:10ACD00000BC030014BC0300F0BC030018BD03005B
:10ACE00000B585B00190019B002B03D0019B1B6830
:10ACF000002B28D10023039319E0039A13469B00ED
:10AD000013449B001A46154B13440193019B1B6887
:10AD1000002B09D0019B1B68DB690198984703460B
:10AD2000002B01D0012314E0039B013303930C4A51
:10AD30000A4BD31A0B4AA2FB03231B09039A9A421C
:10AD4000DBD3002305E0019B1B68DB690198984772
:10AD50000346184605B05DF804FB00BF005800200C
:10AD600014580020CDCCCCCC84B003900291019239
:10AD7000039BDB68029A9A4209D3029A019B13440F
:10AD80005A1E039B1B699A4201D8012300E000234D
:10AD900003F00103DBB2184604B0704782B00190A3
:10ADA000019B03F00303002B0CBF01230023DBB244
:10ADB000184602B0704782B001900091019B5B6819
:10ADC0001B685A1E009B1340002B0CBF012300235D
:10ADD000DBB2184602B0704729DF704700BF184643
:10ADE00028DF704700BF184600B589B00190009178
:10ADF000019B1B689B68002B35D002AB00221A60B8
:10AE00005A609A60DA601A615A61009B0393019B51
:10AE10009B680793019B1B79002B02D0012B0DD05F
:10AE20001AE001238DF80830019B1B690493019BF4
:10AE3000DB680593019B5B6906930DE002238DF8A7
:10AE40000830019BDB684FF4805202FB03F304934C
:10AE5000019B5B69069300BF019B1B689B6802AA6C
:10AE60001046984700E000BF09B05DF804FB00B54C
:10AE700087B00190019B5A69019B9B69D31AB3F576
:10AE8000805F28BF4FF4805305930422059BB3FBDA
:10AE9000F2F3012B38BF01230593019B1A69019B33
:10AEA0009B6913440493019BDB681A46019B9B69D1
:10AEB00013440393059A03990498FFF78DFF034603
:10AEC000184607B05DF804FB00B583B00190019B04
:10AED000DA68019B1B6913441846FFF781FF03469C
:10AEE000184603B05DF804FB08B5034B0349184648
:10AEF000FEF723FF00BF08BD80580020006000203F
:10AF000008B5084B08491846FEF7FEFE0246074BF7
:10AF10001A60064B1B68002B14BF01230023DBB211
:10AF2000184608BD8058002000600020FC5F00200B
:10AF300000B583B02B4B1B7A002B0BD1FFF7E0FF42
:10AF4000034683F00103DBB2002B03D0254B002224
:10AF50005A6043E0234B02221A72234B1B681B7971
:10AF6000002B02D0012B07D00DE01F4B1B681846A9
:10AF7000FFF77DFF019009E01B4B1B681846FFF7A8
:10AF8000A3FF019002E00323019300BF019B002B6C
:10AF900003D0019B112B0CD00FE0124B1B7C83F0D4
:10AFA0000103DBB2002B18D00021022000F062F96F
:10AFB00013E00C4B01221A7210E00B4B1B680321AB
:10AFC0001846FFF711FF074B00221A72054B0022AB
:10AFD0005A60FFF789FF00BF00E000BF03B05DF8D3
:10AFE00004FB00BFE85F0020FC5F002008B50848B4
:10AFF000FFF72FF80346002B08D1064B5B7C83F04C
:10B000000103DBB2002B01D0FFF792FF00BF08BDA8
:10B01000EC5F0020E85F002084B001901B4B002211
:10B02000DA60019B1B79002B02D0012B19D028E09C
:10B03000019B5A69019B9B69D31AB3F5805F28BFB6
:10B040004FF480530393019B9A69039B1A44019B1D
:10B050009A61019B9A69019B5B699A420ED1012317
:10B0600010E0019B1B695A1C019B1A61019B1A6924
:10B07000019B5B699A4203D1012303E000BF00E01A
:10B0800000BF0023184604B0704700BFE85F0020EF
:10B0900082B00190084BDB680133074AD360064B4E
:10B0A000DB68082B04D9044B0022DA60012300E09E
:10B0B0000023184602B07047E85F002000B583B057
:10B0C00001900091019B0C4A5A600C48FEF7C1FFA9
:10B0D0000346002B0BD110F0D1F803461A46074B5C
:10B0E0001A7407481C238C220649FEF799FD002399
:10B0F000184603B05DF804FBA4BD0300E85F002020
:10B10000805800205C5F002000B583B00190009162
:10B1100014220021054810F06BFB054B1846FEF782
:10B12000B2FD0023184603B05DF804FBE85F002081
:10B130008058002000B587B00390029101920093DF
:10B14000174A04AB19461046FEF7B1FD0590059B62
:10B15000002B01D104231FE01C220021059810F0D0
:10B1600047FB059B00221A71059B039A1A60059BF9
:10B17000089A9A60059B029A1A61059B019ADA6007
:10B18000059B009A5A61064A04AB19461046FEF721
:10B19000A7FDFFF72BFF0023184607B05DF804FB5F
:10B1A0008058002000B585B0039002910192009371
:10B1B000029B009A1946019810F0F1FA00231846F4
:10B1C00005B05DF804FB000000B587B00390029164
:10B1D00001920093184A04AB19461046FEF767FD2A
:10B1E0000590059B002B01D1042320E01C220021A7
:10B1F000059810F0FDFA059B01221A71059B039A30
:10B200001A60059B009A9A604FF48052029BB3FB30
:10B21000F2F2059BDA60059B019A5A61064A04AB7B
:10B2200019461046FEF75CFDFFF7E0FE00231846C6
:10B2300007B05DF804FB00BF8058002082B0019089
:10B240000091009B184602B0704782B001900091B7
:10B250000023184602B0704782B00190044B1B7A5D
:10B26000002B14BF01230023DBB2184602B0704745
:10B27000E85F002000B585B001900091019B022B92
:10B2800002D0019B032B4AD1274B1B7A012B36D0CE
:10B29000022B02D0002B35D142E000238DF80F3075
:10B2A000019B022B03D0019B032B09D011E01F4B04
:10B2B0001B681846FFF7B0FE03468DF80F3008E014
:10B2C0001A4B1B681846FFF7E3FE03468DF80F3054
:10B2D00000BF9DF80F30002B13D0134B00221A72C1
:10B2E000124B1A68019B022B01D1002300E00D23B1
:10B2F00019461046FFF778FDFFF7F6FD01E000BFA5
:10B3000000E000BF084B5B7C83F00103DBB2002B45
:10B3100002D0FFF70DFE03E00FF094FF00E000BF46
:10B3200005B05DF804FB00BFE85F0020FC5F002073
:10B3300082B0034600918DF80730064B01225A7403
:10B34000044B1B7A002B0CBF01230023DBB21846F1
:10B3500002B07047E85F002000B583B0034600915B
:10B360008DF807309DF80730012B03D09DF807308A
:10B37000032B0DD1084B00225A749DF80730012B86
:10B380000CBF01230023DAB2034B1A74FFF7D0FD80
:10B3900000BF03B05DF804FBE85F002000B583B098
:10B3A00001900198FEF799FE0346184603B05DF838
:10B3B00004FB00B58BB001900091019B9B8A043B7C
:10B3C0000793009A079B1344DA1C079BB2FBF3F325
:10B3D0008DF81B300198FEF7ABFE0590059B002B06
:10B3E00001D1002338E0059B00221A71059B012240
:10B3F0005A71079B9AB2059BDA80059B09939DF8C9
:10B400001B30013B0493099B019A1A6000230893A7
:10B410001DE00198FEF78CFE0390039B002B0ED0DD
:10B42000059B5B790133DAB2059B5A71099B039A3C
:10B430001A60039B019A1A60039B099304E0059824
:10B4400000F00EF8002307E0089B01330893089AE8
:10B45000049B9A42DDD3059B18460BB05DF804FBB4
:10B4600000B58BB00190019B0793079B5B798DF82A
:10B470001B30019B08939DF81B30013B0593002373
:10B48000099305E0089B1B680893099B0133099306
:10B49000099A059B9A42F5D3089B1B680493019B6C
:10B4A0000893002309930BE0089B1B6803930899FA
:10B4B0000498FEF77BFE039B0893099B01330993D5
:10B4C0009DF81B30099A9A42EED300BF0BB05DF88D
:10B4D00004FB00B585B00190019B0393039B0433EB
:10B4E00001211846FEF785FD00BF05B05DF804FB9D
:10B4F00000B587B00190019B0593059B04330121A2
:10B500001846FEF78EFD0346039303AB0493049B9A
:10B510001B78002B02D10198FFF7A2FF00BF07B0F4
:10B520005DF804FB00B58DB0039002910192009389
:10B53000039B0693069BDB880593039B0B93009B61
:10B540001A1D059BB2FBF3F30A93009B0433059A83
:10B55000B3FBF2F2059901FB02F29B1A0993009AE0
:10B56000019B1A44059B1344DA1C059BB2FBF3F3C1
:10B570008DF8133005E00B9B1B680B930A9B013B76
:10B580000A930A9B002BF6D100230893059A099B86
:10B59000D31A0793079A019B934228BF1346079338
:10B5A0002DE09DF83830002B0BD0029A089BD01864
:10B5B0000B9A099B13440433079A194610F0EFF8CD
:10B5C0000AE00B9A099B1344181D029A089B134426
:10B5D000079A194610F0E3F8002309930B9B1B68A8
:10B5E0000B93019A079BD31A0193089A079B134464
:10B5F0000893059A019B934228BF13460793019B2A
:10B60000002BCED100BF0DB05DF804FB00B587B0B4
:10B61000059004910392029300230093029B039AE6
:10B6200004990598FFF77EFF00BF07B05DF804FBA3
:10B6300000B587B005900491039202930123009313
:10B64000029B039A04990598FFF76CFF00BF07B0AF
:10B650005DF804FB82B001900091019B009A1A6092
:10B66000019B1B681A68019B5A60019B5A68019BE9
:10B670001B685B689A4202D1019B00225A6000BF9E
:10B6800002B0704782B00190019B5B68002B14D020
:10B69000019B5B681A46019B1B689B6813441A4612
:10B6A000019B5A60019B5A68019B1B685B689A4228
:10B6B00004D1019B00225A6000E000BF02B0704735
:10B6C00000B585B00190019800F00EF80390039B3F
:10B6D000002B01D0039B00E0024B184605B05DF83B
:10B6E00004FB00BFE0BD030086B00190164B05933C
:10B6F000164B04931FE0049A059BD31ADB10DA0F54
:10B7000013445B10DB00059A13440393039B1B68EF
:10B710000293029A019B9A4202D9039B04930AE086
:10B72000029A019B9A4203D2039B0833059302E0DD
:10B73000039B5B6804E0059A049B9A42DBD30023D9
:10B74000184606B0704700BFE0C1030008C30300FD
:10B7500082B001900091009B1B7B002B07D0009BC7
:10B760005A68019B1A60019B00221A7106E0009B37
:10B770001A68019B1A60019B01221A7100BF02B076
:10B78000704700B583B001900091019B1B79002B9D
:10B7900004D00099019800F00BF803E0009901989B
:10B7A00000F024F8019B1B68184603B05DF804FB09
:10B7B00082B001900091009B5A68019B1B68D21ACD
:10B7C000009B9B689A4207D9019B1A68009B9B6863
:10B7D0001A44019B1A6006E0009B5A68019B1A609C
:10B7E000019B00221A7100BF02B0704782B0019025
:10B7F0000091019B1A68009B1B68D21A009B9B68F2
:10B800009A4207D9019B1A68009B9B68D21A019B38
:10B810001A6006E0009B1A68019B1A60019B0122D6
:10B820001A7100BF02B07047BFF34F8F054BDB6842
:10B8300003F4E0620349044B1343CB60BFF34F8F23
:10B8400000BFFDE700ED00E00400FA05024B034AEB
:10B850001A6000BF704700BF945800200090D003CA
:10B8600008B500F067F90346002B06D09F4B1B6814
:10B870001B0A9F4A03F01F03136000F087F9034679
:10B88000002B02D09B4B9C4A1A6000F09BF90346A8
:10B89000002B06D0994B1B685B0B994A03F00703FA
:10B8A000136000F0BBF90346002B05D0954BDB6815
:10B8B000944A23F08073D36000F0CCF90346002B48
:10B8C0000ED04FF080430022C3F80C214FF080438C
:10B8D0000022C3F810214FF080430022C3F838251E
:10B8E00000F0E4F90346002B02D0874B03221A60D4
:10B8F00000F0F8F90346002B0BD0844B05221A60A8
:10B90000834B01221A60834B00221A60824B3F2234
:10B910001A6000F003FA0346002B76D04FF08053F4
:10B920007E4AD3F80434C2F820354FF080537B4A66
:10B93000D3F80834C2F824354FF08053774AD3F84F
:10B940000C34C2F828354FF08053744AD3F81034C1
:10B95000C2F82C354FF08053704AD3F81434C2F833
:10B9600030354FF080536D4AD3F81834C2F834356F
:10B970004FF08053694AD3F81C34C2F840354FF079
:10B980008053664AD3F82034C2F844354FF08053D0
:10B99000624AD3F82434C2F848354FF080535F4AE6
:10B9A000D3F82834C2F84C354FF080535B4AD3F8B3
:10B9B0002C34C2F850354FF08053584AD3F8303405
:10B9C000C2F854354FF08053544AD3F83434C2F897
:10B9D00060354FF08053514AD3F83834C2F864359B
:10B9E0004FF080534D4AD3F83C34C2F868354FF0DD
:10B9F00080534A4AD3F84034C2F86C354FF0805334
:10BA0000464AD3F84434C2F8703500F0A3F903462F
:10BA1000002B05D0424B1B68424A03F04F031360D2
:10BA200000F0C4F90346002B0DD04FF08043D3F84B
:10BA3000003403F00103002B05D04FF080436FF07A
:10BA40000102C3F8002400F0DDF90346002B05D005
:10BA5000354B1B68344A43F480631360334BD3F88F
:10BA60008830324A43F47003C2F88830BFF34F8FF6
:10BA7000BFF36F8F4FF01023D3F80032002B05DB9C
:10BA80004FF01023D3F80432002B2BDA284B01227D
:10BA9000C3F8042500BF264BD3F80034002BFAD09E
:10BAA0004FF010231522C3F8002200BF204BD3F81B
:10BAB0000034002BFAD04FF010231522C3F80422D3
:10BAC00000BF1B4BD3F80034002BFAD0184B0022D8
