:020000022000DC
:1060000000000120E1620200096302000B6302004C
:106010000D6302000F630200116302000000000024
:1060200000000000000000000000000013630200F8
:1060300015630200000000001763020019630200EC
:10604000E59502001B630200999E02001B6302009B
:106050001B6302001B630200719902001B630200B4
:106060001B6302001B6302001B6302001B63020030
:106070001B6302001B6302001B6302001B63020020
:106080001B630200997402001B6302001B63020081
:10609000397502001B63020081D502001B630200F8
:1060A0001B6302001B6302001B6302001B630200F0
:1060B0001B6302001B6302000000000000000000E0
:1060C0001B6302001B6302001B6302001B630200D0
:1060D0001B6302001B6302001B6302000000000040
:1060E00000000000000000000000000000000000B0
:1060F00000000000000000000000000000000000A0
:10610000000000000000000000000000000000008F
:10611000000000000000000000000000000000007F
:10612000000000000000000000000000000000006F
:10613000000000000000000000000000000000005F
:10614000000000000000000000000000000000004F
:10615000000000000000000000000000000000003F
:10616000000000000000000000000000000000002F
:10617000000000000000000000000000000000001F
:10618000000000000000000000000000000000000F
:1061900000000000000000000000000000000000FF
:1061A00000000000000000000000000000000000EF
:1061B00000000000000000000000000000000000DF
:1061C00000000000000000000000000000000000CF
:1061D00000000000000000000000000000000000BF
:1061E00000000000000000000000000000000000AF
:1061F000000000000000000000000000000000009F
:1062000010B5054C237833B9044B13B10448AFF3F0
:1062100000800123237010BD182D00200000000015
:106220000CFD02000C4B43B10C480D4910B5AFF307
:1062300000800C48036823B910BD0A48036833B9CD
:106240007047094B002BF7D0BDE810401847064BAC
:10625000002BF5D0184700BF000000000CFD020025
:106260001C2D0020D42C002000000000154B002B1A
:1062700008BF134B9D46A3F5803A00218B460F467D
:106280001348144A121A07F076FB0F4B002B00D06C
:1062900098470E4B002B00D09847002000210400A7
:1062A0000D000D48002802D00C48AFF3008007F025
:1062B00013FB2000290005F025FA07F0F9FA00BFCA
:1062C00000000800000001200000000000000000A5
:1062D000182D0020E03C002000000000000000001D
:1062E0000649074A074B9B1A03DD043BC858D050A8
:1062F000FBDC02F0B5FDFFF7B9FF000030FE020045
:10630000982A0020182D0020FEE7FEE7FEE7FEE7B2
:10631000FEE7FEE7FEE7FEE7FEE7FEE7704700BFA9
:1063200000B583B0044B0093044A402300F036F8D4
:1063300003B05DF804FB00BF41630200382D00206C
:1063400002B32DE9F843114B114E8846144643F031
:10635000010903270025224608EB0501002005F06E
:1063600029FB03461D444FF47A40E41A23B93378DD
:1063700033B1C847013F06D001233370002CEAD166
:10638000BDE8F88370473770BDE8F883E0EB0200A2
:10639000342D0020704700BF05F0D0BBF0B595B09C
:1063A000002415460F4608461E4602F033FC3846C8
:1063B00023460822089505A91A9D09960D950A9469
:1063C0008DF82C400C9402F079FC9DF8143007985D
:1063D00006998DF8114003F00302012A02900391FF
:1063E00028D0022A04D0384602F018FC15B0F0BDBF
:1063F000BDF81650C3F3C2038DF81030C5F38915EC
:106400000826082D2C4628BF0824334622460EA90C
:10641000384602F053FC2D1B214608AB02AA0EA8F9
:10642000264400F0BDFD002DEBD1384602F0F6FB0E
:1064300015B0F0BDBDF81460059DC6F38316C3F317
:10644000C204B2000EA9384608238DF81040C5F3E7
:10645000952502F033FC08AB0093324628460EA97E
:1064600002AB00F0F7FCBEE710B5054CFFF794FF58
:106470002046042100F0AEFC0123637210BD00BF72
:10648000982A0020F0B5334D85B005F5836001F002
:106490008BFD05F2144001F087FD6A68AF6802EADF
:1064A0000701CB1C05EB8303541C187810F0030F75
:1064B00000F003060ED010F0040016D0012E37D0E5
:1064C000022E02F10200ECD15A8800EB921202EA8D
:1064D0000701E6E74007F1D459881A8804EB9114C4
:1064E00004EB921202EA0701DBE705EB8101531C82
:1064F000C96801913B4005EB830301F00301DB68B0
:106500000293012902F102041CD0022918D1BDF81E
:106510000630BDF80A60C3F38913033304EB930418
:106520000D4801F04FFD00B16C60304605B0F0BD84
:106530001B880232C3F383131A4402EA0701B0E74F
:106540000646EDE7BDF80430BDF80A60C3F38313D7
:106550001C44E5E7482E00205C32002008B50E4BB5
:106560000E480022FF21C3F8182499601A605A606F
:10657000C3F8142483F8202402F002FB58B9084A17
:10658000084BD21AD20806D00749034621F8233017
:1065900001339A42FAD108BD482E0020E8FD0200DE
:1065A000E8FD020068FD0200D82C002021B9124A43
:1065B00002EBC0000068704730B410490E4D491B13
:1065C000C9080ED00E4B5A88824218BF002205D14E
:1065D0000FE0DC88844203F1040305D001329142CC
:1065E000F7D1002030BC704705EBC200006830BC1A
:1065F00070472846FAE700BF68FD0200E8FD020088
:10660000D82C0020094B013903EBC00003290BD81B
:10661000DFE801F002080604022070474079704765
:1066200000797047042070470020704768FD020021
:106630002DE9F047904C94E80C009A4284B061D068
:106640000023C4F81834BFF34F8F6368A568276828
:106650000EE011F0040623D001F0030101294BD014
:10666000022903D15288023303EB92139F4212D9BD
:1066700003EA0500C21C04EB820211788E07E8D100
:106680004807E9D451881288013303EB911303EBD7
:1066900092139F42ECD80020676004B0BDE8F087F9
:1066A00004EB80005A1CC16801912A4004EB82026D
:1066B00001F00301D2680292022903F1020825D0F9
:1066C000012977D0D4F8105435B12B6828469B683F
:1066D00098476D68002DF8D1684B69491888000407
:1066E00040F0020000F0D2F860682368C01A18BFBA
:1066F000012004B0BDE8F08712880233C2F3831290
:106700001344B3E7002004B0BDE8F087BDF80630BD
:106710005C48C3F38919B9F1500FCA46A8BF4FF0BE
:10672000500A6AF38F130AF10801ADF8063002F03F
:1067300029FA07460028C5D002F06CFA334625EA4C
:1067400008060136082201A93846B60002F088FA88
:10675000B24540F28480002E6CD1524608234A494B
:10676000384602F07DFA09F1030608EB9606D4F8E4
:106770001834002B5AD1D4F810544DB16B7A3946E5
:10678000284613B12B681B6898476D68002DF5D11A
:10679000384602F043FA04A8002300F80D3D01F04A
:1067A00023FBD4F8183403B966609DF8030001F0A8
:1067B00041FB99E7BDF804303248C3F38312062A3F
:1067C00028BF0622911C62F389138900ADF80430BA
:1067D00002F0D8F9074600283FF474AF02F01AFA25
:1067E0003346082201A9384602F03AFABDF80430CF
:1067F00013F4707F3ED0B2464FF0080905EA080155
:1068000003314B4604EB81010422384602F028FA9A
:10681000BDF804300AF1010AC3F3831308F101063D
:10682000534509F10409B046E8D8A0E7384602F01C
:10683000F5F959E705EA08010331AAEB060504EB6F
:10684000810132463846EDB2082302F009FA2A46A1
:1068500006F108030C49384602F002FA83E705EA1C
:106860000801033104EB810152460823384602F047
:10687000F7F978E746467AE7482E0020EC2C00200E
:10688000F4EB0200E8FD0200542E00202DE9F04355
:1068900083B002AB002203F8012DDFF8E090074639
:1068A00018468846D9F8085001F09EFAD9F8082011
:1068B000D9F80430D9F80060134401339B1B012B35
:1068C00057D809F21C440121204601F051FBFFF783
:1068D000D9FD0146204601F04BFB99E80A00D9F8A2
:1068E0000820134401335B1A012BECD901240A4020
:1068F000033244F004036FF3891302319DF807005B
:1069000049F82230C9F8001001F094FA00211A4821
:1069100001F006FB80F3100033192B4009EB8303D1
:1069200000043540033540EA1740D86019F8253097
:1069300067F3C50309F8253039F825306FF389135B
:1069400029F8253059F8252068F39F22134664F36F
:1069500001036FF3820349F8252009F8253099F8DF
:1069600020341BB1FFF764FE0028FBD103B0BDE863
:10697000F0833146BAE700BF64320020482E002081
:106980002DE9F04F85B004AC002304F8013DDFF899
:106990002CB101918246204602F103089146DBF8B2
:1069A000085001F021FADBF80810DBF80420DBF8CE
:1069B00000700A444FEA98080132D21B08F102061F
:1069C000964275D90BF21C440121204601F0D0FA01
:1069D000FFF758FD0146204601F0CAFA9BE8050082
:1069E000DBF808100A440132121A9642ECD8014032
:1069F00003310622064468F39F529DF80F004BF8BE
:106A00002120CBF8006001F015FADBF80840B81C33
:106A100028400134241AA4000330A1450BEB800068
:106A200038D801994A4606F09BFF0021214801F021
:106A300077FA80F310007A1C2A400BEB82020004E4
:106A40003D40033540EA1A40D0601BF825206AF328
:106A5000C5020BF825203BF825206FF38F122BF889
:106A600025200BEB85020220518869F38F1151809C
:106A70001BF8252060F301026FF382020BF825203A
:106A80009BF820341BB1FFF7D3FD0028FBD105B0E4
:106A9000BDE8F08F019E2246314606F061FF334685
:106AA00023441946A9EB0402034806F059FFBCE74A
:106AB00038469CE764320020542E0020482E0020E7
:106AC0002DE9F04782B002AB002403F8014D374CAA
:106AD0008046184692468946A56801F085F9A26865
:106AE0006368276813440133DB1B022B5BD804F275
:106AF0001C460121304601F03BFAFFF7C3FC01467A
:106B0000304601F035FA94E80A00A26813440133D4
:106B10005B1A022BEDD901260A40033246F004032A
:106B200066F3891344F8223003319DF80700216091
:106B300001F080F9BB1C2B4004EB830300211C48AF
:106B4000C3F80CA001F0ECF980F31000BB192B4046
:106B500004EB830300043D40033540EA1840D8604D
:106B600014F8253068F3C50304F8253034F82530CF
:106B700066F3891324F8253054F8252069F39F2201
:106B8000134666F301036FF3820344F8252004F8EB
:106B9000253094F820341BB1FFF74AFD0028FBD1C3
:106BA00002B0BDE8F0873946B5E700BF482E0020A7
:106BB000643200202DE9F04F85B004AD002405F8C3
:106BC000014D3C4C01938046284693468946A66871
:106BD00001F00AF9A2686368276813440133DB1BDC
:106BE000032B65D804F21C450121284601F0C0F9A9
:106BF000FFF748FC0146284601F0BAF994E80A007C
:106C0000A268134401335B1A032BEDD901250A4016
:106C100003324FF0020A45F004036AF3891344F883
:106C2000223004319DF80F00216001F003F907EBD9
:106C30000A0EFA1C0EEA060E324004EB820204EB46
:106C40008E0E019B1C48CEF80CB00021D36001F0E1
:106C500067F980F310007A19324004EB82020004D5
:106C60003E40033640EA1840D06014F8262068F30E
:106C7000C50204F8262034F826206AF3891224F885
:106C8000262054F8262069F39F22134665F301035A
:106C90006FF3820344F8262004F8263094F8203459
:106CA0001BB1FFF7C5FC0028FBD105B0BDE8F08F94
:106CB0003946ABE7482E0020643200202DE9F04F22
:106CC00085B004AD002405F8014D404C0193804689
:106CD00028468946A668934601F086F8A16863684D
:106CE00027680B440133DB1B042B6CD804F21C45D2
:106CF0000121284601F03CF9FFF7C4FB0146284674
:106D000001F036F994E80C00A1680B4401339B1A9A
:106D1000042BEDD9012511404FF0030A033145F052
:106D200004036AF3891344F8213005329DF80F00FB
:106D3000226001F07FF8B81C07EB0A0E30400EEA23
:106D4000060E3A1D324004EB800004EB8E0E04EB7D
:106D50008202019BC0F80CB00021CEF80C301C4818
:106D60000E9BD36001F0DCF880F310007A193240FA
:106D700004EB820200043E40564440EA1840D060D2
:106D800014F8262068F3C50204F8262034F82620DB
:106D90006AF3891224F8262054F8262069F39F22EA
:106DA000134665F301036FF3820344F8262004F8C9
:106DB000263094F820341BB1FFF73AFC0028FBD1B1
:106DC00005B0BDE8F08F3A46A4E700BF482E00208A
:106DD0006432002030B4144DD5F81044002154B171
:106DE000237A8B4213D0234602E01A7A8A420ED0CD
:106DF0005B68002BF9D10172D5F810347BB15B6868
:106E00004360D5F810345860084630BC70470131F3
:106E10000A29E4D14FF0FF31084630BC7047C5F86D
:106E200010044360F0E700BF482E002038B5084B3F
:106E3000D3F81044012583F820543CB123686572CF
:106E400020465B6898476468002CF7D138BD00BFC6
:106E5000482E00202DE9F04784B01D460C9C0023ED
:106E600094F80C802373EB8881460E461746002B5E
:106E70003BD1297A05290FD06B7A002B3DD1404BAD
:106E8000A88853F821A00021FFF790FB5246034643
:106E90003C49204601F010F9062F0FD8DFE807F033
:106EA000484D535A04633900F168B06896E80C0005
:106EB000019100904946204601F0FEF82B7A052BFF
:106EC00005D06B7A5BB93049204601F0F5F82046D1
:106ED00001F0E6F884F80C8004B0BDE8F0872B4A96
:106EE0002B49204601F0E8F8EDE7284A00922949AD
:106EF000294A204601F0E0F8BBE7A888FFF782FBAB
:106F0000264B234953F82020204601F0D5F8297A52
:106F1000B5E77069316996E80C000390B068F768CE
:106F200002918DE881004946204601F0C5F8C5E789
:106F30004946204601F0C0F8C0E73268494620467D
:106F400001F0BAF8BAE7494696E80C00204601F08D
:106F5000B3F8B3E7B16896E80C00204600914946C3
:106F600001F0AAF8AAE7B068F768316996E80C0062
:106F700002918DE881004946204601F09DF89DE789
:106F800094EC020084EC020090EC020078EC020029
:106F900080EC020060EC020058EC020020EC0200E1
:106FA000082900D970472DE9F04F1D46904600236F
:106FB0002A7B2B7385B0B8F80630039207460E463D
:106FC000002B6BD198F80810052911D098F80930DA
:106FD000002B6BD13C4BB8F8040053F82140002142
:106FE000FFF7E4FA224603463849284601F064F8E0
:106FF000DFF8F8B0DFF8F8900024A64249462846AA
:107000003ED93A5D013401F057F8082CF5D13049EA
:10701000DFF8E090DFF8E0B0284601F04DF80024FA
:1070200011E017F804A006F07BFC50445946437861
:1070300013F0970F14BF52462E222846013401F058
:107040003BF8082C08D0A64249462846E9D8013426
:1070500001F032F8082CF6D198F80830052B02D050
:1070600098F80930A3B91B49284601F025F82846AD
:1070700001F016F89DF80C302B7305B0BDE8F08FC9
:1070800001345946284601F017F8082CB5D1BEE75F
:10709000114A1249284601F00FF8E4E70E4A00921F
:1070A0000F49104A284601F007F88BE7B8F80400AA
:1070B000FFF7A8FA0C4B094953F82020284600F0A6
:1070C000FBFF98F8081085E794EC020084EC0200BE
:1070D00050EC020090EC020078EC020080EC020020
:1070E00060EC020058EC020020EC02004CEC0200C4
:1070F00044EC02008CEC020054EC0200434B197883
:10710000002900F081802DE9F04F8C4687B00024E3
:10711000012503E00134E4B2644560D23C4B27B260
:107120001E6816F837E0AEF1200305FA03F9394B73
:10713000CEF12001D3E9002325FA01F149EA010942
:1071400005FA0EF808EA020009EA0301014306EB1A
:10715000C70BDFD02F4922EA080223EA0903704651
:10716000C1E9002302F0FAFB16F837E0AEF1200285
:1071700005FA02F201920199CEF12003C6B225FA76
:1071800003F3AEF12002194306FA02F30393224BF4
:107190000191D3E90023CDE9042305FA0EF300930E
:1071A000CEF12001039B26FA01F10B43039306FA6B
:1071B0000EF30293DDE90467DDE9002316401F406A
:1071C00032463B46DDE90267BB4208BFB24209D006
:1071D0000E4B013493F800C0E4B264459ED307B06F
:1071E000BDE8F08FDBF80430002BF1D09BF80110E4
:1071F000A1F10101B1FA81F14909091AB1FA81F14C
:10720000490970469847E3E7704700BF6C32002099
:10721000A8320020A0320020983200202DE9F84347
:107220000646204800F034FCD0B91F4F0123A6F1D8
:10723000200103FA01F5C6F12002D7E9000123FA83
:1072400002F2154303FA06F404EA000205EA010318
:10725000134307D020EA040421EA0505C7E90045E5
:10726000BDE8F883304602F079FB104ED6E900897C
:1072700098B148EA040849EA0509D7E9002314430C
:107280001D43C6E90089C7E90045094B054819684F
:107290000022BDE8F84300F0A5BB28EA040829EA6B
:1072A0000509EAE774320020A0320020983200205D
:1072B00070320020042A01D8072070472DE9F041E0
:1072C00082B00F460546164602F00AFA002834D06E
:1072D0001C4C1D4A1D4B1E481E49256017707C1E04
:1072E00000221E600023C0E90023C1E90023E4B2AC
:1072F000EFB1DFF86C800027032601E0FF2C16D0E9
:1073000023B205EBC30215F8330093788DF80670AD
:10731000424601A98DF804608DF8053002F0EAF9C3
:10732000013CE4B20028E9D002B0BDE8F0810A4A8D
:107330000A48002100F044FBF6E702F083F9002838
:10734000C6D0F1E7A83200206C3200207032002055
:1073500098320020A0320020FD70020000ED0200F3
:107360001D72020070B5084D2B785BB1074E0024EA
:107370003368012113F8340002F08EFA2B780134BF
:10738000A342F5D8002070BD6C320020A832002046
:1073900000B585B000230390194601AA44F201000C
:1073A0000193029300F004F805B05DF804FB00BF00
:1073B00010B572B6FFF73AFDFFF73AF90028FBD196
:1073C000104C11492088000440F00100FFF75EFADC
:1073D0000E4B1B68DB0700D500BE20880C4900045B
:1073E00040F00200FFF752FABFF34F8F09490A4BF2
:1073F000CA6802F4E0621343CB60BFF34F8F00BF53
:10740000FDE700BFEC2C002004ED0200F0ED00E0F1
:1074100010ED020000ED00E00400FA0559B10AB9D0
:1074200009207047531E1A40FAD1826001608380A0
:10743000C260104670470E20704700BF10B48468C9
:10744000C26803468088121B904203D204205DF874
:10745000044B7047DA681C6802400020A154DA68C7
:107460000132DA605DF8044B704700BF0346806864
:10747000DA6890420DD010B498689A881C6802406F
:107480000020A25C0A709A6801329A605DF8044B91
:1074900070470520704700BFF8B5204A204B0025F3
:1074A000C2F84051C2F84451C2F84851C2F84C5198
:1074B000C2F80051C2F804511B6813B31949D2F83D
:1074C00004450A68A41A1A6824F07F44A2422F4691
:1074D00009D8197CDE69A41A154499B91EB133463E
:1074E0001A68A242F5D91049104A0B7812789A42CC
:1074F0000DD00F490F4A41F823504FF48013C2F8C2
:107500000031F8BD1F745A6998699047E6E7531C2B
:10751000DBB2022B08BF00230B70EAE7001001402A
:10752000CC330020C8330020C5330020C4330020F2
:10753000BC33002000E100E02DE9F04FB74AB84924
:1075400013780978994285B033D00133DBB2022B2E
:1075500008BF0023B3481370B34A0768DFF8E0821E
:1075600052F82320D8F80010BB18002423F07F43E2
:10757000036025462046A646A9B10B68934200F257
:107580007D81CC68C1F800E0D21A1844CB6934B1CF
:107590003E1826F07F46CD618C604E600D46194640
:1075A00001240029E9D1002C40F0A5814FF0010B06
:1075B00005E0DFF88C820025D8F80010AB469B4B25
:1075C0009B4FDFF8809243F0010300930E464FF08B
:1075D000000A002D2DD0D5F804E0D5F808C02C46BF
:1075E000ED69904B93481B68AEEB030222F07F429B
:1075F000824255D802EB0C03236000220120626016
:10760000A260E2612074002E6BD03068834261D9A1
:10761000B64603E0106898424CD29646DEF81C202D
:107620001B1A002AF6D12360E261CEF81C40002D1F
:10763000D1D197F801C097F800E0F44571D07346B6
:1076400003EB43030EF10100BA7807EBC3035FFAC3
:1076500080FE7245187987F800E004BF4FF0000EF5
:1076600087F800E002289A684CD003283DD0012812
:10767000E3D1107C0028E0D1D3F80CE0C2F804E09C
:10768000D3F810C0C2F808C014465A69E26099F8ED
:1076900000209B69A361002AA3D060608646A0E712
:1076A000A3EB0E0323F07F4363450AD2ACEB030345
:1076B0002360A2E7C01A10602360E261CEF81C408C
:1076C000B5E70023012223606360A360E3612274B5
:1076D0003EB13068C8F80040C31A3360E661264600
:1076E00077E7C8F80040264673E7002EA5D00022B1
:1076F00000E01E46F3693274002BFAD1C8F800305E
:107700001E4696E74EB1B242344603D1BDE09A42DE
:1077100060D01C46E369002BF9D100231374F445B3
:107720008DD1BAF1000F02D18E4200F09D80002E63
:1077300000F0C5803B4B404A1C68D2F80475DFF866
:107740000881D6F800A098F800103B1B23F07F4377
:10775000DD1CA9B93949354B4FF48030C2F84403D8
:107760000126C2F804034FF40030C1F8800143F051
:107770000103086016604FF43C60984788F8006089
:10778000AA452CBF04EB0A0363192B4923F07F435E
:10779000C1F84035D1F80425D21BDB1B22F07F4213
:1077A00023F07F4303329A420ED9204BD1F80425AF
:1077B000C1F8402543F001034FF43C6098471F4B4C
:1077C0004FF40032C3F80021002389F8003005B0DF
:1077D000BDE8F08FA24239D0D2F81CE01368C4F89B
:1077E0001CE0BEF1000F11D03046DEF8004023440B
:1077F000CEF80030864209D0002397F800E097F8D1
:1078000001C0137406464FF0010A88E7002397F879
:1078100000E097F801C0137481E700BFC433002073
:10782000C5330020C8330020BC33002020ED020007
:10783000AC320020FEFF7F000010014000E100E0BC
:10784000CC330020B8330020B93300201346F06950
:10785000C8F80000D8B1D3F81CE01B68C4F81CE0DD
:10786000BEF1000FC1D1C5E7BBF1000F7FF45FAFE0
:10787000002389F8003005B0BDE8F08F002C3DD121
:107880009B1A0B604FF0010B99E63346DFE701933B
:107890001C4BDFF87CC003924FF0010E0291C3F83D
:1078A00008E0009BCCF8000089F800E04FF43C6051
:1078B0009847D8F80000019B0299039ACBE7114D35
:1078C000114A124C4FF480334FF400310127C2F8B3
:1078D00080103C43C5F848334FF43C60C5F808338A
:1078E0006F60A0470A4BAF604FF43C601E60A0473A
:1078F000084B1E7068E7C8F8001057E6C8F800107B
:10790000BEE700BF0010014000E100E020ED0200F2
:10791000C8330020B93300202DE9F8431F4D204E15
:10792000204FDFF898804FF480334FF400324FF04F
:1079300001090024C6F8802047EA0907C5F8483342
:107940004FF43C60C5F80833C5F80490B847C5F853
:1079500008904FF43C60C8F80040B847124B1348F9
:107960001349144A1C70144B04600C7014704FF4CB
:107970008011E0220B2098701C705C70C6F880119A
:1079800086F814233160C5F8084586F81123D5F828
:107990000435C8F800302046BDE8F88300100140E7
:1079A00000E100E020ED0200B9330020CC330020DC
:1079B000C4330020C5330020AC320020C83300207F
:1079C000074B9B780BB9082070473AB130B1036878
:1079D000187C0028F7D159745A6170470720704706
:1079E000AC3200202DE9F043264CA37883B01BB9BC
:1079F000082003B0BDE8F0830028F9D0042903D89B
:107A0000072003B0BDE8F0834369002BF0D00646A1
:107A100002A8737C0025012B00F8015D0CBF89468C
:107A2000A94690460F4600F0DFF96378A0782178E8
:107A30005A1CD2B2904208BF2A4691421BD003EB97
:107A4000430304EBC30301200F4918719E60D1F872
:107A500004159DF80700D9601F61C3F81490C3F89E
:107A60001880627000F0E6F9084B4FF48012284647
:107A7000C3F80021BDE79DF8070000F0DBF9042002
:107A8000B7E700BFAC3200200010014000E100E089
:107A900070B51B4CA37882B013B9082002B070BD3A
:107AA0000028FAD04369002BF7D0064602A800252B
:107AB00000F8015D357400F097F96278A0782178BC
:107AC000531CDBB2984208BF2B46994212D002EBFE
:107AD000420204EBC20202219DF807009660117178
:107AE000637000F0A7F9074B4FF480122846C3F8E3
:107AF0000021D3E79DF8070000F09CF90420CDE7B2
:107B0000AC32002000E100E030B50478012C83B0F5
:107B100027D017D3022C13D1384B394D1A78C168AE
:107B2000AA5C01918DF80040002A37D103F10C00C6
:107B30000122344902F0FAFB334B68461B68984730
:107B400003B030BD31493248FFF790FC00282BD0FC
:107B500002A8032300F8083D2B4B1B68984703B08D
:107B600030BD43682B4D19782846FFF767FC30BBC2
:107B7000AA68EB689A4206D002AB234A03F8080DC4
:107B8000126818469047A968EB68AA885B1A9A425F
:107B90001DD2214B01221A7003B030BD181D0122E5
:107BA000184902F051FEC7E71448154A0378D35C20
:107BB000F3B9012215490C3002F048FBC0E7124B23
:107BC00001908DF800401B6868469847DBE70B483A
:107BD0000B4A0378D35C2BB901220A490C3002F01E
:107BE000A5FBADE701220749043002F02DFEA7E70F
:107BF00001220649043002F0CBFDA1E7A42A0020AF
:107C0000603C0020F8330020D0330020FC330020FB
:107C1000E8330020D4330020E43300202DE9F04580
:107C2000324C89B02260002955D00C4680468A88A3
:107C30002F4809689A46FFF7F1FB10B109B0BDE87B
:107C4000F085A289A1682B48FFF7E8FB0028F5D151
:107C5000294D98F810E0294ED8F814700FCD6C46D5
:107C60000FC495E80F0098F811501EF1000E18BFD0
:107C70004FF0010E002D84E80F0014BF0E220022E9
:107C8000D8F80040D8F80430D8F808508DF81520FE
:107C900006976946D8F80C70194A8DF81CA0304632
:107CA0008DF814E0029703958DE8180001F02CFC84
:107CB0000028C3D1D8F80030124A01331070BDD06B
:107CC000114A3378D35C53B906F10C0001220F49F5
:107CD00002F02CFBB2E7072009B0BDE8F085301DAB
:107CE00001220A4902F0B0FDA8E700BFD03300200E
:107CF000D4330020E833002028ED0200A42A00201D
:107D0000097B0200E4330020603C0020F8330020AF
:107D100070B5124C014612482678FFF7A7FB0546BE
:107D20000EB9284670BD0F480F4A0378D35C002275
:107D3000227053B90C3001220C4902F0F7FA0028E6
:107D4000EFD0FFF725FB284670BD0430012207491C
:107D500002F07AFD0028E4D0F3E700BFE43300200E
:107D6000D4330020A42A0020603C0020F8330020F7
:107D700070B501461648FFF761FB044608B120467E
:107D800070BD144D144E2B78F35CABB905F10C00AB
:107D900002F0C0FA0028F2D110490D48FFF766FB47
:107DA0000028ECD12B780D49F35C012253B90C4823
:107DB000BDE8704002F04ABA281D02F037FD0028E5
:107DC000DDD1E9E70748BDE8704002F0E1BC00BF43
:107DD000E8330020A42A0020603C0020FC3300206F
:107DE000B02A0020A82A002070B4EFF3108472B6E5
:107DF0000D4B9A68AAB90D490D4E01259D60D1F829
:107E0000805035401D60C1F88060D1F884505D60BD
:107E10004FF0FF33C1F88430027004B962B670BC11
:107E2000704701230370F8E7543C002000E100E0B4
:107E3000FC06FFBD094B9A6872B168B910B4EFF344
:107E4000108272B606491C680C605C684C609860D1
:107E500002B962B65DF8044B704700BF543C002085
:107E600000E100E030B482B050E8023F1FFAA3F511
:107E7000C488A54202BFBFF32F8F00220DE0C48942
:107E800025448489A54228BF2D1BC3EA054540E847
:107E90000254002CE8D14FF001028DF80320019329
:107EA000019B9DF803200B602AB14B8800681844A1
:107EB00002B030BC704702F0FF03184602B030BC7D
:107EC000704700BF0A884B889A4201D00020704753
:107ED00050E8022FC2EA224240E80223002BF7D1E9
:107EE0000120704701F01F024B09012100EB8300C4
:107EF000914000F021B800BF01F01F0201234909A1
:107F0000934000EB8100D94300F024B84B0901F005
:107F10001F0150F82300C84000F00100704700BF67
:107F200000B550E8002F0B4640E8003E9EF0000FE1
:107F3000F7D110465DF804FB00B550E8003F43EA76
:107F4000010240E8002E9EF0000FF6D110465DF8C9
:107F500004FB00BF00B550E8003F03EA010240E81F
:107F6000002E9EF0000FF6D110465DF804FB00BF16
:107F700000B550E8003F03EB010240E8002E9EF000
:107F8000000FF6D110465DF804FB00BF00B550E8C5
:107F9000003FA3EB010240E8002E9EF0000FF6D157
:107FA00010465DF804FB00BF00B5012350E8002F28
:107FB00042EA030E40E800E191F0000FF6D170466E
:107FC0005DF804FB00B5002350E800EF0EEA030261
:107FD00040E8002191F0000FF6D170465DF804FBF7
:107FE000B8B130B4416882680468521AD2B2531EE4
:107FF0002160DBB242B101680A685C1E551C0D604D
:108000001370E3B2FF2BF6D103680020187130BC67
:1080100070470E20704700BFF0B583B002AB00255B
:1080200003F8015D04461846FFF7DEFE2368616829
:108030001A688A4210D9511E19602168A3680E6817
:1080400012F8015C0A79A78AE0689B1BDBB29A42AE
:1080500007FB050538BF0B719DF80700FFF7EAFE27
:10806000284603B0F0BD00BF30B583B002AB00229C
:1080700003F8012D054618460C46FFF7B5FE2A68A1
:108080001368591C1160E968AA8A641AB4FBF2F4F7
:108090001C709DF80700FFF7CDFE03B030BD00BF98
:1080A000826802B9704710B50446436901680069E7
:1080B00098470023A36010BD0EB400B582B00399A9
:1080C00029B102AA04AB42F8043D00F095F802B0D1
:1080D0005DF804EB03B070472DE9F84F1746B9423D
:1080E000884606461D46DDF828B00B9A7DD30B4620
:1080F0004FF00109B3FBF7F39F4209F10109F9D9E8
:10810000A94538BFA94612F0010A02D1BBF1000F00
:1081100049D1B268012402E0013D07FB04F4012DBE
:10812000FAD8B8FBF4F18F42F7D9324D05E0B4FB31
:10813000F7F4A4B1B8FBF4F1B268685C531CB36007
:1081400033689854B26873689A4204FB1188EED37E
:108150003046FFF7A5FFB4FBF7F4002CEAD1BAF1E3
:10816000000F16D0BBF1000F33D0CB4588BF2024C1
:108170003ED9B3683268591CB160D454B268736890
:108180009A420BF1FF3B06D2BBF1000F09D0D94553
:10819000EFD1BDE8F88F3046FFF782FFBBF1000F4B
:1081A000F5D1BDE8F88F93071AD42024CB45B0D978
:1081B000B2683368511CB1609C54B26873689A42CB
:1081C0000BF1FF3B07D2BBF1000FA3D0CB45F0D1A1
:1081D000A0E7BDE8F88F3046FFF762FFB268F2E72C
:1081E000002D0CBF30242024E0E74FF0010987E781
:1081F000BDE8F88F48ED0200002900F06F822DE9FC
:10820000F04F064685B093460C460B780DE0B268F9
:108210003168501CB0608B54B26873689A4280F029
:10822000D3802378002B00F0BA800134002B00F0BB
:10823000B680252BEBD14FF00008234614F8012B14
:108240002D2A00F0BB80302A00F0BB802B2A00F0E2
:10825000AD802A2A00F0BC80A2F13005E9B20929DC
:1082600098BF013302D9A9E1A1F130051C4613F8EA
:10827000012BA2F1300005EB8501092802EB410139
:10828000F2D92E2A00F0B080002701E014F8012F67
:1082900002F0FB03682BF9D0253A532A7AD8DFE89D
:1082A00012F07A017900790079007900790079007B
:1082B00079007900790079007900790079007900F6
:1082C00079007900790079007900790079007900E6
:1082D00079007900790079007900790079007900D6
:1082E00079007900790079007900790079007900C6
:1082F00079007900790079007900790079007900B6
:1083000079007900790079006A01790079007900B3
:1083100079007900790079007900790079005501B8
:10832000FC007900790079007900FC00790079007F
:108330007900790079007900540079007900CA0049
:108340007900BA00790079006A01DBF80020131D7A
:10835000CBF80030B368156831685A1CB2604FF032
:108360003002CA54B3687268934280F0A0813268C8
:10837000581C7821B060D154B26873689A4280F07A
:108380009281002208230192294600931022304650
:10839000FFF7A2FE01342378002B7FF446AF337B36
:1083A000002B40F0058105B0BDE8F08F234614F89E
:1083B000012B2D2A48F004087FF445AF48F001084E
:1083C0003BE748F0020838E73046FFF769FE28E748
:1083D000DBF80020111DCBF8001015685A782E2A02
:1083E00003F101047FF450AF6278A2F13003092B4E
:1083F00004F101044FF000073FF64AAF07EB87078F
:1084000002EB470714F8012FA2F13003092BA7F163
:108410003007F3D93CE7DBF800301A1DCBF8002019
:108420001968CDF804803B4600950A223046FFF7D4
:1084300053FE0134AFE7DBF800301A1DCBF8002003
:1084400018F0010FD3F8009040F0BB80B9F1000F95
:1084500000F04781484605F0B7FA0746BD4240F2B2
:10846000F180002D00F0EE804FF0200805E0BD42C5
:1084700000F0E880002D00F0E580B3683268591CF8
:10848000B16002F80380B26873689A4205F1FF3563
:10849000EDD33046FFF704FEE9E7DBF800301A1DA4
:1084A000CBF80020D3F8009089EAE973A3EBE973D5
:1084B000092B4FF0010A09DD8F4A82FB0312DB17FB
:1084C000C3EBA203092B0AF1010AF5DCBA4538BF58
:1084D000BA462DB3B9F1000F02DB18F0040F00D03B
:1084E000013D18F0020F40F0F58018F0010F17D190
:1084F000002D00F0FE80AA4538BF202110D2B268BE
:108500003368501CB0609954B26873689A4205F1A0
:10851000FF3580F0E880002D00F0EB80AA45EED119
:10852000B9F1000FC0F2C88018F0040F7BD108F039
:108530000303022B00F09A808DE820013B46494658
:108540000A223046FFF7C8FD013424E7DBF800209B
:10855000131DCBF80030B36831681278581CB06036
:10856000CA54B26873689A42FFF414AF3046FFF7FA
:1085700097FD01340FE7DBF800301A1DCBF800201F
:108580001968CDF804803B46009510223046FFF76D
:10859000A3FD0134FFE6B3683268591CB1604FF0A7
:1085A0002501D154B26873689A42DFD20134F2E6F1
:1085B000304605B0BDE8F04FFFF772BD1C46002500
:1085C0005FE64F46A7EB090817F8013B8BB1B2688D
:1085D0003168501CB0608B54B26873689A42F1D312
:1085E0003046FFF75DFDA7EB090817F8013B002BAC
:1085F000EDD145457FF6CEAE202705E045453FF459
:10860000C9AE002D3FF4C6AEB3683268591CB160E4
:10861000D754B26873689A4205F1FF35EED33046FD
:10862000FFF73EFDEAE7B2683368501C2B21B060CB
:108630009954B26873689A42FFF479AF3046FFF7F5
:108640002FFD74E709F1FF3919F8013F002B3FF4C2
:10865000A1AEB2683168501CB0608B54B2687368C8
:108660009A42F1D33046FFF71BFDEDE7002F7FF470
:1086700063AF002D33D0AA45BFF45EAFB268336854
:10868000511CB1604FF030019954B26873689A423E
:1086900005F1FF3503D215B3AA45EFD14CE73046BB
:1086A000FFF7FEFCF7E73046FFF7FAFC69E63046D5
:1086B000FFF7F6FCB3685AE6B2683368501C2D2108
:1086C000B0609954B26873689A42C9F10009FFF426
:1086D0002EAFB3E7002F3FF423AF06E77047002526
:1086E0002AE74F46BAE630460391FFF7D9FC0399D3
:1086F00011E7002514E700BF6766666618B10368D6
:108700000BB1DB69184770B50B4C0C4D0C4B2D1B96
:10871000A3FB05352D090CD005EB850504EB85057C
:1087200023682046143413B1DB69984718B9AC426A
:10873000F6D1002070BD70BD182D0020182D00202E
:10874000CDCCCCCC29DF704728DF7047034B187A9B
:108750000122B0FA80F05A744009704700340020BA
:1087600030B55D4C237A87B0002B66D05B4B1B681D
:10877000022222721A79002A33D0012A25D01968E0
:108780008A68CAB1002203250592029200920392E0
:10879000049201959A6805921A796846002A57D082
:1087A000012A07D102228DF80020DA681203029212
:1087B0005B6904938B6898470023494949482372B1
:1087C0006360FFF77FFB07B030BDD8681A691044BB
:1087D000FFF7BAFFC8B11128D1D10123237207B026
:1087E00030BD9D695A69D9681869521BB2F5805F1E
:1087F00028BF4FF480529208012A38BF0122294431
:108800002844FFF79FFF0028E5D1227C002AE6D10B
:10881000227A002AE3D0022A0AD1E0601A7922B330
:10882000012A05D11A69596901328A421A6128D090
:10883000637CBBB104F08EFED1E729492948FFF7DC
:1088400011FB264B18600346002891D16060C6E7F3
:1088500001228DF800201A690292DA6803925B699E
:108860000493A7E7FFF77CFFB9E79A695969881A6B
:10887000B0F5805F94BF121802F5805291429A6160
:10888000D6D10022227219688868B0B10592009290
:1088900001920292039204929A6805921A796846AC
:1088A00082B1012A07D102228DF80020DA68120372
:1088B00002925B6904938B68984709490948FFF75E
:1088C00001FBB5E701228DF800201A690292DA68EF
:1088D00003925B690493EEE7003400201834002013
:1088E00014340020B82A0020831E012B00D97047C1
:1088F00030B5354C237A87B0002B47D0022B41D1BD
:1089000003280AD1E3680133082B44D92F4B0022F6
:108910001B68E26022720D2015E02C4B00221B68C0
:10892000E2601A79002A38D0012A2BD11A695969D4
:1089300001328A421A6125D102284FF0000214BF89
:108940000D201046227219688A68BAB10022059279
:1089500002920092039204929A68019005921A7909
:1089600042B3012A07D1DA685B6904931303022238
:1089700002938DF800208B68684698471449154883
:10898000FFF7A0FA637C1BB104F0E4FD07B030BD33
:10899000FFF7E6FEFAE7E360F4E79A6959698D1A92
:1089A000B5F5805F94BF521902F5805291429A61E9
:1089B000E8D1C1E71869DA685B69029001258DF892
:1089C000005003920493D6E70034002018340020AE
:1089D00014340020B82A002000F0FD03012B00D041
:1089E000704730B5624CA0F10100B0FA80F0237AF4
:1089F0004009002287B020746274002B5FD05D4B69
:108A00001B68022222721A79002A45D0012A1DD041
:108A100019688A688AB100220325059202920092A1
:108A20000392049201959A6805921A796846002A81
:108A300059D0012A4ED08B68984700234E494F48A1
:108A400023726360FFF73EFA07B030BDD8681A6939
:108A50001044FFF779FE28B11128D9D101232372E0
:108A600007B030BD227C002AFAD1227A002AF7D042
:108A7000022A0BD1E0601A79002A41D0012A05D1DF
:108A80001A69596901328A421A6145D0637C002B08
:108A900033D004F05FFDE3E79D695A69D96818692E
:108AA000521BB2F5805F28BF4FF480529208012A12
:108AB00038BF012229442844FFF744FECBE72E4962
:108AC0002E48FFF7CFF92B4B18600346002898D1AA
:108AD0006060C5E702228DF80020DA681203029276
:108AE0005B690493A7E701228DF800201A690292BE
:108AF000DA6803925B6904939DE7FFF731FEAFE705
:108B00009A695969881AB0F5805F94BF121802F506
:108B1000805291429A61B9D1002222721968886804
:108B2000B0B10592009201920292039204929A6867
:108B300005921A79684682B1012A07D102228DF87E
:108B40000020DA68120302925B6904938B689847ED
:108B500009490A48FFF7B6F998E701228DF8002085
:108B60001A690292DA6803925B690493EEE700BF28
:108B7000003400201834002014340020B82A0020CB
:108B8000FFF72EBA2DE9F041B0F81480CF1CA8F100
:108B9000040847440646B7FBF8F7FFF73DFA80B3F1
:108BA000FFB200250123013F0446A0F806800660BD
:108BB0000571437128D0804609E06379AF4203F123
:108BC00001036371C8F80000066080461CD030467F
:108BD000FFF722FA01350028EFD16679721E16D010
:108BE0002346013082421B68FBD81F684EB12146E4
:108BF00000250C6801353846FFF736FAAE422146AB
:108C0000F7D10020BDE8F0812046BDE8F08127685B
:108C1000EDE700BF04300121FFF7AAB9F8B5012143
:108C200004460430FFF7B2F9C0B200B1F8BD66796E
:108C3000721E12D02346013082421B68FBD81F6887
:108C4000002EF3D0214600240D6801343846FFF78A
:108C50000BFAA6422946F7D1F8BD2768F2E700BF14
:108C60002DE9F843C68804330F46B3FBF6F590466A
:108C700006FB1533044615B1013D2468FCD1F51AF5
:108C8000454528BF4546B8F1000F15D04FF0000903
:108C90000433E018A8EB05082A4607EB090104F0A5
:108CA0005FFE4645A944246835464FF0000328BFBF
:108CB0004546B8F1000FEBD1BDE8F8832DE9F84344
:108CC000C68804330F46B3FBF6F5904606FB153114
:108CD000044615B1013D2468FCD1751A454528BFED
:108CE0004546B8F1000F15D04FF00009043121447A
:108CF000A8EB05082A4607EB090004F031FE4645BB
:108D0000A944246835464FF0000128BF4546B8F114
:108D1000000FEBD1BDE8F88341DF7047064A074BEF
:108D200010B5002414701C60BFF35F8F0449054820
:108D300000F032F8204610BD2434002028340020F2
:108D400078ED02001C34002000B583B002A8002397
:108D500000F8013DFFF748F8F1EE103A23F09F03C9
:108D6000E1EE103ABFF35F8F0A4B4022C3F8842133
:108D70009DF80700FFF75EF804F0FCFB28B920BF60
:108D800040BF20BF03B05DF804FBFFF7C5FF03B091
:108D90005DF804FB00E100E001600B6843604A6895
:108DA000934204BF00234360704700BF436843B150
:108DB000026891680B4443605268934204BF0023E9
:108DC0004360704730B4184DA5F59472AB1ADB10B0
:108DD00003EBD3735B1002EBC30152F833309842BC
:108DE00028BF0C4605D311E052F8333098420CD21C
:108DF00021468B1ADB1003EBD3735B10914202EB1D
:108E0000C304F1D8094830BC70470D46984204D9D4
:108E100004F10802AA42D9D3F4E76068034B0028A2
:108E200008BF1846EFE700BFCCEE020090ED02004D
:108E300070B5161E07DD0C468D1914F8010BFEF7F0
:108E400097FFA542F9D1304670BD00BF10B50C4662
:108E50002046FEF75DFF0528FAD0012010BD00BFB7
:108E6000F0B4B44B1A78062A20D0B34B1B68062BFB
:108E700000F08A80B14AD2F8883043F47003C2F817
:108E80008830BFF34F8FBFF36F8F4FF01023D3F8AD
:108E90000022002AC0F28A81D3F80432002BC0F2EB
:108EA0008581A74BA74A1A60F0BC704704331B6842
:108EB0001807DAD1A44B1B6803F0F002302A00F047
:108EC000658103F0E003402B00F060819E4B1B683E
:108ED00003F0F003302B00F01E819B4B1B6803F066
:108EE000F002302A00F0078103F0E003402B00F08D
:108EF0000281954B1B6803F0F003302B00F0EB80F0
:108F0000914B1B6803F0F002302A00F0D08003F090
:108F1000E003402B00F0CB808B4B1B6803F0F00389
:108F2000302B00F0B680884B1B6803F0F003302B29
:108F300000F09880844B1B6803F0F003502B3FD067
:108F4000814B1B6803F0F002302A28D003F0E003C5
:108F5000402B24D07C4B1B6803F0F002302A03D056
:108F600003F0E003402B80D14FF08043D3F800247E
:108F7000D2077FF57AAF6FF00102C3F800246E4B81
:108F80001B68062B7FF476AF704B1B68062B7FF4B3
:108F900071AF6F4A136843F4806313606AE76D4BE7
:108FA0006D4A1B6803F04F031360624B1B78062B5E
:108FB0007FF45BAF694B1B6818077FF456AFC9E7B6
:108FC0004FF08052664BD2F80414C3F82015D2F843
:108FD0000814C3F82415D2F80C14C3F82815D2F8D5
:108FE0001014C3F82C15D2F81414C3F83015D2F8A5
:108FF0001814C3F83415D2F81C14C3F84015D2F86D
:109000002014C3F84415D2F82414C3F84815D2F834
:109010002814C3F84C15D2F82C14C3F85015D2F804
:109020003014C3F85415D2F83414C3F86015D2F8CC
:109030003814C3F86415D2F83C14C3F86815D2F894
:1090400040143C48C3F86C15D2F844140278C3F8B5
:109050007015062A7FF409AF404B1B681C077FF48C
:1090600004AF6DE73F4E404C4049414B0527012579
:1090700000203F223760256008601A602D4B1B7866
:10908000062B7FF4F2AE354B1B681D077FF4EDAE67
:1090900050E7284B374A1B780321062B11607FF4D9
:1090A000E4AE2E4B1B681E077FF4DFAE3BE74FF0AC
:1090B00080430022C3F80C21C3F81021C3F83825DF
:1090C0001C4B1B78062B7FF470AF244B1B681F07CB
:1090D0007FF4CBAE20E72849164ACB68127823F0FC
:1090E0008073062ACB607FF4C0AE1C4B1B681B0745
:1090F0007FF4BBAE04E7214B0E4A1B68127820496F
:10910000C3F34233062A0B60B8D1144B1B681A070D
:109110007FF4ABAEEDE6074B1A4A1B781A49116093
:10912000062B7FF4A2AE0D4B1B6819077FF49DAE92
:10913000D3E600BFE00F00F03001001000ED00E0CA
:10914000CC2A00200090D003E80F00F0340100107A
:109150003C17004058020010E40E0040E40F00F0FD
:1091600000C000401056004088560040185600408D
:1091700014560040A0050040F0ED00E0440200104D
:109180003C05004074C007400DF0ADBA204B214AA9
:109190001B6812782049C3F30423062A0B608FD181
:1091A0001E4B1B6819073FF491AE5EE61C4B012273
:1091B000C3F80425D3F80024002AFBD04FF0102375
:1091C00015221749C3F80022D1F80034002BFBD038
:1091D0004FF010221521124BC2F80412D3F80024CC
:1091E000002AFBD000220E49C3F80425D1F8003430
:1091F000002BFBD0BFF34F8F0A490B4BCA6802F418
:10920000E0621343CB60BFF34F8F00BFFDE700BFA9
:1092100024030010E00F00F040350140E40F00F09F
:1092200000E0014000ED00E00400FA05054A4FF0BF
:10923000A043105CD3F8043523FA00F0C04300F0DB
:1092400001007047BCF20200044B195C4FF0A042D1
:1092500001238B40C2F80C35704700BFBCF20200FE
:10926000044B195C4FF0A04201238B40C2F8083533
:10927000704700BFBCF202004FF0A04310B44FF49F
:1092800080204FF400344FF400214FF48012C3F8D3
:109290000845C3F80805C3F80815C3F808255DF8A4
:1092A000044B70474FF0A04310B44FF480204FF4AC
:1092B00000344FF400214FF48012C3F80C45C3F87A
:1092C0000C05C3F80C15C3F80C255DF8044B70476A
:1092D000074B4FF0A041185CD1F8043501228240C1
:1092E00022EA03001340C1F80805C1F80C357047A5
:1092F000BCF20200054A4FF0A043105CD3F81035D1
:1093000023FA00F0C04300F001007047B8F20200F9
:109310000D2809D00E2809D00F2809D010280CBF1D
:1093200003204FF0FF307047002070470120704746
:1093300002207047014B185C704700BFB8F2020072
:10934000C20770B41AD54FF0A04303224FF4003681
:109350004FF480254FF400244FF48011C3F84427C4
:10936000C3F84827C3F84C27C3F85027C3F808654B
:10937000C3F80855C3F80845C3F8081583070AD58C
:109380004FF0A0430C22C3F83427C3F83827C3F8A2
:109390003C27C3F8402770BC704700BF10B568B1C8
:1093A00001280AD10C4C2369A07033B10CCB0120E9
:1093B000226198472369002BF8D110BD064CA368A1
:1093C00001226270002BF8D00CCB0020A2609847DD
:1093D000A368002BF8D110BD2C34002068B910B55B
:1093E000064CA3680122627033B10CCB0020A2604E
:1093F0009847A368002BF8D110BD70472C3400208B
:1094000030B5012883B01CD015D3032811D100F04A
:10941000C9F802A800231F4C00F8013DFEF7E4FC48
:10942000E368013BE360E56865B39DF80700FEF77C
:1094300001FD03B030BD184B0122C3F8802003B0FA
:1094400030BD02A80023134C00F8013DFEF7CCFC10
:10945000237853B1E3689DF8070001330122E360EC
:10946000A270FEF7E7FC03B030BD0C486360A36058
:109470002361E36000F088F804F07CF830B1012348
:109480002370E7E700F0A2F8A570CEE700F08AF8B5
:10949000F5E700BF2C34002000E100E09D930200BE
:1094A00070B50A4A0A4B06784568047AC06853F8D2
:1094B000213052F8211084B003908DF8006001959E
:1094C0008DF808406846984704B070BD40340020CD
:1094D0004434002070B50A4A0A4B0678456884680F
:1094E000C06853F8213052F8211084B003908DF8F1
:1094F000006001958DF808406846984704B070BD3B
:109500004034002044340020F0B51A4B06781A4D40
:109510000C6991F81DC045F826400746174803F826
:1095200006C040F826200C4696460FCC89B06D4602
:109530000FC594E80F0085E80F000496BCF1000FFA
:109540000BD0BEF1000F0E4A694607F1040008BFB8
:10955000002201F031F809B0F0BDBEF1000F094A58
:10956000694607F10C0008BF002200F0A3FD09B016
:10957000F0BD00BF603C0020403400204434002097
:10958000A1940200D5940200054A13790BB18520FD
:10959000704701211060537118461171704700BF68
:1095A00048340020084B1A68D20706D40122E02173
:1095B00083F80013C3F880211A604FF08043012222
:1095C000C3F81825704700BF00E100E0044B0122FA
:1095D0001A604FF08042D2F81834DB03FBD4704796
:1095E0000C00004010B5144B1A6882B062B1002123
:1095F000124A19601B68507900934FF08041012393
:10960000009CC1F8083390B10D4B1A686AB1002272
:109610001A601B6801934FF080420221074B0198AA
:10962000C2F808131B680120984702B010BD1168EA
:1096300053718847E8E700BF00010040483400202C
:109640000401004070B5224C94F8585082B015B116
:10965000082002B070BD4FF0FF332946FF260422D8
:1096600004F1540023636363A363E36323646364CB
:10967000A364E36423606360A360E36023616361C8
:10968000A361E361236284F850306362A36284F8CB
:109690005230E36284F8533084F8516004F06BF97F
:1096A0000C4B0D4A0D4E15604021E02083F8060357
:1096B000C3F8801119601368019301994FF00043BA
:1096C0000122284684F85820C6F8043302B070BD41
:1096D0005034002000E100E07C6100400060004068
:1096E000034B93F85800003018BF0120704700BFAB
:1096F00050340020F0B5664C231893F93050002DFB
:1097000001DB0820F0BD91F802E0CEF3400EBEF17F
:10971000000F50D02568013500F0B58001250826DE
:1097200054F8253001334CD06B1C54F823700137AA
:1097300048D0AB1CB3423CD254F82370013741D01F
:10974000EB1CB34235D254F8237001373AD02B1DAD
:10975000B3422ED254F82370013733D06B1DB3427D
:1097600027D254F8237001372CD0AB1DB34220D23E
:1097700054F82370013725D0EB1DB34219D254F8A9
:10978000237001371ED005F10803B34211D254F8FB
:109790002370013716D005F10903B34209D254F8FA
:1097A000237001370ED00A35B54202D2E36A013385
:1097B00067D00420F0BD256A013533D009250C2679
:1097C000AEE72B4626185DB244F8232086F83050C9
:1097D000BEF1000F2CD08B785A0715D4DE0747D581
:1097E000830003F1A043D3F8002722F00202C3F85C
:1097F0000027284EC20800F0070EB75C012303FAC9
:109800000EF33B43B3548B7813F0020314D1083D9D
:109810002C44097894F8502042EA811284F85020B0
:109820001846F0BD082683F830603546226233467C
:10983000234483F84800CEE7AD0005F1804505F5E7
:10984000C0450A78D5F8101521F4473121F440714C
:10985000C5F8101503021204D5F8101502F44032B1
:1098600003F4F85313430B43C5F810350020F0BD43
:109870004A784FF0A04600F5E073920046F82320A6
:10988000B7E70B239EE70025226083F83050A2E75C
:1098900050340020A4340020F0B42E4D2E1882B095
:1098A00096F93030072B1CDD2B4493F848309B0988
:1098B000032B41D0012B14BF4FF440314FF4003142
:1098C000800000F1A040D0F8002722F44032C0F818
:1098D0000027D0F800370B43C0F8003702B0F0BCC7
:1098E0007047DAB2072AF9D8980000F1804000F5F5
:1098F000C04003F140029200D0F8104592B202F14C
:109900008042002744F0010402F5C042C0F810452F
:109910000197019817600029E0D096F9302055F89A
:109920002220002ADAD001220B4902FA03F3C1F8FF
:10993000043302B0F0BC70474FF0A043D3F81035A9
:10994000C34013F0010F0CBF4FF400314FF440310E
:10995000B6E700BF50340020006000404FF0A04345
:10996000D3F8103523FA00F000F00100704700BF73
:109970002DE9F04F87B00023CC4A019311680129EB
:1099800000F00A821E46CA4B1A68012A00F0F681CE
:10999000C84B1A68012A00F0E381C74B1A68012AF4
:1099A00000F0D081C54B1A68012A00F0BD81C44B7C
:1099B0001A68012A00F0AA81C24B1A68012A00F035
:1099C0009781C14B1A68012A00F08481BF4B1A6845
:1099D000012A00F05E8116F0FF0F1AD0BC4F01255E
:1099E0000024A30003F180432E4203F5C0434FEA55
:1099F00045050BD0D3F8100557F82420D3F81015DF
:109A0000C0F30420C1F3014102B190470134082C96
:109A1000E7D1002E02DB07B0BDE8F08F00224FF047
:109A2000FF33AB4C02920393012502AE94F9501020
:109A30004F1C2DD0C9B221F0C00006AB4FEAD00EAA
:109A400003EB0E0701F0070317F80C2C05FA03F3DC
:109A50001A421DD02218890992F9302054F8222088
:109A6000002A00F0F080032900F0F0804FEA800E19
:109A70000EF1A04E17F814CCDEF800771CEA0303B1
:109A8000C7F3014940F0B880B9F1030F00F0D78166
:109A90004FF0030A4FF002094FF00108002794F934
:109AA0005110481C2DD0C9B221F0C00006AB4FEABE
:109AB000D00C03EB0C0E01F007031EF80C2C05FA7A
:109AC00003F31A421DD02218890992F9302054F864
:109AD0002220002A00F0CA80032900F0CA804FEA41
:109AE000800C0CF1A04C1EF814BCDCF800E71BEA5B
:109AF000030FCEF3014E40F09080BEF1030F00F053
:109B00008A8194F952104A1C2CD0C9B221F0C000AD
:109B100006AB4FEAD00C03EB0C0E01F007031EF866
:109B20000C2C05FA03F31A421CD02218890992F969
:109B3000302054F82220002A00F08F80032900F002
:109B40008E804FEA800C0CF1A04C1EF814ACDCF8AF
:109B500000E71AEA030FCEF3014E6AD1BEF1030FFC
:109B600000F0468194F953104B1C2CD0C9B221F05F
:109B7000C00006AB4FEAD00E03EB0E0201F0070364
:109B800012F80CCC05FA03F31CEA030F1BD004EB0C
:109B9000000C89099CF930C054F82C90B9F1000FE1
:109BA0006ED003296ED04FEA800E0EF1A04E12F84F
:109BB00014CCDEF800271CEA030FC2F3014211D1D6
:109BC000032A00F0F580002F3FF425AF4FF0A043AB
:109BD000019AD3F810359A423FF41DAF029A0193CF
:109BE000039223E7022AEED1032900F04681B9F15E
:109BF000000FE8D0C847E6E7B9F1020F7FF448AF9D
:109C0000032900F043814FF0030A4FF001080027B9
:109C1000002A3FF444AF904741E7BEF1020F7FF4C2
:109C200070AF032900F02C81002A3FF46AAF9047FF
:109C300067E7BEF1020F95D1032900F02481002AC5
:109C400090D090478EE703297FF422AF16F80EC01C
:109C50004CEA030C06F80EC008E7032982D116F877
:109C60000CA04AEA030A06F80CA06AE703297FF46D
:109C700048AF16F80CB04BEA030B06F80CB02EE711
:109C80000329A0D116F80EC04CEA030C06F80EC04A
:109C900089E700221A601B6805934FF0A043059ADC
:109CA000D3F81035019346F0004694E60061004079
:109CB00004610040086100400C61004010610040F8
:109CC00014610040186100401C6100407C6100404C
:109CD000503400206F4AD2F8042312067FF576AE86
:109CE00000221A601B680493049B46F080066DE610
:109CF000684AD2F8042351067FF563AE00221A6049
:109D00001B680493049B46F040065AE6614AD2F869
:109D1000042390067FF550AE00221A601B6804935E
:109D2000049B46F0200647E65A4AD2F80423D4069C
:109D30007FF53DAE00221A601B680493049B46F039
:109D4000100634E6534AD2F8042315077FF52AAEED
:109D500000221A601B680493049B46F0080621E663
:109D60004C4AD2F8042357077FF517AE00221A6039
:109D70001B680493049B46F004060EE6454AD2F89D
:109D8000042392077FF504AE00221A601B68049337
:109D9000049B46F00206FBE53E49D1F8046316F049
:109DA00001063FF4F0AD136013680493049BEAE5E9
:109DB00003297FF41CAF4FF40032DEF8003723F4A0
:109DC0004033CEF80037DEF800371343CEF80037C3
:109DD000B9F1000F01D047460CE74FF0A043019ABC
:109DE000D3F8103593427FF4F9AE07B0BDE8F08F99
:109DF00003297FF424AF4FF40037DCF8003723F455
:109E00004033CCF80037DCF800373B43CCF8003760
:109E10004746C84613E703297FF406AF4FF40037DF
:109E2000DCF8003723F44033CCF80037DCF8003797
:109E30003B43CCF800374746C846D146F4E60329F1
:109E400006D0CA461F464FF002094FF00108DFE670
:109E50004FF40037DEF8003723F44033CEF80037F4
:109E6000DEF800373B43CEF800374FF0040A4FF0DE
:109E700003094FF002080127CAE64FF440329CE77D
:109E80004FF44037CCE74FF44037B6E74FF4403754
:109E9000E0E700BF00600040014B1B68184700BFAF
:109EA000AC340020104B984201D00020704730B5F0
:109EB00083B002A8002300F8013D0D46FDF794FF92
:109EC0000A4B1C7934B19DF80700FDF7B3FF112050
:109ED00003B030BD01229DF807001D601A71FDF727
:109EE000A9FF204603B030BD00200040AC34002064
:109EF00030B56E4AD2F8043399058BB05BD5D2F8F1
:109F00002431002B57D00023C2F82431D2F8243159
:109F100003934FF40171664B0398C2F8081393F84A
:109F2000291009B901215160604902228DF81820D9
:109F3000D1F88024C1F880249869D9680992002258
:109F4000089007919A6193E81200DA6106A8A04789
:109F5000564AD2F81C31C3B1554B186A5969884228
:109F600065D293F8280000F0FF0400285FD1C2F802
:109F70001C41D2F81C11029102999C68186A196A56
:109F8000205C01311962C2F81C05484AD2F84431FC
:109F90007BB10021464BC2F84411D2F8440193F83A
:109FA00029100090009809B1012111609A69002AD6
:109FB00052D10BB030BD3D4AD2F804335B07C7D550
:109FC000D2F80831002BC3D0394B9969002952D0FF
:109FD0000021C2F80811D2F8081104910499D86838
:109FE000596AD2F8182542545A6A996901325A625C
:109FF0005A6A8A42ACD1DA69002A45D193F82920FD
:10A0000012B92A4A01215160284A4FF40171C2F85D
:10A010000813596ADA6808910024012007928DF824
:10A02000180093E806009C6106A8904790E71F4A35
:10A030000020C2F81C01D2F81C210192019A0029CB
:10A04000A3D09A688DF8180008915861079206A865
:10A0500093E80600904798E70022586AD9689A6109
:10A060000122089007918DF8182006A893E80600B1
:10A0700090470BB030BDC2F80811D2F80801059026
:10A080000598D2F81825B3E7DD685C6A18699A610B
:10A0900001210022D860DA615A628DF81810079504
:10A0A000089493E8060006A8904751E70020004076
:10A0B000B43400202DE9F041604E05792C2303FBD8
:10A0C000056382B093F82A301BB1082002B0BDE8C6
:10A0D000F0810F4604465A4900689046FFF7E2FEB9
:10A0E00018B1112002B0BDE8F0813A68511C0BD0C4
:10A0F0004FF0A04101239340C1F808353B6803F5B8
:10A10000E073032241F823207B685A1C06D003F534
:10A11000E0734FF0A042002142F823102368BA698F
:10A12000C3F82425397D7B7D22680B43C2F86C354A
:10A1300097E806002368C3F81425C3F80C153B7D87
:10A14000012B51D02C2303FB05F3F218C2F8048035
:10A150003A69F250B8F1000F35D023683A7F394F91
:10A160000021C3F81C11D3F81C3100932368DDF8DB
:10A1700000E0C3F84411D3F8441123680191019918
:10A18000C3F804732168090B4BB2002B4EDB03F1BB
:10A19000604303F561435201D2B283F80023226881
:10A1A000120B42F3C40323F0604323F0030303F1D3
:10A1B000604303F5614302F01F02012101FA02F23C
:10A1C000C3F880211A602C23246803FB0563002256
:10A1D00004250121C4F8005583F82A109A61DA6138
:10A1E00083F829205A6171E7BB68591C06D003F532
:10A1F000E0734FF0A042002142F82310FB685A1C84
:10A200000DD001224FF0A04102FA03F3C1F8083546
:10A21000FB6803F5E073032241F82320FB68226802
:10A22000B968C2F80835C2F810158BE7064B01F083
:10A230000F0152010B44D2B21A76B0E7B4340020B9
:10A24000F19E020080000200FCEC00E0F0B5304E10
:10A2500005792C2303FB056385B05C6914B11120DB
:10A2600005B0F0BD1C62996083F828405A6102680D
:10A27000C2F81C41D2F81C11026802910121029F10
:10A2800091600268D3F808E0C2F81C41D2F81C11B2
:10A2900001910199D3F820C0196A5F681EF80CC0BB
:10A2A00001311962C2F81CC517B1204605B0F0BDD6
:10A2B0001A6A5C690168944203D819E093F828206F
:10A2C000F2B9D1F81C21002AF8D0C1F81C71D1F8DC
:10A2D0001C210392039AD3F820C01A6A1EF80CC0FE
:10A2E00001321A62C1F81CC51A6AA242E9D3016898
:10A2F000D1F81C31002BFBD00123CB60002000E003
:10A300000F202C2303FB056300225A61A8E700BF3E
:10A31000B43400200379044A2C2101FB032358693B
:10A32000003018BF01207047B4340020F0B4544D01
:10A3300004792C2303FB045386B05F6827B10368BC
:10A340004FF40176C3F808632C2303FB04539E6982
:10A350006EB1DE690EB3002F00F08F8003684FF4FA
:10A3600001721120C3F8042306B0F0BC704793F8C3
:10A3700029709A61D9605E62DE61002F2FD02C2394
:10A3800003FB04535A6882B103684FF40172C3F8A7
:10A390000423002006B0F0BC7047DA6119612C2359
:10A3A00003FB04535A68002AEED10168C1F8442126
:10A3B000D1F844210392039A0268D2F82461D2F8BA
:10A3C0000871D2F84411E7B9002948D1002EF4D021
:10A3D0002C2303FB04540023A3610320DAE7036862
:10A3E000C3F82471D3F8242103680192019AC3F8B9
:10A3F0000871D3F8082103680292012202991A60B9
:10A40000BDE7002EE4D161BB9E6996B1C2F8081188
:10A41000D2F8081104910499DE68596AD2F8182517
:10A4200072545A6A996901325A625A6A9142C3D87F
:10A4300008E0C2F80861D2F8081105910599D2F830
:10A4400018255B6A2C2303FB0454002294F829305E
:10A45000A2616BB103680121104619609AE7002ED2
:10A46000B6D12C2303FB04540023A3610F2091E7F2
:10A4700002680121184651608CE711208AE700BF6D
:10A48000B434002070B54A4BD3F8242188B0002A98
:10A4900055D1D3F81011F1B9454BD3F8442152B13D
:10A4A0000020444AC3F84401D3F84441916901941F
:10A4B000019C002960D13E4BD3F820214AB10021F4
:10A4C0003C4AC3F82011D3F8204150690094009C05
:10A4D00030BB08B070BDC3F81021D3F81011354857
:10A4E000039103998169D3F83C458C42D4D1C56965
:10A4F000002D50D0D3F80012C668856121F02001EC
:10A50000C3F800120369C26101220168C3608DF8BB
:10A510001840436805968DF8102004A89847BBE7BB
:10A52000D3F84C0593688DF818008DF81010516120
:10A53000059304A892E80A00984708B070BD00216E
:10A54000C3F82411D3F82421029202228DF810209E
:10A55000029AD3F88004174AC3F880040790D3F80E
:10A560003C05D3688DF818009161D161059311689D
:10A57000536804A898478FE7D3F83C458DF81840F6
:10A58000D368906101240593116853688DF81040D9
:10A5900004A898478FE7C368016885610122059385
:10A5A0008DF8184043688DF8102004A8984773E789
:10A5B00000200040E03400202DE9F0430479704E83
:10A5C000E7003B1906EB830385B093F820301BB1FD
:10A5D000082005B0BDE8F083894605466949006852
:10A5E0009046FFF75FFC18B1112005B0BDE8F0837D
:10A5F000D9F80020511C0CD04FF0A041012393400A
:10A60000C1F80835D9F8003003F5E073032241F8AA
:10A610002320D9F804305A1C06D003F5E0734FF01C
:10A62000A042002142F823102B68D9F81820C3F863
:10A63000242599F8141099F815202B680A43C3F8BB
:10A640006C252A68D9F80030D9F80410C2F80C3506
:10A65000C2F8141599F81430012B61D03A19920000
:10A66000B318C3F80480D9F81030B350B8F1000F14
:10A6700047D0296899F81C20DFF810E10023C1F8C1
:10A680001031D1F8101100912968DDF800C0C1F82F
:10A690002031D1F8201101912968DDF804C0C1F8FA
:10A6A0002431D1F8241102912968DDF808C0C1F8DD
:10A6B0004431D1F844112B6803910399C3F804E3A2
:10A6C0002968090B4BB2002B51DB03F1604303F502
:10A6D00061435201D2B283F800232A68120B42F37D
:10A6E000C40323F0604323F0030303F1604303F545
:10A6F000614302F01F02012101FA02F2C3F8802136
:10A700001A603C442A6806EB8404002301250821D2
:10A7100084F82050C2F80015A361E361636158E733
:10A72000D9F80830591C06D003F5E0734FF0A04269
:10A73000002142F82310D9F80C305A1C0FD0012206
:10A740004FF0A04102FA03F3C1F80835D9F80C30F4
:10A7500003F5E073032241F82320D9F80C302A686E
:10A76000D9F80810C2F80835C2F8101576E7064B7C
:10A7700001F00F0152010B44D2B21A76ADE700BFCF
:10A78000E034002085A40200FCEC00E0100302008D
:10A7900001F06043B3F1005F01D010207047F0B5C5
:10A7A0000579214EEF007C1906EB840483B06369C0
:10A7B00013B1112003B0F0BDA1606261D0F800E0D8
:10A7C000CEF82031DEF820C1D0F800E0CDF804C08A
:10A7D000DDF804C0CEF85831DEF858C1D0F800E0FA
:10A7E000CDF800C0DDF800C0CEF84415CEF84825FD
:10A7F00002680121916062680AB11846DAE70368CD
:10A8000000E079B9D3F82021D3F85811002AF8D004
:10A81000002914BF0F2000207B1906EB83030022C0
:10A820005A61C7E70F20F7E7E03400200379054AB3
:10A8300003EBC30302EB83035869003018BF012008
:10A84000704700BFE034002001F06043B3F1005FC7
:10A8500001D010207047F0B50479454EE3001D1972
:10A8600006EB850583B06D6825B107684FF4047E5B
:10A87000C7F808E3234406EB83039C696CB3DC69E7
:10A88000002C44D11961DA610368C3F81041D3F890
:10A89000105103680195019DC3F84441D3F8444128
:10A8A00003680094009CC3F83415C3F83825026887
:10A8B000D2F8003243F02003C2F800320479E500F8
:10A8C0002B1906EB83035B684BB303684FF40472E8
:10A8D000C3F80423002003B0F0BD9A61DC61D960A5
:10A8E0000368C3F81041D3F8105103680195019D26
:10A8F000C3F84441D3F8444103680094009CC3F872
:10A900003415C3F83825036801221A60D6E705B369
:10A9100003684FF40472C3F804231120DBE70368D3
:10A9200001E0C1B9E8B9D3F81021D3F84411D3F844
:10A930002401002AF5D02C4400284FF0000306EB38
:10A94000840614BF032018469942B36118BF0F2034
:10A95000C1E71120BFE72C4406EB84060F20B2614B
:10A96000B9E72C4406EB84060320B161B3E700BFCE
:10A97000E03400200220FEF7ABBC00BF2DE9F04719
:10A980000D460646FEF7C4FC03281ED8012D0446DA
:10A990001FD00ED3022D1AD11C4B00EB40041C44D7
:10A9A000657895B11A4B1B687BB12846BDE8F04726
:10A9B00018471848FDF76CF8144B174A04EB44018C
:10A9C0000B44125D9D78AA42EBD0BDE8F087BDE84C
:10A9D000F0870E4F4FEA400808EB0003FA18FD5CC1
:10A9E00053782BB9A04447440B4BBA781A55D8E793
:10A9F000DFF8289007484A464FF40041FCF7F2FF81
:10AA00000028EFD189F80060ECE700BF683500202E
:10AA10007C350020283500208435002004350020B6
:10AA200010B50078FEF774FC03280BD8064B00EB3A
:10AA300040001844407828B1044B1B6813B1BDE8AE
:10AA40001040184710BD00BF683500207C3500203D
:10AA5000B34B1B68DB0700D4704770B5B14EB24DE5
:10AA600033782C78FBB9172C1CD8DFE814F0F100F0
:10AA70001401140163007600830096005D00390024
:10AA80002C0039002C00A300A800A800A800A800F2
:10AA9000A800CE00DE000101460018001800FEF7F5
:10AAA00001FC2C7070BDA14B1B7800203070002B76
:10AAB00000F00581FEF7D4FB0120FEF7D1FB032057
:10AAC000FEF7CEFBCFE7012318463370FEF700FCFC
:10AAD00000224FF480419648BDE87040FCF782BFE9
:10AAE000012318463370FEF7F3FB002240F6CD41F8
:10AAF0008F48BDE87040FCF775BF8C4B1B78002B6E
:10AB000000F0FE800020FEF7ABFB0120FEF7A8FB63
:10AB10000320FEF7A5FB0020FEF796FB0120FEF7C1
:10AB200093FB15232B7070BD0020FEF78DFB0723D0
:10AB30002B7070BD0020FEF779FB002800F0D38059
:10AB40000020FEF78DFB46F2666103232B70002286
:10AB50007748BDE87040FCF745BF0020FEF766FB74
:10AB6000002800F0C5800020FEF77AFB4FF400318A
:10AB70000423EBE70020FEF759FB002800F0BD801E
:10AB80000020FEF76DFB05232B70002241F69A1181
:10AB90006748BDE87040FCF725BF0020FEF798FB32
:10ABA00006232B70002240F6CD416148BDE870407D
:10ABB000FCF718BFFEF776FB0C232B7070BD5D48C9
:10ABC000FCF766FFD4F1110405467BD0002879D14B
:10ABD000012C13D0C82303FB04F44FF4FA704FF494
:10ABE00000430021C3FB04014FF47A72002303F0F9
:10ABF00063FE2A4601464F48FCF7F4FE0220FEF7AA
:10AC000023FB4A4B01221A7070BD484B1B78002B66
:10AC100079D00020FEF724FB0120FEF721FB032062
:10AC2000FEF71EFB12232B7070BD404B1B78002BD0
:10AC30006FD00020FEF714FB0120FEF711FB03206C
:10AC4000FEF70EFB0020FEF7FFFA13232B7070BDFA
:10AC5000364B1B78002B59D00020FEF701FB01205A
:10AC6000FEF7FEFA0320FEF7FBFA00232B7070BDFF
:10AC70002E4B1B78002B4FD00020FEF7F1FA01205D
:10AC8000FEF7EEFA0320FEF7EBFA0120FEF7DCFAFE
:10AC900014232B7070BD0020FEF7C8FAC8B1002045
:10ACA000FEF7DEFA022C4EF2666118BF4FF4003157
:10ACB0002C7000221E48BDE87040FCF793BEFEF7E2
:10ACC000DBFAD0E60220FEF7CBFA184B00221A700E
:10ACD00070BDFEF7B9FA43F2333141F69A13022CF4
:10ACE00008BF1946E4E7FEF7AFFA41F69A112CE7E0
:10ACF000FEF7AAFA43F233313AE7FEF7A5FA42E744
:10AD0000FEF7BAFA07E7FEF7B7FA8BE7FEF7B4FAF1
:10AD1000ABE7FEF7B1FA95E7FEF7AEFAB5E700BF8D
:10AD2000743500207835002080350020053500205E
:10AD30004835002008350020032801D9002070473D
:10AD4000FEF7D8BA38B5C44B1C6814F0010401D121
:10AD5000204638BDC14C23780546E3B9172D00F2D3
:10AD60007881DFE815F00B013101310169007D00C8
:10AD70009100A5005B003500280035002800B300D5
:10AD8000BA00BA00BA00BA00BA00E300F6001C012B
:10AD9000420063006300B24B1B7800202070002B40
:10ADA00000F02781FEF75CFA0120FEF759FA032034
:10ADB000FEF756FAD2E7012318462370FEF788FA09
:10ADC00000224FF48041A748BDE83840FCF70ABE96
:10ADD000012318462370FEF77BFA002240F6CD418E
:10ADE000A048BDE83840FCF7FDBD9D4B1B78002B0B
:10ADF00000F020810020FEF733FA0120FEF730FA40
:10AE00000320FEF72DFA0020FEF71EFA0120FEF7C0
:10AE10001BFA954B15221A70002499E70020FEF7C3
:10AE200013FA914B07221A70002491E7FEF73AFAC1
:10AE30008D4B00241D708BE70020FEF7F7F90028EA
:10AE400000F0E1800020FEF70BFA46F26661864BC7
:10AE5000844803241C700022BDE83840FCF7C2BDC2
:10AE60000020FEF7E3F9002800F0DC800020FEF768
:10AE7000F7F94FF400317C4B7A4804241C7000220F
:10AE8000BDE83840FCF7AEBD0020FEF7CFF9002842
:10AE900000F0CD800020FEF7E3F9734B71480524E4
:10AEA0001C70002241F69A11BDE83840FCF79ABDAB
:10AEB0000020FEF70DFA6C4B6A4806241C70002235
:10AEC00040F6CD41BDE83840FCF78CBDFEF7EAF90D
:10AED000654B0C221A7000243AE76448FCF7D8FD51
:10AEE0000446D5F1110000F08780002C40F08480EA
:10AEF000012814D0C82505FB00F54FF400434FF49A
:10AF0000FA700021C3FB05014FF47A72002303F0AD
:10AF1000D3FC224601465548FCF764FD0446022056
:10AF2000FEF792F94E4B01221A7011E74C4B1B7839
:10AF3000002B00F082800020FEF792F90120FEF73E
:10AF40008FF90320FEF78CF9474B12221A70002468
:10AF5000FEE6434B1B78002B75D00020FEF780F9EE
:10AF60000120FEF77DF90320FEF77AF90020FEF7B5
:10AF70006BF93D4B13221A700024E9E6384B1B781D
:10AF8000002B5DD00020FEF76BF90120FEF768F979
:10AF90000320FEF765F9344B00241C70D8E6304BD3
:10AFA0001B78002B52D00020FEF75AF90120FEF743
:10AFB00057F90320FEF754F90120FEF745F92A4B13
:10AFC00014221A700024C3E60020FEF72FF9F8B10E
:10AFD0000020FEF745F9022D4EF2666118BF4FF4CE
:10AFE0000031214B1F481D700022BDE83840FCF79E
:10AFF000F9BCFEF741F9B1E60220FEF731F9184B32
:10B0000000221A70A4E6FEF71FF941F69A111EE716
:10B01000FEF71AF943F2333141F69A13022D08BFB5
:10B020001946DEE7FEF710F943F2333123E7FEF766
:10B030000BF932E7FEF720F9E5E6FEF71DF983E7A5
:10B04000FEF71AF9A7E7FEF717F98FE7FEF714F9ED
:10B05000B2E700247CE600BF74350020783500207C
:10B0600005350020483500208035002008350020B7
:10B07000F8B5254B254A196081070446106014D5A0
:10B08000234B24480E2111250F27102619705D72BD
:10B0900040F266620421DF709E71FCF70BF90546F1
:10B0A000C0B1E3072AD42846F8BD10F00105FAD054
:10B0B0000120FEF745F9184A18480021FCF780FCEA
:10B0C00005460028EFD1164A16480121BDE8F84090
:10B0D000FCF776BCFCF746F905460028E1D10146AD
:10B0E000114A1248FCF76CFCE2070546DBD501204B
:10B0F000FEF726F9002DDED02846F8BD0120FEF728
:10B100001FF92846F8BD00BF7C35002074350020AB
:10B1100068350020ECF2020051AA020014F302008C
:10B1200075A902000CF3020021AA020010F302002C
:10B13000032801D907207047012A12D0012917D00E
:10B1400008D30229F6D10D4B00EB40000344002048
:10B150005A707047094B00EB4000034400209A707E
:10B160007047012901D00022E8E700F10E02D2B2B7
:10B1700000EB400301490020CA54704768350020A5
:10B18000032801D90620704708B5FEF7D3F88000E0
:10B1900000F1A0430020D3F8002722F44032C3F886
:10B1A0000027D3F8002742F44032C3F8002708BD37
:10B1B00010B50388102B08D0112B05D1264B186829
:10B1C0000138186038B110BD10BD234C216881B121
:10B1D0000131216010BD01220221FFF7A9FF48B310
:10B1E000072827D01D4B1B68002BECD0BDE8104072
:10B1F000184701220846FFF79BFF48B1072807D0F0
:10B20000164B1B6803B1984721680131216010BDBE
:10B21000072202210120FFF78BFF08B10728EFD199
:10B22000042202210020FFF783FF0028ECD007282A
:10B23000E6D1E9E7072202210120FFF779FF08B1F3
:10B240000728CFD1002108460A22FFF771FF002806
:10B25000B9D00728C6D110BD8C3500208835002014
:10B2600008B50020FFF78CFF10B1062800D008BDFC
:10B270000120FFF785FF0028F9D0062808BF00202D
:10B2800008BD00BF194B10B5186031B101200C4644
:10B29000FFF752FD30B102232370154B186848B1F7
:10B2A000002010BDFFF748FDE8B9114B2070186869
:10B2B0000028F5D101220221FFF73AFF08B1072843
:10B2C000EFD1072202210120FFF732FF08B1072842
:10B2D000E7D1002108460A22FFF72AFF0028DFD025
:10B2E0000728DED1DCE70B232370D6E78835002062
:10B2F0008C35002076DF70477ADF70477CDF70473F
:10B300007FDF70478FDF7047B1DF704733DF7047F3
:10B310002DE9F041134B4A881B889A4204460BD012
:10B32000114D2888238862881049000440F00400E9
:10B33000BDE8F041FBF73EBC0A880B4D40F6772391
:10B340009A42EED18E882888094F0A49033EB6B248
:10B350000004334640F0030032463E80FBF72AFCEF
:10B36000DFE700BFD62A0020EC2C00207CF302008F
:10B37000D42A002060F30200FCF70AB810B5038855
:10B38000103B82B00446462B39D8DFE803F04C610D
:10B39000386F38383838383838383838383838240A
:10B3A000383838383838383838383838383838381D
:10B3B0003838383838383838383A3838383838380B
:10B3C00038383838383838383838383838383838FD
:10B3D000423838383A002C4B2C491888000440F089
:10B3E0000400FBF753FA0023A0888DF8043001A96C
:10B3F0008DF80530FFF786FF08B1FBF7C9FF02B0F3
:10B4000010BD80881321FFF775FF0028F5D102B029
:10B4100010BD1F4A0023108819461A46FFF774FF13
:10B420000028ECD0E9E7184B1A491888000440F0CE
:10B430000300FBF72BFA0720FFF784FC00BB144B3B
:10B44000A1881548198001F033FD0028D7D0D4E732
:10B450000D4B12491888000440F00300FBF716FA60
:10B460000B4B4FF6FF721A8002B010BD084A002342
:10B47000108885211A46FFF743FF0028BFD0BCE79C
:10B48000FBF786FFDBE700BFEC2C00204CF302004B
:10B49000D62A002030F30200583700203CF3020087
:10B4A00008B5037803B108BD054B3B211888FFF7A9
:10B4B00021FF0028F7D0BDE80840FBF769BF00BFB7
:10B4C000D62A0020072808B51CD00A280ED0042848
:10B4D00000D008BD154B13211888FFF70BFF30F083
:10B4E0000803F6D0BDE80840FBF752BF0020FFF785
:10B4F00029FCB8B9FFF7B4FE88B9FFF707FF0028A9
:10B50000F0D108BD094B1A884FF6FF739A42E0D17B
:10B51000074801F049F830F00803DAD0E2E7FBF71A
:10B5200037FFEAE7FBF734FFE4E700BFD62A002045
:10B53000883600202DE9F0410378012B82B002D03B
:10B5400007D3022B02D14068FBF722FF02B0BDE80F
:10B55000F081214C214D20782844FCF7D9FB237839
:10B560000133DBB21D44237015F8012C0A2A03D0E5
:10B570001B4A12889A42E9D8DFF874801949B8F852
:10B580000000164E184F194D000440F00400FBF760
:10B590007DF9B8F8000022780004314640F004003C
:10B5A000FBF7EEF92278ADF806203B880DF1060294
:10B5B0003146284601F09EFE082804D01128F1D01B
:10B5C000052800D020B90023237002B0BDE8F08127
:10B5D000FBF7DEFEF7E700BF843600209035002041
:10B5E000D42A002064F40200D62A0020D82A0020A1
:10B5F000EC2C00202DE9F04105780DB1BDE8F0817B
:10B60000DFF88C8020490646B8F80000000440F0BE
:10B610000400FBF73BF9B8F80000B28A3169000476
:10B6200040F00400FBF7ACF9B38A4BB3174F336912
:10B63000585DFCF79DFB044698B9B38A01359D42DD
:10B64000F5D3013B3269D35C0D2BD7D10A20FCF72F
:10B650008FFB1128D2D10A20FCF78AFB1128F5D0E4
:10B66000CCE7112802463946E1D0B8F800000004C2
:10B6700040F00100FBF724FA2046FBF789FEDCE7E7
:10B680004FF0FF33DEE700BF04F4020038F402009D
:10B69000EC2C0020FBF77CBE08B530B1032803D1A9
:10B6A0000220FFF74FFB50B908BDFFF74BFB50B925
:10B6B000FFF7D6FD50B9FFF729FE0028F4D0BDE80A
:10B6C0000840FBF765BEFBF763FEF1E7FBF760FEA2
:10B6D000F1E700BF08B50949094801F039FA48B94E
:10B6E000F721074801F04CFA00B908BDBDE8084051
:10B6F000FBF74EBEFBF74CFEF2E700BF11B30200B2
:10B700004037002080B5974D974BB0B005AC019302
:10B710000FCD0FC495E80300944A954D039584E836
:10B72000030007234FF4807401A905A80294049430
:10B73000FCF774FA002840F0DE804FF4004100204E
:10B74000FAF70CFF002840F0E0808A4CFAF78CFEF4
:10B7500020888949000440F00300FBF797F8FCF7C4
:10B76000DBF8002840F0FB8084490320FFF780FCD1
:10B77000002840F0F18005A90020FFF783FD002894
:10B7800040F0E780FDF7CAFA002840F0DF8001F0C2
:10B79000E9FD002840F0D780002305A9012005938A
:10B7A00001F03CFF002840F0CB8005A802F00AF829
:10B7B000002840F0C2809DF804307148012262F3F5
:10B7C000030362F307138DF8043002F0FDF86C49AF
:10B7D00082B201A8FFF792FD002840F0AB8008225A
:10B7E000002105A802F0C7F8664B059305A84FF0A5
:10B7F000C8730693FFF780FD002840F09880FFF79C
:10B8000069FF614B6148059305A901F03FFB0028E2
:10B8100040F08A80042200210DEB020002F0ABF818
:10B820005B4B5C48019301A901F070FC002878D1C2
:10B83000AC22002105A802F09EF802250020052177
:10B840000123554F554A8DF8145040268DF81600A7
:10B8500044F250658DF817105148ADF8603005A9D5
:10B860008DF890301997279628952E9200F09CFD20
:10B87000002853D101214A4800F092FD1C220021EA
:10B8800005A802F078F84FF4203700234FF4702613
:10B8900003254449444A059305A8ADF822308DF8A4
:10B8A0002430069707968DF820500A910B9200F0ED
:10B8B000DFFF80BB3D4802F067F820882E49000476
:10B8C00040F00300FAF7E2FF0321354800F0E4FD01
:10B8D000F0B9374D05A8FCF71BFA20889DF8142015
:10B8E0000004294640F00300FBF7EAF8FAF7A0FE4F
:10B8F000FDF72AFAEEE7FBF74BFD4FF4004100207D
:10B90000FAF72CFE00283FF420AFFBF741FD1CE7BF
:10B91000FBF73EFDDDE7FBF73BFDCBE7FBF738FD33
:10B92000A8E7FBF735FD83E7FBF732FD72E7FBF78E
:10B930002FFD64E7FBF72CFD51E7FBF729FD3AE704
:10B94000FBF726FD31E7FBF723FD25E7FBF720FD9D
:10B950001DE7FBF71DFD15E7FBF71AFD0BE7FBF7EE
:10B9600017FD01E718F302006437002035B5020027
:10B9700064380020EC2C0020B8F30200C5B40200AB
:10B98000E4F3020010003C0095B602005837002096
:10B99000F5B50200D82A0020D02A002099B602006E
:10B9A00088360020A1B4020079B30200F0F302004F
:10B9B00054EC02002DE9F84F4400DFF87CA1261872
:10B9C0000AEBC6068146D6F82C80B8F1010F8B46EB
:10B9D000174661D038D3B8F1020F30D100F1010918
:10B9E00009EB4909756A4FEAC9094FF000081CE0E4
:10B9F000326A641BBC420AEB09012346A2EB050430
:10BA000028BF3B469C42486828BF1C4628445946EC
:10BA1000224601F0A5FF336A25449D4208BF002558
:10BA20003F1BA044A34475620BD0B36AAB4203F141
:10BA3000FF34DDD8326A1344013B5C1BDAE74FF078
:10BA400000084046BDE8F88FB36A756AAB429CBFF8
:10BA5000326A9B18013B5B1B9F42F2D804440AEBFD
:10BA6000C40400F10109266A761B09EB4909B742B3
:10BA70000AEBC90A56D3DAF8040032462844BD1B43
:10BA800001F06EFFDAF804000BEB06012A4601F024
:10BA900067FFB8466562D4E7B36A756AAB4226D9D8
:10BAA00003F1FF38366AA8EB0508B84528BFB84649
:10BAB000761BB04523D309F1010707EB47070AEBD3
:10BAC000C707A14478683246594628440AEBC90A98
:10BAD000A8EB060501F044FF78680BEB06012A4647
